S0140000416E616C6F675F626F6172642E7372656357
S11300000C9446000C9463000C9463000C946300FD
S11300100C9463000C9463000C9463000C946300D0
S11300200C9463000C9463000C9463000C946300C0
S11300300C9463000C9463000C9463000C944B11B7
S11300400C9463000C9463000C949B060C94630062
S11300500C9463000C9463000C9463000C940404EB
S11300600C9463000C9463000C946D0E0C94FE12BB
S11300700C9463000C9463000C94630044726976DE
S11300806573204443206D6F746F720011241FBE8A
S1130090CFEFD4E0DEBFCDBF12E0A0E0B1E0E2E2FA
S11300A0F7E302C005900D92A831B107D9F713E028
S11300B0A8E1B2E001C01D92A83FB107E1F70E9498
S11300C0B9000C948F1B0C940000809118028823B3
S11300D011F00E94F51283E291E060916F030E9497
S11300E0B909609334037093350380933603909376
S11300F037038091EE03809339038091EF0380935B
S11301003A038091F00380933B038091F103809341
S11301103C038091F20380933D0380913803807EF9
S11301208A608093380380E064E373E00E9475077B
S11301300895F8940E94FD100E944C0D60E472E44E
S11301408FE090E00E94C5100E94F51283E00E94A7
S1130150C2070E94AC080E9475038AEC90E00E94DA
S11301609B0486E592E00E94E90978940E940911B3
S113017008950E9499008091F20380FD07C084E0F5
S11301800E94B70D8091F20380FFF9CF84E00E94B2
S1130190B00DF1CF0895EF92FF920F931F93DF9369
S11301A0CF930F92CDB7DEB77C01162F072F80EACD
S11301B090E060916F0349830E94B909DC01CB018F
S11301C0F70180839183A283B383498145830683A6
S11301D017838481807E866084830F90CF91DF9122
S11301E01F910F91FF90EF900895DF92EF92FF928D
S11301F00F931F93CF93DF93EC01D62E8A017901DD
S113020080EA90E060916F030E94B9096883798362
S11302108A839B83DD821E830F830E191F0918872F
S113022009878C81807E8A608C83DF91CF911F91B6
S11302300F91FF90EF90DF9008952F923F924F928D
S11302405F926F927F929F92AF92BF92CF92DF9212
S1130250EF92FF920F931F93CF93DF9363E0662E89
S1130260712CAA24BB2451E0452E512C40E1242EAC
S1130270312CC2010A2C02C0880F991F0A94E2F79C
S11302802091EE03282309F44CC0C1010A2C02C0BA
S1130290880F991F0A94E2F7982EC301880F991FBB
S11302A08C010E5C1D4F22EBE22E22E0F22EE80EB2
S11302B0F91E6801C3E0D0E01CC0F80140815181FF
S11302C0F7012081318189E192E06C2F0E94F500D1
S11302D080E069E172E00E94750721960E5F1F4F6E
S11302E082E090E0E80EF91EC80ED91EC930D1058F
S11302F0C1F060E573EC80E090E00E94C51080914D
S1130300EE038921D1F6F6016081718189E192E0E1
S11303104C2F0E94CB0080E069E172E00E947507D7
S1130320DCCF0894A11CB11CE0E1F0E06E0E7F1E4E
S1130330F4E0AF16B10409F09CCFDF91CF911F9187
S11303400F91FF90EF90DF90CF90BF90AF909F9070
S11303507F906F905F904F903F902F900895E82F7B
S1130360F0E020E130E002C0220F331F8A95E2F76B
S11303708091EE038223E9F4CF0182959295907FD8
S11303809827807F9827FC01E60FF11DEE0FFF1FD1
S1130390EE5CFD4F20813181462F482B89E192E0AC
S11303A0B9010E94CB0080E069E172E00E94750708
S11303B00895CF0182959295907F9827807F982702
S11303C0860F911D880F991FDC01AE5CBD4F4D91C6
S11303D05C91DC01AE54BD4F2D913C9189E192E0DA
S11303E00E94F50080E069E172E00E9475070895BB
S11303F08091EE038F7009F4089582E00E94B00D9D
S113040080912902609128020E94AF0182E00E943B
S1130410B00D809128028F5F80932802803160F3B1
S113042010922802909129025091EE0321E030E0CD
S11304300AC0C901042E02C0880F991F0A94E2F76A
S1130440942F852349F4492F4F5F443090F340E0C3
S113045081E090E08523B9F340932902089580EA6E
S113046090E060916F030E94B90960933403709324
S11304703503809336039093370380EA80933903DE
S113048085E580933A0391EA90933B0380933C0380
S113049080913803807E886080933803089581E0DA
S11304A08093EE0381E88093EF03089508950E94FA
S11304B09B1208950E94F51208958091EF0390E035
S11304C0807F90708032910591F08132910544F0E3
S11304D08034910551F08038910529F484E1089520
S11304E08031910531F08FEF08958AE0089584E01A
S11304F0089582E008959091EF03907F81E009F4DC
S113050080E00895E8E6F0E08081826080830895C9
S1130510E8E6F0E080818D7F80830895813059F092
S1130520813028F0823049F0833019F008952B98F7
S113053008952E9808952C9808952D980895813043
S113054059F0813028F0823049F0833019F0089551
S11305502B9A08952E9A08952C9A08952D9A089509
S1130560CF93C82F0E948E0280E10E94F50E8C2F3B
S11305700E949F02CF91089580E00E94B00281E022
S11305800E94B00282E00E94B00283E00E94B002A6
S113059008959F92AF92BF92CF92DF92EF92FF9213
S11305A00F931F93CF93DF93B82E082F10E0000F03
S11305B0111F02951295107F1027007F102792EBD0
S11305C0E92E92E0F92EE00EF11E0E5C1D4FC0E103
S11305D0D0E08B2D0E948E0280E00E94F50E982EB2
S11305E08B2D0E949F028B2D0E948E0280E00E9420
S11305F0F50EA82E8B2D0E949F02D92CCC24960197
S11306002A0D311DF80140815181F7014193519325
S11306107F013695279536952795F80121933193D7
S11306208F012197B1F6DF91CF911F910F91FF9028
S1130630EF90DF90CF90BF90AF909F9008951F935D
S1130640DF93CF930F92CDB7DEB7182F69830E9443
S11306508E026981862F880F880F880F80680E9418
S1130660F50E812F0E949F02143080F4E12FF0E0F8
S1130670EE5FFE4F908188B18923E9F7812F0E94B4
S1130680C9020F90CF91DF911F91089590E1F3CFAC
S1130690CF93C82F0E948E0288E60E94F50E8C2FFD
S11306A00E949F02CF910895CF93C82F0E948E027B
S11306B080E20E94F50E8C2F0E949F02CF91089534
S11306C0CF93DF93C0E0D0E08C2F60E00E941F0343
S11306D08C2F0E9448038C2F0E9454032196C4300F
S11306E0D10591F7DF91CF91089580E061E040E07A
S11306F020E00E94C20E84B1886784B9279A2098AA
S1130700289A87B18F7087B90E94BC020E94600347
S113071008951F93DF93CF930F92CDB7DEB7182FB1
S113072069830E948E026981862F80630E94F50E80
S1130730812F0E949F020F90CF91DF911F91089506
S11307401F93CF93DF93C82F0E948E0280E00E94F4
S1130750F50E182F80E00E94F50ED82F8C2F0E94E2
S11307609F02512F40E02D2F30E0242B352B36955E
S1130770279536952795C901DF91CF911F9108954B
S11307806FE00E941F0308950F931F93CF93DF938D
S1130790C0E0D0E001E010E0C8010C2E02C0880FD8
S11307A0991F0A94E2F72091EE03282349F4219635
S11307B0C430D10589F7DF91CF911F910F9108952E
S11307C08C2F0E94C003F3CF0F931F93CF93DF931B
S11307D0082F10E0000F111F02951295107F1027AB
S11307E0007F10270E5C1D4FC0E1D0E080E00E9426
S11307F0A003F801819391938F012197B9F7DF91B9
S1130800CF911F910F9108951F920F920FB60F92DF
S113081011242F933F934F935F936F937F938F9301
S11308209F93AF93BF93EF93FF93349B1AC0359B71
S11308301DC0369B20C0379903C083E00E94C902C3
S1130840FF91EF91BF91AF919F918F917F916F91A4
S11308505F914F913F912F910F900FBE0F901F907A
S1130860189580E00E94C9023599E3CF81E00E9487
S1130870C9023699E0CF82E00E94C902DCCF0E940F
S11308807B02882361F0809100019091010101971E
S11308909093010180930001181619060CF4089531
S11308A00E945D0280930001109201010E94C40322
S11308B008952091E8033091E903C9016AE070E0EA
S11308C00E948C1A009741F1C90164E170E00E9412
S11308D08C1A0097D1F0C90164E670E00E948C1A6A
S11308E0009709F008950E94650080913203909169
S11308F033030097C1F483E00E94B70D81E090E0D8
S1130900909333038093320308950E94F801209159
S1130910E8033091E903DFCF0E943F042091E8030C
S11309203091E903D1CF83E00E94B00D10923303DC
S113093010923203089590936C0380936B0308958F
S113094090936E0380936D030895CF93DF93EDEE40
S1130950F0E020818295807F8083C1EFD0E03881F0
S1130960CB01807E907096958795929582958F7035
S113097089279F708927387F382BA0EFB0E08C91AE
S1130980660F660F660F8770682B38836C93A5EF2C
S1130990B0E08C9187608C93A4EFB0E08C91886F69
S11309A08C932083DF91CF910895EDEEF0E0908158
S11309B08295807F8083A5EFB0E08C91887F8C93B3
S11309C0A4EFB0E08C9187708C9390830895252FC9
S11309D0362FEDEEF0E050818295807F8083862F64
S11309E0829586958770440F440F440F482BC901A4
S11309F0807E9F7196958795929582958F708927B1
S1130A009F708927220F220F220F372F3295369598
S1130A103770232B770F770F770F4093F300809372
S1130A20F2002093F1007093F00050830895FF9238
S1130A300F931F93CF93DF93F82E8B01CA0160E0CD
S1130A400E94B909C72FD82FC80160E00E94B909D4
S1130A50272F382FEDEEF0E00081F294B0EFFB2267
S1130A60F08243EF50E0DA016C918D2F82958695E8
S1130A708770687F682BCE01807E9F7196958795DD
S1130A80929582958F7089279F708927A1EFB0E096
S1130A907C91FC2EFF0CFF0CFF0C7770F72AEA0107
S1130AA068838093F200FC92C7EFD0E04881832FE3
S1130AB0829586958770487F482BC901807E9F71F7
S1130AC096958795929582958F7089279F7089272F
S1130AD0A5EFB0E05C91220F220F220F5770252B57
S1130AE048838093F6002C930083DF91CF911F916C
S1130AF00F91FF900895EDEEF0E090818295807F54
S1130B008083A7EFB0E08C91887F8C93A6EFB0E050
S1130B108C911C92A5EFB0E08C9187708C9390839C
S1130B200895EDEEF0E090818295807F808360935C
S1130B30F7007093F6004093F5005093F40090830F
S1130B400895EDEEF0E090818295807F808360933C
S1130B50F7007093F6004093F5005093F4009083EF
S1130B6008951F93CF93DF93EDEEF0E01081382FBB
S1130B703295307F3083CEEDD0E09881A1E0B0E0B3
S1130B8002C0AA0FBB1F8A95E2F79A2B9883808133
S1130B9030836093F7007093F6004093F500509310
S1130BA0F400808320692093EF00A8EDB0E08C91DD
S1130BB082608C931083DF91CF911F910895EF92FF
S1130BC0FF920F931F93CF93DF9381E060E070E077
S1130BD040E050E028E00E94B10560916F0381E09D
S1130BE070E00E94A50483E060E070E040E050E023
S1130BF028E00E94B105CDEED0E0988180E388839F
S1130C0005EF10E0F8018081887F808384EFE82E6F
S1130C10F12CF701808187708083988383E063E2FD
S1130C207CEF43E25CEF0E94170585E060E070E032
S1130C3040E050E028E00E94B105988180E5888377
S1130C40F8018081887F8083F701808187708083A9
S1130C50988385E060E07CEF40E05CEF0E9417053C
S1130C60DF91CF911F910F91FF90EF900895EDEEDA
S1130C70F0E090818295807F80831092EF00109243
S1130C80EE0090830895FC014091F30050E0209120
S1130C90F2008091F10090E0A091F000BA01769505
S1130CA067957695679576956795608330E0220F12
S1130CB0331F22953295307F3227207F3227542FDD
S1130CC044275295550F507E242B352BAC01569555
S1130CD047955695479556954795242B352B328342
S1130CE021838295880F807EA695A695A695A82B2C
S1130CF0A3830895CF93DF93EC010E944306809170
S1130D00EF008F70282F220F9C81917E922B9C8361
S1130D10482F50E04115510559F0259620E030E068
S1130D209091FA0099932F5F3F4F24173507C4F32E
S1130D30DF91CF9108951F920F920FB60F92112455
S1130D402F933F934F935F936F937F938F939F93CF
S1130D50AF93BF93CF93EF93FF93C091ED00409176
S1130D60EC0042954F704F3009F487C08091EC003D
S1130D70807F8093ED008091EE0090E08F71907001
S1130D80009709F440C08091EE0090E082FF05C016
S1130D902091EE002F7E2093EE009C012370307092
S1130DA02115310529F02091EE00277F2093EE00D4
S1130DB081FF05C02091EE002B7F2093EE0080FF81
S1130DC005C08091EE008D7F8093EE00453009F4DC
S1130DD04BC0413009F448C0433009F445C0C093C6
S1130DE0ED00FF91EF91CF91BF91AF919F918F91C2
S1130DF07F916F915F914F913F912F910F900FBE13
S1130E000F901F9018958091EE0085FD13C080917E
S1130E10EE0086FFE4CFE0916D03F0916E0330970E
S1130E2009F0099581E0809362031092EF0010921B
S1130E30EE00D5CF81E08093610382E593E00E94C8
S1130E407A0682E593E00E942A0B882369F482E5FE
S1130E5093E00E94FB0CE0916B03F0916C033097DC
S1130E6019F082E593E0099588E98093EF00809179
S1130E70EE008F7D8093EE00B2CF8091DA008093F4
S1130E80DA00AFCFCF93DF93EB01982F9295907F49
S1130E90F8949093ED001092EE00488159816A8194
S1130EA07B810E94E7048C8186958F7079F0FE0126
S1130EB0359680E090E021912093FA0001962C81F0
S1130EC026952F7030E082179307ACF38091F000E1
S1130ED08B7F8093F0008C8186958F7080658093E2
S1130EE0EF007894DF91CF9108950E94420780919A
S1130EF0EE0086FFFCCF08952091F80030E0409189
S1130F00F900942F80E0282B392BC9010895CF9341
S1130F10DF93EC010E947A068F70880F9C81917E8A
S1130F20982B9C838091F80090E04091F900342F35
S1130F3020E0822B932B9E878D87DF91CF9108959C
S1130F40833061F0843030F08530D1F0853080F426
S1130F5082E105C0813091F0823071F08EE080939F
S1130F60E20084E08093E30083E18093E400089549
S1130F708630A1F786E2F3CF86E0F1CF82E0EFCFAF
S1130F808EE1EDCF91E09093D8001092E50090E0CF
S1130F90292F2295207F2093ED001092EF001092CC
S1130FA0EE009F5F9630A1F790EA9093DB000E94D9
S1130FB0A0070E94DF058091D90082FFFCCF08952D
S1130FC0882351F482E08093E20084E08093E3007C
S1130FD083E18093E40008951092E2008CE0809312
S1130FE0E30086E38093E4000895882351F486E0C7
S1130FF08093E20084E08093E30083E18093E40043
S1131000089582E08093E2008CE08093E30087E31C
S11310108093E4000895882351F48EE08093E200E5
S113102084E08093E30083E18093E400089586E004
S11310308093E2008CE08093E30087E38093E400F4
S11310400895882351F482E18093E20084E0809340
S1131050E30083E18093E400089588E08093E20054
S11310608CE08093E30087E38093E4000895882371
S113107051F48EE18093E20084E08093E30083E105
S11310808093E40008958EE08093E2008CE08093E6
S1131090E30087E38093E4000895882351F486E213
S11310A08093E20084E08093E30083E18093E40092
S11310B0089582E18093E2008CE08093E30087E36B
S11310C08093E400089583E980937A00EEE7F0E0EA
S11310D080818860808380E880937B00089556989F
S11310E040E050E020E030E0E3E4E0937C008091D5
S11310F07A00806480937A0080917A0086FDFCCF28
S11311008091780090E081709070BA016F70707077
S113111002C0880F991F6A95E2F7282B392B80911A
S113112079004F5F5F4F40315105F9F6569AC90176
S1131130089583E060E070E040E050E028E00E9421
S1131140B10583E00E94D50483E063E27CEF43E2CF
S11311505CEF0E941705089583E980937A008091DB
S11311607E00886080937E0080E880937B000E94EC
S11311706F0890E0909373038093720380937403D9
S11311800E943C1380917003882351F082E0809385
S1131190700382E88093770381E08093710308955C
S11311A081E0809377030E94990810926F038091E5
S11311B0770380688093770381E0809371030895B7
S11311C0CF93DF93EC0183E29CEF0E94B90968831B
S11311D079838A839B8380916F038D8380917003CD
S11311E08E83809174038F838091770388878091A5
S11311F0780389878091F2038A878C81807E8E6050
S11312008C83DF91CF91089581E08093780340919E
S11312107003413059F180917103882339F1809131
S11312207203909173039C012150304030937303F7
S1131230209372030097D1F481E090E090937303BC
S11312408093720382E080937803442391F04230C8
S113125009F45AC0403239F1403809F447C04034E7
S113126031F080917803806880937803089586E84C
S1131270FBCF83E08093780380E28093700383E460
S113128093E0609174030E94E00880E063E473E0FB
S11312900E9442078CE291E0909376038093750359
S11312A040917003D4CF84E080937803F894209124
S11312B0ED001092ED008091EE0086FF03C080E8FF
S11312C080937003809175039091760301979093B6
S11312D0760380937503009719F484E08093700378
S11312E02093ED00789440917003B6CF85E080930D
S11312F0780381E080937003F8940E949B127894A1
S1131300809178038068B0CF87E08093780381E090
S11313108093700383E493E060916F030E94E0087C
S113132080E063E473E00E9442074091700392CF2F
S1131330CF93DF93EC0184E29CEF60916F030E94F2
S1131340B909688379838A839B8380916F038D8332
S11313508C81807E82608C83DF91CF910895FC0123
S1131360858190916F03891718F08F5F80936F03C5
S11313700895262F60E0782F892F922F0895382F13
S1131380262F872F942F632F722F0895862F089569
S1131390872F0895892F90E00895E1E0621773077D
S11313A08407950709F0E0E08E2F089581E0621329
S11313B080E00895932F272F382F692F742F81E011
S11313C02617370709F080E0089581E0491380E08B
S11313D0089590937F0380937E030895CF93DF93C2
S11313E0EC0181E19CEF60916F030E94B90968836D
S11313F079838A839B8383E08D8380916F038E83BB
S1131400809179038F8380917A0388878C81807E91
S113141088608C83DF91CF910895CF93DF93EC01A3
S113142082E19CEF60916F030E94B909688379831C
S11314308A839B8383E08D8381E48E8381E08F8321
S11314409FE0988789871A868C81807E8C608C8344
S1131450DF91CF910895CF93DF93EC0183E19CEF6B
S113146060916F030E94B909688379838A839B839F
S113147083E08D8386E58E8388E78F838CE9888774
S11314808EED89878C81807E8A608C83DF91CF91F9
S11314900895CF93DF93EC0184E19CEF60916F0397
S11314A00E94B909688379838A839B8380917B0333
S11314B08D8390E0DE0116969C01285F3F4FFC016E
S11314C0E458FF4FE491ED93019682179307B9F71F
S11314D08C81807E82618C83DF91CF91089580918D
S11314E080038130D9F0813028F0823009F18330D3
S11314F059F0089583E493E00E94EE0982E063E4E6
S113150073E00E944207089583E493E00E94490A2D
S113151082E063E473E00E944207089583E493E069
S11315200E940D0A82E063E473E00E94420708957A
S113153083E493E00E942B0A82E063E473E00E9458
S11315404207089580917C0380FD59C081FD4CC001
S113155082FD35C083FD26C084FD1AC085FF0DC001
S113156080910701909108019C01215030403093F3
S1131570080120930701009709F00895F8940E9448
S11315806F0A80917C038F7D80937C037894089507
S1131590F8940E94570280917C038F7E80937C0391
S11315A07894DCCFF8940E949B1284E00E94B00DE2
S11315B080917C03877F80937C037894CDCFF894CB
S11315C00E94F51283E493E060916F030E94E008A7
S11315D080E063E473E00E94420780917C038B7F88
S11315E080937C037894B6CF82E063E473E00E9436
S11315F0420780917C038D7F80937C03A9CF80E098
S113160064E373E00E94420780917C038E7F8093A1
S11316107C039CCFCF93DF93EC0187E29CEF609136
S11316206F030E94B909688379838A839B838091BD
S1131630EE038D838091EF038E838091F0038F837B
S11316408091F10388878C81807E88608C83DF9110
S1131650CF910895CF93DF93EC0185E190E0609101
S11316606F030E94B9099B01AC01688179818A8169
S11316709B810E94CD09882339F0CE010E941C0E63
S113168081E0DF91CF91089585E190E06FEF0E94B2
S1131690B9099B01AC01688179818A819B810E948F
S11316A0CD09882351F780E19CEF60E00E94B909DD
S11316B09B01AC01688179818A819B810E94DA094E
S11316C0882391F080917C03806280937C038D81D8
S11316D08093800380916F03809307011092080127
S11316E081E0DF91CF91089582E29CEF60916F03D6
S11316F00E94B9099B01AC01688179818A819B812F
S11317000E94CD098823F1F08D8184FF14C084E305
S113171093E00E940A0B81E080937C03E0917E03B6
S1131720F0917F03309719F18D818F70099581E0D5
S1131730DF91CF910895CE010E94BA1188E0809381
S11317407C03ECCF81E29CEF60916F030E94B909A6
S11317509B01AC01688179818A819B810E94CD09BA
S1131760882339F088E080937C0381E08ACF81E08C
S113177088CF81E29CEF6FEF0E94B9099B01AC0115
S1131780688179818A819B810E94CD09882351F7E0
S113179085E29CEF60916F030E94B9099B01AC0143
S11317A0688179818A819B810E94CD09882349F5CA
S11317B086E29CEF60916F030E94B9099B01AC0122
S11317C0688179818A819B810E94CD09882379F17E
S11317D08C818E71843059F63D8120E08E8190E0B9
S11317E0822B932B22E18433920709F685E58093BB
S11317F0770310927103109270030E94AC0881E089
S113180040CF81E0809370038D8180936F0380913A
S11318107C03886080937C0381E00E94D5046091FE
S11318206F0381E070E00E94A50481E02ACF86E284
S11318309CEF6FEF0E94B9099B01AC01688179812B
S11318408A819B810E94CD09882311F683E29CEF53
S113185060E00E94B9099B01AC01688179818A81A9
S11318609B810E94DA09882309F40BCF9D81809122
S11318706F03981709F07BCF80917003803241F099
S1131880882309F074CFCE010E94AF0981E0F9CE1C
S11318909091ED0080E38093ED008091EF008F73D1
S11318A08093EF009093ED0010927003CE010E949C
S11318B0AF0981E0E6CEEF92FF920F931F93CF938F
S11318C0DF937B018C01C0E0D0E0CE01880F991F2B
S11318D08C0F9D1FFC01EE0FFF1FEE0FFF1FE80F83
S11318E0F91FEF57FC4F2081318142815381C80198
S11318F0B7010E94DA09882361F42196C630D10524
S113190021F78FEFDF91CF911F910F91FF90EF900F
S113191008958C2FDF91CF911F910F91FF90EF903D
S11319200895282F392FD901862F972FFC018FE096
S113193001900D928150E1F70895BC018091DB0381
S113194090E09C01220F331F280F391FC901880F13
S1131950991F880F991F820F931F8F579C4F0E94C6
S1131960910C8091DB038F5F8093DB03863010F052
S11319701092DB030895CF93DF93EC0168817981A2
S11319808A819B810E945B0C8F3FA9F090E09C01AF
S1131990220F331F280F391FC901880F991F880F81
S11319A0991F820F931F8F579C4FBE010E94910C69
S11319B0DF91CF9108958091DB0390E09C01220F89
S11319C0331F280F391FC901880F991F880F991FCA
S11319D0820F931F8F579C4FBE010E94910C8091E0
S11319E0DB038F5F8093DB03863010F31092DB03FD
S11319F0DF91CF9108952091F10321FD03C00E944E
S1131A00BB0C08950E949D0C08958091F10381FF01
S1131A101BC02091DC038091DB032817C9F0822FBF
S1131A208F5F8093DC0330E0C901880F991F820F18
S1131A30931F9C01220F331F220F331F280F391FBE
S1131A402F573C4FC901089520E030E0C9010895A3
S1131A501092DC031092DB0320E030E0F3CF90E03F
S1131A60AC01440F551F480F591F9A01220F331F11
S1131A70220F331F240F351F2F573C4FC9010895E0
S1131A800E94050D009721F05D9A2091F10321FF3A
S1131A9008950E94CA0008951092DE031092DD0397
S1131AA0569A559A579A519A5E985D985F985998A4
S1131AB00895823069F0833028F0833059F08430FF
S1131AC029F008958130E9F75E9A0895599A0895A6
S1131AD05D9A08955F9A0895823069F0833028F002
S1131AE0833059F0843029F008958130E9F75E9805
S1131AF00895599808955D9808955F980895909170
S1131B00DE03992321F0923011F080E00895909142
S1131B100C01292F215020930C019923B1F79AE04D
S1131B2090930C01882379F080910B010E94590D48
S1131B3080910B018F5F80930B01853078F081E0F9
S1131B4080930B01089580910B010E946C0D80918C
S1131B500B018F5F80930B01853088F780E0089537
S1131B609091DE03911108950E94590D089590916A
S1131B70DE03911108950E946C0D0895662319F4F3
S1131B800E94B70D08950E94B00D08959091DE0350
S1131B90911108950E94BE0D0895662369F087FF90
S1131BA020C0599A86FF20C05F9A85FF20C05D9AA5
S1131BB084FD0DC05E98089583FF0BC0599A82FF7F
S1131BC00BC05F9A81FF0BC05D9A80FFF3CF5E9AD2
S1131BD00895599882FDF5CF5F9881FDF5CF5D9802
S1131BE0F4CF599886FDE0CF5F9885FDE0CF5D98EE
S1131BF0DFCF9091DE03992311F08091DD030E94E1
S1131C00CD0D08959091DE03992319F0933009F0D6
S1131C10089590910901992359F460E00E94CD0D33
S1131C2081E090910901911180E080930901089568
S1131C3061E00E94CD0DF4CFFC0195819F709093DB
S1131C40DE0386818F708093DD03923081F09330C0
S1131C5039F0913009F0089560E00E94F90D08957B
S1131C6080916F038093DD030E94020E08950E9409
S1131C707F0D08958091DE038230D9F0833049F0DE
S1131C80813009F008958091DD0360E00E94F90D30
S1131C90089580910A01982F915090930A01882306
S1131CA089F78AE080930A0180916F030E94020EF3
S1131CB008958091DD030E947F0D813019F7909182
S1131CC0DD03992319F48093DD03089580E0FBCFAD
S1131CD09093E1038093E00308951F920F920FB64F
S1131CE00F9211248F938DB58F778DBD8F910F90A7
S1131CF00FBE0F901F9018950DB407FEFDCF8EB543
S1131D000895813021F08CB58F7D8CBD08958CB5FC
S1131D1080628CBD08959CB5937F982B9CBD0895DB
S1131D202CB5982F93702C7F922B9CBD2DB590E0F1
S1131D30959587959595879581702E7F822B8DBD7E
S1131D400895882359F085B7806885BF662371F0AC
S1131D5052988AB188618AB938980895662361F4E3
S1131D60209A84B18D7784B953980895529A8AB190
S1131D70877E8AB938980895209884B1826884B996
S1131D80539A08951F93DF93CF9300D0CDB7DEB756
S1131D90162F2A8349830E94A10E8CB5837F2A8142
S1131DA0822B8CBD49814130A1F08CB58F7D8CBDD7
S1131DB01123A1F48CB58F7E8CBD8CB580688CBD4D
S1131DC08CB580648CBD0F900F90CF91DF911F91E3
S1131DD008958CB580628CBD112361F38CB580614C
S1131DE08CBD82E00E94900EEBCF8EBD8DB5807CC1
S1131DF0E9F38EB508958CB580688CBD08958CB5D3
S1131E008F778CBD08952FB7F894909389008093B1
S1131E1088002FBF08952FB7F89490938B00809378
S1131E208A002FBF0895EF92FF920F931F937B01B7
S1131E308C0120910D0130E040E050E060E074E25C
S1131E4084EF90E00E949F1ACA01B9010E946517AD
S1131E50A80197010E9427160E945913CB011F91D4
S1131E600F91FF90EF90089590930F0180930E01CE
S1131E70909387008093860008950F931F93CF93C8
S1131E80DF939B01AC0160E074E284E79BE40E9471
S1131E9027168B01D82FC92F9E01712F832F922FC4
S1131EA020E03FEF4FE757E40E94D51618160CF0D8
S1131EB041C09E01602F712F832F922F20E030E0CC
S1131EC040E05EE30E942D1520E03FEF4FE757E42A
S1131ED00E94D5161816B4F59E01602F712F832F1A
S1131EE0922F20E030E040E85CE30E942D1520E0D2
S1131EF03FEF4FE757E40E94D51618164CF59E01A4
S1131F00602F712F832F922F20E030E040E85BE3B5
S1131F100E942D1520E03FEF4FE757E40E94D516AD
S1131F2018169CF420E034E0C901DF91CF911F9191
S1131F300F91089521E030E0C901DF91CF911F9105
S1131F400F91089528E030E0EFCF20E031E0ECCFAE
S1131F5020E430E0E9CF80349105D9F08134910553
S1131F6050F021E08030920781F024E08030920725
S1131F7051F08FEF08958130910549F08830910533
S1131F80C1F782E0089585E0089584E0089581E032
S1131F90089583E00895EF92FF920F931F937B01BE
S1131FA08C0120910D0130E040E050E060E074E2EB
S1131FB084EF90E00E949F1ACA01B9010E9465173C
S1131FC0A80197010E9427160E94591370930F01CC
S1131FD060930E0170938700609386001F910F91A8
S1131FE0FF90EF900895EF92FF920F931F93CF937A
S1131FF0DF937B018C01C42FD22F4111529AD1114E
S1132000399A80916400877E809364008FB7F89436
S113201010928900109288008FBF8FB7F8941092A5
S11320208B0010928A008FBF20910D0130E040E0B8
S113203050E060E074E284EF90E00E949F1ACA01CD
S1132040B9010E946517A80197010E9427160E94F2
S1132050591370930F0160930E017093870060937E
S11320608600CC23C1F482E0D11180628093800089
S1132070C801B7010E943D0F80930D0190E00E94BA
S1132080AB0F886180938100DF91CF911F910F91F5
S1132090FF90EF90089582E8E7CF90918000292F78
S11320A02068882321F4906C909380000895922FE7
S11320B09F7B90938000089590918000292F206247
S11320C0882321F49063909380000895922F9F7E3B
S11320D0909380000895EF92FF920F931F937B01DA
S11320E08C0120E030E0A9010E94351787FF04C06D
S11320F017FB109517F9109560910E0170910F015F
S113210080E090E00E941718A80197010E942D1505
S11321100E94131B0E9459138FB7F894709389007F
S1132120609388008FBF1F910F91FF90EF900895E7
S1132130EF92FF920F931F937B018C0120E030E01C
S1132140A9010E94351787FF04C017FB109517F9E2
S1132150109560910E0170910F0180E090E00E9453
S11321601718A80197010E942D150E94131B0E94A5
S113217059138FB7F89470938B0060938A008FBFC4
S11321801F910F91FF90EF9008959B01AC01109265
S1132190E2031092E3031092E4031092E5038091AA
S11321A0E2039091E303A091E403B091E503821765
S11321B09307A407B50704F58091E2039091E30324
S11321C0A091E403B091E5030196A11DB11D809394
S11321D0E2039093E303A093E403B093E5038091B7
S11321E0E2039091E303A091E403B091E503821725
S11321F09307A407B50704F308958FEF84B917B8BC
S11322001DB88EEF85B918B81BB81EB810926400BB
S1132210089582E084BD93E095BD9AEF97BD8093C5
S11322206E001092E9031092E803089581E0809310
S1132230EC0308951092EC0308952091E803309183
S1132240E903C90165E070E00E948C1A009739F433
S1132250C9016AE070E00E948C1A009709F00895A1
S11322600E9404098091E8039091E90364E170E01D
S11322700E948C1A009799F70E94A20A8091E803A1
S11322809091E90362E370E00E948C1A009739F799
S11322900E943A0E08951F920F920FB60F921124C6
S11322A02F933F934F935F936F937F938F939F935A
S11322B0AF93BF93EF93FF938091ED03882341F194
S11322C01092ED038091EC03882349F18091E60399
S11322D09091E7039C012F5F3F4F3093E7032093D6
S11322E0E6036AE070E00E94781A009731F1FF91EA
S11322F0EF91BF91AF919F918F917F916F915F917A
S11323004F913F912F910F900FBE0F901F901895F2
S113231081E08093ED038091EC038823B9F68091EA
S1132320E8039091E90301969093E9038093E8030D
S11323300E941D110E945904DACF1092E7031092F3
S1132340E6038091E8039091E90301969093E903F1
S11323508093E8030E945904CACF82E084BD93E0CD
S113236095BD9AEF97BD80936E001092E903109289
S1132370E8030895FC019681278185818230D9F094
S1132380833071F0813009F00895892F8095822B74
S113239092232091EE03922B89238093EE030895D8
S11323A0892F8095822B92232091F003922B8923ED
S11323B08093F0030895892F8095822B9223209196
S11323C0EF03922B89238093EF0308951092EE0379
S11323D01092EF031092F00382E48093F1031092C1
S11323E071038091F20381608093F2031092700371
S11323F088E980936F0308958091F20380FD089526
S11324000E94E6110E944F02089520916F03F999EA
S1132410FECF1FBA92BD81BD20BD0FB6F894FA9AC3
S1132420F99A0FBE9C012F5F3F4FC9010895F99996
S1132430FECF92BD81BDF89A20B520936F039C0115
S11324402F5F3F4FC901089520917003F999FECF82
S11324501FBA92BD81BD20BD0FB6F894FA9AF99ABD
S11324600FBE9C012F5F3F4FC9010895F999FECF1C
S113247092BD81BDF89A20B5209370039C012F5F13
S11324803F4FC90108959C012F5F3F4F4091EE03D8
S11324904095F999FECF1FBA92BD81BD40BD0FB6DC
S11324A0F894FA9AF99A0FBEC90101964091EF0384
S11324B04095F999FECF1FBA32BD21BD40BD0FB67C
S11324C0F894FA9AF99A0FBE9C012F5F3F4F4091FE
S11324D0F0034095F999FECF1FBA92BD81BD40BD6E
S11324E00FB6F894FA9AF99A0FBEC9010196409171
S11324F0F1034095F999FECF1FBA32BD21BD40BD0D
S11325000FB6F894FA9AF99A0FBE9C012F5F3F4FC9
S11325104091F2034095F999FECF1FBA92BD81BD57
S113252040BD0FB6F894FA9AF99A0FBE81E08093F1
S11325301802C901089581E090E00E9405120E94EA
S113254024120E9443120895F8940E949B12089545
S113255022E18433920711F080E008958091F20320
S11325608E7F8093F203F8940E949B12789481E00A
S113257008959C012F5F3F4FF999FECF92BD81BD15
S1132580F89A80B580958093EE03C9010196F99974
S1132590FECF32BD21BDF89A20B520952093EF03DC
S11325A09C012F5F3F4FF999FECF92BD81BDF89AF0
S11325B080B580958093F003C9010196F999FECF07
S11325C032BD21BDF89A20B520952093F1039C01DA
S11325D02F5F3F4FF999FECF92BD81BDF89A80B528
S11325E080958093F203C901089581E090E00E94F0
S11325F017120E9436120E94B91208951F920F9268
S11326000FB60F9211242F933F938F939F93209192
S11326107800309179008091F703882321F5809127
S1132620F5039091F6039093F4038093F303932FAF
S113263080E0820F911D9093F6038093F50381E06F
S11326408093F70382E480937C0080917A00806415
S113265080937A009F918F913F912F910F900FBE9D
S11326600F901F9018951092F703ECCFEAE7F0E073
S11326708081887F808308958BE980937A00EEE7D8
S1132680F0E0808184608083EFE7F0E08081836004
S1132690808380EA80937B0082E480937C000895A9
S11326A082E480937C00EAE7F0E0808180648083A8
S11326B00895EF92FF920F931F937B018C0120E00A
S11326C030E040E05FE40E94051787FD11C0C801B7
S11326D0B70120E030E040E05FE40E94FC140E9477
S11326E0C5179B01AC01205030404040504806C003
S11326F0C801B7010E94C5179B01AC01B901CA0109
S11327001F910F91FF90EF900895A0E0B0E0EBE8E7
S1132710F3E10C94E01AFC01EA018081823008F4B0
S113272038C1DB019C91923008F430C1843059F4F3
S1132730943009F02EC1918111968C9111979817BC
S113274009F021C126C1943009F420C19230B1F4BA
S1132750823009F01EC1CA01AF0128E0DA010D90F0
S1132760AD01DC010D92CD012150C1F7DB011196C1
S11327708C9111979181892389830AC1823009F44C
S113278005C1C280D380DB0112966D907C901397B3
S113279024813581468157811496ED90FD900D91E9
S11327A01C911797C601861997095C0197FF04C00D
S11327B0AA24BB24A81AB90AB0E2AB16B1040CF0DF
S11327C061C0181619066CF5370148010A2C04C0BB
S11327D096948794779467940A94D2F781E090E072
S11327E0A0E0B0E00A2C04C0880F991FAA1FBB1FE9
S11327F00A94D2F70197A109B1098E219F21A02340
S1132800B123EE24FF248701E3940097A105B105C9
S113281019F4EE24FF248701E628F728082919294A
S11328203CC00097D1F1CA0CDB1C39014A010A2CC7
S113283004C096948794779467940A94D2F781E0BD
S113284090E0A0E0B0E00A2C04C0880F991FAA1FF2
S1132850BB1F0A94D2F70197A109B10982239323DC
S1132860A423B52321E030E040E050E00097A10527
S1132870B10519F420E030E0A901262937294829B7
S113288059290BC06C147D0424F4EE24FF24870121
S113289004C0630120E030E0A9018181FB01918142
S11328A0891709F445C0882349F0D801C701821B60
S11328B0930BA40BB50B9C01AD0104C02E193F0969
S11328C0400B510B57FD04C01982DB82CA820BC036
S11328D081E08983DB82CA825095409530952195A9
S11328E03F4F4F4F5F4F2C833D834E835F830DC01B
S11328F0880F991FAA1FBB1F8C839D83AE83BF8340
S11329008A819B8101979B838A838C819D81AE817F
S1132910BF819C01AD0121503040404050402F3FC9
S1132920EFEF3E07EFEF4E07EFE35E0708F30BC050
S11329308983DB82CA822E0D3F1D401F511F2C83C9
S11329403D834E835F8383E088832C813D814E8168
S11329505F8157FF1DC0DA01C90181709070A070BA
S1132960B0705695479537952795822B932BA42BBA
S1132970B52B8C839D83AE83BF838A819B81019613
S11329809B838A8305C0E0E1F1E003C0FB0101C041
S1132990FE01CF01CDB7DEB7EEE00C94FC1AA0E245
S11329A0B0E0E5EDF4E10C94E81A69837A838B8353
S11329B09C832D833E834F83588789E0E82EF12C36
S11329C0EC0EFD1ECE010196B7010E94B6198E01D0
S11329D00F5E1F4FCE010596B8010E94B619C701BC
S11329E0B801AE01475E5F4F0E9485130E94E9184B
S11329F0A096E6E00C94041BA0E2B0E0E2E0F5E16E
S1132A000C94E81A69837A838B839C832D833E8399
S1132A104F8358878E01075F1F4FCE010196B8017F
S1132A200E94B61991E1E92EF12CEC0EFD1ECE01A7
S1132A300596B7010E94B6198A8991E089278A8B85
S1132A40C801B701AE01475E5F4F0E9485130E9423
S1132A50E918A096E6E00C94041BA0E2B0E0E3E3DE
S1132A60F5E10C94DC1A69837A838B839C832D8330
S1132A703E834F835887CE010196BE01675F7F4F27
S1132A800E94B619CE010596BE016F5E7F4F0E946B
S1132A90B6199985923078F089898230C0F09430E3
S1132AA019F4823041F4CBC0843019F4923079F4B3
S1132AB0C6C0923051F481E02A859A89291709F415
S1132AC080E08A87CE010996BCC0823051F481E04F
S1132AD02A859A89291709F480E08A8BCE014196C8
S1132AE0B0C06D847E848F849888ED88FE880F89B9
S1132AF0188DE0E2F0E080E090E0DC01AA24BB2441
S1132B00650120E030E0A901B301617070706115C6
S1132B107105D1F02E0D3F1D401F511F15012601D7
S1132B20280E391E4A1E5B1E81E090E0A0E0B0E052
S1132B302E153F054007510718F080E090E0DC01B6
S1132B40820D931DA41DB51DAA0CBB1CCC1CDD1C41
S1132B5017FF09C061E0262E312C412C512CA228EC
S1132B60B328C428D528319749F0EE0CFF1C001F68
S1132B70111F9694879477946794C6CF6B897C8948
S1132B80EB85FC856E0F7F1F6E5F7F4F7C8F6B8F95
S1132B9061E0EA857A89E71709F460E06A8F6B8D52
S1132BA07C8D10C0FC01E170F070309729F05695CF
S1132BB04795379527955068B695A7959795879526
S1132BC06F5F7F4FB7FDEECF0CC0880F991FAA1F10
S1132BD0BB1F57FD8160220F331F441F551F6150D7
S1132BE070408030E0E09E07E0E0AE07E0E4BE071E
S1132BF060F36B8F7C8F6FE7E62EF12C012D112D86
S1132C00E822F9220A231B2360E4E616F1040105F5
S1132C10110561F487FD0AC02115310541055105EF
S1132C2029F0805C9F4FAF4FBF4F80788D8F9E8F70
S1132C30AF8FB8A383E0898FCE01499602C080E1AB
S1132C4091E00E94E918A096E2E10C94F81AA8E138
S1132C50B0E0EDE2F6E10C94E41A69837A838B83A5
S1132C609C832D833E834F8358878E01075F1F4FBC
S1132C70CE010196B8010E94B61981E1E82EF12C2B
S1132C80EC0EFD1ECE010596B7010E94B61999857A
S1132C90923008F483C08989823008F47BC02A8585
S1132CA03A8923272A87943011F0923021F4981717
S1132CB009F06CC071C0843039F41D861E861F86ED
S1132CC0188A1C861B866AC0823019F484E08987BE
S1132CD065C08B859C852B893C89821B930B9C87C3
S1132CE08B872D853E854F855889ED88FE880F8911
S1132CF0188D2E153F054007510738F4220F331F56
S1132D00441F551F01979C878B876FE170E0A12CAE
S1132D10B12CC12CA0E4DA2E80E090E0DC012E1569
S1132D203F054007510740F08A299B29AC29BD295A
S1132D302E193F09400B510BD694C794B794A7940E
S1132D40220F331F441F551F6150704041F76FE736
S1132D50E62EF12C012D112DE822F9220A231B2342
S1132D6060E4E616F1040105110561F487FD0AC06B
S1132D70211531054105510529F0805C9F4FAF4F66
S1132D80BF4F80788D879E87AF87B88B8E01075F92
S1132D901F4F04C0870102C000E111E0C8010E9476
S1132DA0E9186896EAE00C94001BA8E1B0E0EBEDAA
S1132DB0F6E10C94E81A69837A838B839C832D83D0
S1132DC03E834F8358878E01075F1F4FCE010196C4
S1132DD0B8010E94B61981E1E82EF12CEC0EFD1E1B
S1132DE0CE010596B7010E94B6198985823040F05C
S1132DF08989823028F0C801B7010E941F1A01C0D6
S1132E008FEF6896E6E00C94041BA8E1B0E0EBE0D9
S1132E10F7E10C94E81A69837A838B839C832D836E
S1132E203E834F8358878E01075F1F4FCE01019663
S1132E30B8010E94B61981E1E82EF12CEC0EFD1EBA
S1132E40CE010596B7010E94B6198985823040F0FB
S1132E508989823028F0C801B7010E941F1A01C075
S1132E608FEF6896E6E00C94041BA8E1B0E0EBE376
S1132E70F7E10C94E81A69837A838B839C832D830E
S1132E803E834F8358878E01075F1F4FCE01019603
S1132E90B8010E94B61981E1E82EF12CEC0EFD1E5A
S1132EA0CE010596B7010E94B6198985823040F09B
S1132EB08989823028F0C801B7010E941F1A01C015
S1132EC081E06896E6E00C94041BA8E0B0E0EBE631
S1132ED0F7E10C94E81A7B018C0183E08983D80123
S1132EE0C7018827B7FD83959927AA27BB27282FD1
S1132EF08A83E114F1040105110519F482E0898340
S1132F0037C08EE190E09C838B83222389F080E09C
S1132F10E81680E0F80680E0080780E8180769F101
S1132F2010950095F094E094E11CF11C011D111D15
S1132F30ED82FE820F831887C801B7010E948F18A3
S1132F409C01215030401216130694F4022E04C042
S1132F50EE0CFF1C001F111F0A94D2F7ED82FE82B3
S1132F600F8318878EE190E0821B930B9C838B83E5
S1132F70CE0101960E94E91804C060E070E080E090
S1132F809FEC2896E6E00C94041BACE0B0E0EBEC7C
S1132F90F7E10C94EC1A69837A838B839C83CE01CA
S1132FA00196BE016B5F7F4F0E94B6198D818230FE
S1132FB081F1823070F1843021F48E81882369F1AB
S1132FC00AC02F81388537FD24C06E812F31310529
S1132FD03CF0662311F120E030E040E050E821C0ED
S1132FE08EE190E0821B930B29853A854B855C85A5
S1132FF004C056954795379527958A95D2F7662349
S113300081F050954095309521953F4F4F4F5F4F3C
S113301008C020E030E0A90104C02FEF3FEF4FEFDC
S11330205FE7B901CA012C96E2E00C94081BA8E002
S1133030B0E0EDE1F8E10C94E61A7B018C011A8210
S1133040611571058105910519F482E089835FC0DA
S113305083E089838EE1C82ED12CDC82CB82ED8281
S1133060FE820F831887C801B7010E948F18FC01E4
S11330703197F7FF3AC0AA27BB27AE1BBF0B21E04D
S113308030E040E050E00A2E04C0220F331F441FFA
S1133090551F0A94D2F721503040404050402E2111
S11330A03F214023512361E070E080E090E021154E
S11330B031054105510519F460E070E0CB0104C00D
S11330C016950795F794E794AA95D2F7E62AF72A76
S11330D0082B192BED82FE820F8318878EE190E076
S11330E08E1B9F0B9C838B8312C0309781F00E2E16
S11330F004C0EE0CFF1C001F111F0A94D2F7ED82CE
S1133100FE820F831887CE1ADF0ADC82CB82CE01BF
S113311001960E94E9182896E8E00C94021BAF92ED
S1133120BF92CF92DF92EF92FF920F931F937B0196
S11331308C0180E0E81680E0F80681E0080780E072
S1133140180758F4EFEFEE16F1040105110509F024
S113315090F480E090E0DC0117C0F0E0EF16F0E0BE
S1133160FF06F0E00F07F1E01F0750F480E190E064
S1133170A0E0B0E009C088E090E0A0E0B0E004C0C6
S113318088E190E0A0E0B0E020E230E040E050E0F0
S1133190281B390B4A0B5B0B5701680104C0D694FA
S11331A0C794B794A7948A95D2F7D601C501885ECF
S11331B09E4FFC018081281B310941095109C90135
S11331C01F910F91FF90EF90DF90CF90BF90AF9041
S11331D00895EF92FF920F931F93CF93DF93FC0117
S11331E0248135814681578161818081823020F438
S11331F04061EFEFF0E0A3C0843009F49BC082305B
S113320009F492C0211531054105510509F48FC017
S11332100280F381E02D7FEFE238F7070CF05AC00B
S1133220C2E8DFEFCE1BDF0BCA31D1056CF57901A3
S11332308A010C2E04C016950795F794E7940A9416
S1133240D2F781E090E0A0E0B0E00C2E04C0880F3B
S1133250991FAA1FBB1F0A94D2F70197A109B109AC
S113326082239323A423B52321E030E040E050E0FF
S11332700097A105B10519F420E030E0A9012E2939
S11332803F29402B512B03C020E030E0A901DA0193
S1133290C9018F779070A070B07080349105A1053A
S11332A0B10539F427FF09C0205C3F4F4F4F5F4FF2
S11332B004C0215C3F4F4F4F5F4FE1E0F0E020300E
S11332C080E0380780E0480780E4580728F5E0E00C
S11332D0F0E022C0E038F1056CF5E158FF4FDA0167
S11332E0C9018F779070A070B07080349105A105EA
S11332F0B10539F427FF09C0205C3F4F4F4F5F4FA2
S113330004C0215C3F4F4F4F5F4F57FF05C0569598
S1133310479537952795319687E056954795379584
S113332027958A95D1F70BC0E0E0F0E005C0E0E016
S1133330F0E005C0EFEFF0E020E030E0A9018E2FCF
S1133340879588278795942F9F7767956627679534
S1133350E695A92FA82BFE2FF62B622F732F8A2F09
S11333609F2FCDB7DEB7E6E00C94041BDC01FB0114
S11333702C9111963C91119712968C911297482F8B
S11333804F7750E0982F991F9927991F13966C91A6
S11333901397862F880F892B90E0661F6627661F78
S11333A06183009739F5211531054105510511F463
S11333B082E029C082E89FEF9383828367E0220F33
S11333C0331F441F551F6A95D1F783E0808309C0DA
S11333D0220F331F441F551F8281938101979383CA
S11333E08283203080E0380780E0480780E4580773
S11333F078F320C08F3F910579F4211531054105FB
S1133400510519F484E08083089544FF03C081E0EA
S1133410808310C010820EC08F57904093838283A4
S113342083E0808387E0220F331F441F551F8A9552
S1133430D1F7506424833583468357830895FC0170
S1133440DB019081923008F449C08C91823008F4F9
S113345045C0943051F461818430B1F511962C91BA
S1133460119730E0261B310941C0843021F092309D
S113347041F48230B1F111968C9111978823A1F116
S11334802DC06181823001F111968C9111976817DA
S1133490D9F42281338112968D919C9113978217CE
S11334A0930794F028173907BCF0248135814681AD
S11334B0578114968D919D910D90BC91A02D8217EA
S11334C09307A407B50718F4662341F00DC0281725
S11334D039074A075B0728F4662331F021E030E01E
S11334E005C020E030E002C02FEF3FEFC90108958E
S11334F0AA1BBB1B51E107C0AA1FBB1FA617B70716
S113350010F0A61BB70B881F991F5A95A9F7809531
S11335109095BC01CD01089597FB092E07260AD08A
S113352077FD04D0E5DF06D000201AF4709561958C
S11335307F4F0895F6F7909581959F4F089597FBD7
S1133540092E05260ED057FD04D014D00AD0001C35
S113355038F450954095309521953F4F4F4F5F4F2C
S11335600895F6F790958095709561957F4F8F4FEC
S11335709F4F0895A1E21A2EAA1BBB1BFD010DC08B
S1133580AA1FBB1FEE1FFF1FA217B307E407F5070F
S113359020F0A21BB30BE40BF50B661F771F881FEB
S11335A0991F1A9469F760957095809590959B0181
S11335B0AC01BD01CF0108952F923F924F925F92CB
S11335C06F927F928F929F92AF92BF92CF92DF922F
S11335D0EF92FF920F931F93CF93DF93CDB7DEB794
S11335E0CA1BDB0B0FB6F894DEBF0FBECDBF099428
S11335F02A88398848885F846E847D848C849B847F
S1133600AA84B984C884DF80EE80FD800C811B818C
S1133610AA81B981CE0FD11D0FB6F894DEBF0FBEBB
S1133620CDBFED0108953BD080F09F3740F4911158
S11336300EF44DC060E070E080E89FE3089526F04A
S11336401B16611D711D811D01C01BC0882371F4EF
S1133650772321F09850872B762F07C0662311F427
S113366099270DC09051862B70E060E02AF09A955E
S1133670660F771F881FDAF7880F9695879597F955
S113368008959F3F31F0915020F487957795679581
S1133690B795880F911D9695879597F9089525D02C
S11336A0A0F0BEE7B91788F4BB279F3860F416165C
S11336B0B11D672F782F8827985FF7CF8695779568
S11336C06795B11D93959639C8F30895E894BB277F
S11336D066277727CB0197F9089557FD9058440F33
S11336E0551F59F05F3F71F04795880F97FB991F5D
S11336F061F09F3F79F0879508951216130614061A
S1133700551FF2CF4695F1DF08C0161617061806A6
S1133710991FF1CF86957105610508940895F89471
S1053720FFCFD5
S1133722010010204080FFFFFF0101010A01FFFF99
S11337320000000000000000000102020303030372
S1133742040404040404040405050505050505052B
S1133752050505050505050506060606060606060B
S113376206060606060606060606060606060606F3
S113377206060606060606060707070707070707DB
S113378207070707070707070707070707070707C3
S113379207070707070707070707070707070707B3
S11337A207070707070707070707070707070707A3
S11337B2070707070707070708080808080808088B
S11337C20808080808080808080808080808080873
S11337D20808080808080808080808080808080863
S11337E20808080808080808080808080808080853
S11337F20808080808080808080808080808080843
S11338020808080808080808080808080808080832
S11338120808080808080808080808080808080822
S11338220808080808080808080808080808080812
S10B383208080808080808084A
S9030000FC
