:100000000C9446000C9463000C9463000C94630001
:100010000C9463000C9463000C9463000C946300D4
:100020000C9463000C9463000C9463000C946300C4
:100030000C9463000C9463000C9463000C94340ED5
:100040000C9463000C9463000C947C030C94630088
:100050000C9463000C9463000C9463000C94630094
:100060000C9463000C9463000C942E0B0C94E40F1E
:100070000C9463000C9463000C94630044726976E2
:100080006573204443206D6F746F720011241FBE8E
:10009000CFEFD4E0DEBFCDBF12E0A0E0B1E0EEEEE6
:1000A000F0E302C005900D92A431B107D9F713E037
:1000B000A4E1B2E001C01D92A137B107E1F70E94AF
:1000C0008C000C9475180C94000010920001809123
:1000D00000018151809300018093B20281E00E946F
:1000E0007D0A82E00E94840A83E00E94840A80E004
:1000F0006DEA72E00E94560460E47DE083E090E0E7
:100100000E94AE0D81E00E94840A60E47DE083E0FD
:1001100090E00E94AE0DDBCFF8940E94E60D0E94A5
:10012000270A0E94590183E00E94A3040E94E50E61
:100130000E948D050E9425010E94050178940E946D
:1001400065000E942C010E94EE0060E87AE186E0E2
:1001500090E00E94AE0DF5CF0895FF920F931F938C
:10016000CF93DF93EC01F62E8A0180EA90E0609154
:10017000E8020E949A06DC01CB0188839983AA8356
:10018000BB83FD82EF2DF0E0DF01AA0FBB1FA00FA4
:10019000B11F11968C9111978E838C918F83DF0103
:1001A0001196AA0FBB1FA00FB11F11968C9111972A
:1001B00088878C9189873296EE0FFF1FE00FF11F21
:1001C00081818A8780818B878C81807E8E608C8301
:1001D000DF91CF911F910F91FF900895CF93DF93FF
:1001E000C0E0D0E084E192E06C2F4BE252E00E944C
:1001F000AD0080E064E172E00E9456042396C930AD
:10020000D10581F7DF91CF91089580EA90E0609168
:10021000E8020E949A066093AD027093AE0280934A
:10022000AF029093B00280EA8093B20285E580939A
:10023000B30291EA9093B4028093B5028091B10227
:10024000807E88608093B102089581E061E040E0A3
:1002500020E00E949A0B089508950895809161030B
:100260009091620364E670E00E947217009779F43F
:100270008091AB029091AC02009751F483E00E9410
:10028000840A81E090E09093AC028093AB020895E1
:1002900083E00E947D0A1092AC021092AB02089596
:1002A0001092670310926803089508950E94810FC9
:1002B00008950E94DB0F0E949F0F089580916803AC
:1002C00090E0807F90708032910591F081329105AD
:1002D00044F08034910551F08038910529F484E18F
:1002E00008958031910531F08FEF08958AE00895E7
:1002F00084E0089582E008959093E5028093E402FB
:1003000008959093E7028093E6020895CF93DF93D8
:10031000EDEEF0E020818295807F8083C1EFD0E018
:100320003881CB01807E90709695879592958295C5
:100330008F7089279F708927387F382BA0EFB0E016
:100340008C91660F660F660F8770682B38836C93ED
:10035000A5EFB0E08C9187608C93A4EFB0E08C9116
:10036000886F8C932083DF91CF910895EDEEF0E0BC
:1003700090818295807F8083A5EFB0E08C91887F0B
:100380008C93A4EFB0E08C9187708C939083089548
:10039000252F362FEDEEF0E050818295807F80830F
:1003A000862F829586958770440F440F440F482B03
:1003B000C901807E9F7196958795929582958F70E1
:1003C00089279F708927220F220F220F372F3295FE
:1003D00036953770232B770F770F770F4093F30005
:1003E0008093F2002093F1007093F0005083089501
:1003F000FF920F931F93CF93DF93F82E8B01CA01C7
:1004000060E00E949A06C72FD82FC80160E00E94C2
:100410009A06272F382FEDEEF0E00081F294B0EF2E
:10042000FB22F08243EF50E0DA016C918D2F829530
:1004300086958770687F682BCE01807E9F71969528
:100440008795929582958F7089279F708927A1EF54
:10045000B0E07C91FC2EFF0CFF0CFF0C7770F72AAC
:10046000EA0168838093F200FC92C7EFD0E04881F4
:10047000832F829586958770487F482BC901807E9F
:100480009F7196958795929582958F7089279F7019
:100490008927A5EFB0E05C91220F220F220F577041
:1004A000252B48838093F6002C930083DF91CF9116
:1004B0001F910F91FF900895EDEEF0E090818295ED
:1004C000807F8083A7EFB0E08C91887F8C93A6EF2C
:1004D000B0E08C911C92A5EFB0E08C9187708C936A
:1004E00090830895EDEEF0E090818295807F808387
:1004F0006093F7007093F6004093F5005093F4007A
:1005000090830895EDEEF0E090818295807F808366
:100510006093F7007093F6004093F5005093F40059
:10052000908308951F93CF93DF93EDEEF0E0108159
:10053000382F3295307F3083CEEDD0E09881A1E026
:10054000B0E002C0AA0FBB1F8A95E2F79A2B9883EE
:10055000808130836093F7007093F6004093F5003C
:100560005093F400808320692093EF00A8EDB0E061
:100570008C9182608C931083DF91CF911F910895AD
:10058000EF92FF920F931F93CF93DF9381E060E090
:1005900070E040E050E028E00E9492026091E802A2
:1005A00081E070E00E94860183E060E070E040E05E
:1005B00050E028E00E949202CDEED0E0988180E3E6
:1005C000888305EF10E0F8018081887F808384EFC5
:1005D000E82EF12CF701808187708083988383E077
:1005E00063E27CEF43E25CEF0E94F80185E060E0AB
:1005F00070E040E050E028E00E949202988180E59F
:100600008883F8018081887F8083F70180818770EB
:100610008083988385E060E07CEF40E05CEF0E949F
:10062000F801DF91CF911F910F91FF90EF90089506
:10063000EDEEF0E090818295807F80831092EF0054
:100640001092EE0090830895FC014091F30050E079
:100650002091F2008091F10090E0A091F000BA01A9
:10066000769567957695679576956795608330E082
:10067000220F331F22953295307F3227207F322779
:10068000542F44275295550F507E242B352BAC0107
:10069000569547955695479556954795242B352B56
:1006A000328321838295880F807EA695A695A69594
:1006B000A82BA3830895CF93DF93EC010E9424031A
:1006C0008091EF008F70282F220F9C81917E922BBA
:1006D0009C83482F50E04115510559F0259620E0A4
:1006E00030E09091FA0099932F5F3F4F2417350720
:1006F000C4F3DF91CF9108951F920F920FB60F921E
:1007000011242F933F934F935F936F937F938F9316
:100710009F93AF93BF93CF93EF93FF93C091ED005F
:100720004091EC0042954F704F3009F487C08091A2
:10073000EC00807F8093ED008091EE0090E08F715F
:100740009070009709F440C08091EE0090E082FF25
:1007500005C02091EE002F7E2093EE009C012370B7
:1007600030702115310529F02091EE00277F20936C
:10077000EE0081FF05C02091EE002B7F2093EE005C
:1007800080FF05C08091EE008D7F8093EE004530A4
:1007900009F44BC0413009F448C0433009F445C066
:1007A000C093ED00FF91EF91CF91BF91AF919F91D9
:1007B0008F917F916F915F914F913F912F910F900A
:1007C0000FBE0F901F9018958091EE0085FD13C00D
:1007D0008091EE0086FFE4CFE091E602F091E7021F
:1007E000309709F0099581E08093DB021092EF00C9
:1007F0001092EE00D5CF81E08093DA028BEC92E08C
:100800000E945B038BEC92E00E940808882369F445
:100810008BEC92E00E94D609E091E402F091E502AF
:10082000309719F08BEC92E0099588E98093EF00FE
:100830008091EE008F7D8093EE00B2CF8091DA0040
:100840008093DA00AFCFCF93DF93EB01982F92958F
:10085000907FF8949093ED001092EE0048815981BA
:100860006A817B810E94C8018C8186958F7079F0A6
:10087000FE01359680E090E021912093FA000196E8
:100880002C8126952F7030E082179307ACF380916E
:10089000F0008B7F8093F0008C8186958F7080654F
:1008A0008093EF007894DF91CF9108950E94230404
:1008B0008091EE0086FFFCCF08952091F80030E093
:1008C0004091F900942F80E0282B392BC90108951D
:1008D000CF93DF93EC010E945B038F70880F9C81A4
:1008E000917E982B9C838091F80090E04091F900D4
:1008F000342F20E0822B932B9E878D87DF91CF9121
:100900000895833061F0843030F08530D1F0853047
:1009100080F482E105C0813091F0823071F08EE088
:100920008093E20084E08093E30083E18093E4001D
:1009300008958630A1F786E2F3CF86E0F1CF82E01A
:10094000EFCF8EE1EDCF91E09093D8001092E500CB
:1009500090E0292F2295207F2093ED001092EF0048
:100960001092EE009F5F9630A1F790EA9093DB0023
:100970000E9481040E94C0028091D90082FFFCCFB6
:100980000895882351F482E08093E20084E080930C
:10099000E30083E18093E40008951092E2008CE08C
:1009A0008093E30086E38093E4000895882351F464
:1009B00086E08093E20084E08093E30083E180930B
:1009C000E400089582E08093E2008CE08093E300ED
:1009D00087E38093E4000895882351F48EE08093A8
:1009E000E20084E08093E30083E18093E4000895D3
:1009F00086E08093E2008CE08093E30087E38093BD
:100A0000E4000895882351F482E18093E20084E0B9
:100A10008093E30083E18093E400089588E080936D
:100A2000E2008CE08093E30087E38093E400089584
:100A3000882351F48EE18093E20084E08093E30008
:100A400083E18093E40008958EE08093E2008CE0DF
:100A50008093E30087E38093E4000895882351F4B2
:100A600086E28093E20084E08093E30083E1809358
:100A7000E400089582E18093E2008CE08093E3003B
:100A800087E38093E400089583E980937A00EEE79A
:100A9000F0E080818860808380E880937B00089507
:100AA000569840E050E020E030E0E3E4E0937C0042
:100AB00080917A00806480937A0080917A0086FD2C
:100AC000FCCF8091780090E081709070BA016F70D7
:100AD000707002C0880F991F6A95E2F7282B392B96
:100AE000809179004F5F5F4F40315105F9F6569A7A
:100AF000C901089583E060E070E040E050E028E044
:100B00000E94920283E00E94B60183E063E27CEFE0
:100B100043E25CEF0E94F801089583E980937A0034
:100B200080917E00886080937E0080E880937B00C7
:100B30000E94500590E09093EC028093EB0280932A
:100B4000ED020E9422108091E902882351F082E098
:100B50008093E90282E88093F00281E08093EA02C8
:100B6000089581E08093F0020E947A051092E802D5
:100B70008091F00280688093F00281E08093EA0225
:100B80000895CF93DF93EC0183E29CEF0E949A06D5
:100B9000688379838A839B838091E8028D83809127
:100BA000E9028E838091ED028F838091F002888725
:100BB0008091F102898780916B038A878C81807E86
:100BC0008E608C83DF91CF91089581E08093F10254
:100BD0004091E902413059F18091EA02882339F1CC
:100BE0008091EB029091EC029C01215030403093B7
:100BF000EC022093EB020097D1F481E090E0909317
:100C0000EC028093EB0282E08093F102442391F0A6
:100C1000423009F45AC0403239F1403809F447C033
:100C2000403431F08091F10280688093F1020895A0
:100C300086E8FBCF83E08093F10280E28093E902B3
:100C40008CEB92E06091ED020E94C10580E06CEBBC
:100C500072E00E9423048CE291E09093EF02809373
:100C6000EE024091E902D4CF84E08093F102F8943F
:100C70002091ED001092ED008091EE0086FF03C000
:100C800080E88093E9028091EE029091EF02019753
:100C90009093EF028093EE02009719F484E0809322
:100CA000E9022093ED0078944091E902B6CF85E007
:100CB0008093F10281E08093E902F8940E94810F11
:100CC00078948091F1028068B0CF87E08093F10240
:100CD00081E08093E9028CEB92E06091E8020E944F
:100CE000C10580E06CEB72E00E9423044091E902B0
:100CF00092CFCF93DF93EC0184E29CEF6091E80206
:100D00000E949A06688379838A839B838091E80294
:100D10008D838C81807E82608C83DF91CF9108955A
:100D2000FC0185819091E802891718F08F5F80930C
:100D3000E8020895262F60E0782F892F922F0895DA
:100D4000382F262F872F942F632F722F0895862FE9
:100D50000895872F0895892F90E00895E1E06217A4
:100D600073078407950709F0E0E08E2F089581E06E
:100D7000621380E00895932F272F382F692F742F47
:100D800081E02617370709F080E0089581E04913D4
:100D900080E008959093F8028093F7020895CF932E
:100DA000DF93EC0181E19CEF6091E8020E949A06DA
:100DB000688379838A839B8383E08D838091E802B3
:100DC0008E838091F2028F838091F30288878C81D9
:100DD000807E88608C83DF91CF910895CF93DF93DD
:100DE000EC0182E19CEF6091E8020E949A06688320
:100DF00079838A839B8383E08D8381E48E8381E082
:100E00008F839FE0988789871A868C81807E8C608B
:100E10008C83DF91CF910895CF93DF93EC0183E131
:100E20009CEF6091E8020E949A06688379838A8326
:100E30009B8383E08D8386E58E8388E78F838CE9AF
:100E400088878EED89878C81807E8A608C83DF9194
:100E5000CF910895CF93DF93EC0184E19CEF6091F3
:100E6000E8020E949A06688379838A839B83809133
:100E7000F4028D8390E0DE0116969C01285F3F4FBF
:100E8000FC01E458FF4FE491ED930196821793071C
:100E9000B9F78C81807E82618C83DF91CF91089538
:100EA0008091F9028130D9F0813028F0823009F147
:100EB000833059F008958CEB92E00E94CF0682E0D7
:100EC0006CEB72E00E94230408958CEB92E00E9488
:100ED0002A0782E06CEB72E00E94230408958CEBF9
:100EE00092E00E94EE0682E06CEB72E00E94230426
:100EF00008958CEB92E00E940C0782E06CEB72E0AC
:100F00000E94230408958091F50280FD56C081FD62
:100F100049C082FD32C083FD26C084FD1AC085FF12
:100F20000DC080910201909103019C01215030403D
:100F30003093030120930201009709F00895F8947B
:100F40000E9450078091F5028F7D8093F50278947E
:100F50000895F8940E9456018091F5028F7E809347
:100F6000F5027894DCCFF8940E94810F8091F5020D
:100F7000877F8093F5027894D0CFF8940E94DB0F9E
:100F80008CEB92E06091E8020E94C10580E06CEB7E
:100F900072E00E9423048091F5028B7F8093F5021A
:100FA0007894B9CF82E06CEB72E00E9423048091C8
:100FB000F5028D7F8093F502ACCF80E06DEA72E0A0
:100FC0000E9423048091F5028E7F8093F5029FCFCB
:100FD000CF93DF93EC0187E29CEF6091E8020E94DF
:100FE0009A06688379838A839B83809167038D83C4
:100FF000809168038E83809169038F8380916A0357
:1010000088878C81807E88608C83DF91CF91089562
:10101000CF93DF93EC0185E190E06091E8020E94BC
:101020009A069B01AC01688179818A819B810E942B
:10103000AE06882339F0CE010E94DD0A81E0DF91FF
:10104000CF91089585E190E06FEF0E949A069B0191
:10105000AC01688179818A819B810E94AE068823D8
:1010600051F780E19CEF60E00E949A069B01AC0181
:10107000688179818A819B810E94BB06882391F0D7
:101080008091F50280628093F5028D818093F90250
:101090008091E802809302011092030181E0DF91C8
:1010A000CF91089582E29CEF6091E8020E949A0637
:1010B0009B01AC01688179818A819B810E94AE0687
:1010C0008823F1F08D8184FF14C08DEA92E00E94A4
:1010D000E80781E08093F502E091F702F091F802D1
:1010E000309719F18D818F70099581E0DF91CF9153
:1010F0000895CE010E94A30E88E08093F502ECCF04
:1011000081E29CEF6091E8020E949A069B01AC018B
:10111000688179818A819B810E94AE06882339F09B
:1011200088E08093F50281E08ACF81E088CF81E278
:101130009CEF6FEF0E949A069B01AC016881798158
:101140008A819B810E94AE06882351F785E29CEF3D
:101150006091E8020E949A069B01AC016881798146
:101160008A819B810E94AE06882349F586E29CEF26
:101170006091E8020E949A069B01AC016881798126
:101180008A819B810E94AE06882361F18C818E71D9
:10119000843059F63D8120E08E8190E0822B932BA4
:1011A00022E18433920709F685E58093F0021092DC
:1011B000EA021092E9020E948D0581E040CF81E0B1
:1011C0008093E9028D818093E8020E94810F81E083
:1011D0000E94B6016091E80281E070E00E94860101
:1011E00081E02DCF86E29CEF6FEF0E949A069B0173
:1011F000AC01688179818A819B810E94AE06882337
:1012000029F683E29CEF60E00E949A069B01AC0104
:10121000688179818A819B810E94BB06882309F4B9
:101220000ECF9D818091E802981709F07ECF8091C2
:10123000E902803241F0882309F077CFCE010E9485
:10124000900681E0FCCE9091ED0080E38093ED006C
:101250008091EF008F738093EF009093ED001092D8
:10126000E902CE010E94900681E0E9CEEF92FF9262
:101270000F931F93CF93DF937B018C01C0E0D0E0ED
:10128000CE01880F991F8C0F9D1FFC01EE0FFF1FD1
:10129000EE0FFF1FE80FF91FE650FD4F208131814F
:1012A00042815381C801B7010E94BB06882361F4C3
:1012B0002196C630D10521F78FEFDF91CF911F9195
:1012C0000F91FF90EF9008958C2FDF91CF911F9198
:1012D0000F91FF90EF900895282F392FD901862F75
:1012E000972FFC018FE001900D928150E1F7089556
:1012F000BC018091540390E09C01220F331F280F02
:10130000391FC901880F991F880F991F820F931FDA
:1013100086509D4F0E946C09809154038F5F80938B
:101320005403863010F0109254030895CF93DF9346
:10133000EC01688179818A819B810E9436098F3F07
:10134000A9F090E09C01220F331F280F391FC9011B
:10135000880F991F880F991F820F931F86509D4FEA
:10136000BE010E946C09DF91CF91089580915403D2
:1013700090E09C01220F331F280F391FC901880FED
:10138000991F880F991F820F931F86509D4FBE0192
:101390000E946C09809154038F5F809354038630C0
:1013A00010F310925403DF91CF91089520916A03B6
:1013B00021FD03C00E94960908950E9478090895AE
:1013C00080916A0381FF1BC02091550380915403D3
:1013D0002817C9F0822F8F5F8093550330E0C90131
:1013E000880F991F820F931F9C01220F331F220F1A
:1013F000331F280F391F26503D4FC901089520E0A3
:1014000030E0C9010895109255031092540320E072
:1014100030E0F3CF90E0AC01440F551F480F591F47
:101420009A01220F331F220F331F240F351F26501E
:101430003D4FC90108950E94E009009721F05E9A8E
:1014400020916A0321FF08950E94AC000895109234
:10145000570310925603559A569A579A5D985E987C
:101460005F980895823049F0833029F0813009F087
:1014700008955D9A08955F9A08955E9A089582305E
:1014800049F0833029F0813009F008955D9808957E
:101490005F9808955E98089590915703992321F0DD
:1014A000923011F080E0089590910701292F21508A
:1014B000209307019923B1F79AE0909307018823BD
:1014C00079F0809106010E94320A809106018F5FB7
:1014D00080930601853078F081E0809306010895BD
:1014E000809106010E943F0A809106018F5F8093E0
:1014F0000601853088F780E0089590915703911197
:1015000008950E94320A0895909157039111089509
:101510000E943F0A0895662319F40E94840A0895E0
:101520000E947D0A089590915703911108950E9499
:101530008B0A0895662351F086FF17C05F9A85FFD6
:1015400017C05E9A84FD0AC05D98089582FF08C0A6
:101550005F9A81FF08C05E9A80FFF6CF5D9A08957A
:101560005F9881FDF8CF5E98F7CF5F9885FDE9CF52
:101570005E98E8CF90915703992311F0809156031C
:101580000E949A0A089590915703992319F0933075
:1015900009F0089590910401992359F460E00E94A4
:1015A0009A0A81E090910401911180E080930401F6
:1015B000089561E00E949A0AF4CFFC0195819F7022
:1015C0009093570386818F7080935603923081F0F9
:1015D000933039F0913009F0089560E00E94BA0A22
:1015E00008958091E802809356030E94C30A0895EB
:1015F0000E944C0A0895809157038230D9F08330BD
:1016000049F0813009F008958091560360E00E940E
:10161000BA0A089580910501982F91509093050181
:10162000882389F78AE0809305018091E8020E946F
:10163000C30A0895809156030E944C0A813019F71D
:1016400090915603992319F480935603089580E0EE
:10165000FBCF90935A038093590308951F920F92E2
:101660000FB60F9211242F933F934F935F936F9375
:101670007F938F939F93AF93BF93EF93FF93E091EB
:101680005903F0915A030995FF91EF91BF91AF91E2
:101690009F918F917F916F915F914F913F912F918A
:1016A0000F900FBE0F901F9018950DB407FEFDCF41
:1016B0008EB50895813021F08CB58F7D8CBD089555
:1016C0008CB580628CBD08959CB5937F982B9CBD92
:1016D00008952CB5982F93702C7F922B9CBD2DB51F
:1016E00090E0959587959595879581702E7F822BB3
:1016F0008DBD0895882341F0662381F052988AB108
:1017000088618AB938980895662371F4209A84B163
:101710008A7884B98AB188708AB90895529A8AB150
:10172000877E8AB93898089550988AB182688AB9B4
:101730003B9808950F931F93DF93CF9300D0CDB7BD
:10174000DEB7082F162F2A8349830E947A0B2A813D
:1017500049810023F1F085B7806885BF4130F1F001
:101760008CB58F7D8CBD8CB5837F822B8CBD112376
:10177000F1F48CB58F7E8CBD8CB580688CBD8CB53A
:1017800080648CBD0F900F90CF91DF911F910F91CE
:10179000089585B78F7785BF413011F78CB580628A
:1017A0008CBD8CB5837F822B8CBD112311F38CB53E
:1017B00080618CBD82E00E94690BE1CF8EBD0DB4CB
:1017C00007FEFDCF8EB508958CB580688CBD089559
:1017D0008CB58F778CBD08952FB7F89490938900BE
:1017E000809388002FBF08952FB7F89490938B00B3
:1017F00080938A002FBF0895EF92FF920F931F935B
:101800007B018C012091080130E040E050E060E075
:1018100074E284EF90E00E948517CA01B9010E942A
:101820004B14A80197010E940D130E943F10CB0199
:101830001F910F91FF90EF90089590930A0180936C
:101840000901909387008093860008950F931F935A
:10185000CF93DF939B01AC0160E074E284E79BE4EB
:101860000E940D138B01D82FC92F9E01712F832F3A
:10187000922F20E03FEF4FE757E40E94BB1318166A
:101880000CF041C09E01602F712F832F922F20E01A
:1018900030E040E05EE30E94131220E03FEF4FE7AC
:1018A00057E40E94BB131816B4F59E01602F712FE8
:1018B000832F922F20E030E040E85CE30E94131277
:1018C00020E03FEF4FE757E40E94BB1318164CF59A
:1018D0009E01602F712F832F922F20E030E040E88F
:1018E0005BE30E94131220E03FEF4FE757E40E94B2
:1018F000BB1318169CF420E034E0C901DF91CF91AE
:101900001F910F91089521E030E0C901DF91CF913F
:101910001F910F91089528E030E0EFCF20E031E0F3
:10192000ECCF20E430E0E9CF80349105D9F0813468
:10193000910550F021E08030920781F024E0803062
:10194000920751F08FEF08958130910549F088306A
:101950009105C1F782E0089585E0089584E0089537
:1019600081E0089583E00895EF92FF920F931F9313
:101970007B018C012091080130E040E050E060E004
:1019800074E284EF90E00E948517CA01B9010E94B9
:101990004B14A80197010E940D130E943F107093F1
:1019A0000A016093090170938700609386001F917C
:1019B0000F91FF90EF900895EF92FF920F931F9376
:1019C000CF93DF937B018C01C42FD22F4111529A08
:1019D000D111399A80916400877E809364008FB71B
:1019E000F89410928900109288008FBF8FB7F894F6
:1019F00010928B0010928A008FBF2091080130E076
:101A000040E050E060E074E284EF90E00E948517CF
:101A1000CA01B9010E944B14A80197010E940D133D
:101A20000E943F1070930A01609309017093870030
:101A300060938600CC23C1F482E0D1118062809350
:101A40008000C801B7010E94260C8093080190E035
:101A50000E94940C886180938100DF91CF911F9147
:101A60000F91FF90EF90089582E8E7CF909180006A
:101A7000292F2068882321F4906C9093800008958A
:101A8000922F9F7B90938000089590918000292F42
:101A90002062882321F49063909380000895922F10
:101AA0009F7E909380000895EF92FF920F931F9373
:101AB0007B018C0120E030E0A9010E941B1487FF0C
:101AC00004C017FB109517F91095609109017091EA
:101AD0000A0180E090E00E94FD14A80197010E9495
:101AE00013120E94F9170E943F108FB7F894709359
:101AF0008900609388008FBF1F910F91FF90EF9036
:101B00000895EF92FF920F931F937B018C0120E0C9
:101B100030E0A9010E941B1487FF04C017FB109539
:101B200017F910956091090170910A0180E090E029
:101B30000E94FD14A80197010E9413120E94F91738
:101B40000E943F108FB7F89470938B0060938A00C7
:101B50008FBF1F910F91FF90EF9008959B01AC01F3
:101B600010925B0310925C0310925D0310925E036F
:101B700080915B0390915C03A0915D03B0915E0343
:101B800082179307A407B50704F580915B03909132
:101B90005C03A0915D03B0915E030196A11DB11D90
:101BA00080935B0390935C03A0935D03B0935E030B
:101BB00080915B0390915C03A0915D03B0915E0303
:101BC00082179307A407B50704F308958FEF84B92C
:101BD00017B81DB88EEF85B918B81BB81EB810928B
:101BE0006400089582E084BD93E095BD9AEF97BDAF
:101BF00080936E001092620310926103089581E059
:101C00008093650308951092650308952091610300
:101C100030916203C90165E070E00E94721700977D
:101C200039F4C9016AE070E00E947217009709F068
:101C300008950E94E505809161039091620364E13B
:101C400070E00E947217009799F70E9483078091B5
:101C500061039091620362E370E00E947217009743
:101C600039F70E94FB0A08951F920F920FB60F9248
:101C700011242F933F934F935F936F937F938F9391
:101C80009F93AF93BF93EF93FF9380916603882355
:101C900041F11092660380916503882349F1809198
:101CA0005F03909160039C012F5F3F4F309360036F
:101CB00020935F036AE070E00E945E17009731F1A5
:101CC000FF91EF91BF91AF919F918F917F916F9114
:101CD0005F914F913F912F910F900FBE0F901F90EA
:101CE000189581E080936603809165038823B9F697
:101CF00080916103909162030196909362038093B7
:101D000061030E94060E0E942E01DACF109260033A
:101D100010925F038091610390916203019690930A
:101D20006203809361030E942E01CACF82E084BDCA
:101D300093E095BD9AEF97BD80936E001092620379
:101D4000109261030895FC0196812781858182307C
:101D5000D9F0833071F0813009F00895892F809592
:101D6000822B922320916703922B89238093670310
:101D70000895892F8095822B922320916903922BBD
:101D80008923809369030895892F8095822B92235C
:101D900020916803922B8923809368030895109201
:101DA0006703109268031092690382E480936A03C8
:101DB0001092EA0280916B03816080936B03109212
:101DC000E90288E98093E802089580916B0380FD21
:101DD00008950E94CF0E0E94500108952091E802BC
:101DE000F999FECF1FBA92BD81BD20BD0FB6F89400
:101DF000FA9AF99A0FBE9C012F5F3F4FC9010895CF
:101E0000F999FECF92BD81BDF89A20B52093E802E2
:101E10009C012F5F3F4FC90108952091E902F99974
:101E2000FECF1FBA92BD81BD20BD0FB6F894FA9ABD
:101E3000F99A0FBE9C012F5F3F4FC9010895F99990
:101E4000FECF92BD81BDF89A20B52093E9029C0196
:101E50002F5F3F4FC90108959C012F5F3F4F409175
:101E600067034095F999FECF1FBA92BD81BD40BD71
:101E70000FB6F894FA9AF99A0FBEC90101964091EB
:101E800068034095F999FECF1FBA32BD21BD40BD10
:101E90000FB6F894FA9AF99A0FBE9C012F5F3F4F44
:101EA000409169034095F999FECF1FBA92BD81BD5B
:101EB00040BD0FB6F894FA9AF99A0FBEC90101967F
:101EC00040916A034095F999FECF1FBA32BD21BDFA
:101ED00040BD0FB6F894FA9AF99A0FBE9C012F5F95
:101EE0003F4F40916B034095F999FECF1FBA92BDC9
:101EF00081BD40BD0FB6F894FA9AF99A0FBEC90198
:101F0000089581E090E00E94EE0E0E940D0F0E9465
:101F10002C0F0895F8940E94810F089522E18433D4
:101F2000920711F080E0089580916B038E7F80937B
:101F30006B03F8940E94810F789481E008959C01CE
:101F40002F5F3F4FF999FECF92BD81BDF89A80B5C2
:101F5000809580936703C9010196F999FECF32BD40
:101F600021BDF89A20B52095209368039C012F5F2E
:101F70003F4FF999FECF92BD81BDF89A80B580950B
:101F800080936903C9010196F999FECF32BD21BD45
:101F9000F89A20B5209520936A039C012F5F3F4F4C
:101FA000F999FECF92BD81BDF89A80B58095809356
:101FB0006B03C901089581E090E00E94000F0E9428
:101FC0001F0F0E949F0F08951F920F920FB60F923E
:101FD00011242F933F938F939F93209178003091FA
:101FE000790080917003882321F580916E03909190
:101FF0006F0390936D0380936C03932F80E0820FA7
:10200000911D90936F0380936E0381E08093700322
:1020100082E480937C0080917A00806480937A00CF
:102020009F918F913F912F910F900FBE0F901F9016
:10203000189510927003ECCFEAE7F0E08081887F7A
:10204000808308958BE980937A00EEE7F0E0808149
:1020500084608083EFE7F0E080818360808380EAA2
:1020600080937B0082E480937C00089582E48093D7
:102070007C00EAE7F0E08081806480830895EF923D
:10208000FF920F931F937B018C0120E030E040E032
:102090005FE40E94EB1387FD11C0C801B70120E087
:1020A00030E040E05FE40E94E2110E94AB149B012B
:1020B000AC01205030404040504806C0C801B70134
:1020C0000E94AB149B01AC01B901CA011F910F9191
:1020D000FF90EF900895A0E0B0E0E1E7F0E10C940C
:1020E000C617FC01EA018081823008F438C1DB01A7
:1020F0009C91923008F430C1843059F4943009F046
:102100002EC1918111968C911197981709F021C1D8
:1021100026C1943009F420C19230B1F4823009F024
:102120001EC1CA01AF0128E0DA010D90AD01DC014A
:102130000D92CD012150C1F7DB0111968C911197C1
:102140009181892389830AC1823009F405C1C28043
:10215000D380DB0112966D907C901397248135819A
:10216000468157811496ED90FD900D911C91179723
:10217000C601861997095C0197FF04C0AA24BB24F5
:10218000A81AB90AB0E2AB16B1040CF061C0181677
:1021900019066CF5370148010A2C04C096948794FF
:1021A000779467940A94D2F781E090E0A0E0B0E0E1
:1021B0000A2C04C0880F991FAA1FBB1F0A94D2F7CC
:1021C0000197A109B1098E219F21A023B123EE24FB
:1021D000FF248701E3940097A105B10519F4EE24CB
:1021E000FF248701E628F728082919293CC0009711
:1021F000D1F1CA0CDB1C39014A010A2C04C09694A7
:102200008794779467940A94D2F781E090E0A0E0F5
:10221000B0E00A2C04C0880F991FAA1FBB1F0A94A4
:10222000D2F70197A109B10982239323A423B523EF
:1022300021E030E040E050E00097A105B10519F43D
:1022400020E030E0A90126293729482959290BC067
:102250006C147D0424F4EE24FF24870104C0630180
:1022600020E030E0A9018181FB019181891709F407
:1022700045C0882349F0D801C701821B930BA40BEA
:10228000B50B9C01AD0104C02E193F09400B510B49
:1022900057FD04C01982DB82CA820BC081E08983AA
:1022A000DB82CA8250954095309521953F4F4F4F24
:1022B0005F4F2C833D834E835F830DC0880F991F32
:1022C000AA1FBB1F8C839D83AE83BF838A819B81A2
:1022D00001979B838A838C819D81AE81BF819C0104
:1022E000AD0121503040404050402F3FEFEF3E07BE
:1022F000EFEF4E07EFE35E0708F30BC08983DB8245
:10230000CA822E0D3F1D401F511F2C833D834E83DB
:102310005F8383E088832C813D814E815F8157FFFD
:102320001DC0DA01C90181709070A070B07056951F
:10233000479537952795822B932BA42BB52B8C8310
:102340009D83AE83BF838A819B8101969B838A8311
:1023500005C0EBE0F1E003C0FB0101C0FE01CF01CD
:10236000CDB7DEB7EEE00C94E217A0E2B0E0EBEB05
:10237000F1E10C94CE1769837A838B839C832D8340
:102380003E834F83588789E0E82EF12CEC0EFD1E2A
:10239000CE010196B7010E949C168E010F5E1F4F61
:1023A000CE010596B8010E949C16C701B801AE0186
:1023B000475E5F4F0E946B100E94CF15A096E6E02B
:1023C0000C94EA17A0E2B0E0E8EEF1E10C94CE172D
:1023D00069837A838B839C832D833E834F835887C5
:1023E0008E01075F1F4FCE010196B8010E949C1617
:1023F00091E1E92EF12CEC0EFD1ECE010596B70100
:102400000E949C168A8991E089278A8BC801B701AE
:10241000AE01475E5F4F0E946B100E94CF15A096E1
:10242000E6E00C94EA17A0E2B0E0E9E1F2E10C94F6
:10243000C21769837A838B839C832D833E834F836A
:102440005887CE010196BE01675F7F4F0E949C16A0
:10245000CE010596BE016F5E7F4F0E949C16998546
:10246000923078F089898230C0F0943019F482304B
:1024700041F4CBC0843019F4923079F4C6C0923064
:1024800051F481E02A859A89291709F480E08A8726
:10249000CE010996BCC0823051F481E02A859A8928
:1024A000291709F480E08A8BCE014196B0C06D8473
:1024B0007E848F849888ED88FE880F89188DE0E2ED
:1024C000F0E080E090E0DC01AA24BB24650120E07C
:1024D00030E0A901B3016170707061157105D1F030
:1024E0002E0D3F1D401F511F15012601280E391EBC
:1024F0004A1E5B1E81E090E0A0E0B0E02E153F0593
:102500004007510718F080E090E0DC01820D931D38
:10251000A41DB51DAA0CBB1CCC1CDD1C17FF09C0DB
:1025200061E0262E312C412C512CA228B328C4283E
:10253000D528319749F0EE0CFF1C001F111F96940F
:10254000879477946794C6CF6B897C89EB85FC85EB
:102550006E0F7F1F6E5F7F4F7C8F6B8F61E0EA8510
:102560007A89E71709F460E06A8F6B8D7C8D10C063
:10257000FC01E170F070309729F05695479537953A
:1025800027955068B695A795979587956F5F7F4F6C
:10259000B7FDEECF0CC0880F991FAA1FBB1F57FDB8
:1025A0008160220F331F441F551F615070408030DF
:1025B000E0E09E07E0E0AE07E0E4BE0760F36B8F6B
:1025C0007C8F6FE7E62EF12C012D112DE822F922E8
:1025D0000A231B2360E4E616F1040105110561F4EA
:1025E00087FD0AC0211531054105510529F0805CA0
:1025F0009F4FAF4FBF4F80788D8F9E8FAF8FB8A307
:1026000083E0898FCE01499602C08BE091E00E9461
:10261000CF15A096E2E10C94DE17A8E1B0E0E3E16B
:10262000F3E10C94CA1769837A838B839C832D838F
:102630003E834F8358878E01075F1F4FCE0101965F
:10264000B8010E949C1681E1E82EF12CEC0EFD1ED3
:10265000CE010596B7010E949C169985923008F428
:1026600083C08989823008F47BC02A853A89232770
:102670002A87943011F0923021F4981709F06CC039
:1026800071C0843039F41D861E861F86188A1C8608
:102690001B866AC0823019F484E0898765C08B8507
:1026A0009C852B893C89821B930B9C878B872D856E
:1026B0003E854F855889ED88FE880F89188D2E1527
:1026C0003F054007510738F4220F331F441F551FA1
:1026D00001979C878B876FE170E0A12CB12CC12CF6
:1026E000A0E4DA2E80E090E0DC012E153F054007E3
:1026F000510740F08A299B29AC29BD292E193F0991
:10270000400B510BD694C794B794A794220F331F54
:10271000441F551F6150704041F76FE7E62EF12CC2
:10272000012D112DE822F9220A231B2360E4E6166D
:10273000F1040105110561F487FD0AC02115310579
:102740004105510529F0805C9F4FAF4FBF4F807806
:102750008D879E87AF87B88B8E01075F1F4F04C0A0
:10276000870102C00BE011E0C8010E94CF156896F6
:10277000EAE00C94E617A8E1B0E0E1ECF3E10C9498
:10278000CE1769837A838B839C832D833E834F830B
:1027900058878E01075F1F4FCE010196B8010E9436
:1027A0009C1681E1E82EF12CEC0EFD1ECE01059663
:1027B000B7010E949C168985823040F08989823059
:1027C00028F0C801B7010E94051701C08FEF689675
:1027D000E6E00C94EA17A8E1B0E0E1EFF3E10C9435
:1027E000CE1769837A838B839C832D833E834F83AB
:1027F00058878E01075F1F4FCE010196B8010E94D6
:102800009C1681E1E82EF12CEC0EFD1ECE01059602
:10281000B7010E949C168985823040F089898230F8
:1028200028F0C801B7010E94051701C08FEF689614
:10283000E6E00C94EA17A8E1B0E0E1E2F4E10C94E0
:10284000CE1769837A838B839C832D833E834F834A
:1028500058878E01075F1F4FCE010196B8010E9475
:102860009C1681E1E82EF12CEC0EFD1ECE010596A2
:10287000B7010E949C168985823040F08989823098
:1028800028F0C801B7010E94051701C081E06896D1
:10289000E6E00C94EA17A8E0B0E0E1E5F4E10C947E
:1028A000CE177B018C0183E08983D801C70188277B
:1028B000B7FD83959927AA27BB27282F8A83E11480
:1028C000F1040105110519F482E0898337C08EE116
:1028D00090E09C838B83222389F080E0E81680E0DF
:1028E000F80680E0080780E8180769F11095009560
:1028F000F094E094E11CF11C011D111DED82FE829B
:102900000F831887C801B7010E9475159C012150DB
:1029100030401216130694F4022E04C0EE0CFF1C75
:10292000001F111F0A94D2F7ED82FE820F831887D1
:102930008EE190E0821B930B9C838B83CE010196EA
:102940000E94CF1504C060E070E080E09FEC289604
:10295000E6E00C94EA17ACE0B0E0E1EBF4E10C94B3
:10296000D21769837A838B839C83CE010196BE0143
:102970006B5F7F4F0E949C168D81823081F1823087
:1029800070F1843021F48E81882369F10AC02F818F
:10299000388537FD24C06E812F3131053CF0662328
:1029A00011F120E030E040E050E821C08EE190E0FD
:1029B000821B930B29853A854B855C8504C056950F
:1029C0004795379527958A95D2F7662381F05095DC
:1029D0004095309521953F4F4F4F5F4F08C020E005
:1029E00030E0A90104C02FEF3FEF4FEF5FE7B901DF
:1029F000CA012C96E2E00C94EE17A8E0B0E0E3E008
:102A0000F5E10C94CC177B018C011A8261157105DC
:102A10008105910519F482E089835FC083E0898391
:102A20008EE1C82ED12CDC82CB82ED82FE820F8318
:102A30001887C801B7010E947515FC013197F7FF8F
:102A40003AC0AA27BB27AE1BBF0B21E030E040E015
:102A500050E00A2E04C0220F331F441F551F0A9452
:102A6000D2F721503040404050402E213F2140239A
:102A7000512361E070E080E090E0211531054105CF
:102A8000510519F460E070E0CB0104C0169507957C
:102A9000F794E794AA95D2F7E62AF72A082B192B80
:102AA000ED82FE820F8318878EE190E08E1B9F0BD4
:102AB0009C838B8312C0309781F00E2E04C0EE0CE5
:102AC000FF1C001F111F0A94D2F7ED82FE820F83B4
:102AD0001887CE1ADF0ADC82CB82CE0101960E94D3
:102AE000CF152896E8E00C94E817AF92BF92CF92EA
:102AF000DF92EF92FF920F931F937B018C0180E096
:102B0000E81680E0F80681E0080780E0180758F42E
:102B1000EFEFEE16F1040105110509F090F480E0E5
:102B200090E0DC0117C0F0E0EF16F0E0FF06F0E007
:102B30000F07F1E01F0750F480E190E0A0E0B0E063
:102B400009C088E090E0A0E0B0E004C088E190E037
:102B5000A0E0B0E020E230E040E050E0281B390B7C
:102B60004A0B5B0B5701680104C0D694C794B79415
:102B7000A7948A95D2F7D601C5018D5E9E4FFC01C0
:102B80008081281B310941095109C9011F910F9109
:102B9000FF90EF90DF90CF90BF90AF900895EF92AD
:102BA000FF920F931F93CF93DF93FC012481358114
:102BB0004681578161818081823020F44061EFEF4E
:102BC000F0E0A3C0843009F49BC0823009F492C0C5
:102BD000211531054105510509F48FC00280F381AB
:102BE000E02D7FEFE238F7070CF05AC0C2E8DFEFC4
:102BF000CE1BDF0BCA31D1056CF579018A010C2E91
:102C000004C016950795F794E7940A94D2F781E0EB
:102C100090E0A0E0B0E00C2E04C0880F991FAA1F1E
:102C2000BB1F0A94D2F70197A109B109822393230C
:102C3000A423B52321E030E040E050E00097A10557
:102C4000B10519F420E030E0A9012E293F29402BDD
:102C5000512B03C020E030E0A901DA01C9018F77D0
:102C60009070A070B07080349105A105B10539F461
:102C700027FF09C0205C3F4F4F4F5F4F04C0215CCE
:102C80003F4F4F4F5F4FE1E0F0E0203080E03807EA
:102C900080E0480780E4580728F5E0E0F0E022C033
:102CA000E038F1056CF5E158FF4FDA01C9018F7783
:102CB0009070A070B07080349105A105B10539F411
:102CC00027FF09C0205C3F4F4F4F5F4F04C0215C7E
:102CD0003F4F4F4F5F4F57FF05C05695479537956C
:102CE0002795319687E056954795379527958A958C
:102CF000D1F70BC0E0E0F0E005C0E0E0F0E005C097
:102D0000EFEFF0E020E030E0A9018E2F87958827D3
:102D10008795942F9F77679566276795E695A92FE6
:102D2000A82BFE2FF62B622F732F8A2F9F2FCDB744
:102D3000DEB7E6E00C94EA17DC01FB012C9111965A
:102D40003C91119712968C911297482F4F7750E033
:102D5000982F991F9927991F13966C911397862F77
:102D6000880F892B90E0661F6627661F6183009796
:102D700039F5211531054105510511F482E029C0CD
:102D800082E89FEF9383828367E0220F331F441F03
:102D9000551F6A95D1F783E0808309C0220F331F46
:102DA000441F551F82819381019793838283203032
:102DB00080E0380780E0480780E4580778F320C0B7
:102DC0008F3F910579F4211531054105510519F41D
:102DD00084E08083089544FF03C081E0808310C0B5
:102DE00010820EC08F5790409383828383E080834C
:102DF00087E0220F331F441F551F8A95D1F7506477
:102E000024833583468357830895FC01DB01908139
:102E1000923008F449C08C91823008F445C0943057
:102E200051F461818430B1F511962C91119730E005
:102E3000261B310941C0843021F0923041F48230A8
:102E4000B1F111968C9111978823A1F12DC0618168
:102E5000823001F111968C9111976817D9F4228173
:102E6000338112968D919C9113978217930794F05A
:102E700028173907BCF02481358146815781149683
:102E80008D919D910D90BC91A02D82179307A40761
:102E9000B50718F4662341F00DC0281739074A0713
:102EA0005B0728F4662331F021E030E005C020E024
:102EB00030E002C02FEF3FEFC9010895AA1BBB1BF2
:102EC00051E107C0AA1FBB1FA617B70710F0A61B2A
:102ED000B70B881F991F5A95A9F780959095BC014B
:102EE000CD01089597FB092E07260AD077FD04D05F
:102EF000E5DF06D000201AF4709561957F4F0895A4
:102F0000F6F7909581959F4F089597FB092E05261A
:102F10000ED057FD04D014D00AD0001C38F45095C0
:102F20004095309521953F4F4F4F5F4F0895F6F7ED
:102F300090958095709561957F4F8F4F9F4F089525
:102F4000A1E21A2EAA1BBB1BFD010DC0AA1FBB1FAD
:102F5000EE1FFF1FA217B307E407F50720F0A21B1F
:102F6000B30BE40BF50B661F771F881F991F1A948C
:102F700069F760957095809590959B01AC01BD01B6
:102F8000CF0108952F923F924F925F926F927F925E
:102F90008F929F92AF92BF92CF92DF92EF92FF9269
:102FA0000F931F93CF93DF93CDB7DEB7CA1BDB0B15
:102FB0000FB6F894DEBF0FBECDBF09942A883988BA
:102FC00048885F846E847D848C849B84AA84B984C1
:102FD000C884DF80EE80FD800C811B81AA81B981CD
:102FE000CE0FD11D0FB6F894DEBF0FBECDBFED01E1
:102FF00008953BD080F09F3740F491110EF44DC0FE
:1030000060E070E080E89FE3089526F01B16611DE4
:10301000711D811D01C01BC0882371F4772321F02D
:103020009850872B762F07C0662311F499270DC07F
:103030009051862B70E060E02AF09A95660F771F1A
:10304000881FDAF7880F9695879597F908959F3F1F
:1030500031F0915020F4879577956795B795880F53
:10306000911D9695879597F9089525D0A0F0BEE714
:10307000B91788F4BB279F3860F41616B11D672F67
:10308000782F8827985FF7CF869577956795B11D3C
:1030900093959639C8F30895E894BB276627772758
:1030A000CB0197F9089557FD9058440F551F59F0DB
:1030B0005F3F71F04795880F97FB991F61F09F3F25
:1030C00079F087950895121613061406551FF2CF4E
:1030D0004695F1DF08C0161617061806991FF1CF9E
:0E30E00086957105610508940895F894FFCF58
:1030EE0011FFFFFF0101010A01FFFF0000000000B8
:1030FE00000000000102020303030304040404049D
:10310E000404040505050505050505050505050564
:10311E000505050606060606060606060606060644
:10312E000606060606060606060606060606060631
:10313E000606060707070707070707070707070714
:10314E000707070707070707070707070707070701
:10315E0007070707070707070707070707070707F1
:10316E0007070707070707070707070707070707E1
:10317E0007070708080808080808080808080808C4
:10318E0008080808080808080808080808080808B1
:10319E0008080808080808080808080808080808A1
:1031AE000808080808080808080808080808080891
:1031BE000808080808080808080808080808080881
:1031CE000808080808080808080808080808080871
:1031DE000808080808080808080808080808080861
:1031EE000808080808080808080808080808080851
:0431FE0008080800B5
:00000001FF
