:100000000C9446000C9463000C9463000C94630001
:100010000C9463000C9463000C9463000C946300D4
:100020000C9463000C9463000C9463000C946300C4
:100030000C9463000C9463000C9463000C94B01057
:100040000C9463000C9463000C9400060C94630001
:100050000C9463000C9463000C9463000C947E0376
:100060000C9463000C9463000C94D20D0C946312F6
:100070000C9463000C9463000C94630044726976E2
:100080006573204443206D6F746F720011241FBE8E
:10009000CFEFD4E0DEBFCDBF12E0A0E0B1E0ECEEE8
:1000A000F5E302C005900D92A831B107D9F713E02E
:1000B000A8E1B2E001C01D92A73FB107E1F70E949D
:1000C00087000C94F41A0C940000F8940E946210BB
:1000D0000E94B10C60E472E48FE090E00E942A106C
:1000E0000E945A1283E00E9427070E9461110E9419
:1000F00011080E94CB0288E990E00E9400048CEA7B
:1001000091E00E944E0978940E946E1008950E941A
:1001100065008091F10380FD07C084E00E941C0D02
:100120008091F10380FFF9CF84E00E94150DF1CF9B
:100130000895EF92FF920F931F93DF93CF930F9247
:10014000CDB7DEB77C01162F072F80EA90E06091D3
:100150006E0349830E941E09DC01CB01F7018083F5
:100160009183A283B3834981458306831783848166
:10017000807E866084830F90CF91DF911F910F91D5
:10018000FF90EF900895DF92EF92FF920F931F93ED
:10019000CF93DF93EC01D62E8A01790180EA90E0BB
:1001A00060916E030E941E09688379838A839B8312
:1001B000DD821E830F830E191F09188709878C8122
:1001C000807E8A608C83DF91CF911F910F91FF9089
:1001D000EF90DF9008950895E82FF0E020E130E0FF
:1001E00002C0220F331F8A95E2F78091ED0382232C
:1001F000E9F4CF0182959295907F9827807F982788
:10020000FC01E60FF11DEE0FFF1FEF5CFD4F20819B
:100210003181462F482B89E192E0B9010E94990073
:1002200080E069E172E00E94DA060895CF018295CC
:100230009295907F9827807F9827860F911D880F31
:10024000991FDC01AF5CBD4F4D915C91DC01AF5457
:10025000BD4F2D913C9189E192E00E94C30080E066
:1002600069E172E00E94DA060895CF93DF938091EE
:10027000ED038F7019F4DF91CF9108950E94D101A1
:100280008823C9F380910001909101010197909317
:10029000010180930001181619066CF30E94B30146
:1002A000809300011092010182E00E94150D80915F
:1002B000280290E00E941903D82FC0E08091280204
:1002C0006C2F0E94EC00CF5FCD17C0F390912802F5
:1002D0005091ED0321E030E00AC0C901042E02C0B4
:1002E000880F991F0A94E2F7942F852341F4492F30
:1002F0004F5F443090F340E081E090E0F6CF4093D0
:10030000280282E00E941C0DB6CF80EA90E0609146
:100310006E030E941E09609333037093340380932D
:1003200035039093360380EA8093380385E5809304
:10033000390391EA90933A0380933B03809137030A
:10034000807E886080933703089581E08093ED0379
:1003500081E88093EE03089508950E9400120895A5
:100360000E945A1208958091EE0390E0807F907071
:100370008032910591F08132910544F080349105ED
:1003800051F08038910529F484E108958031910578
:1003900031F08FEF08958AE0089584E0089582E0B7
:1003A00008959091EE03907F81E009F480E0089534
:1003B000E8E6F0E08081826080830895E8E6F0E07E
:1003C00080818D7F80830895813059F0813028F0BD
:1003D000823049F0833019F008952B9808952E98B3
:1003E00008952C9808952D980895813059F0813002
:1003F00028F0823049F0833019F008952B9A08953F
:100400002E9A08952C9A08952D9A0895CF93C82F67
:100410000E94E40180E10E945A0E8C2F0E94F50197
:10042000CF91089580E00E94060281E00E940602BA
:1004300082E00E94060283E00E94060208959F92D5
:10044000AF92BF92CF92DF92EF92FF920F931F93E2
:10045000CF93DF93B82E082F10E0000F111F0295E5
:100460001295107F1027007F102791EBE92E92E064
:10047000F92EE00EF11E0F5C1D4FC0E1D0E08B2D78
:100480000E94E40180E00E945A0E982E8B2D0E945B
:10049000F5018B2D0E94E40180E00E945A0EA82EE7
:1004A0008B2D0E94F501D92CCC2496012A0D311DEB
:1004B000F80140815181F701419351937F013695B5
:1004C000279536952795F801219331938F01219730
:1004D000B1F6DF91CF911F910F91FF90EF90DF90D8
:1004E000CF90BF90AF909F9008951F93DF93CF93CD
:1004F0000F92CDB7DEB7182F69830E94E40169819E
:10050000862F880F880F880F80680E945A0E812FCF
:100510000E94F501143080F4E12FF0E0EE5FFE4F11
:10052000908188B18923E9F7812F0E941F020F90E3
:10053000CF91DF911F91089590E1F3CFCF93C82F12
:100540000E94E40188E60E945A0E8C2F0E94F50159
:10055000CF910895CF93C82F0E94E40180E20E94BA
:100560005A0E8C2F0E94F501CF910895CF93DF93FF
:10057000C0E0D0E08C2F60E00E9475028C2F0E94BA
:100580009E028C2F0E94AA022196C430D10591F7B9
:10059000DF91CF91089580E061E040E020E00E948B
:1005A000270E84B1886784B9279A2098289A87B142
:1005B0008F7087B90E9412020E94B60208951F939D
:1005C000DF93CF930F92CDB7DEB7182F69830E94C8
:1005D000E4016981862F80630E945A0E812F0E9458
:1005E000F5010F90CF91DF911F9108951F93CF9345
:1005F000DF93C82F0E94E40180E00E945A0E182F5A
:1006000080E00E945A0ED82F8C2F0E94F501512FA6
:1006100040E02D2F30E0242B352B3695279536954D
:100620002795C901DF91CF911F9108950E9475020E
:10063000089521E030E0082E02C0220F331F0A94F3
:10064000E2F79091ED03922389F09091EF0340E15E
:1006500050E002C0440F551F8A95E2F7492321F468
:10066000292331F088E008958FE0089580E008950F
:1006700084E008950F931F93CF93DF93C0E0D0E001
:1006800001E010E0C8010C2E02C0880F991F0A94E7
:10069000E2F72091ED03282349F42196C430D105D7
:1006A00089F7DF91CF911F910F910895CE010E949C
:1006B0001903682F8C2F0E947502EFCF0F931F93A1
:1006C000CF93DF93082F10E0000F111F02951295B2
:1006D000107F1027007F10270F5C1D4FC0E1D0E076
:1006E00080E00E94F602F801819391938F01219797
:1006F000B9F7DF91CF911F910F9108951F920F923B
:100700000FB60F9211242F933F934F935F936F93E4
:100710007F938F939F93AF93BF93EF93FF93349BFC
:100720001AC0359B1DC0369B20C0379903C083E09B
:100730000E941F02FF91EF91BF91AF919F918F9106
:100740007F916F915F914F913F912F910F900FBECD
:100750000F901F90189580E00E941F023599E3CFFB
:1007600081E00E941F023699E0CF82E00E941F02C2
:10077000DCCF0E94D101882309F408950E943A0336
:1007800008952091E7033091E803C90165E070E026
:100790000E94F119009769F1C9016AE070E00E94B6
:1007A000F1190097F9F0C90164E670E00E94F119AF
:1007B000009779F48091310390913203009751F4BE
:1007C00081E00E941C0D81E090E0909332038093C1
:1007D0003103089581E00E94150D109232031092AA
:1007E000310308950E94B9032091E7033091E80393
:1007F000DACF0E9435012091E7033091E803CCCF96
:1008000090936B0380936A03089590936D03809394
:100810006C030895CF93DF93EDEEF0E02081829595
:10082000807F8083C1EFD0E03881CB01807E9070E3
:1008300096958795929582958F7089279F708927C5
:10084000387F382BA0EFB0E08C91660F660F660FF3
:100850008770682B38836C93A5EFB0E08C9187602C
:100860008C93A4EFB0E08C91886F8C932083DF9100
:10087000CF910895EDEEF0E090818295807F8083A6
:10088000A5EFB0E08C91887F8C93A4EFB0E08C91C1
:1008900087708C9390830895252F362FEDEEF0E02E
:1008A00050818295807F8083862F82958695877080
:1008B000440F440F440F482BC901807E9F719695C9
:1008C0008795929582958F7089279F708927220F2F
:1008D000220F220F372F329536953770232B770F43
:1008E000770F770F4093F3008093F2002093F1008D
:1008F0007093F00050830895FF920F931F93CF934E
:10090000DF93F82E8B01CA0160E00E941E09C72FF9
:10091000D82FC80160E00E941E09272F382FEDEE66
:10092000F0E00081F294B0EFFB22F08243EF50E060
:10093000DA016C918D2F829586958770687F682B80
:10094000CE01807E9F7196958795929582958F7046
:1009500089279F708927A1EFB0E07C91FC2EFF0CC6
:10096000FF0CFF0C7770F72AEA0168838093F2008E
:10097000FC92C7EFD0E04881832F829586958770DF
:10098000487F482BC901807E9F71969587959295E7
:1009900082958F7089279F708927A5EFB0E05C91C1
:1009A000220F220F220F5770252B48838093F600C9
:1009B0002C930083DF91CF911F910F91FF900895A9
:1009C000EDEEF0E090818295807F8083A7EFB0E02C
:1009D0008C91887F8C93A6EFB0E08C911C92A5EF50
:1009E000B0E08C9187708C9390830895EDEEF0E0E9
:1009F00090818295807F80836093F7007093F600EA
:100A00004093F5005093F40090830895EDEEF0E0EC
:100A100090818295807F80836093F7007093F600C9
:100A20004093F5005093F400908308951F93CF9363
:100A3000DF93EDEEF0E01081382F3295307F308378
:100A4000CEEDD0E09881A1E0B0E002C0AA0FBB1FBC
:100A50008A95E2F79A2B9883808130836093F70020
:100A60007093F6004093F5005093F4008083206962
:100A70002093EF00A8EDB0E08C9182608C931083FE
:100A8000DF91CF911F910895EF92FF920F931F93E3
:100A9000CF93DF9381E060E070E040E050E028E039
:100AA0000E94160560916E0381E070E00E940A04C6
:100AB00083E060E070E040E050E028E00E9416052E
:100AC000CDEED0E0988180E3888305EF10E0F80157
:100AD0008081887F808384EFE82EF12CF70180816C
:100AE00087708083988383E063E27CEF43E25CEF6E
:100AF0000E947C0485E060E070E040E050E028E087
:100B00000E941605988180E58883F8018081887F9E
:100B10008083F701808187708083988385E060E01F
:100B20007CEF40E05CEF0E947C04DF91CF911F914D
:100B30000F91FF90EF900895EDEEF0E09081829597
:100B4000807F80831092EF001092EE0090830895D2
:100B5000FC014091F30050E02091F2008091F100FF
:100B600090E0A091F000BA0176956795769567952B
:100B700076956795608330E0220F331F229532957A
:100B8000307F3227207F3227542F44275295550F2C
:100B9000507E242B352BAC0156954795569547959D
:100BA00056954795242B352B328321838295880FC8
:100BB000807EA695A695A695A82BA3830895CF938E
:100BC000DF93EC010E94A8058091EF008F70282F21
:100BD000220F9C81917E922B9C83482F50E04115DF
:100BE000510559F0259620E030E09091FA00999354
:100BF0002F5F3F4F24173507C4F3DF91CF9108953E
:100C00001F920F920FB60F9211242F933F934F9381
:100C10005F936F937F938F939F93AF93BF93CF9384
:100C2000EF93FF93C091ED004091EC0042954F701F
:100C30004F3009F487C08091EC00807F8093ED00F5
:100C40008091EE0090E08F719070009709F440C0A1
:100C50008091EE0090E082FF05C02091EE002F7E93
:100C60002093EE009C01237030702115310529F08E
:100C70002091EE00277F2093EE0081FF05C0209198
:100C8000EE002B7F2093EE0080FF05C08091EE00E8
:100C90008D7F8093EE00453009F44BC0413009F45C
:100CA00048C0433009F445C0C093ED00FF91EF9177
:100CB000CF91BF91AF919F918F917F916F915F91F4
:100CC0004F913F912F910F900FBE0F901F9018954D
:100CD0008091EE0085FD13C08091EE0086FFE4CF89
:100CE000E0916C03F0916D03309709F0099581E074
:100CF000809361031092EF001092EE00D5CF81E057
:100D00008093600381E593E00E94DF0581E593E035
:100D10000E948F0A882369F481E593E00E94600CA9
:100D2000E0916A03F0916B03309719F081E593E04D
:100D3000099588E98093EF008091EE008F7D809384
:100D4000EE00B2CF8091DA008093DA00AFCFCF937C
:100D5000DF93EB01982F9295907FF8949093ED009C
:100D60001092EE00488159816A817B810E944C0477
:100D70008C8186958F7079F0FE01359680E090E049
:100D800021912093FA0001962C8126952F7030E056
:100D900082179307ACF38091F0008B7F8093F00073
:100DA0008C8186958F7080658093EF007894DF91B9
:100DB000CF9108950E94A7068091EE0086FFFCCF98
:100DC00008952091F80030E04091F900942F80E0E0
:100DD000282B392BC9010895CF93DF93EC010E9492
:100DE000DF058F70880F9C81917E982B9C8380916A
:100DF000F80090E04091F900342F20E0822B932BF3
:100E00009E878D87DF91CF910895833061F0843084
:100E100030F08530D1F0853080F482E105C081303A
:100E200091F0823071F08EE08093E20084E0809354
:100E3000E30083E18093E40008958630A1F786E221
:100E4000F3CF86E0F1CF82E0EFCF8EE1EDCF91E0FE
:100E50009093D8001092E50090E0292F2295207FF2
:100E60002093ED001092EF001092EE009F5F9630FD
:100E7000A1F790EA9093DB000E9405070E944405C9
:100E80008091D90082FFFCCF0895882351F482E03D
:100E90008093E20084E08093E30083E18093E400A8
:100EA00008951092E2008CE08093E30086E3809343
:100EB000E4000895882351F486E08093E20084E002
:100EC0008093E30083E18093E400089582E08093BF
:100ED000E2008CE08093E30087E38093E4000895D0
:100EE000882351F48EE08093E20084E08093E30055
:100EF00083E18093E400089586E08093E2008CE033
:100F00008093E30087E38093E4000895882351F4FD
:100F100082E18093E20084E08093E30083E18093A8
:100F2000E400089588E08093E2008CE08093E30081
:100F300087E38093E4000895882351F48EE1809341
:100F4000E20084E08093E30083E18093E40008956D
:100F50008EE08093E2008CE08093E30087E380934F
:100F6000E4000895882351F486E28093E20084E04F
:100F70008093E30083E18093E400089582E180930D
:100F8000E2008CE08093E30087E38093E40008951F
:100F900083E980937A00EEE7F0E0808188608083C7
:100FA00080E880937B000895569840E050E020E070
:100FB00030E0E3E4E0937C0080917A0080648093E9
:100FC0007A0080917A0086FDFCCF8091780090E0D5
:100FD00081709070BA016F70707002C0880F991F95
:100FE0006A95E2F7282B392B809179004F5F5F4F8C
:100FF00040315105F9F6569AC901089583E060E041
:1010000070E040E050E028E00E94160583E00E9476
:101010003A0483E063E27CEF43E25CEF0E947C04ED
:10102000089583E980937A0080917E0088608093A0
:101030007E0080E880937B000E94D40790E090932C
:10104000720380937103809373030E94A1128091B5
:101050006F03882351F082E080936F0382E88093CE
:10106000760381E080937003089581E08093760396
:101070000E94FE0710926E03809176038068809331
:10108000760381E0809370030895CF93DF93EC01A2
:1010900083E29CEF0E941E09688379838A839B8385
:1010A00080916E038D8380916F038E838091730393
:1010B0008F838091760388878091770389878091D9
:1010C000F1038A878C81807E8E608C83DF91CF9143
:1010D000089581E08093770340916F03413059F187
:1010E00080917003882339F180917103909172038C
:1010F0009C0121503040309372032093710300977C
:10110000D1F481E090E0909372038093710382E0C8
:1011100080937703442391F0423009F45AC040325F
:1011200039F1403809F447C0403431F080917703F9
:10113000806880937703089586E8FBCF83E08093EF
:10114000770380E280936F0382E493E060917303FE
:101150000E94450880E062E473E00E94A7068CE2EA
:1011600091E0909375038093740340916F03D4CF03
:1011700084E080937703F8942091ED001092ED00C5
:101180008091EE0086FF03C080E880936F0380911A
:101190007403909175030197909375038093740382
:1011A000009719F484E080936F032093ED00789406
:1011B00040916F03B6CF85E08093770381E0809301
:1011C0006F03F8940E9400127894809177038068EE
:1011D000B0CF87E08093770381E080936F0382E450
:1011E00093E060916E030E94450880E062E473E042
:1011F0000E94A70640916F0392CFCF93DF93EC013B
:1012000084E29CEF60916E030E941E0968837983DB
:101210008A839B8380916E038D838C81807E826024
:101220008C83DF91CF910895FC01858190916E03AD
:10123000891718F08F5F80936E030895262F60E062
:10124000782F892F922F0895382F262F872F942FAC
:10125000632F722F0895862F0895872F0895892F61
:1012600090E00895E1E0621773078407950709F09D
:10127000E0E08E2F089581E0621380E00895932FBF
:10128000272F382F692F742F81E02617370709F091
:1012900080E0089581E0491380E0089590937E03F3
:1012A00080937D030895CF93DF93EC0181E19CEF60
:1012B00060916E030E941E09688379838A839B83F1
:1012C00083E08D8380916E038E83809178038F837A
:1012D0008091790388878C81807E88608C83DF9100
:1012E000CF910895CF93DF93EC0182E19CEF609161
:1012F0006E030E941E09688379838A839B8383E03F
:101300008D8381E48E8381E08F839FE09887898736
:101310001A868C81807E8C608C83DF91CF910895BA
:10132000CF93DF93EC0183E19CEF60916E030E9409
:101330001E09688379838A839B8383E08D8386E596
:101340008E8388E78F838CE988878EED89878C81EF
:10135000807E8A608C83DF91CF910895CF93DF9355
:10136000EC0184E19CEF60916E030E941E0968838A
:1013700079838A839B8380917A038D8390E0DE0159
:1013800016969C01285F3F4FFC01E458FF4FE49103
:10139000ED93019682179307B9F78C81807E826165
:1013A0008C83DF91CF91089580917F038130D9F0B4
:1013B000813028F0823009F1833059F0089582E4B9
:1013C00093E00E94530982E062E473E00E94A70662
:1013D000089582E493E00E94AE0982E062E473E043
:1013E0000E94A706089582E493E00E94720982E0B9
:1013F00062E473E00E94A706089582E493E00E94ED
:10140000900982E062E473E00E94A706089580914B
:101410007B0380FD59C081FD4CC082FD35C083FD3A
:1014200026C084FD1AC085FF0DC0809107019091F0
:1014300008019C012150304030930801209307019E
:10144000009709F00895F8940E94D40980917B03D5
:101450008F7D80937B0378940895F8940E94AD016A
:1014600080917B038F7E80937B037894DCCFF8940C
:101470000E94001284E00E94150D80917B03877FFB
:1014800080937B037894CDCFF8940E945A1282E423
:1014900093E060916E030E94450880E062E473E08F
:1014A0000E94A70680917B038B7F80937B037894B7
:1014B000B6CF82E062E473E00E94A70680917B03CE
:1014C0008D7F80937B03A9CF80E063E373E00E946C
:1014D000A70680917B038E7F80937B039CCFCF9365
:1014E000DF93EC0187E29CEF60916E030E941E097E
:1014F000688379838A839B838091ED038D838091B8
:10150000EE038E838091EF038F838091F0038887B1
:101510008C81807E88608C83DF91CF910895CF93FA
:10152000DF93EC0185E190E060916E030E941E095B
:101530009B01AC01688179818A819B810E9432097B
:10154000882339F0CE010E94810D81E0DF91CF9197
:10155000089585E190E06FEF0E941E099B01AC01A8
:10156000688179818A819B810E943209882351F7A1
:1015700080E19CEF60E00E941E099B01AC01688144
:1015800079818A819B810E943F09882391F0809113
:101590007B03806280937B038D8180937F038091A6
:1015A0006E03809307011092080181E0DF91CF91D3
:1015B000089582E29CEF60916E030E941E099B01D8
:1015C000AC01688179818A819B810E9432098823DC
:1015D000F1F08D8184FF14C083E393E00E946F0AD1
:1015E00081E080937B03E0917D03F0917E0330974F
:1015F00019F18D818F70099581E0DF91CF91089568
:10160000CE010E941F1188E080937B03ECCF81E222
:101610009CEF60916E030E941E099B01AC016881E2
:1016200079818A819B810E943209882339F088E080
:1016300080937B0381E08ACF81E088CF81E29CEFB9
:101640006FEF0E941E099B01AC01688179818A813C
:101650009B810E943209882351F785E29CEF6091BB
:101660006E030E941E099B01AC01688179818A8109
:101670009B810E943209882349F586E29CEF6091A4
:101680006E030E941E099B01AC01688179818A81E9
:101690009B810E943209882379F18C818E7184307C
:1016A00059F63D8120E08E8190E0822B932B22E140
:1016B0008433920709F685E58093760310927003D0
:1016C00010926F030E94110881E040CF81E0809367
:1016D0006F038D8180936E0380917B03886080937C
:1016E0007B0381E00E943A0460916E0381E070E028
:1016F0000E940A0481E02ACF86E29CEF6FEF0E94ED
:101700001E099B01AC01688179818A819B810E94BD
:101710003209882311F683E29CEF60E00E941E09E3
:101720009B01AC01688179818A819B810E943F097C
:10173000882309F40BCF9D8180916E03981709F0DF
:101740007BCF80916F03803241F0882309F074CF02
:10175000CE010E94140981E0F9CE9091ED0080E362
:101760008093ED008091EF008F738093EF00909352
:10177000ED0010926F03CE010E94140981E0E6CEC5
:10178000EF92FF920F931F93CF93DF937B018C0116
:10179000C0E0D0E0CE01880F991F8C0F9D1FFC0187
:1017A000EE0FFF1FEE0FFF1FE80FF91FE058FC4F71
:1017B0002081318142815381C801B7010E943F09D4
:1017C000882361F42196C630D10521F78FEFDF9190
:1017D000CF911F910F91FF90EF9008958C2FDF9183
:1017E000CF911F910F91FF90EF900895282F392FDF
:1017F000D901862F972FFC018FE001900D92815027
:10180000E1F70895BC018091DA0390E09C01220F7A
:10181000331F280F391FC901880F991F880F991F7F
:10182000820F931F80589C4F0E94F60B8091DA0321
:101830008F5F8093DA03863010F01092DA030895F8
:10184000CF93DF93EC01688179818A819B810E942B
:10185000C00B8F3FA9F090E09C01220F331F280F8F
:10186000391FC901880F991F880F991F820F931F75
:1018700080589C4FBE010E94F60BDF91CF910895D6
:101880008091DA0390E09C01220F331F280F391F4B
:10189000C901880F991F880F991F820F931F8058C5
:1018A0009C4FBE010E94F60B8091DA038F5F8093FC
:1018B000DA03863010F31092DA03DF91CF910895A6
:1018C0002091F00321FD03C00E94200C08950E9486
:1018D000020C08958091F00381FF1BC02091DB036F
:1018E0008091DA032817C9F0822F8F5F8093DB0382
:1018F00030E0C901880F991F820F931F9C01220FAE
:10190000331F220F331F280F391F20583C4FC901A6
:10191000089520E030E0C90108951092DB03109291
:10192000DA0320E030E0F3CF90E0AC01440F551F24
:10193000480F591F9A01220F331F220F331F240F04
:10194000351F20583C4FC90108950E946A0C00972A
:1019500021F05D9A2091F00321FF08950E949800E4
:1019600008951092DD031092DC03569A559A579A07
:10197000519A5E985D985F9859980895823069F001
:10198000833028F0833059F0843029F00895813075
:10199000E9F75E9A0895599A08955D9A08955F9AB5
:1019A0000895823069F0833028F0833059F0843014
:1019B00029F008958130E9F75E98089559980895BF
:1019C0005D9808955F9808959091DD03992321F023
:1019D000923011F080E0089590910C01292F215050
:1019E00020930C019923B1F79AE090930C0188237E
:1019F00079F080910B010E94BE0C80910B018F5FEA
:101A000080930B01853078F081E080930B0108957D
:101A100080910B010E94D10C80910B018F5F80930C
:101A20000B01853088F780E008959091DD039111D6
:101A300008950E94BE0C08959091DD0391110895C0
:101A40000E94D10C0895662319F40E941C0D08957C
:101A50000E94150D08959091DD03911108950E9443
:101A6000230D0895662369F087FF20C0599A86FFE9
:101A700020C05F9A85FF20C05D9A84FD0DC05E98EE
:101A8000089583FF0BC0599A82FF0BC05F9A81FFB4
:101A90000BC05D9A80FFF3CF5E9A0895599882FD3E
:101AA000F5CF5F9881FDF5CF5D98F4CF599886FD0D
:101AB000E0CF5F9885FDE0CF5D98DFCF9091DD03AB
:101AC000992311F08091DC030E94320D08959091CA
:101AD000DD03992319F0933009F0089590910901DD
:101AE000992359F460E00E94320D81E09091090140
:101AF000911180E080930901089561E00E94320D08
:101B0000F4CFFC0195819F709093DD0386818F70E7
:101B10008093DC03923081F0933039F0913009F0FA
:101B2000089560E00E945E0D089580916E03809399
:101B3000DC030E94670D08950E94E40C08958091D3
:101B4000DD038230D9F0833049F0813009F0089507
:101B50008091DC0360E00E945E0D089580910A018F
:101B6000982F915090930A01882389F78AE08093F7
:101B70000A0180916E030E94670D08958091DC0335
:101B80000E94E40C813019F79091DC03992319F439
:101B90008093DC03089580E0FBCF9093E003809373
:101BA000DF0308951F920F920FB60F9211248F93A7
:101BB0008DB58F778DBD8F910F900FBE0F901F90B9
:101BC00018950DB407FEFDCF8EB50895813021F034
:101BD0008CB58F7D8CBD08958CB580628CBD0895C9
:101BE0009CB5937F982B9CBD08952CB5982F93702E
:101BF0002C7F922B9CBD2DB590E095958795959562
:101C0000879581702E7F822B8DBD0895882359F092
:101C100085B7806885BF662371F052988AB1886164
:101C20008AB938980895662361F4209A84B18D7733
:101C300084B953980895529A8AB1877E8AB93898A0
:101C40000895209884B1826884B9539A08951F93A7
:101C5000DF93CF9300D0CDB7DEB7162F2A83498309
:101C60000E94060E8CB5837F2A81822B8CBD498110
:101C70004130A1F08CB58F7D8CBD1123A1F48CB5C2
:101C80008F7E8CBD8CB580688CBD8CB580648CBD1E
:101C90000F900F90CF91DF911F9108958CB58062C6
:101CA0008CBD112361F38CB580618CBD82E00E94F4
:101CB000F50DEBCF8EBD8DB5807CE9F38EB5089523
:101CC0008CB580688CBD08958CB58F778CBD0895D8
:101CD0002FB7F89490938900809388002FBF0895C0
:101CE0002FB7F89490938B0080938A002FBF0895AC
:101CF000EF92FF920F931F937B018C0120910D01B6
:101D000030E040E050E060E074E284EF90E00E9458
:101D1000041ACA01B9010E94CA16A80197010E94BB
:101D20008C150E94BE12CB011F910F91FF90EF9076
:101D3000089590930F0180930E01909387008093F4
:101D4000860008950F931F93CF93DF939B01AC01FF
:101D500060E074E284E79BE40E948C158B01D82F2D
:101D6000C92F9E01712F832F922F20E03FEF4FE765
:101D700057E40E943A1618160CF041C09E01602FDD
:101D8000712F832F922F20E030E040E05EE30E942D
:101D9000921420E03FEF4FE757E40E943A161816DE
:101DA000B4F59E01602F712F832F922F20E030E039
:101DB00040E85CE30E94921420E03FEF4FE757E4D5
:101DC0000E943A1618164CF59E01602F712F832F32
:101DD000922F20E030E040E85BE30E94921420E084
:101DE0003FEF4FE757E40E943A1618169CF420E0A4
:101DF00034E0C901DF91CF911F910F91089521E047
:101E000030E0C901DF91CF911F910F91089528E033
:101E100030E0EFCF20E031E0ECCF20E430E0E9CF5C
:101E200080349105D9F08134910550F021E0803063
:101E3000920781F024E08030920751F08FEF0895EF
:101E40008130910549F088309105C1F782E008950D
:101E500085E0089584E0089581E0089583E0089581
:101E6000EF92FF920F931F937B018C0120910D0144
:101E700030E040E050E060E074E284EF90E00E94E7
:101E8000041ACA01B9010E94CA16A80197010E944A
:101E90008C150E94BE1270930F0160930E01709317
:101EA0008700609386001F910F91FF90EF90089537
:101EB000EF92FF920F931F93CF93DF937B018C01DF
:101EC000C42FD22F4111529AD111399A80916400B6
:101ED000877E809364008FB7F894109289001092E7
:101EE00088008FBF8FB7F89410928B0010928A00F1
:101EF0008FBF20910D0130E040E050E060E074E2DF
:101F000084EF90E00E94041ACA01B9010E94CA1627
:101F1000A80197010E948C150E94BE1270930F01B8
:101F200060930E017093870060938600CC23C1F408
:101F300082E0D111806280938000C801B7010E94C5
:101F4000A20E80930D0190E00E94100F8861809393
:101F50008100DF91CF911F910F91FF90EF90089535
:101F600082E8E7CF90918000292F2068882321F410
:101F7000906C909380000895922F9F7B90938000A7
:101F8000089590918000292F2062882321F4906386
:101F9000909380000895922F9F7E909380000895E3
:101FA000EF92FF920F931F937B018C0120E030E0B2
:101FB000A9010E949A1687FF04C017FB109517F914
:101FC000109560910E0170910F0180E090E00E94E9
:101FD0007C17A80197010E9492140E94781A0E940F
:101FE000BE128FB7F89470938900609388008FBFFA
:101FF0001F910F91FF90EF900895EF92FF920F9332
:102000001F937B018C0120E030E0A9010E949A1609
:1020100087FF04C017FB109517F9109560910E010A
:1020200070910F0180E090E00E947C17A801970159
:102030000E9492140E94781A0E94BE128FB7F894E0
:1020400070938B0060938A008FBF1F910F91FF9058
:10205000EF9008959B01AC011092E1031092E2030E
:102060001092E3031092E4038091E1039091E20364
:10207000A091E303B091E40382179307A407B50787
:1020800004F58091E1039091E203A091E303B09104
:10209000E4030196A11DB11D8093E1039093E20337
:1020A000A093E303B093E4038091E1039091E203F2
:1020B000A091E303B091E40382179307A407B50747
:1020C00004F308958FEF84B917B81DB88EEF85B962
:1020D00018B81BB81EB810926400089582E084BD41
:1020E00093E095BD9AEF97BD80936E001092E80340
:1020F0001092E703089581E08093EB030895109216
:10210000EB0308952091E7033091E803C90165E0EE
:1021100070E00E94F119009739F4C9016AE070E09B
:102120000E94F119009709F008950E9469088091B2
:10213000E7039091E80364E170E00E94F1190097D1
:1021400099F70E94070A8091E7039091E80362E300
:1021500070E00E94F119009739F70E949F0D0895D1
:102160001F920F920FB60F9211242F933F934F930C
:102170005F936F937F938F939F93AF93BF93EF93EF
:10218000FF938091EC03882341F11092EC0380913E
:10219000EB03882349F18091E5039091E6039C01CC
:1021A0002F5F3F4F3093E6032093E5036AE070E032
:1021B0000E94DD19009731F1FF91EF91BF91AF912E
:1021C0009F918F917F916F915F914F913F912F914F
:1021D0000F900FBE0F901F90189581E08093EC0335
:1021E0008091EB038823B9F68091E7039091E8038F
:1021F00001969093E8038093E7030E9482100E9467
:10220000C103DACF1092E6031092E5038091E70351
:102210009091E80301969093E8038093E7030E946E
:10222000C103CACF82E084BD93E095BD9AEF97BD0C
:1022300080936E001092E8031092E7030895FC016A
:102240009681278185818230D9F0833071F0813089
:1022500009F00895892F8095822B92232091ED0318
:10226000922B89238093ED030895892F8095822BEB
:1022700092232091EF03922B89238093EF030895FB
:10228000892F8095822B92232091EE03922B892314
:102290008093EE0308951092ED031092EE031092D6
:1022A000EF0382E48093F003109270038091F103B6
:1022B00081608093F10310926F0388E980936E032D
:1022C00008958091F10380FD08950E944B110E94B2
:1022D000A501089520916E03F999FECF1FBA92BD12
:1022E00081BD20BD0FB6F894FA9AF99A0FBE9C01F1
:1022F0002F5F3F4FC9010895F999FECF92BD81BD6F
:10230000F89A20B520936E039C012F5F3F4FC901BF
:10231000089520916F03F999FECF1FBA92BD81BD38
:1023200020BD0FB6F894FA9AF99A0FBE9C012F5F60
:102330003F4FC9010895F999FECF92BD81BDF89A2A
:1023400020B520936F039C012F5F3F4FC901089573
:102350009C012F5F3F4F4091ED034095F999FECFCF
:102360001FBA92BD81BD40BD0FB6F894FA9AF99A92
:102370000FBEC90101964091EE034095F999FECF39
:102380001FBA32BD21BD40BD0FB6F894FA9AF99A32
:102390000FBE9C012F5F3F4F4091EF034095F9998D
:1023A000FECF1FBA92BD81BD40BD0FB6F894FA9A18
:1023B000F99A0FBEC90101964091F0034095F99931
:1023C000FECF1FBA32BD21BD40BD0FB6F894FA9AB8
:1023D000F99A0FBE9C012F5F3F4F4091F10340954A
:1023E000F999FECF1FBA92BD81BD40BD0FB6F894DA
:1023F000FA9AF99A0FBE81E080931802C9010895F4
:1024000081E090E00E946A110E9489110E94A81147
:102410000895F8940E940012089522E184339207EF
:1024200011F080E008958091F1038E7F8093F10395
:10243000F8940E940012789481E008959C012F5F27
:102440003F4FF999FECF92BD81BDF89A80B5809536
:102450008093ED03C9010196F999FECF32BD21BDEC
:10246000F89A20B520952093EE039C012F5F3F4FF3
:10247000F999FECF92BD81BDF89A80B58095809381
:10248000EF03C9010196F999FECF32BD21BDF89A3B
:1024900020B520952093F0039C012F5F3F4FF999C1
:1024A000FECF92BD81BDF89A80B580958093F103EF
:1024B000C901089581E090E00E947C110E949B1167
:1024C0000E941E1208951F920F920FB60F921124B0
:1024D0002F933F938F939F932091780030917900B1
:1024E0008091F603882321F58091F4039091F50300
:1024F0009093F3038093F203932F80E0820F911D5A
:102500009093F5038093F40381E08093F60382E4D3
:1025100080937C0080917A00806480937A009F9100
:102520008F913F912F910F900FBE0F901F90189594
:102530001092F603ECCFEAE7F0E08081887F808399
:1025400008958BE980937A00EEE7F0E08081846063
:102550008083EFE7F0E080818360808380EA80936E
:102560007B0082E480937C00089582E480937C0069
:10257000EAE7F0E08081806480830895EF92FF9223
:102580000F931F937B018C0120E030E040E05FE47B
:102590000E946A1687FD11C0C801B70120E030E033
:1025A00040E05FE40E9461140E942A179B01AC0185
:1025B000205030404040504806C0C801B7010E943A
:1025C0002A179B01AC01B901CA011F910F91FF901D
:1025D000EF900895A0E0B0E0E0EFF2E10C94451A2E
:1025E000FC01EA018081823008F438C1DB019C9152
:1025F000923008F430C1843059F4943009F02EC17F
:10260000918111968C911197981709F021C126C1DB
:10261000943009F420C19230B1F4823009F01EC127
:10262000CA01AF0128E0DA010D90AD01DC010D9285
:10263000CD012150C1F7DB0111968C911197918149
:10264000892389830AC1823009F405C1C280D380FD
:10265000DB0112966D907C90139724813581468121
:1026600057811496ED90FD900D911C911797C6011E
:10267000861997095C0197FF04C0AA24BB24A81AF5
:10268000B90AB0E2AB16B1040CF061C01816190615
:102690006CF5370148010A2C04C09694879477940E
:1026A00067940A94D2F781E090E0A0E0B0E00A2CB1
:1026B00004C0880F991FAA1FBB1F0A94D2F7019765
:1026C000A109B1098E219F21A023B123EE24FF246B
:1026D0008701E3940097A105B10519F4EE24FF24C6
:1026E0008701E628F728082919293CC00097D1F16D
:1026F000CA0CDB1C39014A010A2C04C09694879449
:10270000779467940A94D2F781E090E0A0E0B0E07B
:102710000A2C04C0880F991FAA1FBB1F0A94D2F766
:102720000197A109B10982239323A423B52321E0B2
:1027300030E040E050E00097A105B10519F420E039
:1027400030E0A90126293729482959290BC06C14E2
:102750007D0424F4EE24FF24870104C0630120E0FB
:1027600030E0A9018181FB019181891709F445C0FD
:10277000882349F0D801C701821B930BA40BB50B2A
:102780009C01AD0104C02E193F09400B510B57FDB0
:1027900004C01982DB82CA820BC081E08983DB829C
:1027A000CA8250954095309521953F4F4F4F5F4FCE
:1027B0002C833D834E835F830DC0880F991FAA1F12
:1027C000BB1F8C839D83AE83BF838A819B810197CE
:1027D0009B838A838C819D81AE81BF819C01AD01E9
:1027E00021503040404050402F3FEFEF3E07EFEF89
:1027F0004E07EFE35E0708F30BC08983DB82CA82D2
:102800002E0D3F1D401F511F2C833D834E835F8340
:1028100083E088832C813D814E815F8157FF1DC0FD
:10282000DA01C90181709070A070B070569547951B
:1028300037952795822B932BA42BB52B8C839D83C7
:10284000AE83BF838A819B8101969B838A8305C067
:10285000E0E1F1E003C0FB0101C0FE01CF01CDB713
:10286000DEB7EEE00C94611AA0E2B0E0EAE3F4E136
:102870000C944D1A69837A838B839C832D833E83CA
:102880004F83588789E0E82EF12CEC0EFD1ECE0117
:102890000196B7010E941B198E010F5E1F4FCE01DA
:1028A0000596B8010E941B19C701B801AE01475E29
:1028B0005F4F0E94EA120E944E18A096E6E00C9428
:1028C000691AA0E2B0E0E7E6F4E10C944D1A6983DE
:1028D0007A838B839C832D833E834F8358878E011D
:1028E000075F1F4FCE010196B8010E941B1991E1AD
:1028F000E92EF12CEC0EFD1ECE010596B7010E94CB
:102900001B198A8991E089278A8BC801B701AE011A
:10291000475E5F4F0E94EA120E944E18A096E6E0C2
:102920000C94691AA0E2B0E0E8E9F4E10C94411AD1
:1029300069837A838B839C832D833E834F8358875F
:10294000CE010196BE01675F7F4F0E941B19CE0129
:102950000596BE016F5E7F4F0E941B1999859230CC
:1029600078F089898230C0F0943019F4823041F4D3
:10297000CBC0843019F4923079F4C6C0923051F44F
:1029800081E02A859A89291709F480E08A87CE0197
:102990000996BCC0823051F481E02A859A892917B2
:1029A00009F480E08A8BCE014196B0C06D847E84AC
:1029B0008F849888ED88FE880F89188DE0E2F0E01A
:1029C00080E090E0DC01AA24BB24650120E030E037
:1029D000A901B3016170707061157105D1F02E0D00
:1029E0003F1D401F511F15012601280E391E4A1E8A
:1029F0005B1E81E090E0A0E0B0E02E153F054007AF
:102A0000510718F080E090E0DC01820D931DA41DB9
:102A1000B51DAA0CBB1CCC1CDD1C17FF09C061E056
:102A2000262E312C412C512CA228B328C428D5287D
:102A3000319749F0EE0CFF1C001F111F96948794EC
:102A400077946794C6CF6B897C89EB85FC856E0F84
:102A50007F1F6E5F7F4F7C8F6B8F61E0EA857A8985
:102A6000E71709F460E06A8F6B8D7C8D10C0FC0164
:102A7000E170F070309729F0569547953795279576
:102A80005068B695A795979587956F5F7F4FB7FD6F
:102A9000EECF0CC0880F991FAA1FBB1F57FD816086
:102AA000220F331F441F551F615070408030E0E0FB
:102AB0009E07E0E0AE07E0E4BE0760F36B8F7C8F1B
:102AC0006FE7E62EF12C012D112DE822F9220A23C1
:102AD0001B2360E4E616F1040105110561F487FD8E
:102AE0000AC0211531054105510529F0805C9F4F31
:102AF000AF4FBF4F80788D8F9E8FAF8FB8A383E08D
:102B0000898FCE01499602C080E191E00E944E1863
:102B1000A096E2E10C945D1AA8E1B0E0E2E9F5E1EB
:102B20000C94491A69837A838B839C832D833E831B
:102B30004F8358878E01075F1F4FCE010196B80162
:102B40000E941B1981E1E82EF12CEC0EFD1ECE0136
:102B50000596B7010E941B199985923008F483C02D
:102B60008989823008F47BC02A853A8923272A87FD
:102B7000943011F0923021F4981709F06CC071C0B4
:102B8000843039F41D861E861F86188A1C861B8693
:102B90006AC0823019F484E0898765C08B859C8582
:102BA0002B893C89821B930B9C878B872D853E85C7
:102BB0004F855889ED88FE880F89188D2E153F05A1
:102BC0004007510738F4220F331F441F551F019748
:102BD0009C878B876FE170E0A12CB12CC12CA0E405
:102BE000DA2E80E090E0DC012E153F05400751070A
:102BF00040F08A299B29AC29BD292E193F09400B99
:102C0000510BD694C794B794A794220F331F441F37
:102C1000551F6150704041F76FE7E62EF12C012DF2
:102C2000112DE822F9220A231B2360E4E616F104A1
:102C30000105110561F487FD0AC021153105410523
:102C4000510529F0805C9F4FAF4FBF4F80788D8733
:102C50009E87AF87B88B8E01075F1F4F04C0870127
:102C600002C000E111E0C8010E944E186896EAE037
:102C70000C94651AA8E1B0E0E0E4F6E10C944D1A7A
:102C800069837A838B839C832D833E834F8358870C
:102C90008E01075F1F4FCE010196B8010E941B19DC
:102CA00081E1E82EF12CEC0EFD1ECE010596B70158
:102CB0000E941B198985823040F08989823028F072
:102CC000C801B7010E94841901C08FEF6896E6E041
:102CD0000C94691AA8E1B0E0E0E7F6E10C944D1A13
:102CE00069837A838B839C832D833E834F835887AC
:102CF0008E01075F1F4FCE010196B8010E941B197C
:102D000081E1E82EF12CEC0EFD1ECE010596B701F7
:102D10000E941B198985823040F08989823028F011
:102D2000C801B7010E94841901C08FEF6896E6E0E0
:102D30000C94691AA8E1B0E0E0EAF6E10C944D1AAF
:102D400069837A838B839C832D833E834F8358874B
:102D50008E01075F1F4FCE010196B8010E941B191B
:102D600081E1E82EF12CEC0EFD1ECE010596B70197
:102D70000E941B198985823040F08989823028F0B1
:102D8000C801B7010E94841901C081E06896E6E09D
:102D90000C94691AA8E0B0E0E0EDF6E10C944D1A4D
:102DA0007B018C0183E08983D801C7018827B7FDA7
:102DB00083959927AA27BB27282F8A83E114F1043A
:102DC0000105110519F482E0898337C08EE190E096
:102DD0009C838B83222389F080E0E81680E0F8064C
:102DE00080E0080780E8180769F110950095F094D5
:102DF000E094E11CF11C011D111DED82FE820F8388
:102E00001887C801B7010E94F4179C012150304077
:102E10001216130694F4022E04C0EE0CFF1C001FC1
:102E2000111F0A94D2F7ED82FE820F8318878EE17C
:102E300090E0821B930B9C838B83CE0101960E94B2
:102E40004E1804C060E070E080E09FEC2896E6E059
:102E50000C94691AACE0B0E0E0E3F7E10C94511A8D
:102E600069837A838B839C83CE010196BE016B5F5D
:102E70007F4F0E941B198D81823081F1823070F169
:102E8000843021F48E81882369F10AC02F8138852E
:102E900037FD24C06E812F3131053CF0662311F1DE
:102EA00020E030E040E050E821C08EE190E0821B5D
:102EB000930B29853A854B855C8504C056954795CB
:102EC000379527958A95D2F7662381F050954095DE
:102ED000309521953F4F4F4F5F4F08C020E030E0C5
:102EE000A90104C02FEF3FEF4FEF5FE7B901CA011F
:102EF0002C96E2E00C946D1AA8E0B0E0E2E8F7E16D
:102F00000C944B1A7B018C011A82611571058105A5
:102F1000910519F482E089835FC083E089838EE1A3
:102F2000C82ED12CDC82CB82ED82FE820F831887E3
:102F3000C801B7010E94F417FC013197F7FF3AC0AE
:102F4000AA27BB27AE1BBF0B21E030E040E050E0DA
:102F50000A2E04C0220F331F441F551F0A94D2F7B4
:102F600021503040404050402E213F2140235123EA
:102F700061E070E080E090E02115310541055105E8
:102F800019F460E070E0CB0104C016950795F79442
:102F9000E794AA95D2F7E62AF72A082B192BED8297
:102FA000FE820F8318878EE190E08E1B9F0B9C831F
:102FB0008B8312C0309781F00E2E04C0EE0CFF1CE4
:102FC000001F111F0A94D2F7ED82FE820F8318872B
:102FD000CE1ADF0ADC82CB82CE0101960E944E1807
:102FE0002896E8E00C94671AAF92BF92CF92DF92D6
:102FF000EF92FF920F931F937B018C0180E0E81604
:1030000080E0F80681E0080780E0180758F4EFEF49
:10301000EE16F1040105110509F090F480E090E04E
:10302000DC0117C0F0E0EF16F0E0FF06F0E00F075C
:10303000F1E01F0750F480E190E0A0E0B0E009C0AB
:1030400088E090E0A0E0B0E004C088E190E0A0E07B
:10305000B0E020E230E040E050E0281B390B4A0BA2
:103060005B0B5701680104C0D694C794B794A7942A
:103070008A95D2F7D601C501885E9E4FFC018081FA
:10308000281B310941095109C9011F910F91FF9076
:10309000EF90DF90CF90BF90AF900895EF92FF92A6
:1030A0000F931F93CF93DF93FC01248135814681D9
:1030B000578161818081823020F44061EFEFF0E040
:1030C000A3C0843009F49BC0823009F492C021155A
:1030D00031054105510509F48FC00280F381E02DCF
:1030E0007FEFE238F7070CF05AC0C2E8DFEFCE1BE3
:1030F000DF0BCA31D1056CF579018A010C2E04C0B1
:1031000016950795F794E7940A94D2F781E090E03A
:10311000A0E0B0E00C2E04C0880F991FAA1FBB1FAF
:103120000A94D2F70197A109B10982239323A4231A
:10313000B52321E030E040E050E00097A105B10563
:1031400019F420E030E0A9012E293F29402B512B12
:1031500003C020E030E0A901DA01C9018F77907047
:10316000A070B07080349105A105B10539F427FF36
:1031700009C0205C3F4F4F4F5F4F04C0215C3F4F61
:103180004F4F5F4FE1E0F0E0203080E0380780E013
:10319000480780E4580728F5E0E0F0E022C0E03876
:1031A000F1056CF5E158FF4FDA01C9018F77907096
:1031B000A070B07080349105A105B10539F427FFE6
:1031C00009C0205C3F4F4F4F5F4F04C0215C3F4F11
:1031D0004F4F5F4F57FF05C0569547953795279539
:1031E000319687E056954795379527958A95D1F77B
:1031F0000BC0E0E0F0E005C0E0E0F0E005C0EFEF7C
:10320000F0E020E030E0A9018E2F87958827879590
:10321000942F9F77679566276795E695A92FA82B2A
:10322000FE2FF62B622F732F8A2F9F2FCDB7DEB77D
:10323000E6E00C94691ADC01FB012C9111963C919B
:10324000119712968C911297482F4F7750E0982F34
:10325000991F9927991F13966C911397862F880FA2
:10326000892B90E0661F6627661F6183009739F5FA
:10327000211531054105510511F482E029C082E88C
:103280009FEF9383828367E0220F331F441F551FF4
:103290006A95D1F783E0808309C0220F331F441F52
:1032A000551F82819381019793838283203080E030
:1032B000380780E0480780E4580778F320C08F3F44
:1032C000910579F4211531054105510519F484E082
:1032D0008083089544FF03C081E0808310C0108282
:1032E0000EC08F5790409383828383E0808387E072
:1032F000220F331F441F551F8A95D1F75064248332
:103300003583468357830895FC01DB019081923019
:1033100008F449C08C91823008F445C0943051F4CF
:1033200061818430B1F511962C91119730E0261B04
:10333000310941C0843021F0923041F48230B1F142
:1033400011968C9111978823A1F12DC06181823053
:1033500001F111968C9111976817D9F4228133816C
:1033600012968D919C9113978217930794F02817CA
:103370003907BCF0248135814681578114968D919F
:103380009D910D90BC91A02D82179307A407B507BE
:1033900018F4662341F00DC0281739074A075B0768
:1033A00028F4662331F021E030E005C020E030E071
:1033B00002C02FEF3FEFC9010895AA1BBB1B51E1CB
:1033C00007C0AA1FBB1FA617B70710F0A61BB70B95
:1033D000881F991F5A95A9F780959095BC01CD013A
:1033E000089597FB092E07260AD077FD04D0E5DF64
:1033F00006D000201AF4709561957F4F0895F6F776
:10340000909581959F4F089597FB092E05260ED024
:1034100057FD04D014D00AD0001C38F450954095C4
:10342000309521953F4F4F4F5F4F0895F6F7909598
:103430008095709561957F4F8F4F9F4F0895A1E2C2
:103440001A2EAA1BBB1BFD010DC0AA1FBB1FEE1F1E
:10345000FF1FA217B307E407F50720F0A21BB30B69
:10346000E40BF50B661F771F881F991F1A9469F7E5
:1034700060957095809590959B01AC01BD01CF0141
:1034800008952F923F924F925F926F927F928F9208
:103490009F92AF92BF92CF92DF92EF92FF920F93E3
:1034A0001F93CF93DF93CDB7DEB7CA1BDB0B0FB6ED
:1034B000F894DEBF0FBECDBF09942A8839884888AA
:1034C0005F846E847D848C849B84AA84B984C88440
:1034D000DF80EE80FD800C811B81AA81B981CE0F37
:1034E000D11D0FB6F894DEBF0FBECDBFED0108951C
:1034F0003BD080F09F3740F491110EF44DC060E056
:1035000070E080E89FE3089526F01B16611D711D91
:10351000811D01C01BC0882371F4772321F09850CE
:10352000872B762F07C0662311F499270DC0905181
:10353000862B70E060E02AF09A95660F771F881F4F
:10354000DAF7880F9695879597F908959F3F31F0A0
:10355000915020F4879577956795B795880F911DC1
:103560009695879597F9089525D0A0F0BEE7B917ED
:1035700088F4BB279F3860F41616B11D672F782F8B
:103580008827985FF7CF869577956795B11D9395B6
:103590009639C8F30895E894BB2766277727CB01AF
:1035A00097F9089557FD9058440F551F59F05F3F04
:1035B00071F04795880F97FB991F61F09F3F79F055
:1035C00087950895121613061406551FF2CF4695D7
:1035D000F1DF08C0161617061806991FF1CF869559
:0C35E0007105610508940895F894FFCF70
:1035EC00010010204080FFFFFF0101010A01FFFFD5
:1035FC0000000000000000000001020203030303AE
:10360C000404040404040404050505050505050566
:10361C000505050505050505060606060606060646
:10362C00060606060606060606060606060606062E
:10363C000606060606060606070707070707070716
:10364C0007070707070707070707070707070707FE
:10365C0007070707070707070707070707070707EE
:10366C0007070707070707070707070707070707DE
:10367C0007070707070707070808080808080808C6
:10368C0008080808080808080808080808080808AE
:10369C00080808080808080808080808080808089E
:1036AC00080808080808080808080808080808088E
:1036BC00080808080808080808080808080808087E
:1036CC00080808080808080808080808080808086E
:1036DC00080808080808080808080808080808085E
:1036EC00080808080808080808080808080808084E
:0836FC00080808080808080886
:00000001FF
