:100000000C944B0B0C94D7150C9426160C94751667
:100010000C94C4160C942A170C946C0B0C946C0B57
:100020000C946C0B0C946C0B0C946C0B0C946C0B74
:100030000C946C0B0C946C0B0C946C0B0C946C0B64
:100040000C946C0B0C946C0B0C946C0B0C946C0B54
:100050000C946C0B0C94830B0C946C0B0C946C0B2D
:100060000C946C0B0C94441F0C946C0B0C944F1E52
:100070000C946C0B0C94E5170C946C0B0C946C0B9F
:100080000C946C0B0C946C0B0C946C0B0C946C0B14
:100090000C946C0B0C946C0B0C946C0B0C946C0B04
:1000A0000C946C0B0C946C0B0C946C0B0C946C0BF4
:1000B0000C946C0B0C946C0B0C946C0B0C946C0BE4
:1000C0000C946C0B0C946C0B0C946C0B0C946C0BD4
:1000D0000C946C0B0C946C0B0C946C0B0C946C0BC4
:1000E0000C946C0B30361F361F361F361F361F36EA
:1000F0001F361F361F361F361F361F361F361F3658
:100100001F361F361F361F361F361F361F361F3647
:100110001F361F361F361F361F361F361F361F3637
:100120001F361F361F361F361F3633361F361F3613
:100130001F361F361F361F361F361F361F361F3617
:100140001F361F361F361F361F361F3636361F36F0
:100150001F361F361F361F361F361F361F361F36F7
:1001600039361F361F361F3627362A362D362338A6
:100170008A3874385C372137D237B337AB37963784
:100180000538ED371A38F536DA36CA3642385C3873
:100190000C9421370C9405380C945C370C942A3657
:1001A0000C9442380C9439360C94AB370C94DA36F4
:1001B0000C9427360C94D2370C941A380C943036A1
:1001C0000C94ED370C9496370C9436360C947438A6
:1001D0000C941F360C94F5360C94CA360C94B33735
:1001E0000C945C380C942D360C948A380C9433366D
:1001F0000C9423382107EE069D0653060806CC050D
:10020000960591050E0596042704DD03C003A2039D
:10021000890361031C03F002AE0266021E027365CD
:1002200074204B6920285B2B2D5D3F5C642B2E5C7A
:10023000642B293F203F285B76565D7C616C6C29DE
:100240003F203F285B77575D293F203F285B785848
:100250005D293F203F285B79595D293F203F285B7E
:100260007A5A5D293F00736574204B7020285B2B00
:100270002D5D3F5C642B2E5C642B293F203F285B67
:1002800076565D7C616C6C293F203F285B77575D1B
:10029000293F203F285B78585D293F203F285B7924
:1002A000595D293F203F285B7A5A5D293F007365DD
:1002B000742028776865656C206469616D65746574
:1002C000727C776865656C207365706172617469B2
:1002D0006F6E7C636F756E74735F7065725F72654D
:1002E000762920285C642B2E5C643F5C643F2900E7
:1002F0007475726E20286C6566747C7269676874A8
:100300002920285B2B2D5D3F5C642B2E5C643F29EC
:10031000202864656772656573293F00637572768E
:100320006520286C6566747C72696768742920286A
:100330005B2B2D5D3F5C642B2E5C643F2920286481
:10034000656772656573293F2C3F20285B2B2D5D07
:100350003F5C642B2E5C643F292072616469757375
:1003600000286D6F76657C666F72776172647C625F
:1003700061636B776172642920285B2B2D5D3F5C84
:10038000642B2E3F5C643F29007370696E20282D1A
:100390003F5C642B2E5C643F292064656772656551
:1003A0007300736574206261736520667265717590
:1003B000656E637920285C642B2E3F5C643F2900C6
:1003C00072656164202873657269616C206E756D59
:1003D0006265727C76657273696F6E290028656E3E
:1003E00061626C657C64697361626C6529206C690B
:1003F0006D6974733F203F285B76565D7C616C6C41
:10040000293F203F285B77575D293F203F285B78B5
:10041000585D293F203F285B79595D293F203F28BF
:100420005B7A5A5D293F005E737065656420285BC6
:1004300076565D5B2B2D5D3F5C642B2E5C642B2917
:100440003F203F285B77575D5B2B2D5D3F5C642B26
:100450002E5C642B293F203F285B78585D5B2B2D59
:100460005D3F5C642B2E5C642B293F203F285B7929
:10047000595D5B2B2D5D3F5C642B2E5C642B293F0B
:10048000203F285B7A5A5D5B2B2D5D3F5C642B2EF1
:100490005C642B293F007365742064657374696E16
:1004A0006174696F6E20285B76565D5B2B2D5D3F16
:1004B0005C642B2E5C642B293F203F285B77575DC3
:1004C0005B2B2D5D3F5C642B2E5C642B293F203F12
:1004D000285B78585D5B2B2D5D3F5C642B2E5C6444
:1004E0002B293F203F285B79595D5B2B2D5D3F5CBD
:1004F000642B2E5C642B293F203F285B7A5A5D5B7E
:100500002B2D5D3F5C642B2E5C642B293F005E2805
:10051000647574797C70776D7C50574D29203F2825
:100520005B76565D203F5B2B2D5D3F5C642B2E5C24
:10053000642B293F203F285B77575D203F5B2B2DA5
:100540005D3F5C642B2E5C642B293F203F285B7849
:10055000585D203F5B2B2D5D3F5C642B2E5C642B34
:10056000293F203F285B79595D203F5B2B2D5D3F64
:100570005C642B2E5C642B293F203F285B7A5A5DFC
:10058000203F5B2B2D5D3F5C642B2E5C642B293F51
:100590000073746F7000686F6D65203F285B76563E
:1005A0007C616C6C5D293F203F285B77575D293F5C
:1005B000203F285B78585D293F203F285B79595DB3
:1005C000293F203F285B7A5A5D293F006D656173A2
:1005D0007572652074726176656C203F285B765673
:1005E0005D293F203F285B77575D293F203F285BEF
:1005F00078585D293F203F285B79595D293F203F8E
:10060000285B7A5A5D293F00726561642028706F0B
:10061000736974696F6E7C64657374696E61746903
:100620006F6E7C73706565647C63757272656E74E1
:100630007C7374617475737C726F626F7420696E01
:10064000666F7C62617365206672657175656E6345
:10065000792900287A65726F7C7265736574292028
:1006600028656E636F646572733F29203F285B764F
:10067000565D7C616C6C293F203F285B77575D2974
:100680003F203F285B78585D293F203F285B795900
:100690005D293F203F285B7A5A5D293F002873651A
:1006A000747C726561642920285C642B2920636F47
:1006B000756E74735F7065725F756E697420285B08
:1006C00076565D7C616C6C293F203F285B77575DD7
:1006D000293F203F285B78585D293F203F285B79E0
:1006E000595D293F203F285B7A5A5D293F005E28EB
:1006F0007365747C73656C6563747C726561642971
:1007000020756E6974203F28636F756E74737C6901
:100710006E63687C6D657465727C66656574293F7F
:10072000007573652028656E636F646572733F7C26
:10073000706F74656E74696F6D65746572733F294F
:10074000004D09F408AF085E081D08DE078B07514D
:100750000764656661756C7420636F6E66696775A2
:10076000726174696F6E2C207265616420736572AA
:1007700069616C206E756D6265722C2072656164B2
:100780002076657273696F6E0D0A007370696E2C46
:1007900020666F72776172642C206261636B77618F
:1007A00072642C207265616420726F626F742069BC
:1007B0006E666F2C207361766520636F6E66696765
:1007C00075726174696F6E2C207265616420636F4D
:1007D0006E66696775726174696F6E2C200073654F
:1007E0007420776865656C207365706172617469E7
:1007F0006F6E2C2073657420776865656C20646962
:10080000616D657465722C2073657420636F756EFD
:1008100074735F7065725F7265762C20007A657202
:100820006F20656E636F6465722C2070776D2C206D
:10083000706F736974696F6E2C2073706565642CBA
:1008400020686F6D652C206D65617375726520740D
:10085000726176656C2C2073746F702C2000726549
:1008600061642073706565642C2072656164206327
:10087000757272656E742C20726561642073746188
:100880007475732C207265616420626173652066E3
:1008900072657175656E63792C2073657420626171
:1008A0007365206672657175656E63792C200072C0
:1008B00065616420636F756E74735F7065725F75D8
:1008C0006E69742C20656E61626C65206C696D695F
:1008D00074732C2064697361626C65206C696D6946
:1008E00074732C207265616420706F736974696F12
:1008F0006E2C200075736520656E636F6465722CC5
:100900002075736520706F74656E74696F6D6574A2
:1009100065722C2073656C65637420756E69742034
:100920005F5F2C207265616420756E69742C207382
:100930006574205F5F20636F756E74735F7065729E
:100940005F756E697420767778797A2C000D0A438A
:100950004F4D4D414E44204C4953543A0D0A003CF2
:1009600015EF14A614911452141414CC13851344C7
:1009700013F912B9129F125D121B12D311B0116636
:10098000112511CD107D102010F50FE00FC80F7F3D
:100990000F440F0A0FCC0E8A0E3C0EF60D960D3248
:1009A0000DE10C910C3E0CDE0B870B300BE80AD5E9
:1009B0000A970A560A1D0AE909BB090972656164AA
:1009C0002076657273696F6E202020202020202001
:1009D000202D206F662074686973206669726D77B8
:1009E0006172652E0D0A0D0A00097265616420733B
:1009F000657269616C206E756D6265722020202DB4
:100A000020666F7220626F617264206964656E7423
:100A1000696669636174696F6E2E0D0A0009646509
:100A20006661756C7420636F6E6669677572617458
:100A3000696F6E202D20496E697469616C697A65F1
:100A400020636F6E666967757274696F6E2064618A
:100A500074612E0D0A00097265616420636F6E6611
:100A6000696775726174696F6E202D2052656164CB
:100A700020616C6C20636F6E666967757274696F54
:100A80006E20646174612066726F6D20454550521E
:100A90004F4D2E2E0D0A00097361766520636F6E2F
:100AA00066696775726174696F6E202D2053617677
:100AB0006520616C6C20636F6E666967757274691E
:100AC0006F6E206461746120746F20454550524FF1
:100AD0004D2E0D0A000D0A434F4E464947555241CF
:100AE00054494F4E3A0D0A00097265616420726FD5
:100AF000626F7420696E666F2020202020202D20D8
:100B0000646973706C617973207468652063616CCB
:100B10006962726174656420696E666F2061626FDC
:100B200075742074686520726F626F742E0D0A00F0
:100B3000096261636B77617264205B6E756D6265DB
:100B4000725D202020202D206D6F766520726F62EF
:100B50006F7420666F7277617264205F5F206E75BC
:100B60006D626572206F6620756E697473202877D8
:100B7000686174657665722069732073656C65635E
:100B8000746564290D0A0009666F727761726420CA
:100B90005B6E756D6265725D20202020202D206DBA
:100BA0006F766520726F626F7420666F7277617204
:100BB00064205F5F206E756D626572206F662075C0
:100BC0006E69747320287768617465766572206930
:100BD000732073656C6563746564290D0A0009737D
:100BE00070696E205B6E756D6265725D206465670D
:100BF00072656573202D207468697320696E737443
:100C0000727563747320697420746F207370696ED9
:100C100020696E20706C61636520656E64696E6723
:100C200020757020666163696E672061206E65774C
:100C300020646972656374696F6E2E0D0A00092065
:100C400020202020202020202020202020202020A4
:100C50002020202020746869732077696C6C2075CF
:100C600070646174652074686520636F756E747359
:100C70005F7065725F756E697420636F6E66696719
:100C800075726174696F6E2076616C75652E0D0AE0
:100C9000000973657420636F756E74735F7065729D
:100CA0005F726576205B6E756D6265725D20202DCA
:100CB00020746865206E756D626572206F662063B2
:100CC0006F756E7473207065722072657620666F22
:100CD0007220636F6E76656E69656E6365200D0ABE
:100CE000000973657420776865656C206469616DBF
:100CF00065746572205B6E756D6265725D20202D76
:100D000020746865206469616D6574657220286966
:100D10006E2073656C656374656420756E697429F3
:100D2000206F662074686520776865656C732E0D8A
:100D30000A000973657420776865656C20736570B7
:100D400061726174696F6E205B6E756D6265725D54
:100D5000202D207468652064697374616E6365205A
:100D600028696E2073656C656374656420756E69AF
:100D70007429206265747765656E20746865206CDF
:100D800065667420262072696768742077686565D7
:100D90006C732E0D0A000D0A3220574845454C450C
:100DA0004420524F424F5420434F4D4D414E4453E7
:100DB0003A20207620616E64207720617865732068
:100DC00063616E2062652064657369676E61746536
:100DD0006420666F722061203220776865656C2020
:100DE000646966666572656E7469616C20726F62B3
:100DF0006F742E0D0A00097A65726F20656E636F3D
:100E0000646572202876207720782079207A206106
:100E10006C6C29202D206D61726B20637572726578
:100E20006E7420706F736974696F6E7320617320C4
:100E30003020636F756E74732E0D0A00097365742C
:100E40002062617365206672657175656E637920D5
:100E50005B6E756D6265725D202D2074686520661D
:100E600072657175656E6379206F662074686520A0
:100E700070776D206472697665207369676E616C46
:100E8000732028487A293B0D0A00097265616420A5
:100E900062617365206672657175656E6379202085
:100EA0002D20746865206672657175656E637920A2
:100EB0006F66207468652070776D2064726976654E
:100EC000207369676E616C733B0D0A00097265617E
:100ED00064207374617475732020202020202020EA
:100EE00020202D206F6B61792C206F766572207425
:100EF000656D702C206F7665722063757272656EF9
:100F0000742C206574633B0D0A00097265616420CE
:100F100063757272656E74202020202020202020AE
:100F20002D207468652063757272656E7420746814
:100F3000726F7567682065616368206D6F746F728A
:100F40003B0D0A0009726561642073706565642059
:100F5000202020202020202020202D207370656557
:100F6000642069732064656C746173206F662074FB
:100F7000686520706F736974696F6E3B0D0A0009B4
:100F80007265616420706F736974696F6E202020D0
:100F900020202020202D2072656164207468652047
:100FA000706F736974696F6E202862617365642065
:100FB0006F6E20706F7473206F7220656E636F6444
:100FC000657273293B0D0A000D0A464545444241AE
:100FD000434B20434F4D4D414E44533A200D0A00A0
:100FE0000D0A2D2D50726573732052657475726EE3
:100FF0002D2D0D0A000973746F70202020202020F1
:1010000020202020202020202020202D2073746FDD
:101010007020616C6C206D6F746F72732E0D0A00FE
:10102000096D6561737572652074726176656C20F7
:1010300028616C6C2076207720782079207A29200E
:101040002D206D656173757265732074686520630A
:101050006F756E747320756E74696C206661722092
:101060006C696D6974207377697463682069732093
:101070007472696767657265642E0D0A0009686F8E
:101080006D652020202020202020202020202020CE
:101090002020202D206D6F766520616C6C206D6F97
:1010A000746F727320756E74696C206E6561722046
:1010B0006C696D6974207377697463682069732043
:1010C0007472696767657265642E0D0A0009737032
:1010D000656564207633303020773939392E3520F4
:1010E000783230302079343530207A363037202D40
:1010F000204D6F766520746865206D6F746F727314
:10110000206174207370656369666965642073701B
:10111000656564202850494420636F6E74726F6C5B
:10112000292E0D0A0009200909092D204368616E46
:1011300067652F73686F7720746865206D6F7469B9
:101140006F6E20656E6420706F696E742E2065610D
:1011500063682061786973206973206F7074696FA8
:101160006E616C0D0A00097365742F7265616420ED
:1011700064657374696E6174696F6E20765B6E75F9
:101180006D6265725D20775B6E756D6265725D2064
:10119000785B6E756D6265725D20795B6E756D62F0
:1011A00065725D207A5B6E756D6265725D0D0A0019
:1011B000090909090909096973207265616368658C
:1011C00064202850494420636F6E74726F6C292E1E
:1011D0000D0A0009504F53207631303530302077DA
:1011E000393939392E352078353030207934353059
:1011F0002E35207A363037202D204D6F76652074BD
:101200006865206D6F746F727320756E74696C20E1
:10121000706F736974696F6E0D0A000920202020B9
:1012200020202020202020202020202020202020BE
:1012300020202876616C7565732073686F756C6407
:101240002072616E67652066726F6D20302E3030BF
:1012500020746F20312E303029200D0A000950579C
:101260004D2076302E322077302E352078302E30BB
:101270002079312E30207A302E35202D2073657460
:10128000207468652064757479206379636C6520C7
:101290006F66206561636820617869730D0A000DCF
:1012A0000A4D4F544F52204D4F564520434F4D4D00
:1012B000414E44533A200D0A000964697361626C1F
:1012C00065206C696D6974732028762077207820FA
:1012D00079207A20616C6C29202D206C696D6974ED
:1012E000207377697463686573206172652069672C
:1012F0006E6F7265642E0D0A0009656E61626C6521
:10130000206C696D697473202876207720782079A5
:10131000207A20616C6C2920202D206C696D697405
:101320002073776974636865732077696C6C2073C8
:10133000746F70206D6F746F7220616374696F6E6B
:101340002E0D0A00097265616420636F756E7473F7
:101350005F7065725F756E6974202D2064697370AB
:101360006C61797320636F756E7473207065722081
:10137000756E697420666F7220616C6C206178658F
:10138000733B0D0A0009202020202020202020204F
:1013900020202020202020202020202020202074F9
:1013A000686174206D616B652075702074686520BC
:1013B000756E6974202869652034303020636F753C
:1013C0006E74732F696E6368290D0A000973657462
:1013D000205B6E756D6265725D20636F756E7473F0
:1013E0005F7065725F756E69742028762C772C7833
:1013F0002C792C7A29202D206E756D626572206FF4
:101400006620656E636F64657220636F756E7473BA
:10141000200D0A00097265616420756E69742020D0
:10142000202020202020202020202D20646973707F
:101430006C6179207468652063757272656E746C76
:10144000792073656C656374656420756E69740DCD
:101450000A000973656C65637420756E69742028D1
:10146000636F756E74737C696E636865737C6665A3
:1014700065747C6D6574657229202D2073656C65BB
:1014800063742061637469766520756E69740D0AF2
:10149000000D0A534554555020434F4D4D414E4485
:1014A000533A200D0A000975736520706F74656EDC
:1014B00074696F6D65746572202020202D20706F17
:1014C000736974696F6E696E672026207370656535
:1014D00064206172652064657465726D696E65640F
:1014E0002062792074686520706F74730D0A00099A
:1014F00075736520656E636F6465722020202020FF
:1015000020202020202D20706F736974696F6E6910
:101510006E672026207370656564206172652064A3
:10152000657465726D696E656420627920746865A2
:1015300020656E636F646572730D0A000D0A4B4976
:101540004E45544943204452495645204649564544
:101550002050524F544F434F4C203A200D0A0D0A51
:10156000004E414E494E495459494E46CDCCCC3D92
:101570000AD7233C17B7D13877CC2B329595E62480
:101580001FB14F0A000020410000C84200401C4625
:1015900020BCBE4CCA1B0E5AAEC59D7400407A10CA
:1015A000F35A00A0724E18090010A5D4E80000E814
:1015B0007648170000E40B54020000CA9A3B000072
:1015C00000E1F505000080969800000040420F0001
:1015D0000000A08601000000102700000000E803C2
:1015E000000000006400000000000A00000000008D
:1015F0000100000000002C76D888DC674F0823DF4C
:10160000C1DFAE59E1B1B796E5E3E453C63AE6511E
:10161000997696E8E6C28426EB898C9B62ED407C45
:101620006FFCEFBC9C9F40F2BAA56FA5F490055AE1
:101630002AF75C936B6CF9676DC11BFCE0E40D4706
:10164000FEF520E6B500D0ED902E03009435770529
:101650000080841E080000204E0A000000C80C33E1
:101660003333330F986E12831141EF8D2114893B70
:10167000E65516CFFEE6DB18D1844B381BF77C1DF0
:10168000901DA4BBE424203284725E228100C9F143
:1016900024ECA1E53D2711241FBECFEFD1E2DEBF30
:1016A000CDBF00E00CBF1BE0A0E0B2E0EAE2F2EA4E
:1016B00000E00BBF02C007900D92AA35B107D9F721
:1016C00026E1AAE5BBE001C01D92AC36B207E1F706
:1016D0000E94F5450C9413510C94000082E084BDE7
:1016E00093E095BD9AEF97BD80936E0010925E0BCC
:1016F00010925D0B089581E080935A0B089510922B
:101700005A0B089508951F920F920FB60F9211244D
:101710000BB60F922F933F934F935F936F937F93EB
:101720008F939F93AF93BF93EF93FF938091610B40
:101730008823D9F11092610B80915A0B8823E1F133
:10174000E0915F0BF091600B9F01ADECBCEC0E944F
:101750007A46969587959695879596958795AC0147
:10176000440F551F880F991F880F991F880F991FC5
:10177000480F591FE417F50759F13196F093600BA4
:10178000E0935F0BFF91EF91BF91AF919F918F918C
:101790007F916F915F914F913F912F910F900BBE71
:1017A0000F900FBE0F901F90189581E08093610BF2
:1017B00080915A0B8111C4CF80915D0B90915E0B8B
:1017C000019690935E0B80935D0B0E94050CDACF1F
:1017D0001092600B10925F0B80915D0B90915E0BED
:1017E000019690935E0B80935D0B0E94050CCACF0F
:1017F00082E084BD93E095BD9AEF97BD80936E0023
:1018000010925E0B10925D0B089580915D0B90918C
:101810005E0B64E670E00E944146892B61F4809182
:10182000620B9091630B892B39F481E090E09093E7
:10183000630B8093620B08951092630B1092620BFE
:101840000895F894A89584B7877F84BFE0E6F0E018
:10185000808188618083108278940895F894A89597
:10186000E0E6F0E08081886180838DE08083789479
:10187000089588E0E6E9F2E0A8E6BBE001900D9269
:101880008A95E1F78091660B80FD43C081FD33C0EE
:1018900082FD23C083FD13C084FF0DC0A8E6BBE01A
:1018A0000D900020E9F711978CE0EFEDF2E0019048
:1018B0000D928A95E1F714BE88E69BE00895A8E6AC
:1018C000BBE00D900020E9F7119790E1EFECF2E01A
:1018D00001900D929A95E1F7DFCFA8E6BBE00D905D
:1018E0000020E9F7119791E1EEEBF2E001900D9203
:1018F0009A95E1F7CFCFA8E6BBE00D900020E9F77D
:10190000119790E1EEEAF2E001900D929A95E1F7DD
:10191000BFCF90E1EEE9F2E0AFE6BBE001900D92BF
:101920009A95E1F7B3CF84B78093660BF894F89457
:10193000A89584B7877F84BFE0E6F0E08081886166
:101940008083108278940E940B190E944E1C0E9482
:101950006A1C0E94310D41E060E070E08AEF93E480
:101960000E941C1B0E94211E0E9400210E949017B1
:10197000F894A895E0E6F0E08081886180838DE0AE
:1019800080837894789408950F931F93CF93DF9377
:10199000CDB7DEB7C456D1090FB6F894DEBF0FBE7F
:1019A000CDBF8BE2EBEEF2E08E010F5F1F4FD8014F
:1019B00001900D928A95E1F70E94390CBC01C80193
:1019C0000E94B749D8010D900020E9F711978DE2E8
:1019D000E6E1F3E001900D928A95E1F7C8010E94DB
:1019E0001F1FCC59DF4F0FB6F894DEBF0FBECDBF1F
:1019F000DF91CF911F910F91089560E070E080E832
:101A00009EE30E94F80E60E070E080E09FE30E9499
:101A1000C80E60E070E080E49FE30E94980E63E3EC
:101A200073E383E79FE30E94680E60E070E080E864
:101A30009FE30C94380E863751F0873751F0883782
:101A400051F0893751F08A3751F08FEF089580E0D7
:101A5000089581E0089582E0089583E0089584E088
:101A60000895CF92DF92EF92FF92CF93DF938FEFA3
:101A70008093070185E580930801809104018861C6
:101A80008093040180910501806180930501EEE956
:101A9000FBE0C4EADBE041E084E6C82ED12CE12C77
:101AA000F12C9F0124503109D9011D921D921D92E4
:101AB0001C921397C182D282E382F4829E0121504C
:101AC0003109D9014C93408318823B962B96BBE099
:101AD000E53DFB0731F7DF91CF91FF90EF90DF906D
:101AE000CF900895089581110DC0809105018F7EDA
:101AF0008093050180910501886080930501109213
:101B0000CA0B089580910501806180930501809141
:101B10000501877F8093050181E08093CA0B0895BA
:101B200081110DC0809108018D7F80930801809103
:101B300008018160809308011092BF0B0895809185
:101B40000801826080930801809108018E7F809354
:101B5000080181E08093BF0B089581110DC0809131
:101B60000801877F80930801809108018460809339
:101B700008011092B40B0895809108018860809349
:101B80000801809108018B7F8093080181E0809398
:101B9000B40B089581110DC0809108018F7D809351
:101BA0000801809108018061809308011092A90BBF
:101BB0000895809108018062809308018091080156
:101BC0008F7E8093080181E08093A90B0895811195
:101BD0000DC0809108018F7B8093080180910801DE
:101BE00080688093080110929E0B089580910801EF
:101BF000806480930801809108018F7780930801A9
:101C000081E080939E0B08958837B9F03CF48637C5
:101C100089F0873759F4862F0C94CA0D893739F02B
:101C20008A3719F4862F0C94730D08950895862F22
:101C30000C94900D862F0C94E70D862F0C94AD0D0F
:101C400081110BC0809108018F67809308018091FA
:101C500008018064809308010895809108018F77BE
:101C600080930801809108018F7B8093080108957B
:101C7000CF92DF92EF92FF926B017C0120E030E087
:101C8000A9010E94234787FF04C0F7FAF094F7F8F0
:101C9000F094C092C60BD092C70BE092C80BF092A2
:101CA000C90B60910C0270910D0280E090E00E94DF
:101CB000C047A70196010E94B6480E9410470E94A3
:101CC0009447CB01FF90EF90DF90CF900C94F519E3
:101CD000CF92DF92EF92FF926B017C0120E030E027
:101CE000A9010E94234787FF04C0F7FAF094F7F890
:101CF000F094C092BB0BD092BC0BE092BD0BF09263
:101D0000BE0B60910C0270910D0280E090E00E9489
:101D1000C047A70196010E94B6480E9410470E9442
:101D20009447CB01FF90EF90DF90CF900C94ED198A
:101D3000CF92DF92EF92FF926B017C0120E030E0C6
:101D4000A9010E94234787FF04C0F7FAF094F7F82F
:101D5000F094C092B00BD092B10BE092B20BF09223
:101D6000B30B60910C0270910D0280E090E00E9434
:101D7000C047A70196010E94B6480E9410470E94E2
:101D80009447CB01FF90EF90DF90CF900C94E51932
:101D9000CF92DF92EF92FF926B017C0120E030E066
:101DA000A9010E94234787FF04C0F7FAF094F7F8CF
:101DB000F094C092A50BD092A60BE092A70BF092E4
:101DC000A80B60910C0270910D0280E090E00E94DF
:101DD000C047A70196010E94B6480E9410470E9482
:101DE0009447CB01FF90EF90DF90CF900C94051AB1
:101DF000CF92DF92EF92FF926B017C0120E030E006
:101E0000A9010E94234787FF04C0F7FAF094F7F86E
:101E1000F094C0929A0BD0929B0BE0929C0BF092A4
:101E20009D0B60910C0270910D0280E090E00E9489
:101E3000C047A70196010E94B6480E9410470E9421
:101E40009447CB01FF90EF90DF90CF900C94FD1959
:101E50000F931F9341E000912F0C1091300C2091B3
:101E6000310C3091320C061717072807390708F094
:101E700040E04093A30B40939E0B60939F0B7093A5
:101E8000A00B8093A10B9093A20B1F910F9108952B
:101E90000F931F9341E00091470C1091480C209143
:101EA000490C30914A0C061717072807390708F024
:101EB00040E04093AE0B4093A90B6093AA0B709344
:101EC000AB0B8093AC0B9093AD0B1F910F910895CA
:101ED0000F931F9341E000915F0C1091600C2091D3
:101EE000610C3091620C061717072807390708F0B4
:101EF00040E04093B90B4093B40B6093B50B7093E3
:101F0000B60B8093B70B9093B80B1F910F91089568
:101F10000F931F9341E00091770C1091780C209162
:101F2000790C30917A0C061717072807390708F043
:101F300040E04093C40B4093BF0B6093C00B709381
:101F4000C10B8093C20B9093C30B1F910F91089507
:101F50000F931F9341E000918F0C1091900C2091F2
:101F6000910C3091920C061717072807390708F0D3
:101F700040E04093CF0B4093CA0B6093CB0B709320
:101F8000CC0B8093CD0B9093CE0B1F910F910895A6
:101F9000883709F47CC00CF5863709F45CC08737B4
:101FA000E9F521E08091470C9091480CA091490CF3
:101FB000B0914A0C84179507A607B70708F020E0F0
:101FC0002093AE0B2093A90B4093AA0B5093AB0B1D
:101FD0006093AC0B7093AD0B0895893701F18A378C
:101FE000E1F421E080918F0C9091900CA091910CE4
:101FF000B091920C84179507A607B70708F020E068
:102000002093CF0B2093CA0B4093CB0B5093CC0B58
:102010006093CD0B7093CE0B08950895089521E041
:102020008091770C9091780CA091790CB0917A0CFA
:1020300084179507A607B70708F020E02093C40B84
:102040002093BF0B4093C00B5093C10B6093C20B06
:102050007093C30B089521E080912F0C9091300C68
:10206000A091310CB091320C84179507A607B707E1
:1020700008F020E02093A30B20939E0B40939F0B2E
:102080005093A00B6093A10B7093A20B089521E0D5
:1020900080915F0C9091600CA091610CB091620CEA
:1020A00084179507A607B70708F020E02093B90B1F
:1020B0002093B40B4093B50B5093B60B6093B70BC2
:1020C0007093B80B089580E090E00E94E51980E0DD
:1020D00090E00E94ED1980E090E00E94F51980E008
:1020E00090E00E94FD1980E090E00C94051A609148
:1020F0009A0B70919B0B80919C0B90919D0B0E9471
:10210000F80E6091A50B7091A60B8091A70B909192
:10211000A80B0E94C80E6091B00B7091B10B80911A
:10212000B20B9091B30B0E94980E6091BB0B709113
:10213000BC0B8091BD0B9091BE0B0E94680E60910C
:10214000C60B7091C70B8091C80B9091C90B0C9472
:10215000380ECF92DF92EF92FF92CF93DF93C82F8A
:102160006A017B01D1E020E030E0A901C701B6019E
:102170000E94B248181624F56D2F8C2F0E94040E71
:10218000C83729F1C93774F4C637E1F1C73749F5C3
:10219000C701B601DF91CF91FF90EF90DF90CF9014
:1021A0000C94C80EC93721F1CA37D9F4C701B6015A
:1021B000DF91CF91FF90EF90DF90CF900C94380E8D
:1021C000D0E06D2F8C2F0E94040EC837D9F6C701BE
:1021D000B601DF91CF91FF90EF90DF90CF900C94FC
:1021E000980EDF91CF91FF90EF90DF90CF90089500
:1021F000C701B601DF91CF91FF90EF90DF90CF90B4
:102200000C94680EC701B601DF91CF91FF90EF905B
:10221000DF90CF900C94F80E8837D9F044F48637CD
:10222000A1F0873769F4CB01BA010C94C80E893745
:1022300041F08A3721F4CB01BA010C94380E08958D
:102240000895CB01BA010C94680ECB01BA010C942D
:10225000F80ECB01BA010C94980E0F931F932BE04C
:10226000289FF001299FF00D1124E656F44F218597
:10227000DC01AA0FBB1FA80FB91FAA0FBB1FAA0F13
:10228000BB1FAA0FBB1FA15DB34F222381F00D918D
:102290001D912D913C914581568167817085041770
:1022A00015072607370780F41F910F9108950D91A8
:1022B0001D912D913C914581568167817085401714
:1022C00051076207730780F3FC01EB5EFD4F40E0AE
:1022D00050E0BA0180811F910F910C94A9101F93B7
:1022E000CF93DF93EC010E94A11C182FCE010E9416
:1022F000EF1C112359F09BE09C9FF0019D9FF00D76
:102300001124E656F44F9481911111C0882359F09D
:102310008BE08C9FF0018D9FF00D1124E656F44F59
:102320008481882321F0DF91CF911F910895CB5EA6
:10233000DD4F40E050E0BA018881DF91CF911F91DD
:102340000C94A91080E090E00E946F1181E090E071
:102350000E946F1182E090E00E946F1183E090E094
:102360000E946F1184E090E00C946F1199E0E3E417
:10237000F3E0A1EDBBE001900D929A95E1F788237F
:1023800081F180FD22C081FD12C082FF0DC0A1ED50
:10239000BBE00D900020E9F711978EE0EFE6F3E047
:1023A00001900D928A95E1F781ED9BE00895A1EDF2
:1023B000BBE00D900020E9F711979DE0E2E6F3E025
:1023C00001900D929A95E1F7E0CF91E1E1E5F3E01C
:1023D000A9EDBBE001900D929A95E1F781FFD5CF71
:1023E000E6CF95E0ECE4F3E0A9EDBBE001900D92BF
:1023F0009A95E1F7CACF81E08093F90B87B18F7C82
:1024000087B988B18F7C88B955985D988091210CE7
:102410009091220CA091230CB091240C4091270C98
:102420005091280C6091290C70912A0C841B950BFB
:10243000A60BB70B80931B0C90931C0CA0931D0C48
:10244000B0931E0C8091250C9091260C20912B0CA2
:1024500030912C0C821B930B9093200C80931F0CBB
:102460000895E9E1FCE0208131813093180C20933C
:10247000170C8091CD0C9091CE0C4091CB0C5091CB
:10248000CC0C841B950B91838083E5E1FCE04081BB
:1024900051815093140C4093130C821B930B918326
:1024A000808308958091CD0C9091CE0C08958091F9
:1024B000FC0B9091FD0B2091CD0C3091CE0C821B2A
:1024C000930B08952091FC0B3091FD0B8091CD0C66
:1024D0009091CE0C8217930758F02817390720F4F3
:1024E0008FEF8093FE0B08951092FE0B80E008950D
:1024F00081E08093FE0B0895E9E1FCE08081918109
:102500009093180C8093170C8091CD0C9091CE0C69
:102510002091CB0C3091CC0C821B930B9183808348
:102520000895E5E1FCE0808191819093140C809303
:10253000130C8091190C90911A0C2091170C30916A
:10254000180C821B930B918380830895CF92DF92A6
:10255000EF92FF9260911F0C7091200C7695679519
:102560007695679580912B0C90912C0C680F791FB4
:1025700080E090E00E94C0476B017C016091CD0C2F
:102580007091CE0C80E090E00E94C047A7019601B8
:102590000E94AB46A70196010E942747FF90EF904B
:1025A000DF90CF9008958F929F92AF92BF92CF927B
:1025B000DF92EF92FF920F931F93CF93DF93EC0183
:1025C0000091210C1091220C2091230C3091240CAD
:1025D0006091270C7091280C8091290C90912A0C05
:1025E000061717072807390714F4C901B8010E9414
:1025F000C2476B017C0160911B0C70911C0C809197
:102600001D0C90911E0C0E94C2474B015C01209151
:10261000250C3091260C80912B0C90912C0C2817B6
:10262000390708F4C9019E01281B390BC9016091C3
:102630001F0C7091200C0E942D4680E090E00E94BB
:10264000C0479B01AC01C501B4010E94B6489B0183
:10265000AC01C701B6010E94AC46DF91CF911F913A
:102660000F91FF90EF90DF90CF90BF90AF909F9031
:102670008F9008958091CD0C9091CE0C0E94D31232
:102680000E948F47089520E030E048EC52E40E9419
:10269000B6480E948F4708958F929F92AF92BF9243
:1026A000CF92DF92EF92FF924B015C0160911F0C81
:1026B0007091200C80E090E00E94C0476B017C018B
:1026C0004091210C5091220C6091230C7091240CAC
:1026D0008091270C9091280CA091290CB0912A0C84
:1026E000481759076A077B0714F4DB01CA01A501E3
:1026F0009401281B390B4A0B5B0BCA01B9012091CD
:102700001B0C30911C0C40911D0C50911E0C0E9412
:102710005546CA01B9010E94C2479B01AC01C701DD
:10272000B6010E94B6486B017C018091250C909106
:10273000260C60912B0C70912C0C8617970708F4CF
:10274000BC0180E090E00E94C0479B01AC01C70142
:10275000B6010E94AC460E949447CB01FF90EF90D7
:10276000DF90CF90BF90AF909F908F90089589E1B8
:1027700090E090932C0C80932B0C86EE93E090933A
:10278000260C8093250C1092270C1092280C109286
:10279000290C10922A0C80E395E7A0E0B0E080932A
:1027A000210C9093220CA093230CB093240C089539
:1027B0008091210C9091220CA091230CB091240CBB
:1027C0004091270C5091280C6091290C70912A0C93
:1027D000841B950BA60BB70B80931B0C90931C0CC2
:1027E000A0931D0CB0931E0C8091250C9091260C8B
:1027F00020912B0C30912C0C821B930B9093200C6E
:1028000080931F0C08952091250C3091260C809107
:102810002B0C90912C0C2817390708F4C901089546
:102820000F931F930091210C1091220C2091230CE7
:102830003091240C6091270C7091280C8091290C08
:1028400090912A0C061717072807390714F4C901B5
:10285000B8011F910F9108952091250C3091260CFD
:1028600080912B0C90912C0C8217930708F4C901CE
:1028700008950F931F930091210C1091220C209129
:10288000230C3091240C6091270C7091280C8091BE
:10289000290C90912A0C601771078207930714F492
:1028A000C901B8011F910F910895E091250CF09195
:1028B000260C20912B0C30912C0CE217F30740F5DD
:1028C0008091270C9091280CA091290CB0912A0C92
:1028D0004091210C5091220C6091230C7091240C9A
:1028E0004093270C5093280C6093290C70932A0C6A
:1028F000F0932C0CE0932B0C8093210C9093220CE2
:10290000A093230CB093240C3093260C2093250C19
:1029100008950F931F934091210C5091220C6091C8
:10292000230C7091240C8091270C9091280CA0917D
:10293000290CB0912A0C8C019D01481759076A0790
:102940007B0714F48A019B012227332708171907F4
:102950002A073B0701F120912B0C30912C0C40935E
:10296000270C5093280C6093290C70932A0C4091EB
:10297000250C5091260C50932C0C40932B0C8093DB
:10298000210C9093220CA093230CB093240C309331
:10299000260C2093250C1F910F910895CF93DF9360
:1029A000EC0183E00E942B1984E00E942B19809196
:1029B0002E0C8130A1F0823001F180912B0C90918E
:1029C0002C0CC817D90738F18091250C9091260C52
:1029D0008C179D0778F180E0DF91CF910895809169
:1029E0002B0C90912C0C07968C179D07E8F41092F5
:1029F0002E0C80E0DF91CF9108958091250C90916D
:102A0000260C0797C817D90790F384E00E9418197D
:102A100080912E0CE1CF83E00E94181981E0809311
:102A20002E0CDF91CF91089583E00E9418198091B8
:102A30002E0CD2CF84E00E94181982E080932E0CD5
:102A4000DF91CF910895CF92DF92EF92FF92CF93D3
:102A5000DF93EB01C0900002D0900102E0900202EF
:102A6000F0900302BC0180E090E00E94C047A70103
:102A700096010E94B2481816B4F0BE0180E090E0C2
:102A80000E94C0479B01AC01C701B6010E942347C9
:102A9000881F8827881F880FDF91CF91FF90EF90C4
:102AA000DF90CF90089581E0DF91CF91FF90EF907C
:102AB000DF90CF900895CF92DF92EF92FF92CF9365
:102AC000DF938091F90B81111FC06091FC0B709115
:102AD000FD0BC091CD0CD091CE0C6C177D0719F178
:102AE00080912D0C823039F18330F1F18091FA0B15
:102AF0009091FB0B8617970778F46C177D0720F4ED
:102B000082E080932D0C01C080E0DF91CF91FF9097
:102B1000EF90DF90CF900895C617D707A8F783E00E
:102B200080932D0CF2CF81E0DF91CF91FF90EF9059
:102B3000DF90CF90089580E090E00E94C0476B0145
:102B40007C012DEC3CEC4CEC5DE30E94B6489B0113
:102B5000AC01C701B6010E94AB460E949447C6175C
:102B6000D707C8F082E0D1CF80E090E00E94C04754
:102B70006B017C012DEC3CEC4CEC5DE30E94B64813
:102B80009B01AC01C701B6010E94AC460E9494476C
:102B90006C177D0750F410922D0C80E0DF91CF91DF
:102BA000FF90EF90DF90CF90089583E0AECF1F921B
:102BB0000F920FB60F9211248F939F93AF93BF93F1
:102BC000789B24C010923B0C10923C0C10923D0C50
:102BD00010923E0C80912F0C9091300CA091310CF2
:102BE000B091320C0196A11DB11D80932F0C9093D2
:102BF000300CA093310CB093320CBF91AF919F91E8
:102C00008F910F900FBE0F901F90189581E090E06C
:102C1000A0E0B0E080933B0C90933C0CA0933D0C63
:102C2000B0933E0C80912F0C9091300CA091310C00
:102C3000B091320C0197A109B10980932F0C9093A8
:102C4000300CA093310CB093320CD7CF1F920F925F
:102C50000FB60F9211248F939F93AF93BF93799BDD
:102C600024C01092530C1092540C1092550C1092D8
:102C7000560C8091470C9091480CA091490CB09152
:102C80004A0C0196A11DB11D8093470C9093480CEE
:102C9000A093490CB0934A0CBF91AF919F918F9133
:102CA0000F900FBE0F901F90189581E090E0A0E06C
:102CB000B0E08093530C9093540CA093550CB093B8
:102CC000560C8091470C9091480CA091490CB09102
:102CD0004A0C0197A109B1098093470C9093480CC5
:102CE000A093490CB0934A0CD7CF1F920F920FB606
:102CF0000F9211248F939F93AF93BF937A9B24C01D
:102D000010926B0C10926C0C10926D0C10926E0C59
:102D100080915F0C9091600CA091610CB091620C5D
:102D20000196A11DB11D80935F0C9093600CA09340
:102D3000610CB093620CBF91AF919F918F910F90F6
:102D40000FBE0F901F90189581E090E0A0E0B0E0DA
:102D500080936B0C90936C0CA0936D0CB0936E0CE5
:102D600080915F0C9091600CA091610CB091620C0D
:102D70000197A109B10980935F0C9093600CA09317
:102D8000610CB093620CD7CF1F920F920FB60F92C7
:102D900011240BB60F922F933F934F935F936F9332
:102DA0007F938F939F93AF93BF93EF93FF9380E0B5
:102DB0000E9418197B9B2EC01092830C1092840CD9
:102DC0001092850C1092860C8091770C9091780C63
:102DD000A091790CB0917A0C0196A11DB11D809340
:102DE000770C9093780CA093790CB0937A0CFF91A8
:102DF000EF91BF91AF919F918F917F916F915F9173
:102E00004F913F912F910F900BBE0F900FBE0F90DF
:102E10001F90189581E090E0A0E0B0E08093830CD3
:102E20009093840CA093850CB093860C8091770CC2
:102E30009091780CA091790CB0917A0C0197A1092E
:102E4000B1098093770C9093780CA093790CB09390
:102E50007A0CCDCF1F920F920FB60F9211240BB6A2
:102E60000F922F933F934F935F936F937F938F9323
:102E70009F93AF93BF93EF93FF9380E00E94181945
:102E80007C9B2EC010929B0C10929C0C10929D0C5F
:102E900010929E0C80918F0C9091900CA091910CAF
:102EA000B091920C0196A11DB11D80938F0C90934F
:102EB000900CA093910CB093920CFF91EF91BF9165
:102EC000AF919F918F917F916F915F914F913F91C2
:102ED0002F910F900BBE0F900FBE0F901F90189563
:102EE00081E090E0A0E0B0E080939B0C90939C0C7C
:102EF000A0939D0CB0939E0C80918F0C9091900CA0
:102F0000A091910CB091920C0197A109B109809305
:102F10008F0C9093900CA093910CB093920CCDCF0A
:102F20008AB1807F8AB98BB1807F8BB980B3807E74
:102F300080BB81B3807E81BB6C9874988DB38F61A8
:102F40008DBB8FEF80936900EAE6F0E080818360BB
:102F500080830895EFE2FCE080819181A281B381BA
:102F60004089518962897389841B950BA60BB70B25
:102F700084839583A683B783448955896689778935
:102F8000841B950BA60BB70B80879187A287B3870D
:102F900078968CE0E73AF807F9F6EFE2FCE08081FA
:102FA0009181A281B381808B918BA28BB38B848121
:102FB0009581A681B781848B958BA68BB78B7896EC
:102FC0008CE0E73AF80759F708951F920F920FB671
:102FD0000F9211240BB60F92CF92DF92EF92FF92D5
:102FE0000F931F932F933F934F935F936F937F9311
:102FF0008F939F93AF93BF93CF93DF93EF93FF9301
:103000008091AB0C8B3008F06EC08F5F8093AB0C5F
:10301000809178000091790010E0102F0027080FB0
:10302000111DC091AC0CC53008F472C0CA3008F054
:103030005DC0D0E02597FE01EE0FFF1FEF53F34F69
:1030400011830083CC0FDD1FCC0FDD1FC355D34F81
:103050002DEC3CEC4CE45FE3688179818A819B81B3
:103060000E94B6486B017C01B80180E090E00E94AC
:10307000C0472DEC3CEC4CE45EE30E94B6489B015B
:10308000AC01C701B6010E94AC46688379838A838C
:103090009B8389E480937C0080917A008064809394
:1030A0007A008091AC0C8F5F893078F11092AC0C73
:1030B000FF91EF91DF91CF91BF91AF919F918F9150
:1030C0007F916F915F914F913F912F911F910F9140
:1030D000FF90EF90DF90CF900F900BBE0F900FBE40
:1030E0000F901F9018951092AB0C92CF1092AC0CD1
:1030F00082E480937C0080917A00806480937A00DF
:103100008091AC0C8F5F893088F68093AC0CD0CF67
:10311000D0E0CC0FDD1FC553D34F1983088388E45B
:1031200080937C0080917A00806480937A00B9CF8C
:10313000EAE7F0E08081887F8083089581B1807E16
:1031400081B982B1807E82B981B18F7181B982B13A
:103150008F7182B987B18C7F87B988B18C7F88B92C
:103160008BE980937A00EEE7F0E0808184608083D1
:10317000EFE7F0E080818360808382E480937C00CD
:10318000089582E480937C00EAE7F0E08081806427
:1031900080830895BC0180E090E00E94C04720E059
:1031A00030E048E051E40E94B6480895089588E46C
:1031B00080937C0080917A00806480937A00809173
:1031C0007A0086FDFCCF209178008091790090E014
:1031D000982F8827820F911D9093C20C8093C10C69
:1031E000089589E480937C0080917A0080648093C4
:1031F0007A0080917A0086FDFCCF20917800809142
:10320000790090E0982F8827820F911D9093C40C2D
:103210008093C30C08951092D70C1092D60C989AF4
:10322000999A9A9A9B9AA098A198A298A39808957F
:10323000823069F040F0833021F0843051F4A39A59
:103240000895A29A0895813029F4A09A0895A19A28
:10325000089508950895823069F040F0833021F098
:10326000843051F4A3980895A2980895813029F4E8
:10327000A0980895A1980895089508950895662343
:1032800069F087FF20C0A39A86FF20C0A29A85FF1D
:1032900020C0A19A84FD0DC0A098089583FF0BC0A3
:1032A000A39A82FF0BC0A29A81FF0BC0A19A80FF54
:1032B000F3CFA09A0895A39882FDF5CFA29881FD3F
:1032C000F5CFA198F4CFA39886FDE0CFA29885FD15
:1032D000E0CFA198DFCF611102C00C942B190C94A0
:1032E0001819CF939091D70C9D7FE9F490910A0221
:1032F0002FEF290F20930A02911115C09AE09093A5
:103300000A02C0910902882389F08C2F0E941819A3
:103310008C2F8F5F80930902853028F081E08093A5
:103320000902CF91089580E0CF9108958C2F0E94DB
:103330002B198C2FEECF9091D70C91118091D60C38
:103340000C943F199091D70C992319F0933009F000
:10335000089590910B0291110BC060E00E943F19FB
:1033600081E090910B02911180E080930B0208950F
:1033700061E00E943F19F4CF8091D70C8230B1F008
:10338000833041F0813009F0089560E08091D60CDF
:103390000C943F19809108029FEF980F90930802B8
:1033A0008111F2CF8AE08093080208958091D60CB3
:1033B0000E947119813041F79091D60C911103C090
:1033C0008093D60C089580E0FBCF2FB7F8949093AC
:1033D0008900809388002FBF08952FB7F8949093A9
:1033E0008B0080938A002FBF08952FB7F894909395
:1033F0008D0080938C002FBF08952FB7F894909381
:10340000A9008093A8002FBF08952FB7F894909338
:10341000AB008093AA002FBF0895CF92DF92EF9266
:10342000FF926B017C0120910E0230E040E050E001
:1034300060E072E18AE790E00E945546CA01B90156
:103440000E94C247A70196010E9427470E94944705
:10345000CB01FF90EF90DF90CF9008950F931F93D3
:1034600020910E0230E040E050E060E072E18AE737
:1034700090E00E945546CA01B90100910C021091DA
:103480000D02980140E050E00E945546CA01B90182
:103490000E94C2471F910F91089590930D0280934F
:1034A0000C02909387008093860080910C0290918B
:1034B0000D029093A7008093A6000895CF92DF920B
:1034C000EF92FF926B017C0120910E0230E040E010
:1034D00050E060E072E18AE790E00E945546CA0140
:1034E000B9010E94C247A70196010E9427470E9486
:1034F000944770930D0260930C0270938700609361
:10350000860080910C0290910D029093A700809309
:10351000A600FF90EF90DF90CF900895AF92BF92FA
:10352000CF92DF92EF92FF920F931F93CF93DF938F
:103530009B01AC0160E074E284E79BE40E942747B2
:103540005B016C0120E03FEF4FE757E40E94B24877
:1035500018160CF050C020E030E040E05EE3B5010A
:10356000C6010E94B6487B018C01C8E0D0E020E093
:103570003FEF4FE757E4B701C8010E94B248181661
:1035800064F420E030E040E85CE3B501C6010E944D
:10359000B6487B018C01C0E4D0E020E03FEF4FE76C
:1035A00057E4B701C8010E94B248181664F420E03D
:1035B00030E040E85BE3B501C6010E94B6487B01FC
:1035C0008C01C0E0D1E020E03FEF4FE757E4B701C6
:1035D000C8010E94B248181614F4C0E0D4E0CE012D
:1035E000DF91CF911F910F91FF90EF90DF90CF90DF
:1035F000BF90AF90089575018601C1E0D0E0B7CFCC
:1036000080349105B9F038F48130910589F008973C
:1036100059F482E00895811521E0920739F081156F
:10362000944011F485E008958FEF089584E00895A3
:1036300081E0089583E008958F929F92AF92BF92A8
:10364000CF92DF92EF92FF920F931F93CF93DF936E
:103650004B015C01E42E259A269A279A809101015C
:103660008860809301018091010180618093010154
:10367000109264008FE2809365008FB7F8941092E7
:103680008900109288008FBF8FB7F89410928B003A
:1036900010928A008FBF8FB7F89410928D0010920D
:1036A0008C008FBF8FB7F8941092A9001092A800D9
:1036B0008FBF8FB7F8941092AB001092AA008FBF03
:1036C00020910E0230E040E050E060E072E18AE7D5
:1036D00090E00E945546CA01B9010E94C247A50167
:1036E00094010E9427470E94944770930D026093B3
:1036F0000C02709387006093860080910C02909179
:103700000D029093A7008093A600E1107DC082E097
:1037100080938000A501940160E074E284E79BE45B
:103720000E9427475B016C0120E03FEF4FE757E421
:103730000E94B24818160CF061C020E030E040E072
:103740005EE3B501C6010E94B6488B01D82FC92F90
:1037500098E0F92E20E03FEF4FE757E4B8018D2FB6
:103760009C2F0E94B24818166CF420E030E040E82C
:103770005CE3B501C6010E94B6488B01D82FC92F62
:1037800080E4F82E20E03FEF4FE757E4B8018D2F9B
:103790009C2F0E94B248181664F420E030E040E804
:1037A0005BE3B501C6010E94B6488B01D82FC92F33
:1037B000F12C20E03FEF4FE757E4B8018D2F9C2F0D
:1037C0000E94B248181614F1F0920E0288E0F81622
:1037D00009F444C080E4F816D9F181E0F81218C069
:1037E00089E180938100EE20C1F08AEA8093A000F5
:1037F00080910E028830C1F48AE11BC08501DC2D66
:10380000CD2DFF24F394A6CF8AEA82CF10920E0228
:103810008FEF80938100E110E8CF82E08093A000D9
:1038200080910E02883041F38034B1F0813091F004
:103830008FEF8093A100DF91CF911F910F91FF90A7
:10384000EF90DF90CF90BF90AF909F908F900895B2
:103850008BE1DFCF89E1EDCF8BE1EBCF8AE1D9CFEF
:1038600090918000811105C0892F806C8093800029
:103870000895892F8F7B80688093800008959091B0
:103880008000811105C0892F806380938000089596
:10389000892F8F7E8062809380000895E4E0F1E0BC
:1038A00080818F7D808380818F7B8083E5E0F1E064
:1038B0008081806280838081806480830895E3E0DA
:1038C000F1E0808180728093100280818074809307
:1038D0000F020895EAE0F1E080811082E1E0F1E07A
:1038E00080818F798083EBE0F1E080818FEF8083AE
:1038F000E2E0F1E080818066808308958091090193
:1039000090E09093DB0C8093DA0C8091000180763C
:1039100090E09093D90C8093D80C08958091DA0CA4
:103920009091DB0C8F3F910511F081E0089581E0CB
:103930002091D80C3091D90C20363105B9F780E0B0
:1039400008958230910509F440C084F4009779F11C
:10395000019709F58091DA0C9091DB0C969587958B
:103960009695879521E0822781700895833091058F
:10397000A1F0049781F48091D80C9091D90C969580
:103980008795929582958F7089279F70892721E06E
:1039900082278170089580E008958091DA0C9091DB
:1039A000DB0C8170992721E0822781700895809136
:1039B000DA0C9091DB0C9695879596958795969560
:1039C000879521E08227817008958091DA0C90918B
:1039D000DB0C9695879521E08227817008958230CF
:1039E000910509F449C0ACF40097C9F1019739F584
:1039F0008091DA0C9091DB0C0024880F991F001C39
:103A0000880F991F001C892F902D21E0822781703B
:103A1000089583309105A9F0049789F48091D80C1A
:103A20009091D90C0024880F991F001C880F991FB2
:103A3000001C892F902D21E082278170089580E05D
:103A400008958091DA0C9091DB0C929582958F709D
:103A500089279F70892721E08227817008958091AE
:103A6000DA0C9091DB0C880F892F881F990B9195A8
:103A700021E08227817008958091DA0C9091DB0C0F
:103A800096958795929582958F7089279F70892743
:103A900021E08227817008958091090190E0909340
:103AA000DB0C8093DA0C80910001807690E090939B
:103AB000D90C8093D80C08958837B9F03CF4863738
:103AC00089F0873759F46093730F0895893739F077
:103AD0008A3719F46093760F0895089508956093D6
:103AE000750F08956093720F08956093740F089591
:103AF0004F925F926F927F928F929F92AF92BF92FE
:103B0000CF92DF92EF92FF920F931F93CF93DF93A9
:103B1000CDB7DEB7C654D1090FB6F894DEBF0FBEDD
:103B2000CDBFCE018E5B9F4F7C0100E010E0C8014D
:103B30000E94EF1CF70181937F010F5F1F4F05303B
:103B40001105A9F7CE01CD967C0100E010E0C80177
:103B50000E94A11CF70181937F010F5F1F4F053069
:103B60001105A9F788E1EDE7F3E08E010F5F1F4F24
:103B7000D80101900D928A95E1F7C8010E941F1F9C
:103B8000B2E7AB2EBFE0BB2E85E1C82E82E0D82E77
:103B900092E4892E912C8C0E9D1EF5E08F0E911CC7
:103BA000CE01CD967C01FE01EE5BFF4F2F0125E992
:103BB000622E23E0722EF20131912F01F7019191D3
:103BC0007F01F50181915F01F60121916F011F9243
:103BD0003F931F929F931F928F93822F992787FD68
:103BE00090959F932F937F926F921F930F930E94B4
:103BF0006F4AC8010E941F1F0FB6F894DEBF0FBEA8
:103C0000CDBF48145904B9F6CA5BDF4F0FB6F8941C
:103C1000DEBF0FBECDBFDF91CF911F910F91FF90FF
:103C2000EF90DF90CF90BF90AF909F908F907F905C
:103C30006F905F904F9008959093C5008093C4005B
:103C400008956998689A6A986B9A73981092EA0E28
:103C50001092E90E1092E80E1092E70EE7EEFCE0EB
:103C600011928EE0E73EF807D9F71092C5008CE07C
:103C70008093C40088E18093C1008091C100806876
:103C80008093C100809164008E7F809364000895CA
:103C90009091C00095FFFCCF8093C60008951F92BD
:103CA0000F920FB60F9211240F900FBE0F901F901E
:103CB000189521E08B3109F020E09091E10C922BD6
:103CC0009093E10C31E08B3509F030E02091E00C6D
:103CD000232B2093E00C31E0813409F030E0509147
:103CE000DF0C532B5093DF0C31E0823409F030E0CD
:103CF0004091DE0C432B4093DE0C61E0843409F0EC
:103D000060E03091DD0C362B3093DD0C61E08334C4
:103D100009F060E08091DC0C862B8093DC0C992309
:103D200099F0222389F0332391F01092DC0C109249
:103D3000DD0C1092DE0C1092DF0C1092E00C109251
:103D4000E10C83E090E0089580E090E008958823FE
:103D500079F01092DC0C1092DD0C1092DE0C1092B7
:103D6000DF0C1092E00C1092E10C84E090E00895DA
:103D700051110FC0442341F31092DD0C1092DE0C60
:103D80001092DF0C1092E00C1092E10C82E090E0B7
:103D900008951092DD0C1092DE0C1092DF0C109240
:103DA000E00C1092E10C81E090E0089521E08D306C
:103DB00009F020E09091E40C922B9093E40C21E028
:103DC0008A3009F020E08091E30C822B8093E30C91
:103DD000992331F01092E40C1092E30C81E00895E5
:103DE00080E008951F93CF93DF93182FCB01EB0151
:103DF000C951D34FFE0101900020E9F7AF014150B6
:103E000051094C1B5D0BBE018851934F0E94A5497F
:103E10001883DF91CF911F910895FC01E951F34F71
:103E2000DF010D900020E9F7AD01415051094E1B13
:103E30005F0BBC016851734FCF010C94A549FC0185
:103E400001900020E9F73197E81BF90B1E161F06B9
:103E5000CCF420E030E005C02F5F3F4FE217F307BE
:103E600089F06299F9CF4091C00045FFFCCFDC0199
:103E7000A20FB31F4C914093C6002F5F3F4FE21734
:103E8000F30779F781E008951F920F920FB60F9212
:103E900011240BB60F92EF92FF920F931F932F9363
:103EA0003F934F935F936F937F938F939F93AF93C2
:103EB000BF93EF93FF93CF93DF93CDB7DEB76497B4
:103EC000DEBFCDBF8091C00084FD66C08C7009F05C
:103ED00063C01092E60C1092E50C8091C6008093AE
:103EE000E20CE7EEFCE0DF010D900020E9F78D0128
:103EF00001501109075E1C400E94591E2091E10CDF
:103F0000222311F0009749F18130910509F409C18C
:103F10008230910509F448C08430910509F4F4C059
:103F2000039709F40CC18091E20C8F3709F469C042
:103F3000883009F466C08091E50C81113AC0809107
:103F4000C00085FFFCCF8091E20C8093C600809179
:103F5000E90E9091EA0E019791F564960FB6F894E8
:103F6000DEBF0FBECDBFDF91CF91FF91EF91BF912B
:103F7000AF919F918F917F916F915F914F913F9101
:103F80002F911F910F91FF90EF900F900BBE0F900C
:103F90000FBE0F901F90189580E00E941819109284
:103FA000E80E1092E70E95CF81E08093E50C8093A8
:103FB000E60C8091E90E9091EA0E019771F2409122
:103FC000E20C91E04D3009F090E08091E40C892BF7
:103FD0008093E40C21E04A3009F020E09091E30C5A
:103FE000922B9093E30C882309F471C01092E40C97
:103FF0001092E30C81E090E09093EA0E8093E90E3A
:10400000ACCF81E08093E60C6091E70E7091E80EF2
:10401000161617060CF057C088E0F82EF092E20C46
:10402000CB0101979093E80E8093E70EA801481BFF
:10403000590B6951734F8951934F0E94A549F982D9
:104040009BE1E92EEA822BE5F22EFB828BE48C8346
:104050001D828E010F5F1F4FC8010E941F1F80919C
:10406000E70E9091E80E8951934F0E941F1FA09177
:10407000E70EB091E80EA951B34FFD010190002069
:10408000E9F7CF0101978A1B9B0B18161906DCF480
:104090004AE0BE01605F7F4F0E94EE49E982FA82EA
:1040A0001B82BE01605F7F4FC8010E94B749F801C3
:1040B00001900020E9F7319784E490E091838083B8
:1040C000C8010E941F1F81E08093E50C72CF809190
:1040D000E60C811142CF8091E70E9091E80E811598
:1040E000F2E09F070CF041C09C012F5F3F4FFC01A5
:1040F000E951F34F40833093E80E2093E70EF90126
:10410000E951F34F108229CF8091E70E9091E80E8C
:10411000801791077CF181E08093E60C8093E50C99
:1041200048CF88EB93E00E941F1F1092E80E109278
:10413000E70E81E08093E50C8093E60C3ACF81E0B6
:104140008093E60C8091E70E9091E80E1816190600
:104150000CF0B9CF28E02093E20C01979093E80E81
:104160008093E70E8091E50CE8CE21E030E080E01E
:1041700090E0BDCF01969093E80E8093E70E8BE11F
:1041800089838BE58A8383E48B831C82CE0101962D
:104190000E941F1FC0CF81E493E00C941F1F109258
:1041A000EA0E1092E90E1092E80E1092E70EE7EE7A
:1041B000FCE011928EE0E73EF807D9F70895809170
:1041C000E90E9091EA0E019709F0089582E00E94AD
:1041D000181980E00E942B1987EE9CE00E9476312E
:1041E0001092EA0E1092E90E1092E80E1092E70E6D
:1041F000E7EEFCE011928EE0E73EF807D9F708956C
:104200008F929F92AF92BF92FF920F931F93CF9383
:10421000DF9381E08093710F80E090E0AAEFB3E438
:104220008093770F9093780FA093790FB0937A0FC4
:1042300081E090E090937C0F80937B0F80E090E092
:10424000A0ECB1E48093B90F9093BA0FA093BB0F89
:10425000B093BC0F80E090E0A0E1B1E48093BD0F8B
:104260009093BE0FA093BF0FB093C00F86ED91E364
:10427000A2EEB1E48093C10F9093C20FA093C30F3D
:10428000B093C40F80E090E0A4EBB3E48093C50F3B
:104290009093C60FA093C70FB093C80F81E090E032
:1042A000A0E0B0E08093C90F9093CA0FA093CB0F0A
:1042B000B093CC0FC2E7DFE00DE71FE02DEC3FE04D
:1042C000E1E9FFE0FF24F39444EF51E060E070E0A7
:1042D000812C912C80E8A82E8FE3B82EF992D8017A
:1042E0004D935D936D937D938D01D9011D929D0139
:1042F00081929192A192B192108A118A128A138AA4
:10430000BFE0C737DB0751F780E492EEA1E0B0E0F1
:104310008093D20F9093D30FA093D40FB093D50F67
:1043200081E090E09093D70F8093D60F1092D90F31
:104330001092D80F1092DB0F1092DA0FDF91CF910D
:104340001F910F91FF90BF90AF909F908F90089515
:10435000CF93DF93C1E7DFE0CE0181579F400E94FA
:10436000033689938FE0CC3DD807B1F7DF91CF9129
:104370000895CF93DF93C1E7DFE0CE0181579F40DF
:1043800069910E94FB358FE0CC3DD807B1F7DF91F2
:10439000CF9108950F931F93CF93DF930E94A8218D
:1043A0006091770F7091780F8091790F90917A0FCB
:1043B0000E945E1ACAE9DBE005E112E048815981FA
:1043C0006A817B81F80181918F010E94A9102B964F
:1043D000FBE0C13DDF0791F7DF91CF911F910F9176
:1043E0000895181619067CF4FB01880F991F880F91
:1043F000991F860F971F13821282118210823496A2
:10440000E817F907C1F708958F929F92AF92BF9274
:10441000CF92DF92EF92FF920F931F93CF93DF9390
:104420005C01181619060CF058C08B01C1E0D0E0F1
:1044300039ECC32E33E0D32E4BEFE42E41E1F42EC2
:104440005BEB852E53E0952E27C0F801268137813E
:104450009F938F933F932F933F932F93DF93CF930C
:10446000DF92CF92FF92EF920E946F4A8BEF91E121
:104470000E941F1F87E599E00E941F1FEDB7FEB73E
:104480003C960FB6F894FEBF0FBEEDBF21960C5FB1
:104490001F4FAC16BD060CF1F80184819581009781
:1044A000A1F6DF93CF939F928F92FF92EF920E949B
:1044B0006F4A8BEF91E10E941F1F87E599E00E94F0
:1044C0001F1F0F900F900F900F900F900F9021963D
:1044D0000C5F1F4FAC16BD06FCF6DF91CF911F910C
:1044E0000F91FF90EF90DF90CF90BF90AF909F9093
:1044F0008F900895AF92BF92CF92DF92EF92FF928A
:104500000F931F93CF93DF93CDB7DEB764970FB6AA
:10451000F894DEBF0FBECDBF6B015A017901D901FE
:104520000D900020E9F78D0101501109021B130BBA
:1045300020E031E0E0EFF0E1DF01A9011D92415000
:104540005040E1F7E0EFFFE0DF01A9011D9241508B
:104550005040E1F71816190684F4FB01DC01AA0F9C
:10456000BB1FAA0FBB1FAC0DBD1D1382128211828F
:1045700010823496EA17FB07C1F78091FA11811176
:1045800033C0B50180EF9FE00E94AA3F5C0180919B
:10459000FA11A114B104A1F4811155C0C5016496AA
:1045A0000FB6F894DEBF0FBECDBFDF91CF911F9144
:1045B0000F91FF90EF90DF90CF90BF90AF90089554
:1045C00081111AC09601A801B70180EF9FE00E94F7
:1045D0004B4031E020E0892B19F0A32EB22EDECF24
:1045E00030E0A32EB22EDACF8CED93E00E941F1F95
:1045F000C5010E941F1FC5CF83E094E00E941F1FCA
:1046000080EF90E10E941F1F89E094E00E941F1F2D
:104610008091F3118F938091F2118F938BE094E04E
:104620009F938F93CE0101965C01BF928F930E945E
:104630006F4AC5010E941F1F0F900F900F900F909F
:104640000F900F90BFCF8AEE93E00E941F1F8091C2
:10465000F8119091F9110E941F1FA0CF80917B0F3C
:1046600090917C0F81309105C1F1ECF08230910581
:1046700071F0039731F585E0E3E7F4E0ACEDBFE0DE
:1046800001900D928A95E1F78CED9FE0089586E008
:10469000E8E6F4E0ACEDBFE001900D928A95E1F719
:1046A0008CED9FE00895892B61F487E0EEEEF6E053
:1046B000ACEDBFE001900D928A95E1F78CED9FE0A3
:1046C000089588E0E8E1F4E0ACEDBFE001900D92E0
:1046D0008A95E1F78CED9FE0089585E0EEE5F4E042
:1046E000ACEDBFE001900D928A95E1F78CED9FE073
:1046F0000895BC0180E694E10E94CD49E0E6F4E132
:1047000001900020E9F731978DE09AE0A0E08083E6
:104710009183A28381E080935F140895875784304A
:1047200068F4E82FF0E0EE0FFF1FEE0FFF1FE65ECC
:10473000FD4F6081718182819381089560E070E016
:10474000CB010895CF93DF9300D01F92CDB7DEB792
:104750009A01AB0187578430C0F5E82FF0E0EE0FE7
:10476000FF1FEE0FFF1FE65EFD4F608171818281AA
:10477000938129833A834B835C830E948F472981ED
:104780003A814B815C81FB01EE0FFF1FEE0FFF1F93
:10479000E358F04F608171818281938129833A834C
:1047A0004B835C830E94C24729813A814B815C81A3
:1047B0000E94B6480E9419490E948F470F900F909F
:1047C0000F900F90DF91CF91089560E070E0DBCF04
:1047D000CF92DF92EF92FF926A017B01875784307C
:1047E00030F5E82FF0E0EE0FFF1FEE0FFF1FE65E43
:1047F000FD4F60817181828193810E948F47FB010F
:10480000EE0FFF1FEE0FFF1FE358F04F20813181A5
:1048100042815381C701B6010E945546CA01B901C0
:104820000E94C247FF90EF90DF90CF90089560E024
:1048300070E0E5CF21E030E0062E01C0220F0A949F
:10484000EAF782230895CF93DF93EC01E4EFF1E0E0
:10485000659174918FE593E10E9491499E014FE526
:1048600053E16BEF72E182E090E00E947A22EC016A
:104870000097A9F066E274E08091FF129091001316
:104880000E94D449892B79F081E08093710F80E2F6
:1048900094E00E9479238C2FDF91CF91089580E0DE
:1048A000DF91CF9108951092710F8EE294E00E94F3
:1048B0007923F1CFAF92BF92CF92DF92EF92FF9226
:1048C0000F931F93CF93DF93CDB7DEB7C456D109B3
:1048D0000FB6F894DEBF0FBECDBF8C01E6EFF1E05E
:1048E000659174918FE593E10E94914998014FE59C
:1048F00053E16BEF72E183E090E00E947A225C0169
:10490000009709F4E3C00091FF121091001362E4D4
:1049100074E0C8010E94D449892B09F4EEC00091CB
:104920000313109104136EEE76E0C8010E94D4497F
:10493000892B61F010927C0F10927B0F8DE494E034
:104940000E94792300910313109104136EE574E023
:10495000C8010E94D449892B09F4CBC061E070E002
:1049600080917B0F90917C0F0E94B9336B017C0189
:104970000DE71FE0F80160817181828193810E94BF
:10498000C247A70196010E94B6480E948F47F801CE
:1049900061937193819391938F01FFE001391F0718
:1049A00049F781E090E090937C0F80937B0F89E53D
:1049B00094E00E947923009103131091041368E698
:1049C00074E0C8010E94D449892B89F162E070E04B
:1049D00080917B0F90917C0F0E94B9336B017C0119
:1049E0000DE71FE0F80160817181828193810E944F
:1049F000C247A70196010E94B6480E948F47F8015E
:104A000061937193819391938F01FFE001391F07A7
:104A100049F782E090E090937C0F80937B0F83E6D0
:104A200094E00E947923009103131091041363E72B
:104A300074E0C8010E94D449892B69F163E070E0F9
:104A400080917B0F90917C0F0E94B9336B017C01A8
:104A50000DE71FE0F80160817181828193810E94DE
:104A6000C247A70196010E94B6480E948F47F801ED
:104A700061937193819391938F01FFE001391F0737
:104A800049F783E090E090937C0F80937B0F8EE654
:104A900094E00E94792388E0E8E7F4E0ABEFB1E12D
:104AA00001900D928A95E1F78E010F5F1F4F23E071
:104AB00043E0C701B6010E943949B8018BEF91E18B
:104AC0000E94B7498BEF91E10E941F1F8A2DCC599C
:104AD000DF4F0FB6F894DEBF0FBECDBFDF91CF9191
:104AE0001F910F91FF90EF90DF90CF90BF90AF900C
:104AF0000895C12CD12C760162CF66E474E0C80120
:104B00000E94D449892B09F00ACF0E942E239F933B
:104B10008F9380E894E09F938F938E010F5F1F4FD8
:104B20001F930F930E946F4AC8010E9479230F9030
:104B30000F900F900F900F900F90C8CF2F923F9231
:104B40004F925F926F927F928F929F92AF92BF929D
:104B5000CF92DF92EF92FF920F931F93CF93DF9349
:104B6000CDB7DEB7C054D1090FB6F894DEBF0FBE83
:104B7000CDBF8C01E8EFF1E0659174918FE593E191
:104B80000E94914998014FE553E16BEF72E182E099
:104B900090E00E947A226C01009709F48EC062E4D2
:104BA00074E08091FF12909100130E94D449892BE8
:104BB00009F485C08091031390910413009709F4C0
:104BC00053C02091051330910613232B09F44CC0D8
:104BD0000E9463494C0107E013E14DE7642E4FE06A
:104BE000742E55E1E52E52E0F52E1401442437FCD5
:104BF0004094542CCE0101965C01D8018D919C917A
:104C00001197892B31F012968D919C911397892BD6
:104C100071F50C5F1F4F94E0690E711CAFEFEA1A3B
:104C2000FA0AB3E10B311B0741F78BEF91E10E94C8
:104C300079238C2DC05CDF4F0FB6F894DEBF0FBE1A
:104C4000CDBFDF91CF911F910F91FF90EF90DF903B
:104C5000CF90BF90AF909F908F907F906F905F901C
:104C60004F903F902F900895812C912CB4CFF30159
:104C700020823182428253820E942E239F938F93FF
:104C80009F928F92D7012C91822F992787FD909523
:104C90009F932F93A9E8B4E0BF93AF93BF92AF92D5
:104CA0000E946F4AB5018BEF91E10E94B7490FB6A0
:104CB000F894DEBF0FBECDBFACCF80E0BBCF0DE719
:104CC0001FE025E1822E22E0922EFE0131967F0127
:104CD00039E8A32E34E0B32ED8017C9011966C9065
:104CE0000C5F1F4F0E942E23F40121914F019F93CF
:104CF0008F936F927F92822F992787FD90959F9334
:104D00002F93BF92AF92FF92EF920E946F4AB7012A
:104D10008BEF91E10E94B7490FB6F894DEBF0FBE4A
:104D2000CDBF9FE00D381907B9F67FCF0F931F93C2
:104D3000CF93DF93EC01EAEFF1E0659174918FE599
:104D400093E10E9491499E014FE553E16BEF72E1BF
:104D500088E090E00E947A228C010097C9F1C0910E
:104D60000713D09108132097C9F16FE974E0CE01C1
:104D70000E94D449892B91F110922F0C1092300C83
:104D80001092310C1092320C1092470C1092480C79
:104D90001092490C10924A0C10925F0C1092600C09
:104DA0001092610C1092620C1092770C1092780C99
:104DB0001092790C10927A0C10928F0C1092900C29
:104DC0001092910C1092920C83EA94E00E94792345
:104DD000802FDF91CF911F910F910895E9E0F3E1CA
:104DE000AFE2BCE003C0C281D3813496CD2B49F041
:104DF00080819181892B29F01D921D921D921C9218
:104E00001397589683E1E931F80769F7DDCF4F92A0
:104E10005F926F927F928F929F92AF92BF92CF924A
:104E2000DF92EF92FF920F931F93CF93DF93EC01EA
:104E3000ECEFF1E0659174918FE593E10E94914967
:104E40009E014FE553E16BEF72E182E090E00E943A
:104E50007A222C01009799F1C091FF12D091001392
:104E600063EB74E0CE010E94D4493C016AEB74E02C
:104E7000CE010E94D4498C0165EC74E0CE010E9401
:104E8000D4496C0167E673E0CE010E94D4497C01ED
:104E90006EEC74E0CE010E94D4494C0164ED74E0E4
:104EA000CE010E94D4495C0160EE74E0CE010E9404
:104EB000D4496728B1F00E94D34181E001C0842D1C
:104EC000DF91CF911F910F91FF90EF90DF90CF90E6
:104ED000BF90AF909F908F907F906F905F904F901A
:104EE0000895012B21F00E94814481E0E9CFEF2851
:104EF00021F00E945B4281E0E3CFCD2821F00E94A7
:104F0000314381E0DDCFAB2821F00E94B44281E043
:104F1000D7CF892821F00E94BB4381E0D1CF892BD4
:104F200071F20E94454481E0CBCF0F931F93CF9342
:104F3000DF93EC01EEEFF1E0659174918FE593E181
:104F40000E9491499E014FE553E16BEF72E186E0CB
:104F500090E00E947A228C01009799F0CFEFD2E185
:104F6000E881F981309721F02A813B81232B79F464
:104F7000249683E1C331D80799F78FEE94E00E941D
:104F80007923802FDF91CF911F910F91089540E0F9
:104F900050E060E07FE380810E94A910E9CFBF92DA
:104FA000CF92DF92EF92FF920F931F93CF93DF93F5
:104FB00000D01F92CDB7DEB78C01E0E0F2E0659142
:104FC00074918FE593E10E94914998014FE553E177
:104FD0006BEF72E186E090E00E947A227C010097FC
:104FE00009F457C08BE0E3E0F5E0ABEFB1E10190ED
:104FF0000D928A95E1F7C090FF12D09000136FE9EF
:1050000074E0C6010E94D449BB24B394892B09F4EF
:1050100074C041E65CE66CE670E049835A836B83BA
:105020007C83BE016F5F7F4F85E092E10E94CD4996
:105030000FEF12E1BB2009F1D801ED91FC9111971E
:10504000309731F012968D919C911397892B11F422
:10505000BB2039F040E050E060E07FE380810E94B7
:10506000A9100C5F1F4FB3E103311B0709F43FC0C8
:10507000F801C080D180B110DFCFD6018C91898337
:105080001A82BE016F5F7F4F8BEF91E10E94B7499B
:10509000D3CFE2E0F2E0659174918FE593E10E9455
:1050A000914998014FE553E16BEF72E186E090E0A2
:1050B0000E947A227C01009779F480E00F900F9093
:1050C0000F900F90DF91CF911F910F91FF90EF9074
:1050D000DF90CF90BF9008950E94631080E1EEE0D2
:1050E000F5E0ABEFB1E101900D928A95E1F78BEF1E
:1050F00091E10E9479238E2DE1CFB12C99CF4F926F
:105100005F926F927F92AF92BF92CF92DF92EF92B7
:10511000FF920F931F93CF93DF93CDB7DEB72A97FC
:105120000FB6F894DEBF0FBECDBF7C01E4E0F2E025
:10513000659174918FE593E10E94914997014FE544
:1051400053E16BEF72E187E090E00E947A226C01FC
:105150000097B1F48C2D2A960FB6F894DEBF0FBEDF
:10516000CDBFDF91CF911F910F91FF90EF90DF9016
:10517000CF90BF90AF907F906F905F904F900895C9
:105180008DE0EEE1F5E0ABEFB1E101900D928A9593
:10519000E1F763E0E62E63E1F62E70E2A72EB12C74
:1051A000D701ED91FC9111973097D9F112968D911D
:1051B0009C911397892BA9F18181803209F43FC01A
:1051C000CF0101960E945F492B013C01D701ED916F
:1051D000FC91AB01BC0180810E94A910D701ED9127
:1051E000FC91808189831A82BE016F5F7F4F8BEFB4
:1051F00091E10E94B7498E010F5F1F4F24E042E00A
:10520000C301B2010E943949B8018BEF91E10E94BC
:10521000B749EBEFF1E101900020E9F73197B18256
:10522000A082B4E0EB0EF11C87E1E81683E1F806FA
:1052300009F0B6CF8BEF91E10E9479238BCFCF019C
:105240000296C0CF2F923F924F925F926F927F92C1
:105250008F929F92AF92BF92CF92DF92EF92FF9286
:105260000F931F93CF93DF93CDB7DEB7EE970FB6B3
:10527000F894DEBF0FBECDBF7C01E6E0F2E06591A1
:1052800074918FE593E10E94914997014FE553E1B5
:105290006BEF72E186E090E00E947A225C01009759
:1052A00009F476C0EFEFEE2EE2E1FE2E6E0183E30D
:1052B000C80ED11CDE011196BEAFADAF09C0B4E07F
:1052C000EB0EF11CE7E1EE16E3E1FE0609F45CC02B
:1052D000F70180819181009791F322813381232B03
:1052E00071F301960E945F492B013C01D701ED91BA
:1052F000FC911081AB01BC01812F0E94A223962E4C
:10530000872E382E292E462F572F682F792F812F41
:105310000E94C80F860123E041E0C301B2010E9450
:1053200039490E942E232F923F928F929F929F93F2
:105330008F93DF92CF92D701ED91FC912081822F44
:10534000992787FD90959F932F93ABE2B5E0BF938C
:10535000AF93FEADFF938DAD8F930E946F4ABE0158
:105360006F5F7F4F8BEF91E10E94B7490FB6F894C2
:10537000DEBF0FBECDBFB4E0EB0EF11CE7E1EE16D1
:10538000E3E1FE0609F0A4CF8BEF91E10E947923BF
:105390008A2DEE960FB6F894DEBF0FBECDBFDF911B
:1053A000CF911F910F91FF90EF90DF90CF90BF9022
:1053B000AF909F908F907F906F905F904F903F90B5
:1053C0002F9008950F931F93CF93DF93EC01E8E0A4
:1053D000F2E0659174918FE593E10E9491499E01FD
:1053E0004FE553E16BEF72E186E090E00E947A2294
:1053F0008C01009729F1CFEFD2E105C0249683E11B
:10540000C731D807C9F02881398121153105B1F399
:105410008A819B81892B91F3C90101960E945F4982
:10542000AB01BC01E881F98180810E940C112496B6
:1054300083E1C731D80739F787E595E00E947923E2
:10544000802FDF91CF911F910F910895DF92EF92FE
:10545000FF920F931F93CF93DF93EC01EAE0F2E00A
:10546000659174918FE593E10E9491499E014FE50A
:1054700053E16BEF72E187E090E00E947A227C01B9
:10548000009709F448C065E675E08091FF1290919D
:1054900000130E94D449DD24D394892B09F449C018
:1054A00000910313109104136FE974E0C8010E9486
:1054B000D449892B51F0D092720FD092730FD092B1
:1054C000740FD092750FD092760FC5E0D3E101151D
:1054D000110521F028813981232B71F4F3E1C531C5
:1054E000DF0799F00A811B81249601151105B1F39C
:1054F00028813981232B91F36D2DF80180810E9441
:105500005C1DF3E1C531DF0769F7D1100DC08BE7F2
:1055100095E00E9479238E2DDF91CF911F910F91FD
:10552000FF90EF90DF9008958CE695E00E9479233C
:10553000F2CFD12CB5CFEF92FF920F931F93CF9361
:10554000DF93EC01ECE0F2E0659174918FE593E17B
:105550000E9491499E014FE553E16BEF72E182E0B9
:1055600090E00E947A22EC01009709F466C0009155
:10557000FF12109100136BE875E0C8010E94D44936
:105580007C0169E975E0C8010E94D449EF2859F10E
:105590008091D50F8F938091D40F8F938091D30FEB
:1055A0008F938091D20F8F9381EA95E09F938F9391
:1055B0008BEF91E19F938F930E946F4A8BEF91E164
:1055C0000E9479238C2F2DB73EB7285F3F4F0FB62F
:1055D000F8943EBF0FBE2DBFDF91CF911F910F9169
:1055E000FF90EF900895892B21F18091DB0F8F932D
:1055F0008091DA0F8F938091D90F8F938091D80F7C
:105600008F938091D70F8F938091D60F8F938EEACF
:1056100095E09F938F938BEF91E19F938F930E94DF
:105620006F4A8DB79EB70A960FB6F8949EBF0FBE0D
:105630008DBF8BEF91E10E9479238C2FDF91CF9169
:105640001F910F91FF90EF9008956F927F928F922C
:105650009F92AF92BF92CF92DF92EF92FF920F9301
:105660001F93CF93DF93CDB7DEB72A970FB6F89489
:10567000DEBF0FBECDBF7C0186E1EFEBF5E0AFE50D
:10568000B3E101900D928A95E1F797014FE553E15F
:105690006BEF72E182E090E00E947A22892B09F0A0
:1056A00063C083E1EAEEF5E0AFE5B3E101900D926E
:1056B0008A95E1F797014FE553E16BEF72E182E0E4
:1056C00090E00E947A22892B51F589E1ECE1F6E025
:1056D000AFE5B3E101900D928A95E1F797014FE5AF
:1056E00053E16BEF72E182E090E00E947A22892B15
:1056F00009F09FC0EAE1F2E0659174918FE593E1D2
:105700000E94914997014FE553E16BEF72E187E009
:1057100090E00E947A22892B69F580E010C00E94F7
:10572000CA218FE1EDEFF5E0ABEFB1E101900D9211
:105730008A95E1F78BEF91E10E94792381E02A9627
:105740000FB6F894DEBF0FBECDBFDF91CF911F9192
:105750000F91FF90EF90DF90CF90BF90AF909F9010
:105760008F907F906F9008950E94B92185E1E5EDBB
:10577000F5E0DACF81E1E6E5F6E0ABEFB1E10190EB
:105780000D928A95E1F7F3E0AF2EF3E1BF2EA1E988
:105790008A2EAFE09A2EB0E26B2E712CD501ED91DE
:1057A000FC9111973097C1F112968D919C911397AE
:1057B000892B91F18181803209F44BC0CF01019690
:1057C0000E945F496B017C01F401608371838283D5
:1057D0009383D501ED91FC91808189831A82BE016A
:1057E0006F5F7F4F8BEF91E10E94B7498E010F5F92
:1057F0001F4F23E041E0C701B6010E943949B801BB
:105800008BEF91E10E94B749EBEFF1E101900020AD
:10581000E9F7319771826082B4E0AB0EB11CE4E02D
:105820008E0E911CF7E1AF16F3E1BF0609F0B6CF7B
:1058300081CF0E9400216091770F7091780F809145
:10584000790F90917A0F0E945E1A81E2E5E3F6E00B
:105850006BCFCF010296B4CF8F929F92AF92BF923F
:10586000CF92DF92EF92FF920F931F93CF93DF932C
:10587000CDB7DEB72A970FB6F894DEBF0FBECDBF07
:105880008C01EEE0F2E0659174918FE593E10E9466
:10589000914998014FE553E16BEF72E182E090E0AE
:1058A0000E947A227C01009709F45CC08091FF126B
:1058B000909100130E945F494B015C010E945E1AA7
:1058C0000AE91BE085E1C82E82E0D82EF80140816C
:1058D000518162817381F60181916F010E94A9104B
:1058E000055F1F4FFBE0013D1F0781F78092770F97
:1058F0009092780FA092790FB0927A0FCE01019614
:105900006C018C0121E043E0C501B4010E943949DA
:10591000DF92CF9287E696E09F938F938BEF91E192
:105920009F938F930E946F4A8BEF91E10E9479239E
:105930008E2D0F900F900F900F900F900F902A9632
:105940000FB6F894DEBF0FBECDBFDF91CF911F9190
:105950000F91FF90EF90DF90CF90BF90AF909F900E
:105960008F90089588E0EBE7F6E0AFE5B3E10190B2
:105970000D928A95E1F798014FE553E16BEF72E1E3
:1059800081E090E00E947A227C01009711F48E2D34
:10599000D6CF81E09091FA11911180E08093FA11B5
:1059A0001F928F9383E896E09F938F938BEF91E103
:1059B0009F938F930E946F4A8BEF91E10E9479230E
:1059C0000F900F900F900F900F900F908E2DB7CFDC
:1059D0004F925F926F927F928F929F92AF92BF92FF
:1059E000CF92DF92EF92FF920F931F93CF93DF93AB
:1059F000CDB7DEB7CC54D1090FB6F894DEBF0FBED9
:105A0000CDBF8C01E0E1F2E0659174918FE593E107
:105A10000E94914998014FE553E16BEF72E182E0FA
:105A200090E00E947A225C01009709F0A8C0E2E1B0
:105A3000F2E0659174918FE593E10E94914998019C
:105A40004FE553E16BEF72E183E090E00E947A2230
:105A50005C01009709F4C0C069EA76E08091FF120A
:105A6000909100130E94D4498C018091031390916E
:105A70000413009709F43DC10E945F496B017C014A
:105A8000012B09F43BC1C701B6010E94F632CE01D9
:105A900001964C018C0121E043E0C701B6010E9450
:105AA0003949B701A60186E70E94A223182F092FC2
:105AB0002C966FAF2C972D967FAF2D970E942E239B
:105AC0000F931F932D967FAD2D977F932C966FADDF
:105AD0002C976F939F938F939F928F9281EB96E079
