:100000000C9446000C9463000C9463000C94630001
:100010000C9463000C9463000C9463000C946300D4
:100020000C9463000C9463000C9463000C946300C4
:100030000C9463000C9463000C9463000C94C61A37
:100040000C9463000C9463000C9485100C94630072
:100050000C9463000C9463000C949D0C0C9463004E
:100060000C9463000C9463000C9463000C944D0D8D
:100070000C9463000C9463000C94630044726976E2
:100080006573204443206D6F746F720011241FBE8E
:10009000CFEFD4E0DEBFCDBF11E0A0E0B1E0E2E8F9
:1000A000FFE302C005900D92A631B107D9F722E017
:1000B000A6E1B1E001C01D92AC33B207E1F70E94A6
:1000C000981C0C94BF1F0C9400000F931F93CF93A8
:1000D000DF93EC018B016091C30181E191E00E940B
:1000E000A813688379838A839B83F999FECF12BD15
:1000F00001BDF89A80B58D83C8010196F999FECFAC
:1001000092BD81BDF89A80B58E83C8010296F99997
:10011000FECF92BD81BDF89A80B58F83C80103964A
:10012000F999FECF92BD81BDF89A80B58887C80144
:100130000496F999FECF92BD81BDF89A80B5898762
:10014000C8010596F999FECF92BD81BDF89A80B598
:100150008A87C8010696F999FECF92BD81BDF89AAB
:1001600080B58B87095F1F4FF999FECF12BD01BD86
:10017000F89A80B58C878C81817E80618E7F8C839C
:10018000DF91CF911F910F91089561E070E08BEAAC
:1001900091E00E9465006BEA71E080E00C945611DA
:1001A00069E070E08CE991E00E9465006CE971E023
:1001B00082E00C94561161E170E08BEA91E00E94BC
:1001C00065006BEA71E084E00C94561184B780936B
:1001D0001801F8940E94791A0E94151760E472E4DD
:1001E0008FE090E00E943E1A0E94740783E00E9414
:1001F000B3110E94881B0E9499128EE493E00E9422
:100200008A0E86E296E00E94D81378940E94851A9E
:100210000E94E9080C94AA07CF93DF9300D000D086
:10022000CDB7DEB7DC01FE013196CE0105962D91EA
:100230002193E817F907D9F769817A818B819C812D
:100240000F900F900F900F90DF91CF910895FC01C8
:10025000808190E0982F8827AA2797FDA095BA2F34
:100260002181822B0895FC01818190E0982F8827BD
:10027000AA2797FDA095BA2F2081822B0895FC0113
:1002800020816181862F90E0A0E0B0E0772766278B
:10029000922B2381622B2281722B08950F931F933F
:1002A000FC0122816381862F90E0A0E0B0E0982FCE
:1002B000882777276627822B2081622B018110E017
:1002C000102F0027222717FD2095322F602B712B2E
:1002D000822B932B1F910F9108950F931F93FC0175
:1002E000608570E0762F66278781682B882777FDE9
:1002F0008095982F0E94481E20E03EE241E856E497
:100300000E94AD1D2AE020932C018B019C013F77B8
:1003100000933701109338012093390130933A014B
:1003200011E020E030E0A9010E94381F18162CF4DB
:10033000109336011F910F91089510E0109336012C
:100340001F910F910895FC018581813039F1823030
:1003500009F008958681478150E060E070E0BA01BD
:1003600055274427782B8185482B8085582B40932F
:100370002001509321016093220170932301428553
:1003800050E0542F4427662757FD6095762F8385CC
:10039000482B50932501409324010895868147817D
:1003A00050E060E070E0BA0155274427782B818542
:1003B000482B8085582B409326015093270160934A
:1003C000280170932901428550E0542F4427662765
:1003D00057FD6095762F8385482B50932B014093D2
:1003E0002A010895CF93DF93EC012D816E81862F32
:1003F00090E0A0E0B0E077276627922B2885622B5B
:100400002F81722B20917101309172013093330151
:10041000209332010E94440A909335018093340165
:1004200010923F01898590E0982F88272A85820FB6
:10043000911D64E670E00E94CD1C882777FD8095B1
:10044000982F0E94481E6093370170933801809363
:10045000390190933A01DF91CF910C945A09CF92D0
:10046000DF92EF92FF92FC01458150E0542F442728
:10047000662757FD6095762F8681482B10923F01A5
:10048000BA01882777FD8095982F0E94481E20E0AA
:1004900030E44CE156E40E94AD1D6B017C01609399
:1004A0003701709338018093390190933A0120E02D
:1004B00030E0A9010E94381F181644F481E08093AF
:1004C0003601FF90EF90DF90CF90089510923601A3
:1004D000F7FAF094F7F8F094C0923701D09238010F
:1004E000E0923901F0923A01FF90EF90DF90CF90C7
:1004F0000895CF93DF93EC014D8150E0542F4427B2
:10050000662757FD6095762F8E81482BBA01882784
:1005100077FD8095982F0E94481E20E030E44CE142
:1005200056E40E94AD1DAB01BC017F7740933701BB
:10053000509338016093390170933A018F81882379
:1005400029F080933F01DF91CF91089583E6809356
:100550003F01DF91CF910895CF93DF93EC014D815F
:1005600050E0542F4427662757FD6095762F8E81E3
:10057000482BBA01882777FD8095982F0E94481E46
:1005800020E030E44CE156E40E94AD1D6093370159
:10059000709338018093390190933A014F8150E074
:1005A000542F4427662757FD6095762F8885482B62
:1005B000BA01882777FD8095982F0E94481E20E079
:1005C00030E44CE156E40E94AD1D60933B01709312
:1005D0003C0180933D0190933E01DF91CF910895BE
:1005E0000895CF92DF92EF92FF920F931F93CF93D4
:1005F000DF93EC01162F4091C30165E470E080E0C9
:100600000E94AE13688379838A839B83113091F1B2
:100610001230E9F02FEF3FEF4FEFEFEF0FEFFFEF6B
:10062000912F9F709D83FE830F83E88749873A87C8
:100630002B878C81817E8E608E7F8C83DF91CF9122
:100640001F910F91FF90EF90DF90CF900895409110
:100650002001509121016091220170912301CB0171
:10066000AA27BB27F92F082FE52F309125012091CC
:100670002401D6CFC0902601D0902701E090280118
:10068000F0902901C701AA27BB27F92F082FED2DCC
:100690004C2D30912B0120912A01C2CFCF92DF92B5
:1006A000EF92FF92CF93DF93EC016091C30180E45E
:1006B00090E00E94A8139B01AC01688179818A8136
:1006C0009B810E94BC13882321F18D8184FD0DC084
:1006D000CE010E94A30180E18093C801DF91CF91F8
:1006E000FF90EF90DF90CF90089561E08BEA91E06A
:1006F0000E94F10262E08CE991E00E94F10283E045
:100700008093C801DF91CF91FF90EF90DF90CF9061
:1007100008956091C30181E490E00E94A8139B01B9
:10072000AC01688179818A819B810E94BC1381110F
:100730004AC06091C30182E490E00E94A8139B012B
:10074000AC01688179818A819B810E94BC138823D6
:1007500009F446C06D8170E0762F6627CB01AA2789
:1007600097FDA095BA2F2E81822B10923F01BC01DC
:10077000882777FD8095982F0E94481E20E030E45E
:100780004CE156E40E94AD1D6B017C016093370182
:10079000709338018093390190933A0120E030E062
:1007A000A9010E94381F18160CF0A6C081E08093A2
:1007B00036018AE080932C01DF91CF91FF90EF907A
:1007C000DF90CF900895CE010E94F2018AE08093DD
:1007D0002C01DF91CF91FF90EF90DF90CF900895A3
:1007E0006091C3018BE490E00E94A8139B01AC01CF
:1007F000688179818A819B810E94BC13882351F191
:100800006D8170E0762F6627CB01AA2797FDA09512
:10081000BA2F2E81822BBC01882777FD8095982FD7
:100820000E94481E20E030E44CE156E40E94AD1DD9
:10083000DC01CB01BF778093370190933801A093FF
:100840003901B0933A018F81811165C083E68093AD
:100850003F01AFCF6091C30184E490E00E94A813F0
:100860009B01AC01688179818A819B810E94BC13C4
:10087000882309F453C06D8170E0762F6627CB0181
:10088000AA2797FDA095BA2F2E81822BBC0188271D
:1008900077FD8095982F0E94481E20E030E44CE1BF
:1008A00056E40E94AD1D6093370170933801809328
:1008B000390190933A016F8170E0762F6627CB0162
:1008C000AA2797FDA095BA2F2885822BBC018827DF
:1008D00077FD8095982F0E94481E20E030E44CE17F
:1008E00056E40E94AD1D60933B0170933C018093E0
:1008F0003D0190933E015DCF10923601F7FAF094DE
:10090000F7F8F094C0923701D0923801E0923901A3
:10091000F0923A014ECF80933F014BCF6091C301DB
:1009200083E490E00E94A8139B01AC016881798167
:100930008A819B810E94BC138111D0CE80913B02A1
:1009400084FFCCCE60E081E790E00E94A8139B0179
:10095000AC01688179818A819B810E94C9138823B7
:1009600009F4BCCE688570E0762F66278F81682BEE
:10097000882777FD8095982F0E94481E20E03EE250
:1009800041E856E40E94AD1D2AE020932C016B0142
:100990007C01E894F7F8C0923701D0923801E092D8
:1009A0003901F0923A01C1E020E030E0A9010E9453
:1009B000381F18161CF4C093360190CEC0E0FBCF50
:1009C000CF93DF93EC016091C30186E490E00E9435
:1009D000A813688379838A839B830E9405086D83AB
:1009E0007E838F839887E2E5F1E08081918199870A
:1009F0008A878C81817E8C608E7F8C83DF91CF9102
:100A000008958F929F92AF92BF92CF92DF92EF9212
:100A1000FF92CF93DF93EC014091C30167E470E054
:100A200080E00E94AE13688379838A839B838091E0
:100A30003B0280FF52C020915F01309160018091A4
:100A40005D0190915E013D832E839F83888720E026
:100A500030E040E251E460917B0170917C01809133
:100A60007D0190917E010E943C1F4B015C0120E0C2
:100A700030E040E251E4609177017091780180911B
:100A8000790190917A010E943C1F6B017C019B01CE
:100A9000AC01C501B4010E94381F18163CF1C70112
:100AA000B6010E941A1E79876A87C701B6010E94A3
:100AB0009F1F0E94151E7B876C878C81817E8061C1
:100AC0008E7F8C83DF91CF91FF90EF90DF90CF905E
:100AD000BF90AF909F908F900895209171013091B9
:100AE00072018091520190915301ADCFC501B401C3
:100AF0000E941A1ED8CF0F931F93CF93DF9300D07D
:100B000000D0CDB7DEB78C0149835A836B837C83D9
:100B10004091C30168E470E080E00E94AE13F801E8
:100B2000608371838283938380913B0280FD2BC01D
:100B300050910001F8015583852F90E0009779F0DE
:100B4000FE01319620E030E02F5F3F4F4191D80108
:100B5000A20FB31F15964C9328173907ACF35F709B
:100B6000550FF8018481817E852B8483F80184816F
:100B70008E7F84830F900F900F900F90DF91CF9115
:100B80001F910F91089582E0858380915D0190917E
:100B90005E01968387838481817E84608483E6CF2F
:100BA000CF93DF93EC014091C30169E470E080E0F2
:100BB0000E94AE13688379838A839B8380913B0272
:100BC00080FD12C080914E0190914F019D838E83D4
:100BD000909100019F70990F8C81817E892B8E7F6F
:100BE0008C83DF91CF9108958091590190915A01A2
:100BF0009D838E83EDCFCF93DF93EC014091C301B2
:100C00006AE470E080E00E94AE13688379838A838F
:100C10009B8380912C018D838C81817E82608E7F6D
:100C20008C83DF91CF91089588E080933B021092EE
:100C30003A020E94AF0A8FEF97E0909304018093ED
:100C4000030190930201809301010895813009F01E
:100C5000089580913B0280FD04C00E94E10C0C9439
:100C60007F070E94D30C0C947F079C01E6E2F1E021
:100C7000AC014A5F5F4F6191F999FECF1FBA32BD57
:100C800021BD60BD0FB6F894FA9AF99A0FBE2F5F96
:100C90003F4F2417350779F7E0E2F1E04191F999E8
:100CA000FECF1FBA32BD21BD40BD0FB6F894FA9AEF
:100CB000F99A0FBE2F5F3F4F41E0E632F40771F71C
:100CC0000C960895CF93DF93EC019C01E6E2F1E0EE
:100CD000AC014A5F5F4FF999FECF32BD21BDF89A52
:100CE00080B581932F5F3F4F24173507A1F7E0E2CE
:100CF000F1E0F999FECF32BD21BDF89A80B581931C
:100D00002F5F3F4F81E0E632F80799F70E94D00A43
:100D1000CE010C96DF91CF9108952091030130917F
:100D200004013695279536952795F999FECF1FBA78
:100D300092BD81BD20BD0FB6F894FA9AF99A0FBE04
:100D4000209101013091020136952795369527951E
:100D5000AC014F5F5F4FF999FECF1FBA52BD41BD45
:100D600020BD0FB6F894FA9AF99A0FBE029608952C
:100D7000F999FECF92BD81BDF89A20B530E0220FDF
:100D8000331F220F331F30930401209303019C0172
:100D90002F5F3F4FF999FECF32BD21BDF89A20B5A4
:100DA00030E0220F331F220F331F309302012093B4
:100DB00001010296089520913B0220FF1FC020915F
:100DC0006001F999FECF1FBA92BD81BD20BD0FB65B
:100DD000F894FA9AF99A0FBE40915F019C012F5F37
:100DE0003F4F0296F999FECF1FBA32BD21BD40BDDB
:100DF0000FB6F894FA9AF99A0FBE089520917201ED
:100E0000F999FECF1FBA92BD81BD20BD0FB6F894EF
:100E1000FA9AF99A0FBE409171019C012F5F3F4FE2
:100E20000296F999FECFE0CF20913B0220FF1AC035
:100E3000F999FECF92BD81BDF89A20B510925F015D
:100E4000209360019C012F5F3F4F0296F999FECFDE
:100E500032BD21BDF89A20B530E030936001209377
:100E60005F010895F999FECF92BD81BDF89A20B532
:100E700010927101209372019C012F5F3F4F0296E7
:100E8000F999FECF32BD21BDF89A20B530E03093FC
:100E9000720120937101089580913A02807F80321F
:100EA00079F030F4882319F0803141F481E008951D
:100EB000803441F0803811F48AE008958FEF08956E
:100EC00082E0089585E008950E944C0791E0811129
:100ED00001C090E0892F08950E942A1C0E943506C7
:100EE0000E948D060C94DB060E94801C0E94620604
:100EF0000E94B8060C9414072E9A2D98089580919C
:100F00003B0282958695869583708130D9F090F06A
:100F1000823041F021E041E060E070E48CE995E44A
:100F20000C94F31821E041E060E070E08AE794E47B
:100F30000C94F31821E041E060E070E088EC92E46A
:100F40000C94F31821E041E060E070E086E993E45E
:100F50000C94F31884B1806684B987B18F7C87B90B
:100F60000E947F0788E080932C0180913B0280FDE6
:100F700006C084FF03C088E080932C0108950E947E
:100F8000D30C80913B02F5CF0E946407882361F067
:100F9000809105019091060101979093060180933D
:100FA0000501181619060CF408950E944C0790E0EC
:100FB000909306018093050180913A0280FD19C04B
:100FC00081FD0BC082FFF0CF8BEA91E00E94FB0510
:100FD0006BEA71E084E00C9422118CE991E00E94AC
:100FE000E0046CE971E082E00E94221180913A02F3
:100FF000E9CF8BEA91E00E9401056BEA71E080E0A5
:101000000E94221180913A02DBCF80913B0280FD49
:1010100005C00E94320A0E94481E08950E94390DA0
:101020000E94481E0895811104C087E080932C011E
:10103000089588E080932C01089560E070E080E8D6
:101040009FE30E94E41960E070E080E89FE30E9463
:10105000111A2D9A2E9A89E080932C0108958111FE
:1010600004C088E080932C0108950E941D0810920E
:101070002C0108950E941D0810922C010895CF9212
:10108000DF92EF92FF926B017C010E94E419C7018D
:10109000B6010E94111A2D982E988BE080932C0196
:1010A000FF90EF90DF90CF900895811103C02D9AAB
:1010B0002E9808950C947C07CF92DF92EF92FF92C6
:1010C0006B017C01411111C080E00E94550860E075
:1010D00070E080E89FE30E94E419C701B601FF9029
:1010E000EF90DF90CF900C94111A0E947C07C701FB
:1010F000B6010E94E41960E070E080E89FE3FF9091
:10110000EF90DF90CF900C94111A80912C018A30CF
:10111000C9F020913B0220FF10C080915F019091A7
:10112000600123FD0C942B0C0E94C60B811147C05B
:1011300088E080932C010C942B0C0E944A0920918A
:101140003B02EFCF80913B0281FD11C080913F01B6
:101150008336D1F1882311F1609137017091380104
:101160008091390190913A010E943F08D2CF2D9889
:101170002E986091370170913801809139019091DA
:101180003A010E94E41960913B0170913C01809109
:101190003D0190913E010E94111ABBCF8091360112
:1011A0000E94550860913701709138018091390192
:1011B00090913A01409136010E945C08AACF0E94AA
:1011C0001D0810922C01AECF0E941D0810922C0118
:1011D000A0CF81E08093310187B18F7C87B988B13E
:1011E0008F7C88B955985D980E941E0E0E94320E21
:1011F0008091200190912101A0912201B0912301C1
:101200004091260150912701609128017091290198
:10121000841B950BA60BB70B80931A0190931B01AF
:10122000A0931C01B0931D01809124019091250190
:1012300020912A0130912B01821B930B90931F0167
:1012400080931E010895A2E5B1E02D913C91119784
:10125000309351012093500180917101909172015E
:10126000EFE6F1E040815181BC01641B750BAB01DD
:101270006D937C93AEE4B1E06D917C911197709386
:101280004D0160934C01421B530B4D935C93918332
:1012900080830895809171019091720108958091E9
:1012A0003401909135012091710130917201821BBE
:1012B000930B089520913401309135018091710193
:1012C000909172018217930758F02817390720F47C
:1012D0008FEF8093360108951092360180E00895D3
:1012E00081E0809336010895E2E5F1E0808191810B
:1012F00090935101809350018091710190917201FE
:1013000020916F0130917001821B930B9183808338
:101310000895EEE4F1E08081918190934D018093F6
:101320004C018091520190915301209150013091D4
:101330005101821B930B918380830895CF92DF929A
:10134000EF92FF9260911E0170911F017695679553
:101350007695679580912A0190912B01680F791FEE
:1013600080E090E00E94461E6B017C01609171015B
:101370007091720180E090E00E94461EA7019601E4
:101380000E94311DA70196010E94AD1DFF90EF90B4
:10139000DF90CF9008958F929F92AF92BF92CF929D
:1013A000DF92EF92FF920F931F93CF93DF93EC01A5
:1013B00000912001109121012091220130912301FF
:1013C0006091260170912701809128019091290157
:1013D000061717072807390714F4C901B8010E9436
:1013E000481E6B017C0160911A0170911B01809174
:1013F0001C0190911D010E94481E4B015C0120912F
:1014000024013091250180912A0190912B01281708
:10141000390708F4C9019E01281B390BC9016091E5
:101420001E0170911F010E94B91C80E090E00E9493
:10143000461E9B01AC01C501B4010E943C1F9B01EB
:10144000AC01C701B6010E94321DDF91CF911F91FF
:101450000F91FF90EF90DF90CF90BF90AF909F9053
:101460008F90089580917101909172010E94CB0933
:101470000E94151E089520E030E048EC52E40E94DE
:101480003C1F0E94151E08958F929F92AF92BF92AB
:10149000CF92DF92EF92FF924B015C0160911E01AF
:1014A00070911F0180E090E00E94461E6B017C015C
:1014B00040912001509121016091220170912301FE
:1014C0008091260190912701A0912801B0912901D6
:1014D000481759076A077B0714F4DB01CA01A50105
:1014E0009401281B390B4A0B5B0BCA01B9012091EF
:1014F0001A0130911B0140911C0150911D010E9465
:10150000E11CCA01B9010E94481E9B01AC01C70140
:10151000B6010E943C1F6B017C01809124019091D7
:10152000250160912A0170912B018617970708F415
:10153000BC0180E090E00E94461E9B01AC01C70107
:10154000B6010E94321D0E941A1ECB01FF90EF903F
:10155000DF90CF90BF90AF909F908F90089589E1DA
:1015600090E090932B0180932A0186EE93E0909374
:1015700025018093240110922601109227011092D8
:1015800028011092290180E395E7A0E0B0E0809364
:10159000200190932101A0932201B093230108958B
:1015A0008091200190912101A0912201B09123010D
:1015B00040912601509127016091280170912901E5
:1015C000841B950BA60BB70B80931A0190931B01FC
:1015D000A0931C01B0931D018091240190912501DD
:1015E00020912A0130912B01821B930B90931F01B4
:1015F00080931E010895209124013091250180914E
:101600002A0190912B012817390708F4C901089580
:101610000F931F930091200110912101209122012D
:10162000309123016091260170912701809128015A
:1016300090912901061717072807390714F4C901E3
:10164000B8011F910F910895209124013091250137
:1016500080912A0190912B018217930708F4C90108
:1016600008950F931F930091200110912101209163
:101670002201309123016091260170912701809110
:10168000280190912901601771078207930714F4CC
:10169000C901B8011F910F910895E0912401F091C3
:1016A000250120912A0130912B01E217F30740F523
:1016B0008091260190912701A0912801B0912901E4
:1016C00040912001509121016091220170912301EC
:1016D00040932601509327016093280170932901BC
:1016E000F0932B01E0932A01809320019093210134
:1016F000A0932201B093230130932501209324016C
:1017000008950F931F934091200150912101609102
:101710002201709123018091260190912701A091CF
:101720002801B09129018C019D01481759076A07CA
:101730007B0714F48A019B01222733270817190716
:101740002A073B0701F120912A0130912B01409398
:10175000260150932701609328017093290140913D
:1017600024015091250150932B0140932A0180932D
:10177000200190932101A0932201B0932301309383
:101780002501209324011F910F910895CF93DF939A
:10179000EC0183E00E94791784E00E947917809120
:1017A00055018130A1F0823001F180912A019091A0
:1017B0002B01C817D90738F1809124019091250198
:1017C0008C179D0778F180E0DF91CF91089580918B
:1017D0002A0190912B0107968C179D07E8F410922F
:1017E000550180E0DF91CF9108958091240190917F
:1017F00025010797C817D90790F384E00E94731753
:1018000080915501E1CF83E00E94731781E08093BE
:101810005501DF91CF91089583E00E947317809165
:101820005501D2CF84E00E94731782E08093550166
:10183000DF91CF9108952091010130910201281785
:10184000390738F02617370710F482E0089580E052
:10185000089581E00895CF92DF92EF92FF921F9357
:10186000CF93DF9310913101111120C060913401A9
:1018700070913501C0917101D09172016C177D0793
:1018800039F180915401823029F18330E1F1809166
:101890003201909133018617970790F46C177D07FA
:1018A00030F482E08093540112E001C010E0812FF7
:1018B000DF91CF911F91FF90EF90DF90CF9008952F
:1018C000C617D707A0F783E08093540113E0EFCF4A
:1018D00011E0EDCF80E090E00E94461E6B017C019C
:1018E0002DEC3CEC4CEC5DE30E943C1F9B01AC01F9
:1018F000C701B6010E94311D0E941A1EC617D707E4
:10190000C8F012E0D4CF80E090E00E94461E6B0148
:101910007C012DEC3CEC4CEC5DE30E943C1F9B01F8
:10192000AC01C701B6010E94321D0E941A1E6C173D
:101930007D0760F610925401BACF1F920F920FB636
:101940000F9211242F933F938F939F9383B1282F4E
:101950002870382F30718091580181110DC02223D9
:1019600059F03323B1F080915F01909160010196AD
:101970009093600180935F01209358013093570149
:101980009F918F913F912F910F900FBE0F901F90BD
:10199000189580915F01909160010197909360018B
:1019A00080935F01E9CF84B1837E84B9EAE6F0E0F9
:1019B000808188618083E8E6F0E0808181608083B7
:1019C0000895EAE6F0E08081877E8083E8E6F0E033
:1019D00080818E7F80830895CF92DF92EF92FF9275
:1019E000CF93DF93C0915F01D09160018091650139
:1019F000909166019E01281B390BC90122E3289FA3
:101A0000B001299F700D112470935E0160935D01F8
:101A100080E090E00E94461E6B017C0120916101F4
:101A20003091620140916301509164010E94311D27
:101A300020E030E048E452E40E943C1F60935901EA
:101A400070935A0180935B0190935C01D09366017F
:101A5000C0936501C0926101D0926201E09263017E
:101A6000F0926401DF91CF91FF90EF90DF90CF90E3
:101A7000089560E070E0CB0108958091320290916A
:101A8000330264E170E00E94CD1C892B19F480912F
:101A90003B0280FF08950C94EC0C1F920F920FB63E
:101AA0000F921124CF92DF92EF92FF922F933F93E8
:101AB0004F935F936F937F938F939F93AF93BF9356
:101AC000CF93DF93EF93FF9380916D018B30B0F54F
:101AD0008F5F80936D0180917800C0917900D0E094
:101AE000DC2FCC27C80FD11D80916E01813009F405
:101AF00066C008F454C0823021F110926E0182E475
:101B000080937C0080917A00806480937A00FF91BA
:101B1000EF91DF91CF91BF91AF919F918F917F9185
:101B20006F915F914F913F912F91FF90EF90DF90D8
:101B3000CF900F900FBE0F901F90189510926D01CF
:101B4000CACFD0937401C09373012DEC3CEC4CE4EC
:101B50005FE36091770170917801809179019091B4
:101B60007A010E943C1F6B017C01BE0180E090E085
:101B70000E94461E2DEC3CEC4CE45EE30E943C1FB0
:101B80009B01AC01C701B6010E94321D6093770131
:101B9000709378018093790190937A01AECFD093BE
:101BA0007201C093710181E080936E0188E480939B
:101BB0007C0080917A00806480937A00A8CFD093D3
:101BC0007601C09375012DEC3CEC4CE45FE3609131
:101BD0007B0170917C0180917D0190917E010E943A
:101BE0003C1F6B017C01BE0180E090E00E94461E1C
:101BF0002DEC3CEC4CE45EE30E943C1F9B01AC01ED
:101C0000C701B6010E94321D60937B0170937C0175
:101C100080937D0190937E0182E080936E0189E440
:101C200080937C0080917A00806480937A006FCFEB
:101C3000EAE7F0E08081887F808308958BE98093D4
:101C40007A00EEE7F0E0808184608083EFE7F0E0E7
:101C500080818360808380EA80937B0082E480932C
:101C60007C00089582E480937C00EAE7F0E08081C4
:101C7000806480830895BC0180E090E00E94461E4D
:101C80002091690130916A0140916B0150916C0182
:101C90000E94311D209107013091080140910901F6
:101CA00050910A010E943C1F0895089588E4809392
:101CB0007C0080917A00806480937A0080917A0021
:101CC00086FDFCCF209178008091790090E0982FDC
:101CD0008827820F911D9093760180937501089556
:101CE00089E480937C0080917A00806480937A00FC
:101CF00080917A0086FDFCCF209178008091790058
:101D000090E0982F8827820F911D90937401809303
:101D100073010895909382018093810108959093B7
:101D2000800180937F010895CF93DF93EDEEF0E083
:101D300030818295807F8083C1EFD0E02881CB0104
:101D4000807E992796958795929582958F708927A1
:101D50009F708927287F282BA0EFB0E08C91660F19
:101D6000660F660F8770682B28836C93A5EFB0E031
:101D70008C9187608C93A4EFB0E08C91886F8C93EA
:101D80003083DF91CF910895EDEEF0E09081829560
:101D9000807F8083A5EFB0E08C91887F8C93A4EF47
:101DA000B0E08C9187708C9390830895252F362F07
:101DB000EDEEF0E050818295807F8083862F8295C2
:101DC00086958770440F440F440F482BC901807ECD
:101DD0009F7196958795929582958F7089279F70B0
:101DE0008927220F220F220F972F92959695977091
:101DF000292B770F770F770F4093F3008093F20032
:101E00002093F1007093F00050830895FF920F9398
:101E10001F93CF93DF93F82E8B0160E0CA010E94DD
:101E2000A813C72FD82F60E0C8010E94A813272F3E
:101E3000382FEDEEF0E07081F294A0EFFA22F082FC
:101E400043EF50E0DA016C918D2F82958695877073
:101E5000687F682BCE01807E9F71969587959295BD
:101E600082958F7089279F708927A1EFB0E09C91A0
:101E70001C2F110F110F110F9770192BEA01688396
:101E80008093F2001C93C7EFD0E04881832F8295A6
:101E900086958770487F482BC901807E9F719695F3
:101EA0008795929582958F7089279F708927A5EFD6
:101EB000B0E09C91220F220F220F9770292B4883AC
:101EC0008093F6002C937083DF91CF911F910F9137
:101ED000FF900895EDEEF0E090818295807F808301
:101EE000A7EFB0E08C91887F8C93A6EFB0E08C9147
:101EF0001C92A5EFB0E08C9187708C93908308952D
:101F0000EDEEF0E090818295807F80836093F70012
:101F10007093F6004093F5005093F4009083089579
:101F2000EDEEF0E090818295807F80836093F700F2
:101F30007093F6004093F5005093F4009083089559
:101F40001F93CF93DF93EDEEF0E01081382F3295A1
:101F5000307F3083CEEDD0E09881A1E0B0E001C0C9
:101F6000AA0F8A95EAF79A2B988380813083609331
:101F7000F7007093F6004093F5005093F4008083CF
:101F800020692093EF00A8EDB0E08C9182608C93E3
:101F90001083DF91CF911F910895EF92FF920F93DD
:101FA0001F93CF93DF9328E040E050E060E070E0C3
:101FB00081E00E94A00F6091C30170E081E00E9467
:101FC000940E28E040E050E060E070E083E00E9482
:101FD000A00FCDEED0E0988180E3888305EFE02E5E
:101FE000F12CF7018081887F808304EF10E0F801F5
:101FF000808187708083988343E25CEF63E27CEFAB
:1020000083E00E94060F28E040E050E060E070E0CE
:1020100085E00E94A00F988180E58883F701808188
:10202000887F8083F801808187708083988340E077
:102030005CEF60E07CEF85E0DF91CF911F910F9125
:10204000FF90EF900C94060FEDEEF0E090818295FA
:10205000807F80831092EF001092EE0090830895AD
:10206000FC018091F30090E02091F2007091F1006A
:102070006091F000AC015695479556954795569559
:102080004795408340E2249F90011124982F882790
:102090009295990F907E282B392B872F887F90E07F
:1020A000969587959695879596958795282B392BA4
:1020B000328321837295770F707E6695669566955B
:1020C000672B63830895CF93DF93EC010E94301058
:1020D0008091EF008F70282F220F9C81917E922B90
:1020E0009C83482F50E04115510561F0FE01359663
:1020F00020E030E09091FA0091932F5F3F4F24173A
:102100003507C4F3DF91CF9108951F920F920FB658
:102110000F9211242F933F934F935F936F937F936D
:102120008F939F93AF93BF93CF93EF93FF93C09100
:10213000ED008091EC0082958F708F3009F47DC0A6
:102140009091EC00907F9093ED009091EE009F7144
:10215000D1F19091EE0092FF05C02091EE002F7E0C
:102160002093EE00292F237029F02091EE00277F85
:102170002093EE0091FF05C02091EE002B7F20936D
:10218000EE0090FF05C09091EE009D7F9093EE00D1
:10219000853009F449C08D7F813009F445C0C09372
:1021A000ED00FF91EF91CF91BF91AF919F918F91F2
:1021B0007F916F915F914F913F912F910F900FBE43
:1021C0000F901F9018958091EE0085FD13C08091AF
:1021D000EE0086FFE4CFE0917F01F091800130971F
:1021E00009F0099581E080938B011092EF00109225
:1021F000EE00D5CF81E080938C018DE891E00E94C4
:1022000063108DE891E00E94161581110DC08DE8D4
:1022100091E00E94CA16E0918101F091820130970D
:1022200019F08DE891E0099588E98093EF0080919D
:10223000EE008F7D8093EE00B2CF8091DA00809324
:10224000DA00AFCFCF93DF93EB0190E1899F90014C
:102250001124F8942093ED001092EE0048815981EA
:102260006A817B810E94D60E8C8186958F7079F071
:10227000FE01359680E090E021912093FA000196CE
:102280002C8126952F7030E082179307ACF3809154
:10229000F0008B7F8093F0008C8186958F70806535
:1022A0008093EF007894DF91CF9108950E942211DE
:1022B0008091EE0086FFFCCF08958091F800209178
:1022C000F90090E0922B0895CF93DF93EC010E94E8
:1022D00030109091EF009F70292F220F8C81817E0A
:1022E000822B8C83492F50E04115510569F0FE0186
:1022F000359620E030E08091FA0081932F5F3F4FC8
:1023000024173507C4F38C81990F817E892B8C8328
:102310008091F8002091F90090E0922B9E878D87A4
:10232000DF91CF910895833061F038F08530A9F0C6
:10233000C0F0863031F486E205C0813081F0823011
:1023400051F08EE08093E20084E08093E30083E12B
:102350008093E400089586E0F5CF8EE1F3CF82E02C
:10236000F1CF82E1EFCF91E09093D8001092E50099
:1023700090E0292F2295207F2093ED001092EF000E
:102380001092EE009F5F9630A1F790EA9093DB00E9
:102390000E9493110E94CD0F8091D90082FFFCCF43
:1023A000089581110AC082E08093E20084E0809366
:1023B000E30083E18093E40008951092E2008CE052
:1023C0008093E30086E38093E400089581110AC0BE
:1023D00086E08093E20084E08093E30083E18093D1
:1023E000E400089582E08093E2008CE08093E300B3
:1023F00087E38093E400089581110AC08EE0809302
:10240000E20084E08093E30083E18093E400089598
:1024100086E08093E2008CE08093E30087E3809382
:10242000E400089581110AC082E18093E20084E013
:102430008093E30083E18093E400089588E0809333
:10244000E2008CE08093E30087E38093E40008954A
:1024500081110AC08EE18093E20084E08093E30062
:1024600083E18093E40008958EE08093E2008CE0A5
:102470008093E30087E38093E400089581110AC00C
:1024800086E28093E20084E08093E30083E180931E
:10249000E400089582E18093E2008CE08093E30001
:1024A00087E38093E400089583E980937A00EEE760
:1024B000F0E080818860808380E880937B000895CD
:1024C000569840E050E080E090E073E470937C0028
:1024D00060917A00606460937A0060917A0066FD92
:1024E000FCCF60917800262F217030E0042E02C0CE
:1024F000220F331F0A94E2F7822B932B609179000D
:102500004F5F5F4F4031510509F7569A089528E013
:1025100040E050E060E070E083E00E94A00F83E0C4
:102520000E94C40E43E25CEF63E27CEF83E00C9414
:10253000060F83E980937A0080917E008860809303
:102540007E0080E880937B000E9460129927909320
:10255000C0018093BF018093BE010E941E0E809136
:10256000C201882351F082E08093C20182E8809307
:10257000BB0181E08093C101089581E08093BB019C
:102580000E9487121092C3018091BB0180688093E2
:10259000BB0181E08093C1010895CF93DF93EC01EB
:1025A00083E29CEF0E94A813688379838A839B83CC
:1025B0008091C3018D838091C2018E838091BE0181
:1025C0008F838091BB0188878091BA018987809130
:1025D00037028A878C81817E8E608E7F8C83DF912B
:1025E000CF91089581E08093BA014091C2014130BA
:1025F00059F18091C101882339F182E08093BA01B9
:102600008091BF019091C0019C012150310930930C
:10261000C0012093BF01892BB9F481E090E0909331
:10262000C0018093BF01442391F0423009F45AC0A5
:10263000403239F1403809F447C0403431F08091DC
:10264000BA0180688093BA01089586E8FBCF83E0E1
:102650008093BA0180E28093C2016091BE018CE94F
:1026600091E00E94CD126CE971E080E00E9422119D
:102670008CE291E09093BD018093BC014091C20136
:10268000D4CF84E08093BA01F8942091ED001092A9
:10269000ED008091EE0086FF03C080E88093C201C8
:1026A0008091BC019091BD0101979093BD018093F1
:1026B000BC01892B19F484E08093C2012093ED00C2
:1026C00078944091C201B6CF85E08093BA0181E051
:1026D0008093C201F8940E942A1C78948091BA01D8
:1026E0008068B0CF87E08093BA0181E08093C20117
:1026F0006091C3018CE991E00E94CD126CE971E018
:1027000080E00E9422114091C20192CFCF93DF93CB
:10271000EC016091C30184E29CEF0E94A8136883DE
:1027200079838A839B838091C3018D838C81817E91
:1027300082608E7F8C83DF91CF910895FC0185812B
:102740009091C301891718F08F5F8093C30108959A
:10275000262F60E0782F892F922F0895382F262F6B
:10276000872F942F632F722F0895862F0895872F18
:102770000895892F90E00895E1E0621773078407B8
:10278000950709F0E0E08E2F089581E0621380E064
:102790000895932F272F382F692F742F81E0261744
:1027A000370709F080E0089581E0491380E008953B
:1027B0009093C6018093C5010895CF93DF93EC01F8
:1027C0006091C30181E19CEF0E94A8136883798323
:1027D0008A839B8384E08D838091C3018E83809163
:1027E000CB018F838091CA0188878C81817E88602C
:1027F0008E7F8C83DF91CF910895CF93DF93EC018F
:102800006091C30182E19CEF0E94A81368837983E1
:102810008A839B8384E08D8381E48E8381E08F8330
:102820009FE0988789871A868C81817E8C608E7F55
:102830008C83DF91CF910895CF93DF93EC0160916A
:10284000C30183E19CEF0E94A813688379838A8384
:102850009B8384E08D8386E58E8388E78F838CE974
:1028600088878EED89878C81817E8A608E7F8C83BC
:10287000DF91CF910895CF93DF93EC016091C30175
:1028800084E19CEF0E94A813688379838A839B83E9
:10289000E091C901ED83F0E0E458FF4FDE011696A8
:1028A00080E094919D938F5F31968830D1F78C8131
:1028B000817E82618E7F8C83DF91CF91089580919C
:1028C000C401813009F1B8F0823019F0833051F041
:1028D00008958CE991E00E941C146CE971E082E09B
:1028E0000C9422118CE991E00E943B146CE971E098
:1028F00082E00C9422118CE991E00E94DD136CE9D6
:1029000071E082E00C9422118CE991E00E94FD13A9
:102910006CE971E082E00C9422118091C80180FD85
:1029200059C081FD4CC082FD35C083FD26C084FDA9
:102930001AC085FF0DC080910C0190910D019C0182
:102940002150310930930D0120930C01892B09F09E
:102950000895F8940E945F148091C8018F7D809340
:10296000C80178940895F8940E946C078091C8017A
:102970008F7E8093C8017894DCCFF8940E942A1C43
:1029800084E00E9473178091C801877F8093C801FB
:102990007894CDCFF8940E94801C6091C3018CE99B
:1029A00091E00E94CD126CE971E080E00E9422115A
:1029B0008091C8018B7F8093C8017894B6CF6CE971
:1029C00071E082E00E9422118091C8018D7F809386
:1029D000C801A9CF6BEA71E080E00E9422118091CA
:1029E000C8018E7F8093C8019CCFCF93DF93EC0109
:1029F0006091C30187E29CEF0E94A81368837983EA
:102A00008A839B8380913B028D8380913A028E83DF
:102A1000809139028F838091380288878C81817EF2
:102A200088608E7F8C83DF91CF910895CF93DF9361
:102A3000EC016091C30185E190E00E94A8139B0125
:102A4000AC01688179818A819B810E94BC138823B3
:102A500039F0CE010E94BC1781E0DF91CF9108953B
:102A60006FEF85E190E00E94A8139B01AC016881A3
:102A700079818A819B810E94BC138111EACF60E039
:102A800080E19CEF0E94A8139B01AC0168817981D1
:102A90008A819B810E94C913882399F08091C80183
:102AA00080628093C8018D818093C4018091C301AD
:102AB00090E090930D0180930C0181E0DF91CF9124
:102AC00008956091C30182E29CEF0E94A8139B01CC
:102AD000AC01688179818A819B810E94BC13882323
:102AE000B9F08D8184FF2BC08BEA91E00E94F51430
:102AF00081E08093C801E091C501F091C601309753
:102B0000D1F08D818F70099581E0DF91CF9108958B
:102B10006091C30181E29CEF0E94A8139B01AC016C
:102B2000688179818A819B810E94BC13882371F01E
:102B300088E08093C80181E0DF91CF910895CE01B4
:102B40000E94461B88E08093C801D5CF6FEF81E2D9
:102B50009CEF0E94A8139B01AC01688179818A8156
:102B60009B810E94BC138111E3CF6091C30185E278
:102B70009CEF0E94A8139B01AC01688179818A8136
:102B80009B810E94BC13811129C06091C30186E220
:102B90009CEF0E94A8139B01AC01688179818A8116
:102BA0009B810E94BC13882379F18C818E718430C3
:102BB00011F68D8190E0982F88272E81822B843307
:102BC000924109F0B8CF85E58093BB011092C10115
:102BD0001092C2010E94991281E03FCF81E0809360
:102BE000C2018D818093C3018091C8018860809368
:102BF000C80181E00E94C40E6091C30170E081E0D1
:102C00000E94940E81E029CF6FEF86E29CEF0E9434
:102C1000A8139B01AC01688179818A819B810E9404
:102C2000BC138111C2CF60E083E29CEF0E94A81325
:102C30009B01AC01688179818A819B810E94C913C3
:102C4000882309F40ACF9D818091C301981373CF23
:102C50008091C201803239F081116DCFCE010E9486
:102C60009E1381E0FACE9091ED0080E38093ED0019
:102C70008091EF008F738093EF009093ED0010929E
:102C8000C201CE010E949E1381E0E7CECF92DF9277
:102C9000EF92FF921F93CF93DF936B017C01C0E013
:102CA000D0E01FE01C9FF0011D9FF00D1124E253A6
:102CB000FE4F2081318142815381C701B6010E94BC
:102CC000C91381110DC02196C630D10559F78FEF78
:102CD000DF91CF911F91FF90EF90DF90CF900895FB
:102CE0008C2FDF91CF911F91FF90EF90DF90CF90CD
:102CF00008952FE0FB01DC0101900D922A95E1F788
:102D000008952091CD013FE0329FD0011124A253BC
:102D1000BE4FFC0101900D923A95E1F72F5F2630EE
:102D200018F01092CD0108952093CD010895CF930E
:102D3000DF93EC01688179818A819B810E9446162C
:102D40008F3F71F09FE0989FD0011124A253BE4F96
:102D5000FE0101900D929A95E1F7DF91CF910895D0
:102D60008091CD019FE0989FD0011124A253BE4FC6
:102D7000FE0101900D929A95E1F78F5F863028F061
:102D80001092CD01DF91CF9108958093CD01DF9115
:102D9000CF9108952091380221FF0C9497160C943E
:102DA00081168091380281FF11C08091CC019091F1
:102DB000CD01891771F091E0980F9093CC012FE02D
:102DC000829FC001112482539E4F089580E090E0BD
:102DD00008951092CC011092CD0180E090E008950A
:102DE0002FE0829FC001112482539E4F089580914D
:102DF000380281FF14C08091CC019091CD018917D8
:102E000079F091E0980F9093CC012FE0829FC00160
:102E1000112482539E4F009711F00C944E03089595
:102E20001092CC011092CD01089510922A021092B6
:102E30002902569A579A5E985F980895833029F030
:102E4000843011F45F9A089508955E9A089583304E
:102E500029F0843011F45F98089508955E980895DC
:102E600090912A02662319F0992329F0089591116F
:102E7000FDCF0C9427170C941E17CF93DF93C091AE
:102E80002A02CD7FF1F4909110012FEF290F2093AA
:102E90001001911116C09AE090931001D0910F018A
:102EA0008823A1F08D2F0E941E178D2F8F5F8530F4
:102EB000A0F081E080930F01C1E08C2FDF91CF91D2
:102EC0000895C0E08C2FDF91CF9108958D2F0E943F
:102ED00027178D2F8F5F853060F780930F018C2F20
:102EE000DF91CF91089590912A02911108950C9449
:102EF0001E1790912A02911108950C942717909112
:102F00002A02911108950C943017662339F087FF37
:102F10000EC05F9A86FD07C05E98089583FF05C0C6
:102F20005F9A82FFF9CF5E9A08955F98FACF5F9813
:102F3000F1CF90911101992359F061E00E9485171A
:102F400081E090911101911180E080931101089529
:102F500060E00E948517F4CF90912A029111809130
:102F600029020C94851790912A02992319F0933025
:102F700009F008950C949917FC0125812F70209376
:102F80002A0286818F7080932902223071F02330CB
:102F900031F0213009F0089560E00C94851780919C
:102FA000C301809329020C9499170C943D178091CA
:102FB0002A028230C9F0833041F0813009F008954F
:102FC00060E0809129020C94851780910E019FEF9B
:102FD000980F90930E018111F2CF8AE080930E0139
:102FE0008091C3010C949917809129020E943D178A
:102FF000813029F790912902911103C08093290211
:10300000089580E0FBCF2FB7F894909389008093C8
:1030100088002FBF08952FB7F89490938B0080936A
:103020008A002FBF0895CF92DF92EF92FF926B013B
:103030007C012091140130E040E050E060E074E257
:1030400084EF90E00E94E11CCA01B9010E94481E71
:10305000A70196010E94AD1D0E941A1ECB01FF9090
:10306000EF90DF90CF900895909313018093120119
:1030700090938700809386000895AF92BF92CF927D
:10308000DF92EF92FF920F931F93CF93DF939B01F9
:10309000AC0160E074E284E79BE40E94AD1D5B013B
:1030A0006C0120E03FEF4FE757E40E94381F1816ED
:1030B0000CF050C020E030E040E05EE3B501C60116
:1030C0000E943C1F7B018C01C8E0D0E020E03FEF74
:1030D0004FE757E4B701C8010E94381F181664F47F
:1030E00020E030E040E85CE3B501C6010E943C1FEF
:1030F0007B018C01C0E4D0E020E03FEF4FE757E4D4
:10310000B701C8010E94381F181664F420E030E0AF
:1031100040E85BE3B501C6010E943C1F7B018C01C6
:10312000C0E0D1E020E03FEF4FE757E4B701C8012E
:103130000E94381F181614F4C0E0D4E0CE01DF91CD
:10314000CF911F910F91FF90EF90DF90CF90BF90A4
:10315000AF90089575018601C1E0D0E0B7CF80340B
:103160009105B9F038F48130910589F0089759F448
:1031700082E00895811521E0920739F0811594408D
:1031800011F485E008958FEF089584E0089581E0BB
:10319000089583E00895CF92DF92EF92FF926B0142
:1031A0007C012091140130E040E050E060E074E2E6
:1031B00084EF90E00E94E11CCA01B9010E94481E00
:1031C000A70196010E94AD1D0E941A1E7093130163
:1031D000609312017093870060938600FF90EF90D8
:1031E000DF90CF900895BF92CF92DF92EF92FF923F
:1031F0000F931F93CF93DF936B017C01D42FC22FCA
:103200004111529AC111399A80916400877E80934E
:1032100064008FB7F89410928900109288008FBFD5
:103220008FB7F89410928B0010928A008FBF209174
:10323000140130E040E050E060E074E284EF90E0A0
:103240000E94E11CCA01B9010E94481EA701960113
:103250000E94AD1D0E941A1E70931301609312010B
:103260007093870060938600D1117BC082E0C1110A
:10327000806280938000A701960160E074E284E799
:103280009BE40E94AD1DB62EC72ED82EF92E20E04D
:103290003FEF4FE757E40E94381F18160CF05AC052
:1032A00020E030E040E05EE36B2D7C2D8D2D9F2DE6
:1032B0000E943C1F8B01D82FC92F98E0E92E20E0F7
:1032C0003FEF4FE757E4B8018D2F9C2F0E94381F26
:1032D00018167CF420E030E040E85CE36B2D7C2D98
:1032E0008D2D9F2D0E943C1F8B01D82FC92F80E46C
:1032F000E82E20E03FEF4FE757E4B8018D2F9C2FD9
:103300000E94381F181674F420E030E040E85BE3B8
:103310006B2D7C2D8D2D9F2D0E943C1F8B01D82F56
:10332000C92FE12C20E03FEF4FE757E4B8018D2F84
:103330009C2F0E94381F1816B4F0E092140188E008
:10334000E81611F180E4E816E9F081E0E8120DC01A
:1033500089E10CC00B2D1C2DDD2DCF2DEE24E39427
:10336000AECF82E884CF109214018FEF809381005A
:10337000DF91CF911F910F91FF90EF90DF90CF9051
:10338000BF9008958BE1F2CF8AE1F0CF9091800059
:10339000811105C0892F806C809380000895892F4A
:1033A0008F7B8068809380000895909180008111C8
:1033B00005C0892F8063809380000895892F8F7EB8
:1033C0008062809380000895CF92DF92EF92FF9207
:1033D0006B017C0120E030E0A9010E94A91D87FF5C
:1033E00004C0F7FAF094F7F8F0946091120170912C
:1033F000130180E090E00E94461EA70196010E9402
:103400003C1F0E94961D0E941A1E2FB7F8947093BD
:103410008900609388002FBFFF90EF90DF90CF90DE
:103420000895CF92DF92EF92FF926B017C0120E032
:1034300030E0A9010E94A91D87FF04C0F7FAF094AB
:10344000F7F8F094609112017091130180E090E020
:103450000E94461EA70196010E943C1F0E94961DD5
:103460000E941A1E2FB7F89470938B0060938A0005
:103470002FBFFF90EF90DF90CF9008950F931F9391
:1034800010922B0210922C0210922D0210922E02FA
:1034900000912B0210912C0220912D0230912E02CE
:1034A00006171707280739070CF500912B02109112
:1034B0002C0220912D0230912E020F5F1F4F2F4FB3
:1034C0003F4F00932B0210932C0220932D02309338
:1034D0002E0200912B0210912C0220912D0230918E
:1034E0002E020617170728073907FCF21F910F91C4
:1034F00008958FEF84B917B81DB88EEF85B918B845
:103500001BB81EB810926400089582E084BD93E059
:1035100095BD9AEF97BD80936E0010923302109282
:103520003202089581E080932F02089510922F02B5
:1035300008952091320230913302C90165E070E0B4
:103540000E94CD1C892B39F4C9016AE070E00E9409
:10355000CD1C892B09F008950E94F212809132024D
:103560009091330264E170E00E94CD1C892B99F7A1
:103570000E948D14809132029091330262E370E0D8
:103580000E94CD1C892B39F70C94D7171F920F92EC
:103590000FB60F9211242F933F934F935F936F9326
:1035A0007F938F939F93AF93BF93EF93FF938091FC
:1035B00036028823C9F11092360280912F028823A7
:1035C000D1F1E0913402F09135029F01ADECBCECF9
:1035D0000E94001D96958795969587959695879557
:1035E000AC01440F551F880F991F880F991F880F32
:1035F000991F480F591FE417F50759F13196F093B9
:103600003502E0933402FF91EF91BF91AF919F910A
:103610008F917F916F915F914F913F912F910F907B
:103620000FBE0F901F90189581E080933602809115
:103630002F028111C6CF8091320290913302019600
:1036400090933302809332020E94991A0E943D0D9A
:10365000DACF1092350210923402809132029091AA
:103660003302019690933302809332020E943D0D03
:10367000CACF82E084BD93E095BD9AEF97BD809359
:103680006E0010923302109232020895FC0196816E
:10369000278185818230D9F0833071F0813009F043
:1036A0000895892F8095822B922320913B02922BA3
:1036B000892380933B020895892F8095822B922342
:1036C00020913902922B8923809339020895892F02
:1036D0008095822B922320913A02922B892380930A
:1036E0003A02089510923B0210923A021092390267
:1036F00082E4809338021092C10180913702816088
:10370000809337021092C20188E98093C301089523
:103710008091370280FD089510923B0210923A0288
:103720001092390292E4909338021092C1018160A4
:10373000809337021092C20188E98093C3010C94F0
:1037400014062091C301F999FECF1FBA92BD81BD25
:1037500020BD0FB6F894FA9AF99A0FBE0196089513
:10376000F999FECF92BD81BDF89A20B52093C3018F
:10377000019608952091C201F999FECF1FBA92BD1A
:1037800081BD20BD0FB6F894FA9AF99A0FBE019642
:103790000895F999FECF92BD81BDF89A20B5209386
:1037A000C2010196089520913B022095F999FECF20
:1037B0001FBA92BD81BD20BD0FB6F894FA9AF99A4E
:1037C0000FBE40913A0240959C012F5F3F4FF999FF
:1037D000FECF1FBA32BD21BD40BD0FB6F894FA9A94
:1037E000F99A0FBE4091390240959C012E5F3F4FE0
:1037F000F999FECF1FBA32BD21BD40BD0FB6F89476
:10380000FA9AF99A0FBE4091380240959C012D5FBB
:103810003F4FF999FECF1FBA32BD21BD40BD0FB653
:10382000F894FA9AF99A0FBE4091370240959C019C
:103830002C5F3F4FF999FECF1FBA32BD21BD40BD6D
:103840000FB6F894FA9AF99A0FBE21E02093190165
:103850000596089581E090E00E94A11B0E94BA1B8A
:103860000C94D31B8433924111F080E00895809131
:1038700037028E7F80933702F8940E942A1C789436
:1038800081E00895F8940C942A1CF999FECF92BD1A
:1038900081BDF89A20B5209520933B029C012F5FB3
:1038A0003F4FF999FECF32BD21BDF89A20B5209542
:1038B00020933A029C012E5F3F4FF999FECF32BD13
:1038C00021BDF89A20B52095209339029C012D5FE7
:1038D0003F4FF999FECF32BD21BDF89A20B5209512
:1038E000209338029C012C5F3F4FF999FECF32BDE7
:1038F00021BDF89A20B520952093370205960895AA
:10390000F999FECF81E090E092BD81BDF89A80B533
:103910008093C301F999FECF82E090E092BD81BD12
:10392000F89A80B58093C20183E090E00C94451C26
:103930000E94E60060E070E080E89EE30E94E419E7
:1039400060E070E080E09FE30E94111A81E00E9435
:10395000550860E878E381E090E00E943E1A80E03C
:103960000E94550860E878E381E090E00E943E1AEA
:10397000EDCFAA1BBB1B51E107C0AA1FBB1FA61797
:10398000B70710F0A61BB70B881F991F5A95A9F708
:1039900080959095BC01CD01089597FB072E16F4F4
:1039A000009407D077FD09D00E94B91C07FC05D010
:1039B0003EF4909581959F4F0895709561957F4F46
:1039C0000895052E97FB1EF400940E94F81C57FDE5
:1039D00007D00E940F1D07FC03D04EF40C94F81C76
:1039E00050954095309521953F4F4F4F5F4F08952B
:1039F00090958095709561957F4F8F4F9F4F08955B
:103A0000A29FB001B39FC001A39F700D811D11241F
:103A1000911DB29F700D811D1124911D0895A1E289
:103A20001A2EAA1BBB1BFD010DC0AA1FBB1FEE1F38
:103A3000FF1FA217B307E407F50720F0A21BB30B83
:103A4000E40BF50B661F771F881F991F1A9469F7FF
:103A500060957095809590959B01AC01BD01CF015B
:103A600008955058BB27AA270ED0B1C1A2D130F07B
:103A7000A7D120F031F49F3F11F41EF497C10EF44A
:103A8000E095E7FB64C1E92FB3D180F3BA17620771
:103A900073078407950718F071F49EF5E2C10EF4E0
:103AA000E0950B2EBA2FA02D0B01B90190010C014E
:103AB000CA01A0011124FF27591B99F0593F50F466
:103AC000503E68F11A16F040A22F232F342F4427BE
:103AD000585FF3CF469537952795A795F0405395B6
:103AE000C9F77EF41F16BA0B620B730B840BBAF086
:103AF0009150A1F0FF0FBB1F661F771F881FC2F7F1
:103B00000EC0BA0F621F731F841F48F48795779504
:103B10006795B795F7959E3F08F0B3CF9395880FBB
:103B200008F09927EE0F97958795089583D180F037
:103B30009F3740F491110EF495C160E070E080E889
:103B40009FE3089526F01B16611D711D811D05C19F
:103B50001FC1D9D008F481E008950CD038C130D10C
:103B600040F027D130F021F45F3F19F0F0C051113F
:103B700079C11CC13DD198F39923C9F35523B1F301
:103B8000951B550BBB27AA2762177307840738F0CC
:103B90009F5F5F4F220F331F441FAA1FA9F333D02B
:103BA0000E2E3AF0E0E830D091505040E695001CDF
:103BB000CAF729D0FE2F27D0660F771F881FBB1F9B
:103BC000261737074807AB07B0E809F0BB0B802D75
:103BD000BF01FF2793585F4F2AF09E3F510568F0C1
:103BE000B6C040C15F3FECF3983EDCF38695779515
:103BF0006795B795F7959F5FC9F7880F911D9695C3
:103C0000879597F90895E1E0660F771F881FBB1F1E
:103C1000621773078407BA0720F0621B730B840BCB
:103C2000BA0BEE1F88F7E095089504D06894B1119F
:103C300019C10895E5D088F09F5790F0B92F9927C2
:103C4000B751A0F0D1F0660F771F881F991F1AF0A7
:103C5000BA95C9F712C0B13081F003D1B1E008952F
:103C600000C1672F782F8827B85F39F0B93FCCF3B0
:103C7000869577956795B395D9F73EF4909580959D
:103C8000709561957F4F8F4F9F4F0895E89409C0BD
:103C900097FB3EF490958095709561957F4F8F4F7F
:103CA0009F4F9923A9F0F92F96E9BB279395F69595
:103CB000879577956795B795F111F8CFFAF4BB0F13
:103CC00011F460FF1BC06F5F7F4F8F4F9F4F16C077
:103CD000882311F096E911C0772321F09EE8872F01
:103CE000762F05C0662371F096E8862F70E060E0BD
:103CF0002AF09A95660F771F881FDAF7880F969536
:103D0000879597F90895990F0008550FAA0BE0E8D9
:103D1000FEEF16161706E807F907C0F0121613068D
:103D2000E407F50798F0621B730B840B950B39F4CD
:103D30000A2661F0232B242B252B21F408950A2633
:103D400009F4A140A6958FEF811D811D089597F973
:103D50009F6780E870E060E00895882371F477231E
:103D600021F09850872B762F07C0662311F49927EE
:103D70000DC09051862B70E060E02AF09A95660F96
:103D8000771F881FDAF7880F9695879597F908951A
:103D90009F3F31F0915020F4879577956795B795BF
:103DA000880F911D9695879597F908959FEF80EC60
:103DB000089500240A941616170618060906089591
:103DC00000240A9412161306140605060895092EF7
:103DD0000394000C11F4882352F0BB0F40F4BF2B66
:103DE00011F460FF04C06F5F7F4F8F4F9F4F0895A6
:103DF00057FD9058440F551F59F05F3F71F047959C
:103E0000880F97FB991F61F09F3F79F08795089580
:103E1000121613061406551FF2CF4695F1DF08C09F
:103E2000161617061806991FF1CF869571056105BC
:103E300008940895E5DFA0F0BEE7B91788F4BB2722
:103E40009F3860F41616B11D672F782F8827985F6A
:103E5000F7CF869577956795B11D93959639C8F3F9
:103E60000895E894BB2766277727CB0197F9089533
:103E70004ADF08F48FEF08950BD0A9CF9ADF28F01E
:103E80009FDF18F0952309F062CF90CF1124EACF7D
:103E9000AFDFA0F3959FD1F3950F50E0551F629FC0
:103EA000F001729FBB27F00DB11D639FAA27F00D93
:103EB000B11DAA1F649F6627B00DA11D661F829FBA
:103EC0002227B00DA11D621F739FB00DA11D621F9F
:103ED000839FA00D611D221F749F3327A00D611DBC
:103EE000231F849F600D211D822F762F6A2F11249E
:103EF0009F5750408AF0E1F088234AF0EE0FFF1FF1
:103F0000BB1F661F771F881F91505040A9F79E3F27
:103F1000510570F01CCFA6CF5F3FECF3983EDCF369
:103F2000869577956795B795F795E7959F5FC1F764
:103F3000FE2B880F911D9695879597F9089560DF60
:103F4000E0F09E37D8F09639B8F49E3848F4672FE1
:103F5000782F8827985FF9CF869577956795939501
:103F60009539D0F3B62FB1706B0F711D811D20F400
:103F70008795779567959395F0CE0ACF73CFF89490
:023F8000FFCF71
:103F820004FF03FF0301000000803FFFFFFF010168
:063F92000A01FFFF01001F
:00000001FF
