:100000000C9446000C9463000C9463000C94630001
:100010000C9463000C9463000C9463000C946300D4
:100020000C9463000C9463000C9463000C946300C4
:100030000C9463000C9463000C9463000C94D21A2B
:100040000C9463000C9463000C94F4100C94630003
:100050000C9463000C9463000C94DA0C0C94630011
:100060000C9463000C9463000C9463000C94B70D23
:100070000C9463000C9463000C94630044726976E2
:100080006573204443206D6F746F720011241FBE8E
:10009000CFEFD4E0DEBFCDBF12E0A0E0B1E0E4EBF3
:1000A000F9E402C005900D92AE31B107D9F713E023
:1000B000AEE1B2E001C01D92A534B107E1F70E94A4
:1000C0001F010C94D8240C9400000F931F93CF931E
:1000D000DF93EC018B0181E191E06091C3020E940A
:1000E0001214688379838A839B8398012F5F3F4F23
:1000F000F999FECF12BD01BDF89A80B58D83C90173
:100100000196F999FECF32BD21BDF89A20B52E8314
:100110009C012F5F3F4FF999FECF92BD81BDF89AA8
:1001200080B58F83C9010196F999FECF32BD21BDFB
:10013000F89A20B528879C012F5F3F4FF999FECF91
:1001400092BD81BDF89A80B58987C9010196F99958
:10015000FECF32BD21BDF89A20B52A879C012F5FC2
:100160003F4FF999FECF92BD81BDF89A80B58B873C
:10017000F999FECF32BD21BDF89A80B58C878C816C
:10018000807E80618C83DF91CF911F910F910895C4
:10019000CF93DF93C8E8D2E0CE0161E070E00E9427
:1001A000650080E0BE010E94CE11DF91CF910895DD
:1001B000CF93DF93C7E9D2E0CE0169E070E00E94FF
:1001C000650082E0BE010E94CE11DF91CF910895BB
:1001D000CF93DF93C8E8D2E0CE0161E170E00E94E6
:1001E000650084E0BE010E94CE11DF91CF91089599
:1001F00084B780931E02F8940E94841A0E949E176E
:1002000060E472E48FE090E00E944C1A0E94810743
:1002100083E00E941B120E94831B0E9405138AEA3E
:1002200093E00E94F40E80E496E00E9442147894D9
:100230000E94901A0E941B090E94DC0708950E94E8
:10024000F80060E87AE186E090E00E944C1A60E8ED
:100250007AE186E090E00E944C1AF3CFDF93CF93CF
:1002600000D000D0CDB7DEB7A82FB92FFE01319650
:10027000CE0105962D912193E817F907D9F75981F9
:100280004A813B812C81652F742F832F922F0F90F1
:100290000F900F900F90CF91DF910895FC01308166
:1002A00020E0442737FD4095542F818190E0A0E065
:1002B000B0E0282B392B4A2B5B2BC9010895FC0198
:1002C000318120E0442737FD4095542F808190E014
:1002D000A0E0B0E0282B392B4A2B5B2BC9010895F5
:1002E000EF92FF920F931F93FC01618170E080E019
:1002F00090E0CB0177276627208130E040E050E096
:10030000522F442733272227622B732B842B952BC4
:10031000328120E0442737FD4095542FE380FF24AD
:1003200000E010E02E293F29402B512B262B372BA4
:10033000482B592BB901CA011F910F91FF90EF90E3
:100340000895FC01228130E040E050E0A90133270C
:100350002227638170E080E090E0962F882777273E
:100360006627262B372B482B592B608170E080E0C5
:1003700090E0262B372B482B592B918180E0AA2720
:1003800097FDA095BA2F282B392B4A2B5B2BB9014F
:10039000CA010895CF93FC01308520E0678170E0A9
:1003A000622B732B882777FD8095982F0E948E20D3
:1003B00020E03EE241E856E40E94501F9B01AC0160
:1003C0008AE080933702DA01C901BF778093520235
:1003D00090935302A0935402B0935502C1E0CA0116
:1003E000B90120E030E0A9010E94FE1F181624F494
:1003F000C0935102CF910895C0E0C0935102CF91B4
:100400000895CF93DF93EC018D81813031F18230FB
:1004100019F0DF91CF910895CE0106960E947001E8
:1004200060932702709328028093290290932A02F6
:100430009A8580E0AA2797FDA095BA2F2B8530E0FA
:1004400040E050E0822B932BA42BB52B90932C02F1
:1004500080932B02DF91CF910895CE0106960E94E2
:100460007001609321027093220280932302909383
:1004700024029A8580E0AA2797FDA095BA2F2B85A4
:1004800030E040E050E0822B932BA42BB52B9093CF
:10049000260280932502DF91CF910895CF93DF93B9
:1004A000EC0105960E94700120918002309181023A
:1004B00030934E0220934D020E94750A9093500291
:1004C00080934F028F8180935A02998580E02A851C
:1004D000820F911D64E670E00E94B523882777FDA6
:1004E0008095982F0E948E20609352027093530241
:1004F00080935402909355020E948B098AE0809366
:100500003702DF91CF910895EF92FF920F931F93DF
:10051000FC01758160E0882777FD8095982F268102
:1005200030E040E050E0622B732B842B952B10922F
:100530005A02882777FD8095982F0E948E2020E010
:1005400030E44CE156E40E94501FE62EF72E082FAF
:10055000192F262F372F482F592F209352023093CF
:100560005302409354025093550220E030E0A90119
:100570000E94FE1F18169CF01092510217FB109556
:1005800017F91095E0925202F09253020093540230
:10059000109355021F910F91FF90EF90089581E005
:1005A000809351021F910F91FF90EF900895CF9388
:1005B000DF93EC017D8160E0882777FD8095982F9F
:1005C0002E8130E040E050E0622B732B842B952B82
:1005D000882777FD8095982F0E948E2020E030E4B8
:1005E0004CE156E40E94501F9F7760935202709333
:1005F000530280935402909355028F81882329F0EF
:1006000080935A02DF91CF91089583E680935A0236
:10061000DF91CF910895CF93DF93EC017D8160E06E
:10062000882777FD8095982F2E8130E040E050E0BC
:10063000622B732B842B952B882777FD8095982F21
:100640000E948E2020E030E44CE156E40E94501FCE
:100650006093520270935302809354029093550218
:100660007F8160E0882777FD8095982F288530E08E
:1006700040E050E0622B732B842B952B882777FD6D
:100680008095982F0E948E2020E030E44CE156E4C3
:100690000E94501F60935602709357028093580235
:1006A00090935902DF91CF91089508951F93CF93AE
:1006B000DF93EC01162F80E065E470E04091C30207
:1006C0000E941814DC01CB0188839983AA83BB8321
:1006D000113061F11230B1F09FEF2FEF3FEF4FEF8C
:1006E0008FEF5FEF1F701D835E838F83488739878D
:1006F0002A879B878C81807E8E608C83DF91CF914F
:100700001F9108952091270240912802822F942F53
:10071000A0912902B0912A02CD01AA27BB27592F07
:10072000322F20912C0290912B02DCCF20912102BC
:1007300040912202822F942FA0912302B091240293
:10074000CD01AA27BB27592F322F20912602909145
:100750002502C8CFCF93DF93EC0180E490E0609155
:10076000C3020E9412149B01AC01688179818A81C5
:100770009B810E9426148823E1F08D8184FD09C0AD
:10078000CE010E94010280E18093D002DF91CF91DF
:10079000089588E892E061E00E94560387E992E0BC
:1007A00062E00E94560383E08093D002DF91CF91F4
:1007B000089581E490E06091C3020E9412149B01AD
:1007C000AC01688179818A819B810E9426148823EB
:1007D00009F04DC082E490E06091C3020E941214BF
:1007E0009B01AC01688179818A819B810E942614DA
:1007F000882309F042C08BE490E06091C3020E941C
:1008000012149B01AC01688179818A819B810E94CD
:1008100026148823E9F17D8160E0882777FD8095A3
:10082000982F2E8130E040E050E0622B732B842B18
:10083000952B882777FD8095982F0E948E2020E0A9
:1008400030E44CE156E40E94501F9F7760935202BF
:100850007093530280935402909355028F818823A2
:1008600099F080935A028AE0809337028FCFCE01AD
:100870000E944E02DF91CF910895CE010E94840222
:100880008AE08093370282CF83E680935A02EBCFCF
:1008900084E490E06091C3020E9412149B01AC01B9
:1008A000688179818A819B810E942614882309F4BA
:1008B00045C07D8160E0882777FD8095982F2E8147
:1008C00030E040E050E0622B732B842B952B88277F
:1008D00077FD8095982F0E948E2020E030E44CE137
:1008E00056E40E94501F609352027093530280930B
:1008F0005402909355027F8160E0882777FD8095B0
:10090000982F288530E040E050E0622B732B842B39
:10091000952B882777FD8095982F0E948E2020E0C8
:1009200030E44CE156E40E94501F609356027093ED
:100930005702809358029093590295CF83E490E038
:100940006091C3020E9412149B01AC0168817981FD
:100950008A819B810E942614882309F017CF8091F9
:10096000400384FF13CF81E790E060E00E941214FF
:100970009B01AC01688179818A819B810E9433143B
:10098000882309F403CF988580E06F8170E0682B9D
:10099000792B882777FD8095982F0E948E2020E064
:1009A0003EE241E856E40E94501F9B01AC018AE000
:1009B00080933702DA01C901BF7780935202909386
:1009C0005302A0935402B0935502C1E0CA01B90189
:1009D00020E030E0A9010E94FE1F18161CF4C0930D
:1009E0005102D4CEC0E0FBCFCF93DF93EC0186E47D
:1009F00090E06091C3020E941214688379838A8315
:100A00009B830E94E8076D837E838F839887809104
:100A10003A0290913B0299878A878C81807E8C6014
:100A20008C83DF91CF910895AF92BF92CF92DF92E6
:100A3000EF92FF920F931F93CF93DF93EC0180E02F
:100A400067E470E04091C3020E94181468837983C0
:100A50008A839B838091400380FF65C080915F0201
:100A6000909160029D838E836091720270917302F7
:100A7000809174029091750220E030E040E251E4F0
:100A80000E94561ED62EC72EB82EA92E6091760231
:100A900070917702809178029091790220E030E0A5
:100AA00040E251E40E94561E162F072FF82EE92E21
:100AB000A6019501652F742F832F922FD801F7017E
:100AC0002B2F3A2F4F2F5E2F0E94FE1F181694F1E6
:100AD000A8019701652F742F832F922F0E94821CEB
:100AE0007F836887A8019701652F702F832F9E2D24
:100AF0000E9496240E94EE2079876A8780913A02AC
:100B000090913B029B878C878C81807E80618C8357
:100B1000DF91CF911F910F91FF90EF90DF90CF90D9
:100B2000BF90AF90089580918002909181029D8343
:100B30008E839ACFA6019501CDCF0F931F93DF939C
:100B4000CF9300D000D0CDB7DEB78C0149835A8354
:100B50006B837C8380E068E470E04091C3020E9474
:100B60001814F8016083718382839383809140031A
:100B700080FD25C030910001F8013583332361F0F9
:100B8000FE013196D8011696CF01830F911D219158
:100B90002D93E817F907D9F73F70330FF8018481D7
:100BA000817E832B84838E7FF80184830F900F9046
:100BB0000F900F90CF91DF911F910F91089582E0D8
:100BC00085838091610290916202968387838481FC
:100BD000817E84608483E7CFCF93DF93EC0180E054
:100BE00069E470E04091C3020E941814688379831D
:100BF0008A839B838091400380FD11C080913E02D7
:100C000090913F029D838E83909100019F70990F78
:100C10008C81807E892B8C83DF91CF910895809188
:100C2000690290916A029D838E83EECFCF93DF930A
:100C3000EC0180E06AE470E04091C3020E94181465
:100C4000688379838A839B83809137028D838C812B
:100C5000807E82608C83DF91CF91089588E08093BD
:100C60004003109241030E94E00A8FEF97E09093B7
:100C70000201809301019093040180930301089580
:100C8000813009F008958091400380FD05C00E94E5
:100C9000180D0E94AC0708950E940A0DFACF9C011E
:100CA000E1E2F2E0AC018191F999FECF1FBA52BDA9
:100CB00041BD80BD0FB6F894FA9AF99A0FBE4F5F06
:100CC0005F4F82E0E732F80771F72A5F3F4FE7E2B4
:100CD000F2E0A9018191F999FECF1FBA52BD41BD41
:100CE00080BD0FB6F894FA9AF99A0FBE4F5F5F4F26
:100CF00082E0ED32F80771F72A5F3F4FC90108958E
:100D0000CF93DF939C01E1E2F2E0F999FECF32BD8F
:100D100021BDF89A40B541932F5F3F4F42E0E73243
:100D2000F40799F7EC012696CE01E7E2F2E0F99993
:100D3000FECF92BD81BDF89A20B52193019622E0A5
:100D4000ED32F207A1F70E94010B2696CE01DF914A
:100D5000CF910895AC014F5F5F4F20910101309119
:100D600002013695279536952795F999FECF1FBA3A
:100D700092BD81BD20BD0FB6F894FA9AF99A0FBEC4
:100D80009A012F5F3F4F8091030190910401969546
:100D9000879596958795F999FECF1FBA52BD41BDAB
:100DA00080BD0FB6F894FA9AF99A0FBEC90108955A
:100DB000AC014F5F5F4FF999FECF92BD81BDF89AAC
:100DC00080B590E0880F991F880F991F90930201BA
:100DD000809301019A012F5F3F4FF999FECF52BDD9
:100DE00041BDF89A80B590E0880F991F880F991F30
:100DF0009093040180930301C90108952091400359
:100E000020FD22C0AC014F5F5F4F20918102F99914
:100E1000FECF1FBA92BD81BD20BD0FB6F894FA9ADD
:100E2000F99A0FBE9A012F5F3F4F80918002F99986
:100E3000FECF1FBA52BD41BD80BD0FB6F894FA9ADD
:100E4000F99A0FBEC9010895AC014F5F5F4F209121
:100E50006002F999FECF1FBA92BD81BD20BD0FB6C9
:100E6000F894FA9AF99A0FBE9A012F5F3F4F80913A
:100E70005F02F999FECFDDCF0E941F1C0E944F0632
:100E80000E94AA060E94FE0608952091400320FFBA
:100E90001CC0AC014F5F5F4FF999FECF92BD81BD81
:100EA000F89A80B510925F02809360029A012F5FDA
:100EB0003F4FF999FECF52BD41BDF89A80B580935E
:100EC0005F0210926002C9010895AC014F5F5F4F4D
:100ED000F999FECF92BD81BDF89A80B5109280023B
:100EE000809381029A012F5F3F4FF999FECF52BD47
:100EF00041BDF89A80B58093800210928102C901A9
:100F000008950E94791C0E9480060E94D8060E94C3
:100F1000450708958091410390E0807F9070803272
:100F20009105B1F08132910544F08034910591F042
:100F30008038910559F08FEF0895009729F080319E
:100F40009105C9F782E0089580E0089584E108954D
:100F500084E008958AE00895809140038295869503
:100F6000869583708130B1F0813058F08230D9F0AD
:100F700060E070E48CE995E441E021E00E947A1998
:100F8000089560E070E088EC92E441E021E00E9486
:100F90007A19089560E070E086E993E441E021E089
:100FA0000E947A19089560E070E08AE794E441E0D5
:100FB00021E00E947A19089584B1806684B987B1CE
:100FC0008F7C87B90E94AC0788E080933702089530
:100FD0008091400380FD05C00E94630A0E948E201C
:100FE00008950E94760D0E948E200895882321F492
:100FF00087E080933702089588E080933702089550
:1010000060E070E080E89FE30E94F21960E070E029
:1010100080E89FE30E941F1A2D9A2E9A89E0809300
:10102000370208950E94000810923702089588231D
:1010300021F488E08093370208950E9412080895F1
:10104000EF92FF920F931F937B018C010E94F21984
:10105000C801B7010E941F1A2D982E988BE080932B
:1010600037021F910F91FF90EF900895882319F494
:101070002D9A2E9808952E9A2D980895EF92FF920A
:101080000F931F937B018C01442391F480E00E9415
:10109000360860E070E080E89FE30E94F219C80122
:1010A000B7010E941F1A1F910F91FF90EF900895B2
:1010B00081E00E943608C801B7010E94F21960E081
:1010C00070E080E89FE30E941F1A1F910F91FF902C
:1010D000EF900895809137028A3009F445C020913D
:1010E000400320FF3CC080915F029091600223FF8B
:1010F00031C00E945E0C0E948A07882369F08091AB
:101100000501909106019C01215030403093060169
:1011100020930501009709F008950E948A078093A3
:101120000501109206018091410380FD4EC081FDB2
:1011300062C082FD56C08091400380FD2CC00E9499
:101140005509809180029091810290937F02809353
:101150007E0208950E94F90B0E941708CACF0E94D0
:101160007A0920914003C3CF8091400381FD16C0CE
:1011700080915A02833609F45BC0882309F447C082
:1011800060915202709153028091540290915502E5
:101190000E942008A4CF0E94230DD3CF2D982E9813
:1011A00060915202709153028091540290915502C5
:1011B0000E94F21960915602709157028091580274
:1011C000909159020E941F1A8ACF88E892E00E94EB
:1011D000140580E068E872E00E949B118091410351
:1011E000A6CF88E892E00E94160684E068E872E0E4
:1011F0000E949B11A0CF88E892E00E94F40482E054
:1012000068E872E00E949B118091410392CF809127
:1012100051020E94360860915202709153028091EF
:10122000540290915502409151020E943E0857CFBE
:101230000E94120854CF81E080934C0287B18F7CCA
:1012400087B988B18F7C88B955985D980E94880EBF
:101250000E949C0E8091270290912802A091290261
:10126000B0912A0220912102309122024091230262
:1012700050912402821B930BA40BB50B80932D027B
:1012800090932E02A0932F02B093300280912B02F4
:1012900090912C022091250230912602821B930B03
:1012A0009093320280933102089520913A02309156
:1012B0003B02309339022093380280918002909152
:1012C000810240917E0250917F02841B950B909386
:1012D0003B0280933A0240913E0250913F0250936C
:1012E0003D0240933C02821B930B90933F028093FC
:1012F0003E0208958091800290918102089520918C
:101300004F02309150028091800290918102281BFF
:10131000390BC901089520914F02309150028091FC
:101320008002909181028217930758F0281739079D
:1013300020F48FEF8093510208951092510280E0C3
:10134000089581E080935102089580913A0290912E
:101350003B029093390280933802809180029091F1
:10136000810220917E0230917F02821B930B909329
:101370003B0280933A02089580913E0290913F0291
:1013800090933D0280933C0280913A0290913B02FF
:101390002091380230913902821B930B90933F02C7
:1013A00080933E020895EF92FF920F931F936091F6
:1013B00031027091320276956795769567958091A6
:1013C000250290912602680F791F80E090E00E942C
:1013D00040217B018C01609180027091810280E04C
:1013E00090E00E944021A80197010E94251EA801BB
:1013F00097010E94501F1F910F91FF90EF90089549
:10140000AF92BF92CF92DF92EF92FF920F931F9312
:10141000CF93DF93EC012091270230912802409175
:10142000290250912A02609121027091220280913A
:10143000230290912402261737074807590714F40E
:10144000CA01B9010E948E205B016C0160912D02DE
:1014500070912E0280912F02909130020E948E2076
:101460007B018C0120912B0230912C02809125026E
:10147000909126022817390708F4C9019E01281BFC
:10148000390BC90160913102709132020E94A1238F
:1014900080E090E00E9440219B01AC01C801B701AF
:1014A0000E94561E9B01AC01C601B5010E94F81DA9
:1014B000DF91CF911F910F91FF90EF90DF90CF9030
:1014C000BF90AF90089580918002909181020E9418
:1014D000000A0E94EE20089520E030E048EC52E43B
:1014E0000E94561E0E94EE200895AF92BF92CF92A6
:1014F000DF92EF92FF920F931F937B018C0160911B
:1015000031027091320280E090E00E9440215B0144
:101510006C012091270230912802409129025091BC
:101520002A028091210290912202A0912302B0917F
:101530002402281739074A075B0714F4DA01C901A6
:10154000A8019701281B390B4A0B5B0BCA01B90193
:1015500020912D0230912E0240912F0250913002A5
:101560000E94C823CA01B9010E948E209B01AC01D0
:10157000C601B5010E94561E7B018C0180912B0291
:1015800090912C0260912502709126028617970790
:1015900008F4BC0180E090E00E9440219B01AC0176
:1015A000C801B7010E94F81D0E94821CCB011F9147
:1015B0000F91FF90EF90DF90CF90BF90AF90089584
:1015C00089E190E0909326028093250286EE93E0D5
:1015D00090932C0280932B021092210210922202EF
:1015E000109223021092240280E395E7A0E0B0E07D
:1015F0008093270290932802A0932902B0932A0295
:1016000008958091270290912802A0912902B0911B
:101610002A0220912102309122024091230250910E
:101620002402821B930BA40BB50B80932D02909385
:101630002E02A0932F02B093300280912B02909142
:101640002C022091250230912602821B930B90934D
:10165000320280933102089580912B0290912C02E6
:1016600020912502309126028217930708F49C01ED
:10167000C90108958091270290912802A091290222
:10168000B0912A022091210230912202409123023E
:101690005091240282179307A407B50714F49C0104
:1016A000AD01B901CA01089580912B0290912C02DD
:1016B00020912502309126022817390708F49C0151
:1016C000C90108958091270290912802A0912902D2
:1016D000B0912A02209121023091220240912302EE
:1016E00050912402281739074A075B0714F49C011C
:1016F000AD01B901CA010895E0912B02F0912C02CD
:101700006091250270912602E617F70740F5809157
:10171000210290912202A0912302B09124022091F3
:101720002702309128024091290250912A022093E9
:101730002102309322024093230250932402F0931B
:101740002602E09325028093270290932802A0931B
:101750002902B0932A0270932C0260932B02089501
:10176000EF92FF920F931F9320912702309128024E
:101770004091290250912A028091210290912202E7
:10178000A0912302B09124027C018D012817390712
:101790004A075B0714F479018A0100E010E0E816BB
:1017A000F9060A071B0701F16091250270912602D4
:1017B000209321023093220240932302509324026B
:1017C00020912B0230912C02309326022093250287
:1017D0008093270290932802A0932902B0932A02B3
:1017E00070932C0260932B021F910F91FF90EF904A
:1017F0000895CF93DF93EC0183E00E94F11784E01A
:101800000E94F11780915C028130A1F0823001F1D9
:101810008091250290912602C817D90738F180914E
:101820002B0290912C028C179D0778F180E0DF91BC
:10183000CF910895809125029091260207968C17EA
:101840009D07E8F410925C0280E0DF91CF9108954B
:1018500080912B0290912C020797C817D90790F31B
:1018600084E00E94EA1780915C02E1CF83E00E944D
:10187000EA1781E080935C02DF91CF91089583E0C5
:101880000E94EA1780915C02D2CF84E00E94EA179E
:1018900082E080935C02DF91CF9108952091030153
:1018A000309104012817390738F02617370710F050
:1018B00080E0089582E0089581E00895EF92FF921C
:1018C0000F931F93CF93DF9380914C028823F9F4F9
:1018D00060914F0270915002C0918002D0918102BC
:1018E0006C177D0719F180915B02823039F18330EA
:1018F000F1F180914D0290914E028617970778F48E
:101900006C177D0720F482E080935B0201C080E0C9
:10191000DF91CF911F910F91FF90EF900895C6171F
:10192000D707A8F783E080935B02F2CF81E0DF91D5
:10193000CF911F910F91FF90EF90089580E090E07C
:101940000E9440217B018C012DEC3CEC4CEC5DE3D2
:101950000E94561E9B01AC01C801B7010E94251EC2
:101960000E94821CC617D707C8F082E0D1CF80E062
:1019700090E00E9440217B018C012DEC3CEC4CEC72
:101980005DE30E94561E9B01AC01C801B7010E9495
:10199000F81D0E94821C6C177D0750F410925B02A8
:1019A00080E0DF91CF911F910F91FF90EF9008950C
:1019B00083E0AECF1F920F920FB60F9211248F9338
:1019C0009F9393B180916D02882369F493FF0BC0BC
:1019D00094FD10C080915F029091600201979093F6
:1019E000600280935F029F918F910F900FBE0F90C6
:1019F0001F90189580915F029091600201969093DC
:101A0000600280935F029F918F910F900FBE0F90A5
:101A10001F90189584B18C6184B9EAE6F0E080816A
:101A200088618083E8E6F0E08081816080830895AA
:101A3000EAE6F0E08081877E8083E8E6F0E080815E
:101A4000816080830895EF92FF920F931F93CF934D
:101A5000DF93C0915F02D091600280915D0290910E
:101A60005E029E01281B390B82E390E0289FB001A3
:101A7000299F700D389F700D112480E090E00E9426
:101A800040217B018C01609361027093620280931C
:101A90006302909364022091650230916602409146
:101AA0006702509168020E94251E20E030E048E461
:101AB00052E40E94561E6093690270936A028093FA
:101AC0006B0290936C02D0935E02C0935D02E09231
:101AD0006502F09266020093670210936802DF913C
:101AE000CF911F910F91FF90EF90089560E070E00B
:101AF000CB01089520913A0330913B03C9016AE07C
:101B000070E00E94B523009721F1C90164E170E003
:101B10000E94B523009721F48091400380FD20C0EE
:101B2000C90164E670E00E94B523009761F48091DA
:101B3000700290917102009739F481E090E09093E7
:101B400071028093700208951092710210927002D7
:101B500008950E946A0820913A0330913B03D5CF43
:101B60000E94230D20913A0330913B03D9CF1F925D
:101B70000F920FB60F921124EF92FF920F931F93C3
:101B80002F933F934F935F936F937F938F939F9385
:101B9000AF93BF93CF93DF93EF93FF938091830233
:101BA000982F9F5F909383028B3010F010928302E6
:101BB0008091780090917900D92F90E0C92FC80FBB
:101BC000D11D80918202813009F463C0813008F414
:101BD00050C0823069F5D0937D02C0937C02609141
:101BE00076027091770280917802909179022DECC3
:101BF0003CEC4CE45FE30E94561E7B018C01BE016D
:101C000080E090E00E9440212DEC3CEC4CE45EE34F
:101C10000E94561E9B01AC01C801B7010E94F81D2D
:101C200060937602709377028093780290937902A2
:101C30001092820282E480937C0080917A0080641A
:101C400080937A00FF91EF91DF91CF91BF91AF9197
:101C50009F918F917F916F915F914F913F912F91C4
:101C60001F910F91FF90EF900F900FBE0F901F905C
:101C70001895D0938102C093800281E08093820204
:101C800088E480937C0080917A00806480937A005D
:101C9000D9CFD0937B02C0937A0260917202709187
:101CA000730280917402909175022DEC3CEC4CE42F
:101CB0005FE30E94561E7B018C01BE0180E090E034
:101CC0000E9440212DEC3CEC4CE45EE30E94561E49
:101CD0009B01AC01C801B7010E94F81D609372021C
:101CE00070937302809374029093750282E08093E4
:101CF000820289E480937C0080917A0080648093E2
:101D00007A00A0CFEAE7F0E08081887F80830895A1
:101D10008BE980937A00EEE7F0E080818460808335
:101D2000EFE7F0E080818360808380EA80937B002E
:101D300082E480937C00089582E480937C00EAE74B
:101D4000F0E08081806480830895BC0180E090E0B1
:101D50000E944021209184023091850240918602A8
:101D6000509187020E94251E2091070130910801A1
:101D70004091090150910A010E94561E089508954C
:101D800088E480937C0080917A00806480937A005C
:101D900080917A0086FDFCCF809178009091790047
:101DA000392F20E0280F311D30937B0220937A02D7
:101DB000C901089589E480937C0080917A00806451
:101DC00080937A0080917A0086FDFCCF8091780024
:101DD00090917900392F20E0280F311D30937D023A
:101DE00020937C02C90108959093C0028093BF02A2
:101DF00008959093C2028093C1020895CF93DF9318
:101E0000EDEEF0E020818295807F8083C1EFD0E00D
:101E10003881CB01807E90709695879592958295BA
:101E20008F7089279F708927387F382BA0EFB0E00B
:101E30008C91660F660F660F8770682B38836C93E2
:101E4000A5EFB0E08C9187608C93A4EFB0E08C910B
:101E5000886F8C932083DF91CF910895EDEEF0E0B1
:101E600090818295807F8083A5EFB0E08C91887F00
:101E70008C93A4EFB0E08C9187708C93908308953D
:101E8000252F362FEDEEF0E050818295807F808304
:101E9000862F829586958770440F440F440F482BF8
:101EA000C901807E9F7196958795929582958F70D6
:101EB00089279F708927220F220F220F372F3295F3
:101EC00036953770232B770F770F770F4093F300FA
:101ED0008093F2002093F1007093F00050830895F6
:101EE000FF920F931F93CF93DF93F82E8B01CA01BC
:101EF00060E00E941214C72FD82FC80160E00E9432
:101F00001214272F382FEDEEF0E00081F294B0EF9D
:101F1000FB22F08243EF50E0DA016C918D2F829525
:101F200086958770687F682BCE01807E9F7196951D
:101F30008795929582958F7089279F708927A1EF49
:101F4000B0E07C91FC2EFF0CFF0CFF0C7770F72AA1
:101F5000EA0168838093F200FC92C7EFD0E04881E9
:101F6000832F829586958770487F482BC901807E94
:101F70009F7196958795929582958F7089279F700E
:101F80008927A5EFB0E05C91220F220F220F577036
:101F9000252B48838093F6002C930083DF91CF910B
:101FA0001F910F91FF900895EDEEF0E090818295E2
:101FB000807F8083A7EFB0E08C91887F8C93A6EF21
:101FC000B0E08C911C92A5EFB0E08C9187708C935F
:101FD00090830895EDEEF0E090818295807F80837C
:101FE0006093F7007093F6004093F5005093F4006F
:101FF00090830895EDEEF0E090818295807F80835C
:102000006093F7007093F6004093F5005093F4004E
:10201000908308951F93CF93DF93EDEEF0E010814E
:10202000382F3295307F3083CEEDD0E09881A1E01B
:10203000B0E002C0AA0FBB1F8A95E2F79A2B9883E3
:10204000808130836093F7007093F6004093F50031
:102050005093F400808320692093EF00A8EDB0E056
:102060008C9182608C931083DF91CF911F910895A2
:10207000EF92FF920F931F93CF93DF9381E060E085
:1020800070E040E050E028E00E940A106091C30236
:1020900081E070E00E94FE0E83E060E070E040E0CE
:1020A00050E028E00E940A10CDEED0E0988180E355
:1020B000888305EF10E0F8018081887F808384EFBA
:1020C000E82EF12CF701808187708083988383E06C
:1020D00063E27CEF43E25CEF0E94700F85E060E01A
:1020E00070E040E050E028E00E940A10988180E50E
:1020F0008883F8018081887F8083F70180818770E1
:102100008083988385E060E07CEF40E05CEF0E9494
:10211000700FDF91CF911F910F91FF90EF90089575
:10212000EDEEF0E090818295807F80831092EF0049
:102130001092EE0090830895FC014091F30050E06E
:102140002091F2008091F10090E0A091F000BA019E
:10215000769567957695679576956795608330E077
:10216000220F331F22953295307F3227207F32276E
:10217000542F44275295550F507E242B352BAC01FC
:10218000569547955695479556954795242B352B4B
:10219000328321838295880F807EA695A695A69589
:1021A000A82BA3830895CF93DF93EC010E949C108A
:1021B0008091EF008F70282F220F9C81917E922BAF
:1021C0009C83482F50E04115510559F0259620E099
:1021D00030E09091FA0099932F5F3F4F2417350715
:1021E000C4F3DF91CF9108951F920F920FB60F9213
:1021F00011242F933F934F935F936F937F938F930C
:102200009F93AF93BF93CF93EF93FF93C091ED0054
:102210004091EC0042954F704F3009F487C0809197
:10222000EC00807F8093ED008091EE0090E08F7154
:102230009070009709F440C08091EE0090E082FF1A
:1022400005C02091EE002F7E2093EE009C012370AC
:1022500030702115310529F02091EE00277F209361
:10226000EE0081FF05C02091EE002B7F2093EE0051
:1022700080FF05C08091EE008D7F8093EE00453099
:1022800009F44BC0413009F448C0433009F445C05B
:10229000C093ED00FF91EF91CF91BF91AF919F91CE
:1022A0008F917F916F915F914F913F912F910F90FF
:1022B0000FBE0F901F9018958091EE0085FD13C002
:1022C0008091EE0086FFE4CFE091C102F091C2025E
:1022D000309709F0099581E08093B6021092EF00E3
:1022E0001092EE00D5CF81E08093B50286EA92E0AD
:1022F0000E94D31086EA92E00E948015882369F438
:1023000086EA92E00E944E17E091BF02F091C0026F
:10231000309719F086EA92E0099588E98093EF00FA
:102320008091EE008F7D8093EE00B2CF8091DA0035
:102330008093DA00AFCFCF93DF93EB01982F929584
:10234000907FF8949093ED001092EE0048815981AF
:102350006A817B810E94400F8C8186958F7079F015
:10236000FE01359680E090E021912093FA000196DD
:102370002C8126952F7030E082179307ACF3809163
:10238000F0008B7F8093F0008C8186958F70806544
:102390008093EF007894DF91CF9108950E949B1174
:1023A0008091EE0086FFFCCF08952091F80030E088
:1023B0004091F900942F80E0282B392BC901089512
:1023C000CF93DF93EC010E94D3108F70880F9C8114
:1023D000917E982B9C838091F80090E04091F900C9
:1023E000342F20E0822B932B9E878D87DF91CF9116
:1023F0000895833061F0843030F08530D1F085303D
:1024000080F482E105C0813091F0823071F08EE07D
:102410008093E20084E08093E30083E18093E40012
:1024200008958630A1F786E2F3CF86E0F1CF82E00F
:10243000EFCF8EE1EDCF91E09093D8001092E500C0
:1024400090E0292F2295207F2093ED001092EF003D
:102450001092EE009F5F9630A1F790EA9093DB0018
:102460000E94F9110E9438108091D90082FFFCCFA0
:102470000895882351F482E08093E20084E0809301
:10248000E30083E18093E40008951092E2008CE081
:102490008093E30086E38093E4000895882351F459
:1024A00086E08093E20084E08093E30083E1809300
:1024B000E400089582E08093E2008CE08093E300E2
:1024C00087E38093E4000895882351F48EE080939D
:1024D000E20084E08093E30083E18093E4000895C8
:1024E00086E08093E2008CE08093E30087E38093B2
:1024F000E4000895882351F482E18093E20084E0AF
:102500008093E30083E18093E400089588E0809362
:10251000E2008CE08093E30087E38093E400089579
:10252000882351F48EE18093E20084E08093E300FD
:1025300083E18093E40008958EE08093E2008CE0D4
:102540008093E30087E38093E4000895882351F4A7
:1025500086E28093E20084E08093E30083E180934D
:10256000E400089582E18093E2008CE08093E30030
:1025700087E38093E400089583E980937A00EEE78F
:10258000F0E080818860808380E880937B000895FC
:10259000569840E050E020E030E0E3E4E0937C0037
:1025A00080917A00806480937A0080917A0086FD21
:1025B000FCCF8091780090E081709070BA016F70CC
:1025C000707002C0880F991F6A95E2F7282B392B8B
:1025D000809179004F5F5F4F40315105F9F6569A6F
:1025E000C901089583E060E070E040E050E028E039
:1025F0000E940A1083E00E942E0F83E063E27CEFCA
:1026000043E25CEF0E94700F089583E980937A00A3
:1026100080917E00886080937E0080E880937B00BC
:102620000E94C81290E09093C7028093C6028093E4
:10263000C8020E94880E8091C402882351F082E073
:102640008093C40282E88093CB0281E08093C5022C
:10265000089581E08093CB020E94F2121092C3028F
:102660008091CB0280688093CB0281E08093C50289
:102670000895CF93DF93EC0183E29CEF0E94121444
:10268000688379838A839B838091C3028D83809141
:10269000C4028E838091C8028F838091CB02888789
:1026A0008091CC028987809144038A878C81807EC7
:1026B0008E608C83DF91CF91089581E08093CC026E
:1026C0004091C402413059F18091C502882339F10B
:1026D0008091C6029091C7029C01215030403093F6
:1026E000C7022093C6020097D1F481E090E0909356
:1026F000C7028093C60282E08093CC02442391F00B
:10270000423009F45AC0403239F1403809F447C028
:10271000403431F08091CC0280688093CC020895DF
:1027200086E8FBCF83E08093CC0280E28093C402F2
:1027300087E992E06091C8020E94391380E067E95E
:1027400072E00E949B118CE291E09093CA02809308
:10275000C9024091C402D4CF84E08093CC02F894A3
:102760002091ED001092ED008091EE0086FF03C0F5
:1027700080E88093C4028091C9029091CA020197B7
:102780009093CA028093C902009719F484E0809361
:10279000C4022093ED0078944091C402B6CF85E046
:1027A0008093CC0281E08093C402F8940E941F1CA5
:1027B00078948091CC028068B0CF87E08093CC027F
:1027C00081E08093C40287E992E06091C3020E9495
:1027D000391380E067E972E00E949B114091C402C6
:1027E00092CFCF93DF93EC0184E29CEF6091C30220
:1027F0000E941214688379838A839B838091C30229
:102800008D838C81807E82608C83DF91CF9108954F
:10281000FC0185819091C302891718F08F5F809326
:10282000C3020895262F60E0782F892F922F0895F4
:10283000382F262F872F942F632F722F0895862FDE
:102840000895872F0895892F90E00895E1E0621799
:1028500073078407950709F0E0E08E2F089581E063
:10286000621380E00895932F272F382F692F742F3C
:1028700081E02617370709F080E0089581E04913C9
:1028800080E008959093D3028093D2020895CF936D
:10289000DF93EC0181E19CEF6091C3020E9412146E
:1028A000688379838A839B8384E08D838091C302CC
:1028B0008E838091CD028F838091CE0288878C8118
:1028C000807E88608C83DF91CF910895CF93DF93D2
:1028D000EC0182E19CEF6091C3020E9412146883B4
:1028E00079838A839B8384E08D8381E48E8381E076
:1028F0008F839FE0988789871A868C81807E8C6081
:102900008C83DF91CF910895CF93DF93EC0183E126
:102910009CEF6091C3020E941214688379838A83BA
:102920009B8384E08D8386E58E8388E78F838CE9A3
:1029300088878EED89878C81807E8A608C83DF9189
:10294000CF910895CF93DF93EC0184E19CEF6091E8
:10295000C3020E941214688379838A839B838091C7
:10296000CF028D8390E0DE0116969C01285F3F4FD9
:10297000FC01E458FF4FE491ED9301968217930711
:10298000B9F78C81807E82618C83DF91CF9108952D
:102990008091D4028130D9F0813028F0823009F161
:1029A000833059F0089587E992E00E94471482E04D
:1029B00067E972E00E949B11089587E992E00E9406
:1029C000A21482E067E972E00E949B11089587E9F2
:1029D00092E00E94661482E067E972E00E949B1117
:1029E000089587E992E00E94841482E067E972E02A
:1029F0000E949B1108958091D00280FD56C081FDF8
:102A000049C082FD32C083FD26C084FD1AC085FF07
:102A10000DC080910C0190910D019C01215030401E
:102A200030930D0120930C01009709F00895F8945C
:102A30000E94C8148091D0028F7D8093D002789438
:102A40000895F8940E943C078091D0028F7E809375
:102A5000D0027894DCCFF8940E941F1C8091D002A1
:102A6000877F8093D0027894D0CFF8940E94791C0D
:102A700087E992E06091C3020E94391380E067E920
:102A800072E00E949B118091D0028B7F8093D002D4
:102A90007894B9CF82E067E972E00E949B1180913F
:102AA000D0028D7F8093D002ACCF80E068E872E0E6
:102AB0000E949B118091D0028E7F8093D0029FCF85
:102AC000CF93DF93EC0187E29CEF6091C3020E94F9
:102AD0001214688379838A839B83809140038D835A
:102AE000809141038E83809142038F8380914303C1
:102AF00088878C81807E88608C83DF91CF91089558
:102B0000CF93DF93EC0185E190E06091C3020E94D6
:102B100012149B01AC01688179818A819B810E949A
:102B20002614882339F0CE010E943E1881E0DF91FF
:102B3000CF91089585E190E06FEF0E9412149B0100
:102B4000AC01688179818A819B810E942614882347
:102B500051F780E19CEF60E00E9412149B01AC01F0
:102B6000688179818A819B810E943314882391F046
:102B70008091D00280628093D0028D818093D402B4
:102B80008091C30280930C0110920D0181E0DF91CE
:102B9000CF91089582E29CEF6091C3020E941214CB
:102BA0009B01AC01688179818A819B810E942614F6
:102BB0008823F1F08D8184FF14C088E892E00E94A0
:102BC000601581E08093D002E091D202F091D302AF
:102BD000309719F18D818F70099581E0DF91CF9148
:102BE0000895CE010E94411B88E08093D002ECCF73
:102BF00081E29CEF6091C3020E9412149B01AC0120
:102C0000688179818A819B810E942614882339F00A
:102C100088E08093D00281E08ACF81E088CF81E292
:102C20009CEF6FEF0E9412149B01AC0168817981C7
:102C30008A819B810E942614882351F785E29CEFAC
:102C40006091C3020E9412149B01AC0168817981DA
:102C50008A819B810E942614882349F586E29CEF95
:102C60006091C3020E9412149B01AC0168817981BA
:102C70008A819B810E942614882361F18C818E7148
:102C8000843059F63D8120E08E8190E0822B932B99
:102C900022E18433920709F685E58093CB021092F6
:102CA000C5021092C4020E94051381E040CF81E06A
:102CB0008093C4028D818093C3020E941F1C81E017
:102CC0000E942E0F6091C30281E070E00E94FE0E10
:102CD00081E02DCF86E29CEF6FEF0E9412149B01E2
:102CE000AC01688179818A819B810E9426148823A6
:102CF00029F683E29CEF60E00E9412149B01AC0174
:102D0000688179818A819B810E943314882309F428
:102D10000ECF9D818091C302981709F07ECF8091DC
:102D2000C402803241F0882309F077CFCE010E949F
:102D3000081481E0FCCE9091ED0080E38093ED00DB
:102D40008091EF008F738093EF009093ED001092CD
:102D5000C402CE010E94081481E0E9CEEF92FF92F6
:102D60000F931F93CF93DF937B018C01C0E0D0E0E2
:102D7000CE01880F991F8C0F9D1FFC01EE0FFF1FC6
:102D8000EE0FFF1FE80FF91FEB52FD4F208131813D
:102D900042815381C801B7010E943314882361F432
:102DA0002196C630D10521F78FEFDF91CF911F918A
:102DB0000F91FF90EF9008958C2FDF91CF911F918D
:102DC0000F91FF90EF900895282F392FD901862F6A
:102DD000972FFC018FE001900D928150E1F708954B
:102DE000BC0180912F0390E09C01220F331F280F1C
:102DF000391FC901880F991F880F991F820F931FD0
:102E00008B529D4F0E94E41680912F038F5F809319
:102E10002F03863010F010922F030895CF93DF9385
:102E2000EC01688179818A819B810E94AE168F3F77
:102E3000A9F090E09C01220F331F280F391FC90110
:102E4000880F991F880F991F820F931F8B529D4FD8
:102E5000BE010E94E416DF91CF91089580912F0367
:102E600090E09C01220F331F280F391FC901880FE2
:102E7000991F880F991F820F931F8B529D4FBE0180
:102E80000E94E41680912F038F5F80932F0386307A
:102E900010F310922F03DF91CF91089520914303F7
:102EA00021FD03C00E940E1708950E94F016089598
:102EB0008091430381FF1BC02091300380912F0339
:102EC0002817C9F0822F8F5F8093300330E0C9014B
:102ED000880F991F820F931F9C01220F331F220F0F
:102EE000331F280F391F2B523D4FC901089520E091
:102EF00030E0C90108951092300310922F0320E0B2
:102F000030E0F3CF90E0AC01440F551F480F591F3C
:102F10009A01220F331F220F331F240F351F2B520C
:102F20003D4FC90108950E945817009719F020914C
:102F3000430321FF08950E94AA03089510923203CB
:102F400010923103569A579A5E985F98089583308D
:102F500029F0843009F008955F9A08955E9A0895E3
:102F6000833029F0843009F008955F9808955E98C1
:102F7000089590913203992321F0923011F080E06E
:102F8000089590911101292F215020931101992327
:102F9000B1F79AE090931101882379F080911001A4
:102FA0000E94A717809110018F5F809310018530D8
:102FB00078F081E0809310010895809110010E94C3
:102FC000B017809110018F5F80931001853088F7D2
:102FD00080E0089590913203911108950E94A717FF
:102FE000089590913203911108950E94B0170895A9
:102FF000662319F40E94F11708950E94EA170895B4
:1030000090913203911108950E94F8170895662354
:1030100039F087FF0EC05F9A86FD07C05E9808955D
:1030200083FF05C05F9A82FFF9CF5E9A08955F988B
:10303000FACF5F98F1CF90913203992311F08091EC
:1030400031030E940718089590913203992319F0D3
:10305000933009F0089590910E01992359F460E09E
:103060000E94071881E090910E01911180E08093F9
:103070000E01089561E00E940718F4CFFC019581CC
:103080009F709093320386818F70809331039230CA
:1030900081F0933039F0913009F0089560E00E949A
:1030A0001B1808958091C302809331030E94241855
:1030B00008950E94B9170895809132038230D9F0A3
:1030C000833049F0813009F008958091310360E048
:1030D0000E941B18089580910F01982F9150909392
:1030E0000F01882389F78AE080930F018091C30242
:1030F0000E9424180895809131030E94B9178130ED
:1031000019F790913103992319F4809331030895AD
:1031100080E0FBCF2FB7F8949093890080938800CC
:103120002FBF08952FB7F89490938B0080938A0057
:103130002FBF0895EF92FF920F931F937B018C0195
:103140002091120130E040E050E060E074E284EF52
:1031500090E00E94C823CA01B9010E948E20A801F4
:1031600097010E94501F0E94821CCB011F910F915A
:10317000FF90EF9008959093140180931301909322
:1031800087008093860008950F931F93CF93DF935A
:103190009B01AC0160E074E284E79BE40E94501F55
:1031A0008B01D82FC92F9E01712F832F922F20E0E2
:1031B0003FEF4FE757E40E94FE1F18160CF041C086
:1031C0009E01602F712F832F922F20E030E040E08E
:1031D0005EE30E94561E20E03FEF4FE757E40E9457
:1031E000FE1F1816B4F59E01602F712F832F922FAA
:1031F00020E030E040E85CE30E94561E20E03FEF14
:103200004FE757E40E94FE1F18164CF59E01602FF1
:10321000712F832F922F20E030E040E85BE30E9483
:10322000561E20E03FEF4FE757E40E94FE1F18169E
:103230009CF420E034E0C901DF91CF911F910F9100
:10324000089521E030E0C901DF91CF911F910F91E6
:10325000089528E030E0EFCF20E031E0ECCF20E42B
:1032600030E0E9CF80349105D9F08134910550F0F8
:1032700021E08030920781F024E08030920751F005
:103280008FEF08958130910549F088309105C1F79D
:1032900082E0089585E0089584E0089581E008952E
:1032A00083E00895EF92FF920F931F937B018C01AF
:1032B0002091120130E040E050E060E074E284EFE1
:1032C00090E00E94C823CA01B9010E948E20A80183
:1032D00097010E94501F0E94821C709314016093FA
:1032E000130170938700609386001F910F91FF90E8
:1032F000EF900895EF92FF920F931F93CF93DF9378
:103300007B018C01C42FD22F4111529AD111399ACD
:1033100080916400877E809364008FB7F894109248
:103320008900109288008FBF8FB7F89410928B009D
:1033300010928A008FBF2091120130E040E050E0EF
:1033400060E074E284EF90E00E94C823CA01B901F2
:103350000E948E20A80197010E94501F0E94821C8B
:10336000709314016093130170938700609386003B
:10337000CC23C1F482E0D111806280938000C80127
:10338000B7010E94C4188093120190E00E94321984
:10339000886180938100DF91CF911F910F91FF9001
:1033A000EF90089582E8E7CF90918000292F206860
:1033B000882321F4906C909380000895922F9F7B36
:1033C00090938000089590918000292F2062882397
:1033D00021F49063909380000895922F9F7E9093A4
:1033E00080000895EF92FF920F931F937B018C0151
:1033F00020E030E0A9010E945E2087FF04C017FB97
:10340000109517F91095609113017091140180E0E7
:1034100090E00E944021A80197010E94561E0E9440
:103420003C240E94821C8FB7F894709389006093AB
:1034300088008FBF1F910F91FF90EF900895EF923A
:10344000FF920F931F937B018C0120E030E0A901D4
:103450000E945E2087FF04C017FB109517F9109596
:10346000609113017091140180E090E00E9440216E
:10347000A80197010E94561E0E943C240E94821CB3
:103480008FB7F89470938B0060938A008FBF1F9161
:103490000F91FF90EF9008959B01AC0110923403BF
:1034A0001092350310923603109237038091340343
:1034B00090913503A0913603B0913703821793079B
:1034C000A407B50704F58091340390913503A091CA
:1034D0003603B09137030196A11DB11D80933403CB
:1034E00090933503A0933603B09337038091340350
:1034F00090913503A0913603B0913703821793075B
:10350000A407B50704F308958FEF84B917B81DB861
:103510008EEF85B918B81BB81EB8109264000895D4
:1035200082E084BD93E095BD9AEF97BD80936E00D5
:1035300010923B0310923A03089581E080933E037A
:10354000089510923E03089520913A0330913B0371
:10355000C90165E070E00E94B523009739F4C90104
:103560006AE070E00E94B523009709F008950E9478
:103570005D1380913A0390913B0364E170E00E94F7
:10358000B523009799F70E94FB1480913A0390911C
:103590003B0362E370E00E94B523009739F70E9475
:1035A0005C1808951F920F920FB60F9211242F935B
:1035B0003F934F935F936F937F938F939F93AF93BB
:1035C000BF93EF93FF9380913F03882341F11092C3
:1035D0003F0380913E03882349F180913803909105
:1035E00039039C012F5F3F4F3093390320933803F9
:1035F0006AE070E00E94A123009731F1FF91EF9102
:10360000BF91AF919F918F917F916F915F914F91FA
:103610003F912F910F900FBE0F901F90189581E052
:1036200080933F0380913E038823B9F680913A034B
:1036300090913B03019690933B0380933A030E9441
:10364000A41A0E947A0DDACF10923903109238032F
:1036500080913A0390913B03019690933B038093B2
:103660003A030E947A0DCACF82E084BD93E095BDF3
:103670009AEF97BD80936E0010923B0310923A032D
:103680000895FC019681278185818230D9F08330AD
:1036900071F0813009F00895892F8095822B922353
:1036A00020914003922B8923809340030895892F12
:1036B0008095822B922320914203922B8923809321
:1036C00042030895892F8095822B922320914103F4
:1036D000922B892380934103089510924003109206
:1036E00041031092420382E4809343031092C50287
:1036F000809144038160809344031092C40288E95E
:103700008093C30208958091440380FD08950E9430
:103710006D1B0E942E0608952091C302F999FECFD9
:103720001FBA92BD81BD20BD0FB6F894FA9AF99ADE
:103730000FBE9C012F5F3F4FC9010895F999FECF3D
:1037400092BD81BDF89A20B52093C3029C012F5FE2
:103750003F4FC90108952091C402F999FECF1FBAC5
:1037600092BD81BD20BD0FB6F894FA9AF99A0FBEAA
:103770009C012F5F3F4FC9010895F999FECF92BD7B
:1037800081BDF89A20B52093C4029C012F5F3F4F62
:10379000C90108959C012F5F3F4F40914003409520
:1037A000F999FECF1FBA92BD81BD40BD0FB6F89406
:1037B000FA9AF99A0FBEC9010196409141034095CA
:1037C000F999FECF1FBA32BD21BD40BD0FB6F894A6
:1037D000FA9AF99A0FBE9C012F5F3F4F4091420326
:1037E0004095F999FECF1FBA92BD81BD40BD0FB67D
:1037F000F894FA9AF99A0FBEC901019640914303D1
:103800004095F999FECF1FBA32BD21BD40BD0FB61C
:10381000F894FA9AF99A0FBE9C012F5F3F4F40919E
:1038200044034095F999FECF1FBA92BD81BD40BDBA
:103830000FB6F894FA9AF99A0FBEC901089581E07B
:1038400090E00E948C1B0E94AB1B0E94CA1B089533
:10385000F8940E941F1C089522E18433920711F00E
:1038600080E00895809144038E7F80934403F89410
:103870000E941F1C789481E008959C012F5F3F4FA8
:10388000F999FECF92BD81BDF89A80B5809580935D
:103890004003C9010196F999FECF32BD21BDF89AC6
:1038A00020B52095209341039C012F5F3F4FF9994C
:1038B000FECF92BD81BDF89A80B58095809342037A
:1038C000C9010196F999FECF32BD21BDF89A20B504
:1038D0002095209343039C012F5F3F4FF999FECF22
:1038E00092BD81BDF89A80B5809580934403C9014B
:1038F000089581E090E00E949E1B0E94BD1B0E94E3
:103900003D1C0895EF92FF920F931F937B018C0152
:1039100020E030E040E05FE40E942E2087FD11C0EF
:10392000C801B70120E030E040E05FE40E94251EBE
:103930000E94EE209B01AC01205030404040504896
:1039400006C0C801B7010E94EE209B01AC01B9017D
:10395000CA011F910F91FF90EF900895A0E0B0E091
:10396000E4EBFCE10C940924FC01EA018081823043
:1039700008F438C1DB019C91923008F430C18430E6
:1039800059F4943009F02EC1918111968C911197C0
:10399000981709F021C126C1943009F420C1923052
:1039A000B1F4823009F01EC1CA01AF0128E0DA018A
:1039B0000D90AD01DC010D92CD012150C1F7DB016D
:1039C00011968C9111979181892389830AC1823044
:1039D00009F405C1C280D380DB0112966D907C9002
:1039E000139724813581468157811496ED90FD907F
:1039F0000D911C911797C601861997095C0197FFD5
:103A000004C0AA24BB24A81AB90AB0E2AB16B104B8
:103A10000CF061C0181619066CF5370148010A2C24
:103A200004C096948794779467940A94D2F781E0BF
:103A300090E0A0E0B0E00A2C04C0880F991FAA1FF4
:103A4000BB1F0A94D2F70197A109B1098E219F21CA
:103A5000A023B123EE24FF248701E3940097A1055E
:103A6000B10519F4EE24FF248701E628F728082978
:103A700019293CC00097D1F1CA0CDB1C39014A015D
:103A80000A2C04C096948794779467940A94D2F78A
:103A900081E090E0A0E0B0E00A2C04C0880F991FFC
:103AA000AA1FBB1F0A94D2F70197A109B10982236B
:103AB0009323A423B52321E030E040E050E00097B9
:103AC000A105B10519F420E030E0A9012629372924
:103AD000482959290BC06C147D0424F4EE24FF24DA
:103AE000870104C0630120E030E0A9018181FB016E
:103AF0009181891709F445C0882349F0D801C7018D
:103B0000821B930BA40BB50B9C01AD0104C02E19B5
:103B10003F09400B510B57FD04C01982DB82CA825A
:103B20000BC081E08983DB82CA8250954095309535
:103B300021953F4F4F4F5F4F2C833D834E835F83D3
:103B40000DC0880F991FAA1FBB1F8C839D83AE8356
:103B5000BF838A819B8101979B838A838C819D810E
:103B6000AE81BF819C01AD012150304040405040AA
:103B70002F3FEFEF3E07EFEF4E07EFE35E0708F34F
:103B80000BC08983DB82CA822E0D3F1D401F511F4F
:103B90002C833D834E835F8383E088832C813D812A
:103BA0004E815F8157FF1DC0DA01C901817090709D
:103BB000A070B0705695479537952795822B932B1B
:103BC000A42BB52B8C839D83AE83BF838A819B817D
:103BD00001969B838A8305C0E5E1F1E003C0FB0108
:103BE00001C0FE01CF01CDB7DEB7EEE00C94252475
:103BF000A0E2B0E0EEEFFDE10C94112469837A833A
:103C00008B839C832D833E834F83588789E0E82EE6
:103C1000F12CEC0EFD1ECE010196B7010E94DF22B1
:103C20008E010F5E1F4FCE010596B8010E94DF2264
:103C3000C701B801AE01475E5F4F0E94AE1C0E94F3
:103C40001222A096E6E00C942D24A0E2B0E0EBE274
:103C5000FEE10C94112469837A838B839C832D83EA
:103C60003E834F8358878E01075F1F4FCE01019619
:103C7000B8010E94DF2291E1E92EF12CEC0EFD1E2D
:103C8000CE010596B7010E94DF228A8991E089273B
:103C90008A8BC801B701AE01475E5F4F0E94AE1C20
:103CA0000E941222A096E6E00C942D24A0E2B0E03F
:103CB000ECE5FEE10C94052469837A838B839C8375
:103CC0002D833E834F835887CE010196BE01675FE7
:103CD0007F4F0E94DF22CE010596BE016F5E7F4FAF
:103CE0000E94DF229985923078F089898230C0F075
:103CF000943019F4823041F4CBC0843019F49230FE
:103D000079F4C6C0923051F481E02A859A89291746
:103D100009F480E08A87CE010996BCC0823051F454
:103D200081E02A859A89291709F480E08A8BCE01DF
:103D30004196B0C06D847E848F849888ED88FE881B
:103D40000F89188DE0E2F0E080E090E0DC01AA2429
:103D5000BB24650120E030E0A901B30161707070FF
:103D600061157105D1F02E0D3F1D401F511F15012A
:103D70002601280E391E4A1E5B1E81E090E0A0E05D
:103D8000B0E02E153F054007510718F080E090E0A5
:103D9000DC01820D931DA41DB51DAA0CBB1CCC1CFF
:103DA000DD1C17FF09C061E0262E312C412C512C5F
:103DB000A228B328C428D528319749F0EE0CFF1C5F
:103DC000001F111F9694879477946794C6CF6B89D0
:103DD0007C89EB85FC856E0F7F1F6E5F7F4F7C8F2C
:103DE0006B8F61E0EA857A89E71709F460E06A8FF2
:103DF0006B8D7C8D10C0FC01E170F070309729F064
:103E000056954795379527955068B695A7959795F8
:103E100087956F5F7F4FB7FDEECF0CC0880F991F5E
:103E2000AA1FBB1F57FD8160220F331F441F551F60
:103E3000615070408030E0E09E07E0E0AE07E0E4D3
:103E4000BE0760F36B8F7C8F6FE7E62EF12C012DA0
:103E5000112DE822F9220A231B2360E4E616F1045F
:103E60000105110561F487FD0AC0211531054105E1
:103E7000510529F0805C9F4FAF4FBF4F80788D8FE9
:103E80009E8FAF8FB8A383E0898FCE01499602C081
:103E900085E191E00E941222A096E2E10C94212497
:103EA000A8E1B0E0E6E5FFE10C940D2469837A8394
:103EB0008B839C832D833E834F8358878E01075FBE
:103EC0001F4FCE010196B8010E94DF2281E1E82E4A
:103ED000F12CEC0EFD1ECE010596B7010E94DF22EB
:103EE0009985923008F483C08989823008F47BC0B8
:103EF0002A853A8923272A87943011F0923021F4B9
:103F0000981709F06CC071C0843039F41D861E8684
:103F10001F86188A1C861B866AC0823019F484E0CA
:103F2000898765C08B859C852B893C89821B930B77
:103F30009C878B872D853E854F855889ED88FE8827
:103F40000F89188D2E153F054007510738F4220FB1
:103F5000331F441F551F01979C878B876FE170E0CB
:103F6000A12CB12CC12CA0E4DA2E80E090E0DC0181
:103F70002E153F054007510740F08A299B29AC299F
:103F8000BD292E193F09400B510BD694C794B79405
:103F9000A794220F331F441F551F6150704041F7F3
:103FA0006FE7E62EF12C012D112DE822F9220A23CC
:103FB0001B2360E4E616F1040105110561F487FD99
:103FC0000AC0211531054105510529F0805C9F4F3C
:103FD000AF4FBF4F80788D879E87AF87B88B8E019C
:103FE000075F1F4F04C0870102C005E111E0C8014F
:103FF0000E9412226896EAE00C942924A8E1B0E01D
:10400000E4E0F0E20C94112469837A838B839C832F
:104010002D833E834F8358878E01075F1F4FCE014C
:104020000196B8010E94DF2281E1E82EF12CEC0E0E
:10403000FD1ECE010596B7010E94DF2289858230E0
:1040400040F08989823028F0C801B7010E944823D6
:1040500001C08FEF6896E6E00C942D24A8E1B0E053
:10406000E4E3F0E20C94112469837A838B839C83CC
:104070002D833E834F8358878E01075F1F4FCE01EC
:104080000196B8010E94DF2281E1E82EF12CEC0EAE
:10409000FD1ECE010596B7010E94DF228985823080
:1040A00040F08989823028F0C801B7010E94482376
:1040B00001C08FEF6896E6E00C942D24A8E1B0E0F3
:1040C000E4E6F0E20C94112469837A838B839C8369
:1040D0002D833E834F8358878E01075F1F4FCE018C
:1040E0000196B8010E94DF2281E1E82EF12CEC0E4E
:1040F000FD1ECE010596B7010E94DF228985823020
:1041000040F08989823028F0C801B7010E94482315
:1041100001C081E06896E6E00C942D24A8E0B0E0B0
:10412000E4E9F0E20C9411247B018C0183E08983A3
:10413000D801C7018827B7FD83959927AA27BB27F0
:10414000282F8A83E114F1040105110519F482E096
:10415000898337C08EE190E09C838B83222389F092
:1041600080E0E81680E0F80680E0080780E818079D
:1041700069F110950095F094E094E11CF11C011D8B
:10418000111DED82FE820F831887C801B7010E94BE
:10419000B8219C01215030401216130694F4022ECF
:1041A00004C0EE0CFF1C001F111F0A94D2F7ED8211
:1041B000FE820F8318878EE190E0821B930B9C8315
:1041C0008B83CE0101960E94122204C060E070E051
:1041D00080E09FEC2896E6E00C942D24ACE0B0E063
:1041E000E4EFF0E20C94152469837A838B839C833B
:1041F000CE010196BE016B5F7F4F0E94DF228D8151
:10420000823081F1823070F1843021F48E818823F4
:1042100069F10AC02F81388537FD24C06E812F31A6
:1042200031053CF0662311F120E030E040E050E839
:1042300021C08EE190E0821B930B29853A854B8546
:104240005C8504C056954795379527958A95D2F792
:10425000662381F050954095309521953F4F4F4F03
:104260005F4F08C020E030E0A90104C02FEF3FEF0E
:104270004FEF5FE7B901CA012C96E2E00C943124BC
:10428000A8E0B0E0E6E4F1E20C940F247B018C019D
:104290001A82611571058105910519F482E08983FF
:1042A0005FC083E089838EE1C82ED12CDC82CB8273
:1042B000ED82FE820F831887C801B7010E94B821E2
:1042C000FC013197F7FF3AC0AA27BB27AE1BBF0BF3
:1042D00021E030E040E050E00A2E04C0220F331FFE
:1042E000441F551F0A94D2F721503040404050409F
:1042F0002E213F214023512361E070E080E090E0D7
:10430000211531054105510519F460E070E0CB013C
:1043100004C016950795F794E794AA95D2F7E62A74
:10432000F72A082B192BED82FE820F8318878EE166
:1043300090E08E1B9F0B9C838B8312C0309781F083
:104340000E2E04C0EE0CFF1C001F111F0A94D2F7A2
:10435000ED82FE820F831887CE1ADF0ADC82CB82C1
:10436000CE0101960E9412222896E8E00C942B249C
:10437000AF92BF92CF92DF92EF92FF920F931F9373
:104380007B018C0180E0E81680E0F80681E00807F8
:1043900080E0180758F4EFEFEE16F104010511055F
:1043A00009F090F480E090E0DC0117C0F0E0EF1637
:1043B000F0E0FF06F0E00F07F1E01F0750F480E1A6
:1043C00090E0A0E0B0E009C088E090E0A0E0B0E0BC
:1043D00004C088E190E0A0E0B0E020E230E040E0FE
:1043E00050E0281B390B4A0B5B0B5701680104C0D6
:1043F000D694C794B794A7948A95D2F7D601C501ED
:10440000835E9E4FFC018081281B310941095109BF
:10441000C9011F910F91FF90EF90DF90CF90BF9057
:10442000AF900895EF92FF920F931F93CF93DF9376
:10443000FC012481358146815781618180818230F0
:1044400020F44061EFEFF0E0A3C0843009F49BC09A
:10445000823009F492C0211531054105510509F456
:104460008FC00280F381E02D7FEFE238F7070CF078
:104470005AC0C2E8DFEFCE1BDF0BCA31D1056CF5A5
:1044800079018A010C2E04C016950795F794E794DC
:104490000A94D2F781E090E0A0E0B0E00C2E04C0D6
:1044A000880F991FAA1FBB1F0A94D2F70197A10971
:1044B000B10982239323A423B52321E030E040E017
:1044C00050E00097A105B10519F420E030E0A90102
:1044D0002E293F29402B512B03C020E030E0A901B9
:1044E000DA01C9018F779070A070B07080349105A7
:1044F000A105B10539F427FF09C0205C3F4F4F4F9C
:104500005F4F04C0215C3F4F4F4F5F4FE1E0F0E051
:10451000203080E0380780E0480780E4580728F51D
:10452000E0E0F0E022C0E038F1056CF5E158FF4F23
:10453000DA01C9018F779070A070B0708034910556
:10454000A105B10539F427FF09C0205C3F4F4F4F4B
:104550005F4F04C0215C3F4F4F4F5F4F57FF05C077
:104560005695479537952795319687E05695479507
:10457000379527958A95D1F70BC0E0E0F0E005C0AC
:10458000E0E0F0E005C0EFEFF0E020E030E0A9016E
:104590008E2F879588278795942F9F776795662715
:1045A0006795E695A92FA82BFE2FF62B622F732F68
:1045B0008A2F9F2FCDB7DEB7E6E00C942D24DC01C7
:1045C000FB012C9111963C91119712968C911297A8
:1045D000482F4F7750E0982F991F9927991F1396CE
:1045E0006C911397862F880F892B90E0661F6627A2
:1045F000661F6183009739F5211531054105510585
:1046000011F482E029C082E89FEF9383828367E000
:10461000220F331F441F551F6A95D1F783E0808313
:1046200009C0220F331F441F551F828193810197B8
:1046300093838283203080E0380780E0480780E45D
:10464000580778F320C08F3F910579F42115310583
:104650004105510519F484E08083089544FF03C0A7
:1046600081E0808310C010820EC08F5790409383EA
:10467000828383E0808387E0220F331F441F551F0E
:104680008A95D1F7506424833583468357830895F0
:10469000FC01DB019081923008F449C08C9182309A
:1046A00008F445C0943051F461818430B1F511961D
:1046B0002C91119730E0261B310941C0843021F044
:1046C000923041F48230B1F111968C911197882388
:1046D000A1F12DC06181823001F111968C91119769
:1046E0006817D9F42281338112968D919C9113978A
:1046F0008217930794F028173907BCF0248135817D
:104700004681578114968D919D910D90BC91A02D5D
:1047100082179307A407B50718F4662341F00DC06C
:10472000281739074A075B0728F4662331F021E090
:1047300030E005C020E030E002C02FEF3FEFC901BC
:104740000895AA1BBB1B51E107C0AA1FBB1FA617D8
:10475000B70710F0A61BB70B881F991F5A95A9F72A
:1047600080959095BC01CD01089597FB092E0726F1
:104770000AD077FD04D0E5DF06D000201AF470954A
:1047800061957F4F0895F6F7909581959F4F089515
:1047900097FB092E05260ED057FD04D014D00AD061
:1047A000001C38F450954095309521953F4F4F4F60
:1047B0005F4F0895F6F790958095709561957F4FBE
:1047C0008F4F9F4F0895A1E21A2EAA1BBB1BFD011C
:1047D0000DC0AA1FBB1FEE1FFF1FA217B307E407E0
:1047E000F50720F0A21BB30BE40BF50B661F771F38
:1047F000881F991F1A9469F7609570958095909518
:104800009B01AC01BD01CF0108952F923F924F92C1
:104810005F926F927F928F929F92AF92BF92CF9250
:10482000DF92EF92FF920F931F93CF93DF93CDB759
:10483000DEB7CA1BDB0B0FB6F894DEBF0FBECDBFD1
:1048400009942A88398848885F846E847D848C84A2
:104850009B84AA84B984C884DF80EE80FD800C81AB
:104860001B81AA81B981CE0FD11D0FB6F894DEBF8E
:104870000FBECDBFED0108953BD080F09F3740F4CF
:1048800091110EF44DC060E070E080E89FE3089560
:1048900026F01B16611D711D811D01C01BC08823E0
:1048A00071F4772321F09850872B762F07C0662369
:1048B00011F499270DC09051862B70E060E02AF02A
:1048C0009A95660F771F881FDAF7880F9695879558
:1048D00097F908959F3F31F0915020F4879577958F
:1048E0006795B795880F911D9695879597F90895C7
:1048F00045D0A0F0BEE7B91788F4BB279F3860F415
:104900001616B11D672F782F8827985FF7CF8695E9
:1049100077956795B11D93959639C8F30895E894F6
:10492000BB2766277727CB0197F9089527D0E0F0BA
:104930009E37D8F09639B8F49E3848F4672F782F10
:104940008827985FF9CF86957795679593959539E0
:10495000D0F3B62FB1706B0F711D811D20F48795B8
:104960007795679593959BCFB5CFDACF57FD905844
:10497000440F551F59F05F3F71F04795880F97FB23
:10498000991F61F09F3F79F08795089512161306DD
:104990001406551FF2CF4695F1DF08C0161617060C
:1049A0001806991FF1CF8695710561050894089541
:0449B000F894FFCFA9
:1049B40004FF03FF0301000000803FFFFFFF01012C
:1049C400010A01FFFF0000000000000000000102D6
:1049D4000203030303040404040404040405050596
:1049E4000505050505050505050505050506060670
:1049F4000606060606060606060606060606060653
:104A0400060606060606060606060606060707073F
:104A14000707070707070707070707070707070722
:104A24000707070707070707070707070707070712
:104A34000707070707070707070707070707070702
:104A440007070707070707070707070707080808EF
:104A540008080808080808080808080808080808D2
:104A640008080808080808080808080808080808C2
:104A740008080808080808080808080808080808B2
:104A840008080808080808080808080808080808A2
:104A94000808080808080808080808080808080892
:104AA4000808080808080808080808080808080882
:104AB4000808080808080808080808080808080872
:0E4AC40008080808080808080808080808007C
:00000001FF
