S0140000627574746F6E5F626F6172642E737265630D
S11300000C9446000C9463000C9463000C946300FD
S11300100C9463000C9463000C9463000C946300D0
S11300200C9463000C9463000C9463000C946300C0
S11300300C9463000C9463000C9463000C94F40E11
S11300400C9463000C9463000C94A8060C94630055
S11300500C9463000C9463000C9463000C94630090
S11300600C9463000C9463000C9463000C94630080
S11300700C9463000C9463000C94630044726976DE
S11300806573204443206D6F746F720011241FBE8A
S1130090CFEFD4E0DEBFCDBF12E0A0E0B1E0EAE6EE
S11300A0FDE202C005900D92A632B107D9F713E024
S11300B0A6E2B2E001C01D92A331B107E1F70E94AC
S11300C018010C94B3160C94000010927E00109248
S11300D07F0010927A000895F8940E94A60E0E9460
S11300E0520D0E94080260E47CE980E090E00E94E6
S11300F06E0E0E94850483E00E94CF070E94A50F24
S11301000E94B90882E894E00E94F60978940E945B
S1130110B20E0895863009F482C08730B0F08C3076
S113012009F45DC08D3020F18E3009F46EC08E303C
S113013008F445C08F3019F484E08093000182E014
S113014065E672E00E9482070895823009F461C076
S1130150833010F1843009F446C08530A0F185E67F
S113016092E06091000141E025E00E94DD03E7CFC9
S1130170883009F441C08830C8F0893001F7109202
S1130180000182E00E94BD0D84E00E94BD0D81E06B
S11301900E94BD0D5998D3CF8823D9F0813079F6C8
S11301A085E692E061E00E94C403C9CF85E692E04F
S11301B06091000142E021E00E94DD03C0CF82E0B3
S11301C080930001BCCF85E692E063E00E94C40303
S11301D0B6CF85E692E060E00E94C403B0CF81E030
S11301E080930001ACCF85E692E06091000140E08D
S11301F020E00E94DD03A3CF85E692E06091000138
S113020043E020E00E94DD039ACF83E08093000165
S113021096CF85E692E062E00E94C40390CF85E623
S113022092E06091000142E020E00E94DD0387CF6C
S1130230EF92FF920F931F930E946C000E94320270
S1130240589A8BE392E00E9492017B018C018BE32C
S113025092E00E94B40280910E0380FF0FC081FFE0
S113026002C05898EBCF85E692E00E940A0382E030
S113027065E672E00E944F075898E0CF86E592E069
S1130280B801A7010E94DA0280E066E572E00E94EC
S11302904F0780910E03E3CF84B18C6784B908952E
S11302A084B1837884B9089585B1837885B9089534
S11302B085B18C6785B908958230B9F0833028F010
S11302C08330B9F0843069F00895882331F08130A7
S11302D0D9F7662391F02B9A0895662381F02A9A20
S11302E00895662391F42E980895662351F02C9A6C
S11302F00895662341F02D9A08952B9808952A981D
S113030008952C9808952D9808952E9A089587B1EC
S11303108F7087B9089587B1806F87B9089586B1C2
S1130320807F0895E82FF92F80E090E020E080FDA1
S113033015C0A22FB0E0A45BBD4F3081307F3C9349
S1130340019631968530910591F760914C02709138
S11303504D0280914E0290914F020895A22FB0E079
S1130360A45BBD4F408142954F703C91342B3C932C
S11303702F5FE6CF0F931F93CF93DF9325B12C67A5
S113038025B9082F192FC0E0D0E08C2F60E00E941F
S11303905C016CE271E080E090E00E946E0E86B138
S11303A0807FF80181938F018C2F61E00E945C01B2
S11303B02196C530D10549F7DF91CF911F910F9157
S11303C00895A82FB92FE62FF72F80E090E03D91F4
S11303D02191321731F4019685309105C1F780E0FF
S11303E0089581E0089580913B02809336028091C4
S11303F03C028093370280913D02809338028091C1
S11304003E028093390280913F0280933A0208951C
S11304108FEF809336028093370280933802809363
S1130420390280933A0284B18C6784B987B18F70A2
S113043087B98BE392E00E94BA0180913B028093DA
S1130440360280913C028093370280913D02809372
S1130450380280913E028093390280913F0280935A
S11304603A020895CF93DF9384B18C6784B985B140
S1130470837885B987B18F7087B98BE392E00E9446
S1130480BA01C6E3D2E0ABE3B2E0FE0191918D91F3
S1130490981741F482E0EB33F80779F391918D9149
S11304A09817C1F365E070E080E090E00E946E0E62
S11304B080E492E00E94BA01E0E4F2E09991819133
S11304C0981741F482E0CB33D807B9F2999181911E
S11304D09817C1F380913B028093360280913C02CD
S11304E08093370280913D028093380280913E02CE
S11304F08093390280913F0280933A02DF91CF9139
S1130500089590E024E030E0AC01022E02C055953D
S113051047950A94E2F740FF07C02F5F3F4F28300A
S1130520310591F78FEF0895822F8450089590E05C
S11305307091450224E030E0AC01022E02C05595D2
S113054047950A94E2F740FD06C0E72FF0E0E95B27
S1130550FD4F60837F5F2F5F3F4F6F5F2830310512
S113056059F7709345020895CF93DF93EC011092ED
S11305704502888160E00E949702898164E00E94BC
S113058097028A8168E00E9497028B816CE00E9446
S113059097028C8160E10E949702DF91CF910895C8
S11305A0880F880F680FE1E0F1E0E60FF11D80810C
S11305B008950895EF92FF921F93DF93CF9300D095
S11305C0CDB7DEB77C01162F86E390E060919102EF
S11305D049835A830E94C609DC01CB01F701808359
S11305E09183A283B383498145835A8156831783B8
S11305F08091530280878F5F809353028481807E31
S1130600886084830F900F90CF91DF911F91FF90AA
S1130610EF900895CF93DF93EC0185E390E0609130
S113062091020E94C609688379838A839B8390918F
S11306304502983040F187E0809345028D8379E04C
S113064048E050E027E030E0A7E4B2E0FE0136964F
S113065080E090E001966D91619382179307D4F343
S113066080915002FE01E40FF51F85838F5F809314
S11306705002972F9F70990F8C81807E892B8C83D9
S1130680DF91CF9108959D83292F30E02115310505
S113069039F0A9014F5F5F4F792F7E5F7F70D4CF10
S11306A0792F7E5F7F7041E050E0DACFCF93DF9304
S11306B0EC01809151029091520201969093520262
S11306C08093510282E064E070E041E00E94CC0932
S11306D06093560270935702809358029093590284
S11306E0888180935B02898180935C028A818093F4
S11306F05D028B8180935E028C8180935F0288B15E
S11307008093600287B1809361028FEF80936202CD
S113071080915A02807E806180935A02DF91CF914A
S11307200895089510921501809115018F5E8093AC
S1130730150180935B0281E00E94B60D80E066E5BE
S113074072E00E94820760E47DE083E090E00E9412
S11307506E0E81E00E94BD0D60E47DE083E090E0D8
S11307600E946E0EE1CFCF93F999FECF12BC11BC5B
S1130770F89AC0B58C2F0E94080E60E87AE186E0F2
S113078090E00E946E0EF6CF1F93CF93DF93EC019F
S1130790162F80E19CEF60E00E94C609DC01CB01CA
S11307A088839983AA83BB831D838C81807E826026
S11307B08C83DF91CF911F9108950F931F93DF9343
S11307C0CF9300D0CDB7DEB78C0185E190E02A83CA
S11307D049830E94C609F8016083718382839383ED
S11307E0498145832A8126838481807E8460848331
S11307F00F900F90CF91DF911F910F9108950F9358
S11308001F93CF93DF93EC018B0180E060E670E0EF
S1130810409191020E94CC09688379838A839B83E7
S113082080E38D83B80180E090E00E94F41320E01F
S113083030E040E85AE30E94781220E030E04AE7D2
S113084054E40E9478120E94A4107E836F838C81EA
S1130850807E86608C83DF91CF911F910F910895E4
S11308600F931F93CF93DF93EC01162F072F80E094
S113087060E670E0409191020E94CC09DC01CB015A
S113088088839983AA83BB8380E28D830E831F832D
S113089083E088878C81807E88608C83DF91CF9110
S11308A01F910F9108950F931F93CF93DF93EC0142
S11308B08B0180E060E870E0409191020E94CC09D5
S11308C0688379838A839B838C81807E80618C8317
S11308D0C80180709F709D830E839F8308879987CA
S11308E00A879B870C87DF91CF911F910F91089501
S11308F010920E0310920F0308950E9441100E945B
S1130900EC0F08950E947D0408950E949B100E949C
S11309105F10089580910F0390E0807F9070803283
S1130920910591F08132910544F08034910551F0A4
S11309308038910529F484E108958031910531F0DE
S11309408FEF08958AE0089584E0089582E0089581
S113095090938E0280938D020895909390028093D9
S11309608F020895CF93DF93EDEEF0E0208182951E
S1130970807F8083C1EFD0E03881CB01807E90708E
S113098096958795929582958F7089279F70892770
S1130990387F382BA0EFB0E08C91660F660F660F9E
S11309A08770682B38836C93A5EFB0E08C918760D7
S11309B08C93A4EFB0E08C91886F8C932083DF91AB
S11309C0CF910895EDEEF0E090818295807F808351
S11309D0A5EFB0E08C91887F8C93A4EFB0E08C916C
S11309E087708C9390830895252F362FEDEEF0E0D9
S11309F050818295807F8083862F8295869587702B
S1130A00440F440F440F482BC901807E9F71969573
S1130A108795929582958F7089279F708927220FD9
S1130A20220F220F372F329536953770232B770FED
S1130A30770F770F4093F3008093F2002093F10037
S1130A407093F00050830895FF920F931F93CF93F8
S1130A50DF93F82E8B01CA0160E00E94C609C72FFC
S1130A60D82FC80160E00E94C609272F382FEDEE69
S1130A70F0E00081F294B0EFFB22F08243EF50E00B
S1130A80DA016C918D2F829586958770687F682B2B
S1130A90CE01807E9F7196958795929582958F70F1
S1130AA089279F708927A1EFB0E07C91FC2EFF0C71
S1130AB0FF0CFF0C7770F72AEA0168838093F20039
S1130AC0FC92C7EFD0E04881832F8295869587708A
S1130AD0487F482BC901807E9F7196958795929592
S1130AE082958F7089279F708927A5EFB0E05C916C
S1130AF0220F220F220F5770252B48838093F60074
S1130B002C930083DF91CF911F910F91FF90089553
S1130B10EDEEF0E090818295807F8083A7EFB0E0D6
S1130B208C91887F8C93A6EFB0E08C911C92A5EFFA
S1130B30B0E08C9187708C9390830895EDEEF0E093
S1130B4090818295807F80836093F7007093F60094
S1130B504093F5005093F40090830895EDEEF0E097
S1130B6090818295807F80836093F7007093F60074
S1130B704093F5005093F400908308951F93CF930E
S1130B80DF93EDEEF0E01081382F3295307F308323
S1130B90CEEDD0E09881A1E0B0E002C0AA0FBB1F67
S1130BA08A95E2F79A2B9883808130836093F700CB
S1130BB07093F6004093F5005093F400808320690D
S1130BC02093EF00A8EDB0E08C9182608C931083A9
S1130BD0DF91CF911F910895EF92FF920F931F938E
S1130BE0CF93DF9381E060E070E040E050E028E0E4
S1130BF00E94BE056091910281E070E00E94B204FF
S1130C0083E060E070E040E050E028E00E94BE0530
S1130C10CDEED0E0988180E3888305EF10E0F80101
S1130C208081887F808384EFE82EF12CF701808116
S1130C3087708083988383E063E27CEF43E25CEF18
S1130C400E94240585E060E070E040E050E028E088
S1130C500E94BE05988180E58883F8018081887FA1
S1130C608083F701808187708083988385E060E0CA
S1130C707CEF40E05CEF0E942405DF91CF911F914F
S1130C800F91FF90EF900895EDEEF0E09081829542
S1130C90807F80831092EF001092EE00908308957D
S1130CA0FC014091F30050E02091F2008091F100AA
S1130CB090E0A091F000BA017695679576956795D6
S1130CC076956795608330E0220F331F2295329525
S1130CD0307F3227207F3227542F44275295550FD7
S1130CE0507E242B352BAC01569547955695479548
S1130CF056954795242B352B328321838295880F73
S1130D00807EA695A695A695A82BA3830895CF9338
S1130D10DF93EC010E9450068091EF008F70282F22
S1130D20220F9C81917E922B9C83482F50E0411589
S1130D30510559F0259620E030E09091FA009993FE
S1130D402F5F3F4F24173507C4F3DF91CF910895E8
S1130D501F920F920FB60F9211242F933F934F932C
S1130D605F936F937F938F939F93AF93BF93CF932F
S1130D70EF93FF93C091ED004091EC0042954F70CA
S1130D804F3009F487C08091EC00807F8093ED00A0
S1130D908091EE0090E08F719070009709F440C04C
S1130DA08091EE0090E082FF05C02091EE002F7E3E
S1130DB02093EE009C01237030702115310529F039
S1130DC02091EE00277F2093EE0081FF05C0209143
S1130DD0EE002B7F2093EE0080FF05C08091EE0093
S1130DE08D7F8093EE00453009F44BC0413009F407
S1130DF048C0433009F445C0C093ED00FF91EF9122
S1130E00CF91BF91AF919F918F917F916F915F919E
S1130E104F913F912F910F900FBE0F901F901895F7
S1130E208091EE0085FD13C08091EE0086FFE4CF33
S1130E30E0918F02F0919002309709F0099581E0DA
S1130E40809384021092EF001092EE00D5CF81E0DF
S1130E508093830284E792E00E94870684E792E00D
S1130E600E94330B882369F484E792E00E94010D09
S1130E70E0918D02F0918E02309719F084E792E0B0
S1130E80099588E98093EF008091EE008F7D80932F
S1130E90EE00B2CF8091DA008093DA00AFCFCF9327
S1130EA0DF93EB01982F9295907FF8949093ED0047
S1130EB01092EE00488159816A817B810E94F4047A
S1130EC08C8186958F7079F0FE01359680E090E0F4
S1130ED021912093FA0001962C8126952F7030E001
S1130EE082179307ACF38091F0008B7F8093F0001E
S1130EF08C8186958F7080658093EF007894DF9164
S1130F00CF9108950E944F078091EE0086FFFCCF99
S1130F1008952091F80030E04091F900942F80E08A
S1130F20282B392BC9010895CF93DF93EC010E943C
S1130F3087068F70880F9C81917E982B9C8380916B
S1130F40F80090E04091F900342F20E0822B932B9D
S1130F509E878D87DF91CF910895833061F084302F
S1130F6030F08530D1F0853080F482E105C08130E5
S1130F7091F0823071F08EE08093E20084E08093FF
S1130F80E30083E18093E40008958630A1F786E2CC
S1130F90F3CF86E0F1CF82E0EFCF8EE1EDCF91E0A9
S1130FA09093D8001092E50090E0292F2295207F9D
S1130FB02093ED001092EF001092EE009F5F9630A8
S1130FC0A1F790EA9093DB000E94AD070E94EC0524
S1130FD08091D90082FFFCCF0895882351F482E0E8
S1130FE08093E20084E08093E30083E18093E40053
S1130FF008951092E2008CE08093E30086E38093EE
S1131000E4000895882351F486E08093E20084E0AC
S11310108093E30083E18093E400089582E0809369
S1131020E2008CE08093E30087E38093E40008957A
S1131030882351F48EE08093E20084E08093E300FF
S113104083E18093E400089586E08093E2008CE0DD
S11310508093E30087E38093E4000895882351F4A8
S113106082E18093E20084E08093E30083E1809353
S1131070E400089588E08093E2008CE08093E3002C
S113108087E38093E4000895882351F48EE18093EC
S1131090E20084E08093E30083E18093E400089518
S11310A08EE08093E2008CE08093E30087E38093FA
S11310B0E4000895882351F486E28093E20084E0FA
S11310C08093E30083E18093E400089582E18093B8
S11310D0E2008CE08093E30087E38093E4000895CA
S11310E083E980937A00EEE7F0E080818860808372
S11310F080E880937B000895569840E050E020E01B
S113110030E0E3E4E0937C0080917A008064809393
S11311107A0080917A0086FDFCCF8091780090E07F
S113112081709070BA016F70707002C0880F991F3F
S11311306A95E2F7282B392B809179004F5F5F4F36
S113114040315105F9F6569AC901089583E060E0EB
S113115070E040E050E028E00E94BE0583E00E9479
S1131160E20483E063E27CEF43E25CEF0E94240547
S1131170089583E980937A0080917E00886080934B
S11311807E0080E880937B000E947C0890E090932E
S1131190950280939402809396020E946500809148
S11311A09202882351F082E08093920282E8809335
S11311B0990281E080939302089581E080939902DB
S11311C00E94A608109291028091990280688093EF
S11311D0990281E0809393020895CF93DF93EC0109
S11311E083E29CEF0E94C609688379838A839B8388
S11311F0809191028D83809192028E8380919602D8
S11312008F8380919902888780919A02898780913F
S113121012038A878C81807E8E608C83DF91CF91CC
S1131220089581E080939A0240919202413059F1ED
S113123080919302882339F18091940290919502D0
S11312409C012150304030939502209394020097E2
S1131250D1F481E090E0909395028093940282E02F
S113126080939A02442391F0423009F45AC04032E8
S113127039F1403809F447C0403431F080919A0282
S1131280806880939A02089586E8FBCF83E0809378
S11312909A0280E28093920285E692E0609196023F
S11312A00E94ED0880E065E672E00E944F078CE240
S11312B091E0909398028093970240919202D4CF48
S11312C084E080939A02F8942091ED001092ED004E
S11312D08091EE0086FF03C080E8809392028091A3
S11312E097029091980201979093980280939702A5
S11312F0009719F484E0809392022093ED0078948F
S113130040919202B6CF85E080939A0281E0809367
S11313109202F8940E944110789480919A02806815
S1131320B0CF87E080939A0281E08093920285E6B1
S113133092E0609191020E94ED0880E065E672E01F
S11313400E944F074091920292CFCF93DF93EC011A
S113135084E29CEF609191020E94C60968837983BC
S11313608A839B83809191028D838C81807E8260AD
S11313708C83DF91CF910895FC0185819091910236
S1131380891718F08F5F809391020895262F60E0EB
S1131390782F892F922F0895382F262F872F942F57
S11313A0632F722F0895862F0895872F0895892F0C
S11313B090E00895E1E0621773078407950709F048
S11313C0E0E08E2F089581E0621380E00895932F6A
S11313D0272F382F692F742F81E02617370709F03C
S11313E080E0089581E0491380E008959093A1027C
S11313F08093A0020895CF93DF93EC0181E19CEFE9
S1131400609191020E94C609688379838A839B83D1
S113141081E08D83809191028E8380919B028F83E2
S113142080919C0288878C81807E88608C83DF9188
S1131430CF910895CF93DF93EC0182E19CEF60910B
S113144091020E94C609688379838A839B8381E021
S11314508D8391E49E838F839FE0988789871A8682
S11314608C81807E8C608C83DF91CF910895CF93A3
S1131470DF93EC0183E19CEF609191020E94C60925
S1131480688379838A839B8381E08D8386E58E8359
S113149088E78F838CE988878EED89878C81807EAD
S11314A08A608C83DF91CF910895CF93DF93EC0111
S11314B084E19CEF609191020E94C609688379835C
S11314C08A839B8380919D028D8390E0DE01169632
S11314D09C01285F3F4FFC01E458FF4FE491ED93DA
S11314E0019682179307B9F78C81807E82618C8381
S11314F0DF91CF9108958091A2028130D9F081309B
S113150028F0823009F1833059F0089585E692E09D
S11315100E94FB0982E065E672E00E944F0708958D
S113152085E692E00E94550A82E065E672E00E9438
S11315304F07089585E692E00E941A0A82E065E664
S113154072E00E944F07089585E692E00E94370AF0
S113155082E065E672E00E944F07089580919E0242
S113156080FD56C081FD49C082FD32C083FD26C086
S113157084FD1AC085FF0DC0809117019091180158
S11315809C0121503040309318012093170100979B
S113159009F00895F8940E947B0A80919E028F7D41
S11315A080939E0278940895F8940E947D0480911B
S11315B09E028F7E80939E027894DCCFF8940E94E2
S11315C0411080919E02877F80939E027894D0CFB1
S11315D0F8940E949B1085E692E0609191020E942B
S11315E0ED0880E065E672E00E944F0780919E025C
S11315F08B7F80939E027894B9CF82E065E672E097
S11316000E944F0780919E028D7F80939E02ACCFF3
S113161080E066E572E00E944F0780919E028E7F13
S113162080939E029FCFCF93DF93EC0187E29CEFE0
S1131630609191020E94C609688379838A839B839F
S113164080910E038D8380910F038E83809110030C
S11316508F838091110388878C81807E88608C833E
S1131660DF91CF910895CF93DF93EC0185E190E072
S1131670609191020E94C6099B01AC016881798145
S11316808A819B810E94DA09882339F0CE010E9465
S1131690220E81E0DF91CF91089585E190E06FEF14
S11316A00E94C6099B01AC01688179818A819B8172
S11316B00E94DA09882351F780E19CEF60E00E94E0
S11316C0C6099B01AC01688179818A819B810E9452
S11316D0E709882391F080919E02806280939E02A4
S11316E08D818093A20280919102809317011092C0
S11316F0180181E0DF91CF91089582E29CEF60911F
S113170091020E94C6099B01AC01688179818A819A
S11317109B810E94DA098823F1F08D8184FF14C033
S113172086E592E00E94130B81E080939E02E09193
S1131730A002F091A102309719F18D818F70099563
S113174081E0DF91CF910895CE010E94630F88E07C
S113175080939E02ECCF81E29CEF609191020E9403
S1131760C6099B01AC01688179818A819B810E94B1
S1131770DA09882339F088E080939E0281E08ACFD9
S113178081E088CF81E29CEF6FEF0E94C6099B0144
S1131790AC01688179818A819B810E94DA0988235E
S11317A051F785E29CEF609191020E94C6099B016A
S11317B0AC01688179818A819B810E94DA0988233E
S11317C049F586E29CEF609191020E94C6099B0153
S11317D0AC01688179818A819B810E94DA0988231E
S11317E061F18C818E71843059F63D8120E08E81C7
S11317F090E0822B932B22E18433920709F685E54E
S11318008093990210929302109292020E94B90856
S113181081E040CF81E0809392028D818093910298
S11318200E94411081E00E94E2046091910281E0F3
S113183070E00E94B20481E02DCF86E29CEF6FEF4E
S11318400E94C6099B01AC01688179818A819B81D0
S11318500E94DA09882329F683E29CEF60E00E9463
S1131860C6099B01AC01688179818A819B810E94B0
S1131870E709882309F40ECF9D818091910298177E
S113188009F07ECF80919202803241F0882309F0E2
S113189077CFCE010E94BC0981E0FCCE9091ED008F
S11318A080E38093ED008091EF008F738093EF00CD
S11318B09093ED0010929202CE010E94BC0981E047
S11318C0E9CEEF92FF920F931F93CF93DF937B01A7
S11318D08C01C0E0D0E0CE01880F991F8C0F9D1FB2
S11318E0FC01EE0FFF1FEE0FFF1FE80FF91FED5570
S11318F0FD4F2081318142815381C801B7010E948B
S1131900E709882361F42196C630D10521F78FEFCA
S1131910DF91CF911F910F91FF90EF9008958C2F3D
S1131920DF91CF911F910F91FF90EF900895282F91
S1131930392FD901862F972FFC018FE001900D924A
S11319408150E1F70895BC018091FD0290E09C0173
S1131950220F331F280F391FC901880F991F880FC1
S1131960991F820F931F8D559D4F0E94970C809154
S1131970FD028F5F8093FD02863010F01092FD020D
S11319800895CF93DF93EC01688179818A819B81EB
S11319900E94610C8F3FA9F090E09C01220F331F3D
S11319A0280F391FC901880F991F880F991F820FAB
S11319B0931F8D559D4FBE010E94970CDF91CF91CF
S11319C008958091FD0290E09C01220F331F280F9F
S11319D0391FC901880F991F880F991F820F931F00
S11319E08D559D4FBE010E94970C8091FD028F5F23
S11319F08093FD02863010F31092FD02DF91CF91A7
S1131A0008952091110321FD03C00E94C10C089583
S1131A100E94A30C08958091110381FF1BC02091A3
S1131A20FE028091FD022817C9F0822F8F5F8093F8
S1131A30FE0230E0C901880F991F820F931F9C0199
S1131A40220F331F220F331F280F391F2D553D4FEF
S1131A50C901089520E030E0C90108951092FE0202
S1131A601092FD0220E030E0F3CF90E0AC01440F8F
S1131A70551F480F591F9A01220F331F220F331F7E
S1131A80240F351F2D553D4FC90108950E940B0D9C
S1131A90009721F0599A2091110321FF08950E9483
S1131AA0D9020895109200031092FF02509A519A9D
S1131AB0569A579A589859985E985F980895823024
S1131AC069F0833028F0833059F0843029F0089588
S1131AD08130E9F7589A08955F9A0895599A0895BC
S1131AE05E9A0895823069F0833028F0833059F08B
S1131AF0843029F008958130E9F7589808955F9863
S1131B000895599808955E98089590910003992333
S1131B1021F0923011F080E0089590911C01292F5A
S1131B20215020931C019923B1F79AE090931C0152
S1131B30882379F080911B010E945F0D80911B0125
S1131B408F5F80931B01853078F081E080931B01C7
S1131B50089580911B010E94720D80911B018F5F7B
S1131B6080931B01853088F780E0089590910003ED
S1131B70911108950E945F0D0895909100039111B1
S1131B8008950E94720D0895662319F40E94BD0DF4
S1131B9008950E94B60D089590910003911108953F
S1131BA00E94C40D0895662369F087FF20C05F9AE0
S1131BB086FF20C05E9A85FF20C0599A84FD0DC01F
S1131BC05898089583FF0BC05F9A82FF0BC05E9AFA
S1131BD081FF0BC0599A80FFF3CF589A08955F98FC
S1131BE082FDF5CF5E9881FDF5CF5998F4CF5F98CB
S1131BF086FDE0CF5E9885FDE0CF5998DFCF9091C8
S1131C000003992311F08091FF020E94D30D0895DF
S1131C1090910003992319F0933009F0089590915D
S1131C201901992359F460E00E94D30D81E0909149
S1131C301901911180E080931901089561E00E94D7
S1131C40D30DF4CFFC0195819F709093000386819E
S1131C508F708093FF02923081F0933039F091308D
S1131C6009F0089560E00E94FF0D089580919102AB
S1131C708093FF020E94080E08950E94850D089526
S1131C80809100038230D9F0833049F0813009F02B
S1131C9008958091FF0260E00E94FF0D08958091F5
S1131CA01A01982F915090931A01882389F78AE09A
S1131CB080931A01809191020E94080E08958091E8
S1131CC0FF020E94850D813019F79091FF0299233C
S1131CD019F48093FF02089580E0FBCF9B01AC01CF
S1131CE0109202031092030310920403109205034E
S1131CF08091020390910303A0910403B091050322
S1131D0082179307A407B50704F580910203909105
S1131D100303A0910403B09105030196A11DB11D15
S1131D208093020390930303A0930403B0930503E9
S1131D308091020390910303A0910403B0910503E1
S1131D4082179307A407B50704F308958FEF84B9A6
S1131D5017B81DB88EEF85B918B81BB81EB8109205
S1131D606400089582E084BD93E095BD9AEF97BD29
S1131D7080936E001092090310920803089581E085
S1131D8080930C03089510920C0308952091080386
S1131D9030910903C90165E070E00E94691600975B
S1131DA039F4C9016AE070E00E946916009709F0ED
S1131DB008950E941109809108039091090364E138
S1131DC070E00E946916009799F70E94AE0A80910C
S1131DD008039091090362E370E00E94691600977A
S1131DE039F70E94400E08951F920F920FB60F927A
S1131DF011242F933F934F935F936F937F938F930C
S1131E009F93AF93BF93EF93FF9380910D03882328
S1131E1041F110920D0380910C03882349F18091C4
S1131E200603909107039C012F5F3F4F30930703F4
S1131E30209306036AE070E00E945516009731F182
S1131E40FF91EF91BF91AF919F918F917F916F918E
S1131E505F914F913F912F910F900FBE0F901F9064
S1131E60189581E080930D0380910C038823B9F6C3
S1131E70809108039091090301969093090380933C
S1131E8008030E94C60E0E949103DACF1092070342
S1131E901092060380910803909109030196909390
S1131EA00903809308030E949103CACF82E084BD92
S1131EB093E095BD9AEF97BD80936E00109209034D
S1131EC0109208030895FC01968127818581823050
S1131ED0D9F0833071F0813009F00895892F80950D
S1131EE0822B922320910E03922B892380930E033D
S1131EF00895892F8095822B922320911003922B91
S1131F008923809310030895892F8095822B92232F
S1131F1020910F03922B892380930F03089510922D
S1131F200E0310920F031092100382E480931103A6
S1131F301092930280911203816080931203109295
S1131F40920288E98093910208958091120380FDA2
S1131F5008950E948F0F0E947804089520919102A1
S1131F60F999FECF1FBA92BD81BD20BD0FB6F8947A
S1131F70FA9AF99A0FBE9C012F5F3F4FC901089549
S1131F80F999FECF92BD81BDF89A20B520939102B4
S1131F909C012F5F3F4FC901089520919202F99946
S1131FA0FECF1FBA92BD81BD20BD0FB6F894FA9A38
S1131FB0F99A0FBE9C012F5F3F4FC9010895F9990B
S1131FC0FECF92BD81BDF89A20B5209392029C0168
S1131FD02F5F3F4FC90108959C012F5F3F4F4091F0
S1131FE00E034095F999FECF1FBA92BD81BD40BD45
S1131FF00FB6F894FA9AF99A0FBEC9010196409166
S11320000F034095F999FECF1FBA32BD21BD40BDE3
S11320100FB6F894FA9AF99A0FBE9C012F5F3F4FBE
S1132020409110034095F999FECF1FBA92BD81BD2E
S113203040BD0FB6F894FA9AF99A0FBEC9010196F9
S1132040409111034095F999FECF1FBA32BD21BDCD
S113205040BD0FB6F894FA9AF99A0FBE9C012F5F0F
S11320603F4F409112034095F999FECF1FBA92BD9C
S113207081BD40BD0FB6F894FA9AF99A0FBEC90112
S1132080089581E090E00E94AE0F0E94CD0F0E945F
S1132090EC0F0895F8940E944110089522E18433CE
S11320A0920711F080E00895809112038E7F80934F
S11320B01203F8940E944110789481E008959C01E1
S11320C02F5F3F4FF999FECF92BD81BDF89A80B53D
S11320D0809580930E03C9010196F999FECF32BD14
S11320E021BDF89A20B5209520930F039C012F5F02
S11320F03F4FF999FECF92BD81BDF89A80B5809586
S113210080931003C9010196F999FECF32BD21BD18
S1132110F89A20B52095209311039C012F5F3F4F1F
S1132120F999FECF92BD81BDF89A80B580958093D0
S11321301203C901089581E090E00E94C00F0E943B
S1132140DF0F0E945F100895EF92FF920F931F9389
S11321507B018C0120E030E040E05FE40E947213D8
S113216087FD11C0C801B70120E030E040E05FE422
S11321700E9447120E94A2139B01AC0120503040E0
S11321804040504806C0C801B7010E94A2139B01F9
S1132190AC01B901CA011F910F91FF90EF9008950E
S11321A0A0E0B0E0E6EDF0E10C948016FC01EA0159
S11321B08081823008F438C1DB019C91923008F4AC
S11321C030C1843059F4943009F02EC191811196B4
S11321D08C911197981709F021C126C1943009F404
S11321E020C19230B1F4823009F01EC1CA01AF019E
S11321F028E0DA010D90AD01DC010D92CD012150F2
S1132200C1F7DB0111968C91119791818923898300
S11322100AC1823009F405C1C280D380DB01129661
S11322206D907C9013972481358146815781149653
S1132230ED90FD900D911C911797C6018619970991
S11322405C0197FF04C0AA24BB24A81AB90AB0E20F
S1132250AB16B1040CF061C0181619066CF5370101
S113226048010A2C04C096948794779467940A943E
S1132270D2F781E090E0A0E0B0E00A2C04C0880F1F
S1132280991FAA1FBB1F0A94D2F70197A109B1098C
S11322908E219F21A023B123EE24FF248701E39400
S11322A00097A105B10519F4EE24FF248701E6285F
S11322B0F728082919293CC00097D1F1CA0CDB1C66
S11322C039014A010A2C04C0969487947794679440
S11322D00A94D2F781E090E0A0E0B0E00A2C04C0B8
S11322E0880F991FAA1FBB1F0A94D2F70197A1094F
S11322F0B10982239323A423B52321E030E040E0F5
S113230050E00097A105B10519F420E030E0A901DF
S113231026293729482959290BC06C147D0424F433
S1132320EE24FF24870104C0630120E030E0A9010A
S11323308181FB019181891709F445C0882349F003
S1132340D801C701821B930BA40BB50B9C01AD01F3
S113235004C02E193F09400B510B57FD04C01982CC
S1132360DB82CA820BC081E08983DB82CA825095FA
S11323704095309521953F4F4F4F5F4F2C833D83C0
S11323804E835F830DC0880F991FAA1FBB1F8C83C8
S11323909D83AE83BF838A819B8101979B838A83BC
S11323A08C819D81AE81BF819C01AD012150304063
S11323B0404050402F3FEFEF3E07EFEF4E07EFE373
S11323C05E0708F30BC08983DB82CA822E0D3F1D92
S11323D0401F511F2C833D834E835F8383E088839A
S11323E02C813D814E815F8157FF1DC0DA01C901F7
S11323F081709070A070B070569547953795279569
S1132400822B932BA42BB52B8C839D83AE83BF830C
S11324108A819B8101969B838A8305C0EDE1F1E06B
S113242003C0FB0101C0FE01CF01CDB7DEB7EEE072
S11324300C949C16A0E2B0E0E0E2F2E10C94881661
S113244069837A838B839C832D833E834F83588750
S113245089E0E82EF12CEC0EFD1ECE010196B701A9
S11324600E9493158E010F5E1F4FCE010596B80191
S11324700E949315C701B801AE01475E5F4F0E94E9
S1132480D0100E94C614A096E6E00C94A416A0E214
S1132490B0E0EDE4F2E10C94881669837A838B83CF
S11324A09C832D833E834F8358878E01075F1F4F84
S11324B0CE010196B8010E94931591E1E92EF12C09
S11324C0EC0EFD1ECE010596B7010E9493158A8974
S11324D091E089278A8BC801B701AE01475E5F4F3F
S11324E00E94D0100E94C614A096E6E00C94A41694
S11324F0A0E2B0E0EEE7F2E10C947C1669837A8303
S11325008B839C832D833E834F835887CE01019612
S1132510BE01675F7F4F0E949315CE010596BE01F1
S11325206F5E7F4F0E9493159985923078F0898968
S11325308230C0F0943019F4823041F4CBC084303E
S113254019F4923079F4C6C0923051F481E02A85AE
S11325509A89291709F480E08A87CE010996BCC0BC
S1132560823051F481E02A859A89291709F480E0A0
S11325708A8BCE014196B0C06D847E848F84988806
S1132580ED88FE880F89188DE0E2F0E080E090E0AD
S1132590DC01AA24BB24650120E030E0A901B301D9
S11325A06170707061157105D1F02E0D3F1D401FD3
S11325B0511F15012601280E391E4A1E5B1E81E09B
S11325C090E0A0E0B0E02E153F054007510718F059
S11325D080E090E0DC01820D931DA41DB51DAA0CC2
S11325E0BB1CCC1CDD1C17FF09C061E0262E312C5E
S11325F0412C512CA228B328C428D528319749F05E
S1132600EE0CFF1C001F111F969487947794679417
S1132610C6CF6B897C89EB85FC856E0F7F1F6E5F4F
S11326207F4F7C8F6B8F61E0EA857A89E71709F425
S113263060E06A8F6B8D7C8D10C0FC01E170F070DE
S1132640309729F056954795379527955068B69554
S1132650A795979587956F5F7F4FB7FDEECF0CC019
S1132660880F991FAA1FBB1F57FD8160220F331FBC
S1132670441F551F615070408030E0E09E07E0E049
S1132680AE07E0E4BE0760F36B8F7C8F6FE7E62E46
S1132690F12C012D112DE822F9220A231B2360E4D9
S11326A0E616F1040105110561F487FD0AC0211540
S11326B031054105510529F0805C9F4FAF4FBF4F55
S11326C080788D8F9E8FAF8FB8A383E0898FCE01E2
S11326D0499602C08DE191E00E94C614A096E2E101
S11326E00C949816A8E1B0E0E8E7F3E10C9488169E
S11326F069837A838B839C832D833E834F8358879E
S11327008E01075F1F4FCE010196B8010E949315F9
S113271081E1E82EF12CEC0EFD1ECE010596B701E9
S11327200E9493158985823040F08989823028F08F
S1132730C801B7010E94FC1501C08FEF6896E6E05E
S11327400C94A416ACE0B0E0E8EAF3E10C948C1627
S113275069837A838B839C83CE010196BE016B5F70
S11327607F4F0E9493158D81823081F1823070F108
S1132770843021F48E81882369F10AC02F81388541
S113278037FD24C06E812F3131053CF0662311F1F1
S113279020E030E040E050E821C08EE190E0821B70
S11327A0930B29853A854B855C8504C056954795DE
S11327B0379527958A95D2F7662381F050954095F1
S11327C0309521953F4F4F4F5F4F08C020E030E0D8
S11327D0A90104C02FEF3FEF4FEF5FE7B901CA0132
S11327E02C96E2E00C94A816A8E0B0E0EAEFF3E13E
S11327F00C9486167B018C011A8261157105810582
S1132800910519F482E089835FC083E089838EE1B6
S1132810C82ED12CDC82CB82ED82FE820F831887F6
S1132820C801B7010E946C14FC013197F7FF3AC04C
S1132830AA27BB27AE1BBF0B21E030E040E050E0ED
S11328400A2E04C0220F331F441F551F0A94D2F7C7
S113285021503040404050402E213F2140235123FD
S113286061E070E080E090E02115310541055105FB
S113287019F460E070E0CB0104C016950795F79455
S1132880E794AA95D2F7E62AF72A082B192BED82AA
S1132890FE820F8318878EE190E08E1B9F0B9C8332
S11328A08B8312C0309781F00E2E04C0EE0CFF1CF7
S11328B0001F111F0A94D2F7ED82FE820F8318873E
S11328C0CE1ADF0ADC82CB82CE0101960E94C614A6
S11328D02896E8E00C94A216AF92BF92CF92DF92B2
S11328E0EF92FF920F931F937B018C0180E0E81617
S11328F080E0F80681E0080780E0180758F4EFEF5D
S1132900EE16F1040105110509F090F480E090E061
S1132910DC0117C0F0E0EF16F0E0FF06F0E00F076F
S1132920F1E01F0750F480E190E0A0E0B0E009C0BE
S113293088E090E0A0E0B0E004C088E190E0A0E08E
S1132940B0E020E230E040E050E0281B390B4A0BB5
S11329505B0B5701680104C0D694C794B794A7943D
S11329608A95D2F7D601C5018B5D9E4FFC0180810B
S1132970281B310941095109C9011F910F91FF9089
S1132980EF90DF90CF90BF90AF900895EF92FF92B9
S11329900F931F93CF93DF93FC01248135814681EC
S11329A0578161818081823020F44061EFEFF0E053
S11329B0A3C0843009F49BC0823009F492C021156D
S11329C031054105510509F48FC00280F381E02DE2
S11329D07FEFE238F7070CF05AC0C2E8DFEFCE1BF6
S11329E0DF0BCA31D1056CF579018A010C2E04C0C4
S11329F016950795F794E7940A94D2F781E090E04E
S1132A00A0E0B0E00C2E04C0880F991FAA1FBB1FC2
S1132A100A94D2F70197A109B10982239323A4232D
S1132A20B52321E030E040E050E00097A105B10576
S1132A3019F420E030E0A9012E293F29402B512B25
S1132A4003C020E030E0A901DA01C9018F7790705A
S1132A50A070B07080349105A105B10539F427FF49
S1132A6009C0205C3F4F4F4F5F4F04C0215C3F4F74
S1132A704F4F5F4FE1E0F0E0203080E0380780E026
S1132A80480780E4580728F5E0E0F0E022C0E03889
S1132A90F1056CF5E158FF4FDA01C9018F779070A9
S1132AA0A070B07080349105A105B10539F427FFF9
S1132AB009C0205C3F4F4F4F5F4F04C0215C3F4F24
S1132AC04F4F5F4F57FF05C056954795379527954C
S1132AD0319687E056954795379527958A95D1F78E
S1132AE00BC0E0E0F0E005C0E0E0F0E005C0EFEF8F
S1132AF0F0E020E030E0A9018E2F879588278795A4
S1132B00942F9F77679566276795E695A92FA82B3D
S1132B10FE2FF62B622F732F8A2F9F2FCDB7DEB790
S1132B20E6E00C94A416DC01FB012C9111963C9177
S1132B30119712968C911297482F4F7750E0982F47
S1132B40991F9927991F13966C911397862F880FB5
S1132B50892B90E0661F6627661F6183009739F50D
S1132B60211531054105510511F482E029C082E89F
S1132B709FEF9383828367E0220F331F441F551F07
S1132B806A95D1F783E0808309C0220F331F441F65
S1132B90551F82819381019793838283203080E043
S1132BA0380780E0480780E4580778F320C08F3F57
S1132BB0910579F4211531054105510519F484E095
S1132BC08083089544FF03C081E0808310C0108295
S1132BD00EC08F5790409383828383E0808387E085
S1132BE0220F331F441F551F8A95D1F75064248345
S1132BF03583468357830895FC01DB01908192302D
S1132C0008F449C08C91823008F445C0943051F4E2
S1132C1061818430B1F511962C91119730E0261B17
S1132C20310941C0843021F0923041F48230B1F155
S1132C3011968C9111978823A1F12DC06181823066
S1132C4001F111968C9111976817D9F4228133817F
S1132C5012968D919C9113978217930794F02817DD
S1132C603907BCF0248135814681578114968D91B2
S1132C709D910D90BC91A02D82179307A407B507D1
S1132C8018F4662341F00DC0281739074A075B077B
S1132C9028F4662331F021E030E005C020E030E084
S1132CA002C02FEF3FEFC9010895AA1BBB1B51E1DE
S1132CB007C0AA1FBB1FA617B70710F0A61BB70BA8
S1132CC0881F991F5A95A9F780959095BC01CD014D
S1132CD0089597FB092E07260AD077FD04D0E5DF77
S1132CE006D000201AF4709561957F4F0895F6F789
S1132CF0909581959F4F08952F923F924F925F92A6
S1132D006F927F928F929F92AF92BF92CF92DF92F7
S1132D10EF92FF920F931F93CF93DF93CDB7DEB75C
S1132D20CA1BDB0B0FB6F894DEBF0FBECDBF0994F0
S1132D302A88398848885F846E847D848C849B8447
S1132D40AA84B984C884DF80EE80FD800C811B8155
S1132D50AA81B981CE0FD11D0FB6F894DEBF0FBE84
S10D2D60CDBFED010895F894FFCFF4
S1132D6A016162636465666768696A6B6C6D6E6F3C
S1132D7A703132333411FFFFFF0101010A000000F0
S1132D8A0000000000000102020303030304040418
S1132D9A04040404040505050505050505050505DA
S1132DAA05050505050606060606060606060606BA
S1132DBA06060606060606060606060606060606A5
S1132DCA060606060607070707070707070707078A
S1132DDA0707070707070707070707070707070775
S1132DEA0707070707070707070707070707070765
S1132DFA0707070707070707070707070707070755
S1132E0A0707070707080808080808080808080839
S1132E1A0808080808080808080808080808080824
S1132E2A0808080808080808080808080808080814
S1132E3A0808080808080808080808080808080804
S1132E4A08080808080808080808080808080808F4
S1132E5A08080808080808080808080808080808E4
S1132E6A08080808080808080808080808080808D4
S1132E7A08080808080808080808080808080808C4
S1092E8A08080808080016
S9030000FC
