:100000000C9446000C9463000C9463000C94630001
:100010000C9463000C9463000C9463000C946300D4
:100020000C9463000C9463000C9463000C946300C4
:100030000C9463000C9463000C9463000C94D4192A
:100040000C9463000C9463000C94F00F0C94630008
:100050000C9463000C9463000C94ED0B0C946300FF
:100060000C9463000C9463000C9463000C94B30C28
:100070000C9463000C9463000C94630044726976E2
:100080006573204443206D6F746F720011241FBE8E
:10009000CFEFD4E0DEBFCDBF12E0A0E0B1E0EEE7ED
:1000A000F7E402C005900D92AE31B107D9F713E025
:1000B000AEE1B2E001C01D92A534B107E1F70E94A4
:1000C0002D010C94BD230C9400000F931F93CF932C
:1000D000DF93EC018B0181E191E06091C3020E940A
:1000E0000E13688379838A839B8398012F5F3F4F28
:1000F000F999FECF12BD01BDF89A80B58D83C90173
:100100000196F999FECF32BD21BDF89A20B52E8314
:100110009C012F5F3F4FF999FECF92BD81BDF89AA8
:1001200080B58F83C9010196F999FECF32BD21BDFB
:10013000F89A20B528879C012F5F3F4FF999FECF91
:1001400092BD81BDF89A80B58987C9010196F99958
:10015000FECF32BD21BDF89A20B52A879C012F5FC2
:100160003F4FF999FECF92BD81BDF89A80B58B873C
:10017000F999FECF32BD21BDF89A80B58C878C816C
:10018000807E80618C83DF91CF911F910F910895C4
:10019000CF93DF93C8E8D2E0CE0161E070E00E9427
:1001A000650080E0BE010E94CA10DF91CF910895E2
:1001B000CF93DF93C7E9D2E0CE0169E070E00E94FF
:1001C000650082E0BE010E94CA10DF91CF910895C0
:1001D000CF93DF93C8E8D2E0CE0161E170E00E94E6
:1001E000650084E0BE010E94CA10DF91CF9108959E
:1001F000CF93DF9384B780931F02F8940E948619EF
:100200000E94A01660E472E48FE090E00E944E1914
:100210000E948E0683E00E9417110E94851A0E9498
:10022000011283E393E00E94F00D86E595E00E94C1
:100230003E1378940E9492190E942E080E94E906AB
:10024000C7E9D2E0CE016BEB0E94351280E0BE011F
:100250000E94CA10DF91CF9108950E94F80060E8D3
:100260007AE186E090E00E944E1960E87AE186E04B
:1002700090E00E944E19F3CFDF93CF9300D000D0CF
:10028000CDB7DEB7A82FB92FFE013196CE01059666
:100290002D912193E817F907D9F759814A813B81BC
:1002A0002C81652F742F832F922F0F900F900F901A
:1002B0000F90CF91DF910895FC01508140E02181A2
:1002C00030E0242B352BC9010895FC01518140E019
:1002D000208130E0242B352BC9010895EF92FF9245
:1002E0000F931F93FC01618170E080E090E0CB01EF
:1002F00077276627208130E040E050E0522F4427E6
:1003000033272227622B732B842B952B328120E0FD
:10031000442737FD4095542FE380FF2400E010E090
:100320002E293F29402B512B262B372B482B592B7D
:10033000B901CA011F910F91FF90EF900895FC0140
:10034000228130E040E050E0A90133272227638179
:1003500070E080E090E0962F882777276627262B8D
:10036000372B482B592B608170E080E090E0262BE2
:10037000372B482B592B918180E0AA2797FDA09518
:10038000BA2F282B392B4A2B5B2BB901CA010895B0
:10039000CF93FC01308520E0678170E0622B732BE6
:1003A000882777FD8095982F0E94931F20E03EE2DA
:1003B00041E856E40E94551E9B01AC018AE08093FF
:1003C0003802DA01C901BF77809353029093540237
:1003D000A0935502B0935602C1E0CA01B90120E0D2
:1003E00030E0A9010E94031F181624F4C0935202A2
:1003F000CF910895C0E0C0935202CF910895CF935A
:10040000DF93EC018D818130F1F0823019F0DF91C2
:10041000CF910895CE0106960E946E016093280246
:100420007093290280932A0290932B023A8520E050
:100430008B8590E0822B932B90932D0280932C023E
:10044000DF91CF910895CE0106960E946E016093D0
:1004500022027093230280932402909325023A850E
:1004600020E08B8590E0822B932B90932702809342
:100470002602DF91CF910895CF93DF93EC0105968B
:100480000E946E01209180023091810230934F02D0
:1004900020934E020E94880990935102809350024B
:1004A000998580E02A85820F911D64E670E00E94A4
:1004B000BA22882777FD8095982F0E94931F60931A
:1004C00053027093540280935502909356020E94F7
:1004D0009E088AE080933802DF91CF910895FC0155
:1004E000358120E0668170E0622B732B882777FDD1
:1004F0008095982F0E94931F20E030E44CE156E451
:100500000E94551E262F372F482F592F2093530214
:1005100030935402409355025093560220E030E04D
:10052000A9010E94031F181634F0109252028AE0AB
:1005300080933802089581E0809352028AE080938C
:1005400038020895CF93DF93EC019D8180E06E81A6
:1005500070E0682B792B882777FD8095982F0E9473
:10056000931F20E030E44CE156E40E94551E609356
:1005700053027093540280935502909356029F81C8
:1005800080E0688570E0682B792B882777FD80955F
:10059000982F0E94931F20E030E44CE156E40E9423
:1005A000551E60935702709358028093590290939E
:1005B0005A028AE080933802DF91CF91089508951E
:1005C0001F93CF93DF93EC01162F80E065E470E07A
:1005D0004091C3020E941413DC01CB0188839983EC
:1005E000AA83BB83113059F11230A9F090E020E0CA
:1005F00030E040E080E050E01D835E838F834887D9
:1006000039872A879B878C81807E8E608C83DF91DF
:10061000CF911F9108952091280240912902822FA5
:10062000942FA0912A02B0912B02CD01AA27BB27BB
:10063000592F322F20912D0290912C02DDCF209145
:10064000220240912302822F942FA0912402B09184
:100650002502CD01AA27BB27592F322F209127022F
:1006600090912602C9CFCF93DF93EC0180E490E014
:100670006091C3020E940E139B01AC0168817981D5
:100680008A819B810E9422138823E1F08D8184FD61
:1006900009C0CE010E94FF0180E18093D002DF916A
:1006A000CF91089588E892E061E00E94E00287E936
:1006B00092E062E00E94E00283E08093D002DF914A
:1006C000CF91089581E490E06091C3020E940E13DF
:1006D0009B01AC01688179818A819B810E942213F0
:1006E000882309F076C082E490E06091C3020E9402
:1006F0000E139B01AC01688179818A819B810E94E4
:100700002213882309F06BC084E490E06091C30257
:100710000E940E139B01AC01688179818A819B81C3
:100720000E942213882309F05EC083E490E0609168
:10073000C3020E940E139B01AC01688179818A81FA
:100740009B810E942213882309F0A9CF8091400346
:1007500084FFA5CF81E790E060E00E940E139B012B
:10076000AC01688179818A819B810E942F13882343
:1007700009F495CF988580E06F8170E0682B792B24
:10078000882777FD8095982F0E94931F20E03EE2F6
:1007900041E856E40E94551E9B01AC018AE080931B
:1007A0003802DA01C901BF77809353029093540253
:1007B000A0935502B0935602C1E0CA01B90120E0EE
:1007C00030E0A9010E94031F18168CF4C093520256
:1007D00066CFCE010E943C02DF91CF910895CE01F9
:1007E0000E946F025CCFCE010E94A20258CFC0E0EF
:1007F000EDCFAF92BF92CF92DF92EF92FF920F9325
:100800001F93CF93DF93EC0186E490E06091C302E5
:100810000E940E13688379838A839B830E94FC065F
:100820006D837E838F8398876091720270917302CB
:10083000809174029091750220E030E040E251E432
:100840000E945B1DD62EC72EB82EA92E609176026F
:1008500070917702809178029091790220E030E0E7
:1008600040E251E40E945B1D162F072FF82EE92E5F
:10087000A6019501652F742F832F922FD801F701C0
:100880002B2F3A2F4F2F5E2F0E94031F1816FCF0BC
:10089000A8019701652F742F832F922F0E94871B29
:1008A00079876A8780913B0290913C029B878C8775
:1008B0008C81807E80618C83DF91CF911F910F911D
:1008C000FF90EF90DF90CF90BF90AF900895A6017A
:1008D0009501E0CF0F931F93CF93DF93EC0180E05E
:1008E00067E470E04091C3020E9414136883798327
:1008F0008A839B838091400380FD2FC0809180027A
:10090000909181029D838E83609172027091730237
:1009100080917402909175020E94871B162F072FF9
:1009200060917602709177028091780290917902BD
:100930000E94871B0F83188779876A8780913B0203
:1009400090913C029B878C878C81807E80618C8318
:10095000DF91CF911F910F91089580915F02909147
:1009600060029D838E83D0CF0F931F93DF93CF932D
:1009700000D000D0CDB7DEB78C0149835A836B839A
:100980007C8380E068E470E04091C3020E9414130D
:10099000F80160837183828393838091400380FD9B
:1009A00025C030910001F8013583332361F0FE0149
:1009B0003196D8011696CF01830F911D21912D9369
:1009C000E817F907D9F73F70330FF8018481817E6A
:1009D000832B84838E7FF80184830F900F900F9078
:1009E0000F90CF91DF911F910F91089582E0858341
:1009F0008091610290916202968387838481817ED7
:100A000084608483E7CFCF93DF93EC0180E069E4D7
:100A100070E04091C3020E941413688379838A8333
:100A20009B838091400380FD11C080913F02909193
:100A300040029D838E83909100019F70990F8C815D
:100A4000807E892B8C83DF91CF91089580916902FC
:100A500090916A029D838E83EECFCF93DF93EC015A
:100A600080E06AE470E04091C3020E94141368833E
:100A700079838A839B83809138028D838C81807EE9
:100A800082608C83DF91CF91089510924003109281
:100A900041030E94F3098FEF97E090930201809346
:100AA000010190930401809303010895813009F0BE
:100AB00008950E94B90608959C01E2E2F2E0AC01BB
:100AC0008191F999FECF1FBA52BD41BD80BD0FB6CD
:100AD000F894FA9AF99A0FBE4F5F5F4F82E0E832BE
:100AE000F80771F72A5F3F4FE8E2F2E0A901819130
:100AF000F999FECF1FBA52BD41BD80BD0FB6F89423
:100B0000FA9AF99A0FBE4F5F5F4F82E0EE32F80714
:100B100071F72A5F3F4FC9010895CF93DF939C017E
:100B2000E2E2F2E0F999FECF32BD21BDF89A40B57C
:100B300041932F5F3F4F42E0E832F40799F7EC0111
:100B40002696CE01E8E2F2E0F999FECF92BD81BD92
:100B5000F89A20B52193019622E0EE32F207A1F730
:100B60000E94140A2696CE01DF91CF910895AC0120
:100B70004F5F5F4F2091010130910201369527951B
:100B800036952795F999FECF1FBA92BD81BD20BD3C
:100B90000FB6F894FA9AF99A0FBE9A012F5F3F4F59
:100BA000809103019091040196958795969587957C
:100BB000F999FECF1FBA52BD41BD80BD0FB6F89462
:100BC000FA9AF99A0FBEC9010895AC014F5F5F4FC1
:100BD000F999FECF92BD81BDF89A80B590E0880F5B
:100BE000991F880F991F90930201809301019A0128
:100BF0002F5F3F4FF999FECF52BD41BDF89A80B5A6
:100C000090E0880F991F880F991F9093040180939B
:100C10000301C90108952091400320FD22C0AC01C9
:100C20004F5F5F4F20918102F999FECF1FBA92BDAD
:100C300081BD20BD0FB6F894FA9AF99A0FBE9A01B9
:100C40002F5F3F4F80918002F999FECF1FBA52BDAE
:100C500041BD80BD0FB6F894FA9AF99A0FBEC9014A
:100C60000895AC014F5F5F4F20916002F999FECF6C
:100C70001FBA92BD81BD20BD0FB6F894FA9AF99AB9
:100C80000FBE9A012F5F3F4F80915F02F999FECF0F
:100C9000DDCF0E94241B0E945C050E94B7050E94C4
:100CA0000B0608952091400320FF1CC0AC014F5F4C
:100CB0005F4FF999FECF92BD81BDF89A80B5109231
:100CC0005F02809360029A012F5F3F4FF999FECF38
:100CD00052BD41BDF89A80B580935F0210926002C8
:100CE000C9010895AC014F5F5F4FF999FECF92BDE6
:100CF00081BDF89A80B510928002809381029A019A
:100D00002F5F3F4FF999FECF52BD41BDF89A80B594
:100D10008093800210928102C90108950E947E1B77
:100D20000E948D050E94E5050E945206089580915B
:100D3000410390E0807F907080329105B1F0813264
:100D4000910544F08034910591F08038910559F077
:100D50008FEF0895009729F080319105C9F782E05F
:100D6000089580E0089584E1089584E008958AE07C
:100D70000895809140038295869586958370813091
:100D8000B1F0813058F08230D9F060E070E48CE945
:100D900095E441E021E00E947C18089560E070E055
:100DA00085E793E441E021E00E947C18089560E02B
:100DB00070E086E993E441E021E00E947C18089508
:100DC00060E070E08AE794E441E021E00E947C1852
:100DD000089584B1806684B987B18F7C87B90E94F9
:100DE000B90687E0809338028091400384FF03C0F6
:100DF00088E08093380208958091400380FD05C00B
:100E00000E9476090E94931F08950E94840C0E94FC
:100E1000931F0895882321F487E080933802089572
:100E200088E08093380208951092380260E070E004
:100E3000CB010E94F41860E070E0CB010E94211900
:100E400008950E940C0B882321F488E080933802D7
:100E500008950E941407089560E070E0CB010E949D
:100E6000F41860E070E0CB010E9421192D982E98B3
:100E700089E080933802089560E070E0CB010E9421
:100E8000F41860E070E0CB010E9421192D9A2E9A8F
:100E900089E0809338020895EF92FF920F931F9399
:100EA0007B018C0120E030E0A9010E94031F18168D
:100EB0008CF060E070E0CB010E94F418C801B7012B
:100EC00090580E9421192E9A2D9A1F910F91FF90F0
:100ED000EF900895C801B7010E94F41860E070E037
:100EE000CB010E9421192E9A2D9A1F910F91FF90EC
:100EF000EF900895809138028A3009F43FC08091C4
:100F0000400380FF24C00E94310C80915F029091C9
:100F100060022091400323FF20C00E94710B8823B0
:100F200011F50E949706882369F080910501909140
:100F300006019C01215030403093060120930501A9
:100F4000009759F18091D102813081F008950E947B
:100F50008D082091400323FDE0CF0E9421070E94CD
:100F6000710B8823F1F20E941407DBCF80914003BC
:100F700080FD4CC087E08093380208958091400343
:100F800081FD2DC0609153027091540280915502F1
:100F9000909156020E944C07B2CF0E949706809310
:100FA0000501109206018091410380FD35C081FD4D
:100FB00049C082FD3DC08091400380FF2AC00E944D
:100FC000310C809180029091810290937F028093F6
:100FD0007E028091D102813009F0B8CFC7CF2D9821
:100FE0002E98609153027091540280915502909115
:100FF00056020E94F4186091570270915802809135
:10100000590290915A020E94211979CF0E944906F3
:10101000B1CF0E946808D5CF88E892E00E946A04A8
:1010200080E068E872E00E94971080914103BFCF92
:1010300088E892E00E942D0584E068E872E00E9452
:101040009710B9CF88E892E00E94F90382E068E83F
:1010500072E00E94971080914103ABCF81E08093B2
:101060004D0287B18F7C87B988B18F7C88B955983C
:101070005D980E94840D0E94980D809128029091A5
:101080002902A0912A02B0912B02209122023091D4
:1010900023024091240250912502821B930BA40B42
:1010A000B50B80932E0290932F02A0933002B09341
:1010B000310280912C0290912D02209126023091D4
:1010C0002702821B930B9093330280933202089580
:1010D00020913B0230913C0230933A022093390236
:1010E000809180029091810240917E0250917F0216
:1010F000841B950B90933C0280933B0240913F02EE
:101100005091400250933E0240933D02821B930B4C
:101110009093400280933F020895809180029091C5
:1011200081020895209150023091510280918002F5
:1011300090918102281B390BC9010895209150021A
:101140003091510280918002909181028217930721
:1011500058F02817390720F48FEF80935202089532
:101160001092520280E0089581E080935202089527
:1011700080913B0290913C0290933A028093390215
:10118000809180029091810220917E0230917F02B5
:10119000821B930B90933C0280933B0208958091B5
:1011A0003F029091400290933E0280933D028091D5
:1011B0003B0290913C022091390230913A02821B0D
:1011C000930B9093400280933F020895EF92FF9219
:1011D0000F931F9360913202709133027695679559
:1011E000769567958091260290912702680F791F66
:1011F00080E090E00E9445207B018C01609180029C
:101200007091810280E090E00E944520A801970142
:101210000E942A1DA80197010E94551E1F910F913F
:10122000FF90EF900895AF92BF92CF92DF92EF922E
:10123000FF920F931F93CF93DF93EC01209128022D
:101240003091290240912A0250912B026091220292
:10125000709123028091240290912502261737076E
:101260004807590714F4CA01B9010E94931F5B0192
:101270006C0160912E0270912F028091300290914A
:1012800031020E94931F7B018C0120912C0230912E
:101290002D0280912602909127022817390708F421
:1012A000C9019E01281B390BC9016091320270915E
:1012B00033020E94A62280E090E00E9445209B011C
:1012C000AC01C801B7010E945B1D9B01AC01C601C6
:1012D000B5010E94FD1CDF91CF911F910F91FF90EE
:1012E000EF90DF90CF90BF90AF90089580918002F3
:1012F000909181020E9413090E94F31F089520E03B
:1013000030E048EC52E40E945B1D0E94F31F0895F8
:10131000AF92BF92CF92DF92EF92FF920F931F9303
:101320007B018C01609132027091330280E090E089
:101330000E9445205B016C01209128023091290216
:1013400040912A0250912B02809122029091230217
:10135000A0912402B0912502281739074A075B079C
:1013600014F4DA01C901A8019701281B390B4A0BB3
:101370005B0BCA01B90120912E0230912F024091DE
:101380003002509131020E94CD22CA01B9010E945F
:10139000931F9B01AC01C601B5010E945B1D7B013F
:1013A0008C0180912C0290912D0260912602709107
:1013B00027028617970708F4BC0180E090E00E949E
:1013C00045209B01AC01C801B7010E94FD1C0E9491
:1013D000871BCB011F910F91FF90EF90DF90CF9073
:1013E000BF90AF90089589E190E090932702809399
:1013F000260286EE93E090932D0280932C021092A9
:10140000220210922302109224021092250280E3FD
:1014100095E7A0E0B0E08093280290932902A09382
:101420002A02B0932B0208958091280290912902FC
:10143000A0912A02B0912B02209122023091230226
:101440004091240250912502821B930BA40BB50BF3
:1014500080932E0290932F02A0933002B09331021A
:1014600080912C0290912D0220912602309127022A
:10147000821B930B909333028093320208958091E4
:101480002C0290912D022091260230912702821782
:10149000930708F49C01C901089580912802909156
:1014A0002902A0912A02B0912B02209122023091B0
:1014B0002302409124025091250282179307A4072A
:1014C000B50714F49C01AD01B901CA0108958091DA
:1014D0002C0290912D02209126023091270228178C
:1014E000390708F49C01C901089580912802909160
:1014F0002902A0912A02B0912B0220912202309160
:1015000023024091240250912502281739074A07E7
:101510005B0714F49C01AD01B901CA010895E09183
:101520002C02F0912D026091260270912702E6179D
:10153000F70740F58091220290912302A0912402A6
:10154000B0912502209128023091290240912A026F
:1015500050912B02209322023093230240932402C5
:1015600050932502F0932702E093260280932802ED
:1015700090932902A0932A02B0932B0270932D021C
:1015800060932C020895EF92FF920F931F93209186
:1015900028023091290240912A0250912B02809119
:1015A000220290912302A0912402B09125027C0195
:1015B0008D01281739074A075B0714F479018A015E
:1015C00000E010E0E816F9060A071B0701F1609138
:1015D0002602709127022093220230932302409327
:1015E00024025093250220912C0230912D02309339
:1015F0002702209326028093280290932902A09329
:101600002A02B0932B0270932D0260932C021F913B
:101610000F91FF90EF900895CF93DF93EC0183E05B
:101620000E94F31684E00E94F31680915C028130E0
:10163000A1F0823001F18091260290912702C81713
:10164000D90738F180912C0290912D028C179D07BB
:1016500078F180E0DF91CF910895809126029091FA
:10166000270207968C179D07E8F410925C0280E031
:10167000DF91CF91089580912C0290912D020797D0
:10168000C817D90790F384E00E94EC1680915C02A1
:10169000E1CF83E00E94EC1681E080935C02DF9151
:1016A000CF91089583E00E94EC1680915C02D2CF26
:1016B00084E00E94EC1682E080935C02DF91CF917F
:1016C000089520910301309104012817390738F05B
:1016D0002617370710F080E0089582E0089581E032
:1016E0000895EF92FF920F931F93CF93DF93809112
:1016F0004D028823F9F46091500270915102C0911B
:101700008002D09181026C177D0719F180915B02F4
:10171000823039F18330F1F180914E0290914F0285
:101720008617970778F46C177D0720F482E0809382
:101730005B0201C080E0DF91CF911F910F91FF907C
:10174000EF900895C617D707A8F783E080935B0250
:10175000F2CF81E0DF91CF911F910F91FF90EF9039
:10176000089580E090E00E9445207B018C012DECE3
:101770003CEC4CEC5DE30E945B1D9B01AC01C8019D
:10178000B7010E942A1D0E94871BC617D707C8F001
:1017900082E0D1CF80E090E00E9445207B018C0167
:1017A0002DEC3CEC4CEC5DE30E945B1D9B01AC011D
:1017B000C801B7010E94FD1C0E94871B6C177D07A2
:1017C00050F410925B0280E0DF91CF911F910F9156
:1017D000FF90EF90089583E0AECF1F920F920FB667
:1017E0000F9211248F939F9393B180916D02882360
:1017F00069F493FF0BC094FD10C080915F0290913B
:10180000600201979093600280935F029F918F9195
:101810000F900FBE0F901F90189580915F029091CE
:10182000600201969093600280935F029F918F9176
:101830000F900FBE0F901F90189584B18C6184B9E2
:10184000EAE6F0E0808188618083E8E6F0E080816C
:1018500081608083E89AE9E6F0E08081836080839C
:101860000895EF92FF920F931F93CF93DF93C09150
:101870005F02D091600280915D0290915E029E01B4
:10188000281B390B82E390E0289FB001299F700D3F
:10189000389F700D112480E090E00E9445207B016C
:1018A0008C01609361027093620280936302909353
:1018B0006402209165023091660240916702509166
:1018C00068020E942A1D20E030E048E452E40E94B1
:1018D0005B1D6093690270936A0280936B02909320
:1018E0006C02D0935E02C0935D02E0926502F092BA
:1018F00066020093670210936802DF91CF911F91F7
:101900000F91FF90EF90089560E070E0CB01089593
:1019100020913A0330913B03C9016AE070E00E94D4
:10192000BA220097C9F0C90164E670E00E94BA22A9
:10193000009761F48091700290917102009739F4E0
:1019400081E090E09093710280937002089510926C
:1019500071021092700208950E947A0720913A0352
:1019600030913B03E0CF1F920F920FB60F921124DC
:10197000EF92FF920F931F932F933F934F935F9399
:101980006F937F938F939F93AF93BF93CF93DF9387
:10199000EF93FF9380918302982F9F5F9093830230
:1019A0008B3010F010928302809178009091790032
:1019B000D92F90E0C92FC80FD11D809182028130AC
:1019C00009F463C0813008F450C0823069F5D093C7
:1019D0007D02C0937C0260917602709177028091C3
:1019E0007802909179022DEC3CEC4CE45FE30E948C
:1019F0005B1D7B018C01BE0180E090E00E944520D0
:101A00002DEC3CEC4CE45EE30E945B1D9B01AC01C1
:101A1000C801B7010E94FD1C6093760270937702A3
:101A200080937802909379021092820282E48093EC
:101A30007C0080917A00806480937A00FF91EF911E
:101A4000DF91CF91BF91AF919F918F917F916F91D6
:101A50005F914F913F912F911F910F91FF90EF90C8
:101A60000F900FBE0F901F901895D0938102C093D6
:101A7000800281E08093820288E480937C008091E0
:101A80007A00806480937A00D9CFD0937B02C09390
:101A90007A02609172027091730280917402909147
:101AA00075022DEC3CEC4CE45FE30E945B1D7B0176
:101AB0008C01BE0180E090E00E9445202DEC3CECC2
:101AC0004CE45EE30E945B1D9B01AC01C801B701C1
:101AD0000E94FD1C609372027093730280937402E3
:101AE0009093750282E08093820289E480937C0067
:101AF00080917A00806480937A00A0CFEAE7F0E0DA
:101B00008081887F808308958BE980937A00EEE757
:101B1000F0E0808184608083EFE7F0E08081836083
:101B2000808380EA80937B0082E480937C00089528
:101B300082E480937C00EAE7F0E080818064808327
:101B40000895BC0180E090E00E944520209184022D
:101B50003091850240918602509187020E942A1D91
:101B600020910701309108014091090150910A012B
:101B70000E945B1D0895089588E480937C00809105
:101B80007A00806480937A0080917A0086FDFCCF91
:101B90008091780090917900392F20E0280F311D35
:101BA00030937B0220937A02C901089589E48093DF
:101BB0007C0080917A00806480937A0080917A0022
:101BC00086FDFCCF8091780090917900392F20E03C
:101BD000280F311D30937D0220937C02C9010895A6
:101BE0009093C0028093BF0208959093C2028093A5
:101BF000C1020895CF93DF93EDEEF0E0208182954E
:101C0000807F8083C1EFD0E03881CB01807E9070EF
:101C100096958795929582958F7089279F708927D1
:101C2000387F382BA0EFB0E08C91660F660F660FFF
:101C30008770682B38836C93A5EFB0E08C91876038
:101C40008C93A4EFB0E08C91886F8C932083DF910C
:101C5000CF910895EDEEF0E090818295807F8083B2
:101C6000A5EFB0E08C91887F8C93A4EFB0E08C91CD
:101C700087708C9390830895252F362FEDEEF0E03A
:101C800050818295807F8083862F8295869587708C
:101C9000440F440F440F482BC901807E9F719695D5
:101CA0008795929582958F7089279F708927220F3B
:101CB000220F220F372F329536953770232B770F4F
:101CC000770F770F4093F3008093F2002093F10099
:101CD0007093F00050830895FF920F931F93CF935A
:101CE000DF93F82E8B01CA0160E00E940E13C72F0C
:101CF000D82FC80160E00E940E13272F382FEDEE79
:101D0000F0E00081F294B0EFFB22F08243EF50E06C
:101D1000DA016C918D2F829586958770687F682B8C
:101D2000CE01807E9F7196958795929582958F7052
:101D300089279F708927A1EFB0E07C91FC2EFF0CD2
:101D4000FF0CFF0C7770F72AEA0168838093F2009A
:101D5000FC92C7EFD0E04881832F829586958770EB
:101D6000487F482BC901807E9F71969587959295F3
:101D700082958F7089279F708927A5EFB0E05C91CD
:101D8000220F220F220F5770252B48838093F600D5
:101D90002C930083DF91CF911F910F91FF900895B5
:101DA000EDEEF0E090818295807F8083A7EFB0E038
:101DB0008C91887F8C93A6EFB0E08C911C92A5EF5C
:101DC000B0E08C9187708C9390830895EDEEF0E0F5
:101DD00090818295807F80836093F7007093F600F6
:101DE0004093F5005093F40090830895EDEEF0E0F9
:101DF00090818295807F80836093F7007093F600D6
:101E00004093F5005093F400908308951F93CF936F
:101E1000DF93EDEEF0E01081382F3295307F308384
:101E2000CEEDD0E09881A1E0B0E002C0AA0FBB1FC8
:101E30008A95E2F79A2B9883808130836093F7002C
:101E40007093F6004093F5005093F400808320696E
:101E50002093EF00A8EDB0E08C9182608C9310830A
:101E6000DF91CF911F910895EF92FF920F931F93EF
:101E7000CF93DF9381E060E070E040E050E028E045
:101E80000E94060F6091C30281E070E00E94FA0D8B
:101E900083E060E070E040E050E028E00E94060F40
:101EA000CDEED0E0988180E3888305EF10E0F80163
:101EB0008081887F808384EFE82EF12CF701808178
:101EC00087708083988383E063E27CEF43E25CEF7A
:101ED0000E946C0E85E060E070E040E050E028E099
:101EE0000E94060F988180E58883F8018081887FB1
:101EF0008083F701808187708083988385E060E02C
:101F00007CEF40E05CEF0E946C0EDF91CF911F915F
:101F10000F91FF90EF900895EDEEF0E090818295A3
:101F2000807F80831092EF001092EE0090830895DE
:101F3000FC014091F30050E02091F2008091F1000B
:101F400090E0A091F000BA01769567957695679537
:101F500076956795608330E0220F331F2295329586
:101F6000307F3227207F3227542F44275295550F38
:101F7000507E242B352BAC015695479556954795A9
:101F800056954795242B352B328321838295880FD4
:101F9000807EA695A695A695A82BA3830895CF939A
:101FA000DF93EC010E94980F8091EF008F70282F33
:101FB000220F9C81917E922B9C83482F50E04115EB
:101FC000510559F0259620E030E09091FA00999360
:101FD0002F5F3F4F24173507C4F3DF91CF9108954A
:101FE0001F920F920FB60F9211242F933F934F938E
:101FF0005F936F937F938F939F93AF93BF93CF9391
:10200000EF93FF93C091ED004091EC0042954F702B
:102010004F3009F487C08091EC00807F8093ED0001
:102020008091EE0090E08F719070009709F440C0AD
:102030008091EE0090E082FF05C02091EE002F7E9F
:102040002093EE009C01237030702115310529F09A
:102050002091EE00277F2093EE0081FF05C02091A4
:10206000EE002B7F2093EE0080FF05C08091EE00F4
:102070008D7F8093EE00453009F44BC0413009F468
:1020800048C0433009F445C0C093ED00FF91EF9183
:10209000CF91BF91AF919F918F917F916F915F9100
:1020A0004F913F912F910F900FBE0F901F90189559
:1020B0008091EE0085FD13C08091EE0086FFE4CF95
:1020C000E091C102F091C202309709F0099581E0D8
:1020D0008093B6021092EF001092EE00D5CF81E00F
:1020E0008093B50286EA92E00E94CF0F86EA92E0E2
:1020F0000E947F14882369F486EA92E00E945016B9
:10210000E091BF02F091C002309719F086EA92E0A8
:10211000099588E98093EF008091EE008F7D809390
:10212000EE00B2CF8091DA008093DA00AFCFCF9388
:10213000DF93EB01982F9295907FF8949093ED00A8
:102140001092EE00488159816A817B810E943C0E89
:102150008C8186958F7079F0FE01359680E090E055
:1021600021912093FA0001962C8126952F7030E062
:1021700082179307ACF38091F0008B7F8093F0007F
:102180008C8186958F7080658093EF007894DF91C5
:10219000CF9108950E9497108091EE0086FFFCCFAA
:1021A00008952091F80030E04091F900942F80E0EC
:1021B000282B392BC9010895CF93DF93EC010E949E
:1021C000CF0F8F70880F9C81917E982B9C8380917C
:1021D000F80090E04091F900342F20E0822B932BFF
:1021E0009E878D87DF91CF910895833061F0843091
:1021F00030F08530D1F0853080F482E105C0813047
:1022000091F0823071F08EE08093E20084E0809360
:10221000E30083E18093E40008958630A1F786E22D
:10222000F3CF86E0F1CF82E0EFCF8EE1EDCF91E00A
:102230009093D8001092E50090E0292F2295207FFE
:102240002093ED001092EF001092EE009F5F963009
:10225000A1F790EA9093DB000E94F5100E94340FE2
:102260008091D90082FFFCCF0895882351F482E049
:102270008093E20084E08093E30083E18093E400B4
:1022800008951092E2008CE08093E30086E380934F
:10229000E4000895882351F486E08093E20084E00E
:1022A0008093E30083E18093E400089582E08093CB
:1022B000E2008CE08093E30087E38093E4000895DC
:1022C000882351F48EE08093E20084E08093E30061
:1022D00083E18093E400089586E08093E2008CE03F
:1022E0008093E30087E38093E4000895882351F40A
:1022F00082E18093E20084E08093E30083E18093B5
:10230000E400089588E08093E2008CE08093E3008D
:1023100087E38093E4000895882351F48EE180934D
:10232000E20084E08093E30083E18093E400089579
:102330008EE08093E2008CE08093E30087E380935B
:10234000E4000895882351F486E28093E20084E05B
:102350008093E30083E18093E400089582E1809319
:10236000E2008CE08093E30087E38093E40008952B
:1023700083E980937A00EEE7F0E0808188608083D3
:1023800080E880937B000895569840E050E020E07C
:1023900030E0E3E4E0937C0080917A0080648093F5
:1023A0007A0080917A0086FDFCCF8091780090E0E1
:1023B00081709070BA016F70707002C0880F991FA1
:1023C0006A95E2F7282B392B809179004F5F5F4F98
:1023D00040315105F9F6569AC901089583E060E04D
:1023E00070E040E050E028E00E94060F83E00E9489
:1023F0002A0E83E063E27CEF43E25CEF0E946C0E06
:10240000089583E980937A0080917E0088608093AC
:102410007E0080E880937B000E94C41190E090933E
:10242000C7028093C6028093C8020E94840D8091E7
:10243000C402882351F082E08093C40282E8809332
:10244000CB0281E08093C502089581E08093CB02A6
:102450000E94EE111092C3028091CB02806880939B
:10246000CB0281E08093C5020895CF93DF93EC0106
:1024700083E29CEF0E940E13688379838A839B8397
:102480008091C3028D838091C4028E838091C802A3
:102490008F838091CB0288878091CC02898780913D
:1024A00044038A878C81807E8E608C83DF91CF91FC
:1024B000089581E08093CC024091C402413059F1EB
:1024C0008091C502882339F182E08093CC0280910B
:1024D000C6029091C7029C01215030403093C70240
:1024E0002093C6020097B9F481E090E09093C70270
:1024F0008093C602442391F0423009F45AC040321E
:1025000039F1403809F447C0403431F08091CC02B1
:1025100080688093CC02089586E8FBCF83E08093A7
:10252000CC0280E28093C40287E992E06091C80205
:102530000E94351280E067E972E00E9497108CE2F9
:1025400091E09093CA028093C9024091C402D4CF13
:1025500084E08093CC02F8942091ED001092ED007D
:102560008091EE0086FF03C080E88093C4028091D2
:10257000C9029091CA0201979093CA028093C9023E
:10258000009719F484E08093C4022093ED007894BE
:102590004091C402B6CF85E08093CC0281E0809365
:1025A000C402F8940E94241B78948091CC02806825
:1025B000B0CF87E08093CC0281E08093C40287E9AA
:1025C00092E06091C3020E94351280E067E972E0F8
:1025D0000E9497104091C40292CFCF93DF93EC01F9
:1025E00084E29CEF6091C3020E940E13688379839A
:1025F0008A839B838091C3028D838C81807E8260DD
:102600008C83DF91CF910895FC0185819091C30265
:10261000891718F08F5F8093C3020895262F60E01A
:10262000782F892F922F0895382F262F872F942FB8
:10263000632F722F0895862F0895872F0895892F6D
:1026400090E00895E1E0621773078407950709F0A9
:10265000E0E08E2F089581E0621380E00895932FCB
:10266000272F382F692F742F81E02617370709F09D
:1026700080E0089581E0491380E008959093D302AB
:102680008093D2020895CF93DF93EC0181E19CEF18
:102690006091C3020E940E13688379838A839B83AF
:1026A00084E08D838091C3028E838091CD028F83DD
:1026B0008091CE0288878C81807E88608C83DF91B8
:1026C000CF910895CF93DF93EC0182E19CEF60916D
:1026D000C3020E940E13688379838A839B8384E0FC
:1026E0008D8381E48E8381E08F839FE09887898743
:1026F0001A868C81807E8C608C83DF91CF910895C7
:10270000CF93DF93EC0183E19CEF6091C3020E94C1
:102710000E13688379838A839B8384E08D8386E5A7
:102720008E8388E78F838CE988878EED89878C81FB
:10273000807E8A608C83DF91CF910895CF93DF9361
:10274000EC0184E19CEF6091C3020E940E13688348
:1027500079838A839B838091CF028D8390E0DE0111
:1027600016969C01285F3F4FFC01E458FF4FE4910F
:10277000ED93019682179307B9F78C81807E826171
:102780008C83DF91CF9108958091D4028130D9F06C
:10279000813028F0823009F1833059F0089587E9BB
:1027A00092E00E94431382E067E972E00E94971072
:1027B000089587E992E00E949E1382E067E972E043
:1027C0000E949710089587E992E00E94621382E0C8
:1027D00067E972E00E949710089587E992E00E94ED
:1027E000801382E067E972E00E949710089580915B
:1027F000D00280FD59C081FD4CC082FD35C083FDF3
:1028000026C084FD1AC085FF0DC080910C019091F7
:102810000D019C012150304030930D0120930C019B
:10282000009709F00895F8940E94C4138091D00293
:102830008F7D8093D00278940895F8940E94490681
:102840008091D0028F7E8093D0027894DCCFF89470
:102850000E94241B84E00E94EC168091D002877FA6
:102860008093D0027894CDCFF8940E947E1B87E9A4
:1028700092E06091C3020E94351280E067E972E045
:102880000E9497108091D0028B7F8093D002789421
:10289000B6CF82E067E972E00E9497108091D00283
:1028A0008D7F8093D002A9CF80E068E872E00E941B
:1028B00097108091D0028E7F8093D0029CCFCF93CF
:1028C000DF93EC0187E29CEF6091C3020E940E133C
:1028D000688379838A839B83809140038D83809171
:1028E00041038E83809142038F83809143038887C5
:1028F0008C81807E88608C83DF91CF910895CF9307
:10290000DF93EC0185E190E06091C3020E940E1319
:102910009B01AC01688179818A819B810E9422138D
:10292000882339F0CE010E94401781E0DF91CF91DA
:10293000089585E190E06FEF0E940E139B01AC01BA
:10294000688179818A819B810E942213882351F7B3
:1029500080E19CEF60E00E940E139B01AC01688156
:1029600079818A819B810E942F13882391F0809125
:10297000D00280628093D0028D818093D4028091B6
:10298000C30280930C0110920D0181E0DF91CF9181
:10299000089582E29CEF6091C3020E940E139B0196
:1029A000AC01688179818A819B810E9422138823EE
:1029B000F1F08D8184FF14C088E892E00E945F14DA
:1029C00081E08093D002E091D202F091D30230975F
:1029D00019F18D818F70099581E0DF91CF91089574
:1029E000CE010E94431A88E08093D002ECCF81E2AE
:1029F0009CEF6091C3020E940E139B01AC016881A1
:102A000079818A819B810E942213882339F088E092
:102A10008093D00281E08ACF81E088CF81E29CEF71
:102A20006FEF0E940E139B01AC01688179818A814E
:102A30009B810E942213882351F785E29CEF6091CD
:102A4000C3020E940E139B01AC01688179818A81C7
:102A50009B810E942213882349F586E29CEF6091B6
:102A6000C3020E940E139B01AC01688179818A81A7
:102A70009B810E942213882379F18C818E7184308E
:102A800059F63D8120E08E8190E0822B932B22E14C
:102A90008433920709F685E58093CB021092C50234
:102AA0001092C4020E94011281E040CF81E0809325
:102AB000C4028D818093C3028091D002886080938C
:102AC000D00281E00E942A0E6091C30281E070E092
:102AD0000E94FA0D81E02ACF86E29CEF6FEF0E9400
:102AE0000E139B01AC01688179818A819B810E94D0
:102AF0002213882311F683E29CEF60E00E940E13FC
:102B00009B01AC01688179818A819B810E942F138E
:102B1000882309F40BCF9D818091C302981709F097
:102B20007BCF8091C402803241F0882309F074CFBA
:102B3000CE010E94041381E0F9CE9091ED0080E374
:102B40008093ED008091EF008F738093EF0090935E
:102B5000ED001092C402CE010E94041381E0E6CE83
:102B6000EF92FF920F931F93CF93DF937B018C0122
:102B7000C0E0D0E0CE01880F991F8C0F9D1FFC0193
:102B8000EE0FFF1FEE0FFF1FE80FF91FEB52FD4F77
:102B90002081318142815381C801B7010E942F13E6
:102BA000882361F42196C630D10521F78FEFDF919C
:102BB000CF911F910F91FF90EF9008958C2FDF918F
:102BC000CF911F910F91FF90EF900895282F392FEB
:102BD000D901862F972FFC018FE001900D92815033
:102BE000E1F70895BC0180912F0390E09C01220F32
:102BF000331F280F391FC901880F991F880F991F8C
:102C0000820F931F8B529D4F0E94E61580912F03D8
:102C10008F5F80932F03863010F010922F0308955A
:102C2000CF93DF93EC01688179818A819B810E9437
:102C3000B0158F3FA9F090E09C01220F331F280FA1
:102C4000391FC901880F991F880F991F820F931F81
:102C50008B529D4FBE010E94E615DF91CF910895E2
:102C600080912F0390E09C01220F331F280F391F02
:102C7000C901880F991F880F991F820F931F8B52CC
:102C80009D4FBE010E94E61580912F038F5F8093B8
:102C90002F03863010F310922F03DF91CF91089508
:102CA0002091430321FD03C00E94101608950E9445
:102CB000F21508958091430381FF1BC020913003DA
:102CC00080912F032817C9F0822F8F5F80933003E4
:102CD00030E0C901880F991F820F931F9C01220FBA
:102CE000331F220F331F280F391F2B523D4FC901AD
:102CF000089520E030E0C901089510923003109249
:102D00002F0320E030E0F3CF90E0AC01440F551FDB
:102D1000480F591F9A01220F331F220F331F240F10
:102D2000351F2B523D4FC90108950E945A16009736
:102D300019F02091430321FF08950E943303089561
:102D40001092320310923103569A579A5E985F9808
:102D50000895833029F0843009F008955F9A08952A
:102D60005E9A0895833029F0843009F008955F98C1
:102D700008955E98089590913203992321F092303E
:102D800011F080E0089590911101292F2150209396
:102D900011019923B1F79AE090931101882379F0FA
:102DA000809110010E94A916809110018F5F80937D
:102DB0001001853078F081E08093100108958091B2
:102DC00010010E94B216809110018F5F8093100154
:102DD000853088F780E0089590913203911108952D
:102DE0000E94A916089590913203911108950E94AE
:102DF000B2160895662319F40E94F31608950E94EE
:102E0000EC16089590913203911108950E94FA16DC
:102E10000895662339F087FF0EC05F9A86FD07C0CC
:102E20005E98089583FF05C05F9A82FFF9CF5E9A8E
:102E300008955F98FACF5F98F1CF9091320399236C
:102E400011F0809131030E94091708959091320387
:102E5000992319F0933009F0089590910E01992368
:102E600059F460E00E94091781E090910E019111E0
:102E700080E080930E01089561E00E940917F4CF6D
:102E8000FC0195819F709093320386818F708093AF
:102E90003103923081F0933039F0913009F0089588
:102EA00060E00E941D1708958091C3028093310352
:102EB0000E94261708950E94BB1608958091320340
:102EC0008230D9F0833049F0813009F00895809143
:102ED000310360E00E941D17089580910F01982F23
:102EE000915090930F01882389F78AE080930F0116
:102EF0008091C3020E9426170895809131030E9499
:102F0000BB16813019F790913103992319F48093FE
:102F10003103089580E0FBCF2FB7F8949093890098
:102F2000809388002FBF08952FB7F89490938B005B
:102F300080938A002FBF0895EF92FF920F931F9303
:102F40007B018C012091120130E040E050E060E014
:102F500074E284EF90E00E94CD22CA01B9010E9480
:102F6000931FA80197010E94551E0E94871BCB0149
:102F70001F910F91FF90EF9008959093140180930B
:102F80001301909387008093860008950F931F93F9
:102F9000CF93DF939B01AC0160E074E284E79BE494
:102FA0000E94551E8B01D82FC92F9E01712F832F90
:102FB000922F20E03FEF4FE757E40E94031F1816BF
:102FC0000CF041C09E01602F712F832F922F20E0C3
:102FD00030E040E05EE30E945B1D20E03FEF4FE702
:102FE00057E40E94031F1816B4F59E01602F712F3D
:102FF000832F922F20E030E040E85CE30E945B1DCD
:1030000020E03FEF4FE757E40E94031F18164CF5EE
:103010009E01602F712F832F922F20E030E040E837
:103020005BE30E945B1D20E03FEF4FE757E40E9407
:10303000031F18169CF420E034E0C901DF91CF9102
:103040001F910F91089521E030E0C901DF91CF91E8
:103050001F910F91089528E030E0EFCF20E031E09C
:10306000ECCF20E430E0E9CF80349105D9F0813411
:10307000910550F021E08030920781F024E080300B
:10308000920751F08FEF08958130910549F0883013
:103090009105C1F782E0089585E0089584E00895E0
:1030A00081E0089583E00895EF92FF920F931F93BC
:1030B0007B018C012091120130E040E050E060E0A3
:1030C00074E284EF90E00E94CD22CA01B9010E940F
:1030D000931FA80197010E94551E0E94871B7093A1
:1030E00014016093130170938700609386001F9111
:1030F0000F91FF90EF900895EF92FF920F931F931F
:10310000CF93DF937B018C01C42FD22F4111529AB0
:10311000D111399A80916400877E809364008FB7C3
:10312000F89410928900109288008FBF8FB7F8949E
:1031300010928B0010928A008FBF2091120130E014
:1031400040E050E060E074E284EF90E00E94CD2225
:10315000CA01B9010E94931FA80197010E94551E40
:103160000E94871B70931401609313017093870072
:1031700060938600CC23C1F482E0D11180628093F9
:103180008000C801B7010E94C6178093120190E029
:103190000E943418886180938100DF91CF911F9144
:1031A0000F91FF90EF90089582E8E7CF9091800013
:1031B000292F2068882321F4906C90938000089533
:1031C000922F9F7B90938000089590918000292FEB
:1031D0002062882321F49063909380000895922FB9
:1031E0009F7E909380000895EF92FF920F931F931C
:1031F0007B018C0120E030E0A9010E94631F87FF62
:1032000004C017FB109517F9109560911301709188
:10321000140180E090E00E944520A80197010E94DF
:103220005B1D0E9441230E94871B8FB7F894709307
:103230008900609388008FBF1F910F91FF90EF90DE
:103240000895EF92FF920F931F937B018C0120E072
:1032500030E0A9010E94631F87FF04C017FB10958F
:1032600017F91095609113017091140180E090E0BE
:103270000E944520A80197010E945B1D0E944123E6
:103280000E94871B8FB7F89470938B0060938A001D
:103290008FBF1F910F91FF90EF9008959B01AC019C
:1032A00010923403109235031092360310923703B4
:1032B0008091340390913503A0913603B091370388
:1032C00082179307A407B50704F580913403909102
:1032D0003503A0913603B09137030196A11DB11DAE
:1032E0008093340390933503A0933603B093370350
:1032F0008091340390913503A0913603B091370348
:1033000082179307A407B50704F308958FEF84B9D4
:1033100017B81DB88EEF85B918B81BB81EB8109233
:103320006400089582E084BD93E095BD9AEF97BD57
:1033300080936E0010923B0310923A03089581E04F
:1033400080933E03089510923E03089520913A031E
:1033500030913B03C90165E070E00E94BA220097FA
:1033600039F4C9016AE070E00E94BA22009709F0BE
:1033700008950E94591280913A0390913B0364E1B1
:1033800070E00E94BA22009799F70E94F71380918B
:103390003A0390913B0362E370E00E94BA220097E7
:1033A00039F70E945E1708951F920F920FB60F9281
:1033B00011242F933F934F935F936F937F938F933A
:1033C0009F93AF93BF93EF93FF9380913F03882325
:1033D00041F110923F0380913E03882349F180918F
:1033E0003803909139039C012F5F3F4F309339038D
:1033F000209338036AE070E00E94A622009731F122
:10340000FF91EF91BF91AF919F918F917F916F91BC
:103410005F914F913F912F910F900FBE0F901F9092
:10342000189581E080933F0380913E038823B9F68D
:1034300080913A0390913B03019690933B038093D4
:103440003A030E94A6190E94880CDACF1092390321
:103450001092380380913A0390913B030196909328
:103460003B0380933A030E94880CCACF82E084BD5C
:1034700093E095BD9AEF97BD80936E0010923B0349
:1034800010923A030895FC0196812781858182304C
:10349000D9F0833071F0813009F00895892F80953B
:1034A000822B922320914003922B89238093400307
:1034B0000895892F8095822B922320914203922B8D
:1034C0008923809342030895892F8095822B92232C
:1034D00020914103922B89238093410308951092F8
:1034E0004003109241031092420382E4809343030D
:1034F0001092C5028091440381608093440310922E
:10350000C40288E98093C30208958091440380FD3A
:1035100008950E946F1A0E94450508952091C302E4
:10352000F999FECF1FBA92BD81BD20BD0FB6F894A8
:10353000FA9AF99A0FBE9C012F5F3F4FC901089577
:10354000F999FECF92BD81BDF89A20B52093C302B0
:103550009C012F5F3F4FC90108952091C402F99942
:10356000FECF1FBA92BD81BD20BD0FB6F894FA9A66
:10357000F99A0FBE9C012F5F3F4FC9010895F99939
:10358000FECF92BD81BDF89A20B52093C4029C0164
:103590002F5F3F4FC90108959C012F5F3F4F40911E
:1035A00040034095F999FECF1FBA92BD81BD40BD41
:1035B0000FB6F894FA9AF99A0FBEC9010196409194
:1035C00041034095F999FECF1FBA32BD21BD40BDE0
:1035D0000FB6F894FA9AF99A0FBE9C012F5F3F4FED
:1035E000409142034095F999FECF1FBA92BD81BD2B
:1035F00040BD0FB6F894FA9AF99A0FBEC901019628
:10360000409143034095F999FECF1FBA32BD21BDC9
:1036100040BD0FB6F894FA9AF99A0FBE9C012F5F3D
:103620003F4F409144034095F999FECF1FBA92BD98
:1036300081BD40BD0FB6F894FA9AF99A0FBE81E0A9
:1036400080931E02C901089581E090E00E948E1AC5
:103650000E94AD1A0E94CC1A0895F8940E94241B6F
:10366000089522E18433920711F080E0089580915B
:1036700044038E7F80934403F8940E94241B789423
:1036800081E008959C012F5F3F4FF999FECF92BDD5
:1036900081BDF89A80B5809580934003C901019659
:1036A000F999FECF32BD21BDF89A20B5209520931F
:1036B00041039C012F5F3F4FF999FECF92BD81BD21
:1036C000F89A80B5809580934203C9010196F999D3
:1036D000FECF32BD21BDF89A20B52095209343033B
:1036E0009C012F5F3F4FF999FECF92BD81BDF89AA3
:1036F00080B5809580934403C901089581E090E0EE
:103700000E94A01A0E94BF1A0E94421B0895EF92C5
:10371000FF920F931F937B018C0120E030E040E08B
:103720005FE40E94331F87FD11C0C801B70120E08C
:1037300030E040E05FE40E942A1D0E94F31F9B01DD
:10374000AC01205030404040504806C0C801B7018D
:103750000E94F31F9B01AC01B901CA011F910F9197
:10376000FF90EF900895A0E0B0E0E9EBFBE10C944E
:103770000E23FC01EA018081823008F438C1DB01AC
:103780009C91923008F430C1843059F4943009F09F
:103790002EC1918111968C911197981709F021C132
:1037A00026C1943009F420C19230B1F4823009F07E
:1037B0001EC1CA01AF0128E0DA010D90AD01DC01A4
:1037C0000D92CD012150C1F7DB0111968C9111971B
:1037D0009181892389830AC1823009F405C1C2809D
:1037E000D380DB0112966D907C90139724813581F4
:1037F000468157811496ED90FD900D911C9117977D
:10380000C601861997095C0197FF04C0AA24BB244E
:10381000A81AB90AB0E2AB16B1040CF061C01816D0
:1038200019066CF5370148010A2C04C09694879458
:10383000779467940A94D2F781E090E0A0E0B0E03A
:103840000A2C04C0880F991FAA1FBB1F0A94D2F725
:103850000197A109B1098E219F21A023B123EE2454
:10386000FF248701E3940097A105B10519F4EE2424
:10387000FF248701E628F728082919293CC000976A
:10388000D1F1CA0CDB1C39014A010A2C04C0969400
:103890008794779467940A94D2F781E090E0A0E04F
:1038A000B0E00A2C04C0880F991FAA1FBB1F0A94FE
:1038B000D2F70197A109B10982239323A423B52349
:1038C00021E030E040E050E00097A105B10519F497
:1038D00020E030E0A90126293729482959290BC0C1
:1038E0006C147D0424F4EE24FF24870104C06301DA
:1038F00020E030E0A9018181FB019181891709F461
:1039000045C0882349F0D801C701821B930BA40B43
:10391000B50B9C01AD0104C02E193F09400B510BA2
:1039200057FD04C01982DB82CA820BC081E0898303
:10393000DB82CA8250954095309521953F4F4F4F7D
:103940005F4F2C833D834E835F830DC0880F991F8B
:10395000AA1FBB1F8C839D83AE83BF838A819B81FB
:1039600001979B838A838C819D81AE81BF819C015D
:10397000AD0121503040404050402F3FEFEF3E0717
:10398000EFEF4E07EFE35E0708F30BC08983DB829E
:10399000CA822E0D3F1D401F511F2C833D834E8335
:1039A0005F8383E088832C813D814E815F8157FF57
:1039B0001DC0DA01C90181709070A070B070569579
:1039C000479537952795822B932BA42BB52B8C836A
:1039D0009D83AE83BF838A819B8101969B838A836B
:1039E00005C0E5E1F1E003C0FB0101C0FE01CF012C
:1039F000CDB7DEB7EEE00C942A23A0E2B0E0E3E01E
:103A0000FDE10C94162369837A838B839C832D8339
:103A10003E834F83588789E0E82EF12CEC0EFD1E83
:103A2000CE010196B7010E94E4218E010F5E1F4F67
:103A3000CE010596B8010E94E421C701B801AE018C
:103A4000475E5F4F0E94B31B0E941721A096E6E0DD
:103A50000C943223A0E2B0E0E0E3FDE10C941623E5
:103A600069837A838B839C832D833E834F8358871E
:103A70008E01075F1F4FCE010196B8010E94E4211D
:103A800091E1E92EF12CEC0EFD1ECE010596B70159
:103A90000E94E4218A8991E089278A8BC801B701B5
:103AA000AE01475E5F4F0E94B31B0E941721A09694
:103AB000E6E00C943223A0E2B0E0E1E6FDE10C94F4
:103AC0000A2369837A838B839C832D833E834F8370
:103AD0005887CE010196BE01675F7F4F0E94E421A7
:103AE000CE010596BE016F5E7F4F0E94E42199854D
:103AF000923078F089898230C0F0943019F48230A5
:103B000041F4CBC0843019F4923079F4C6C09230BD
:103B100051F481E02A859A89291709F480E08A877F
:103B2000CE010996BCC0823051F481E02A859A8981
:103B3000291709F480E08A8BCE014196B0C06D84CC
:103B40007E848F849888ED88FE880F89188DE0E246
:103B5000F0E080E090E0DC01AA24BB24650120E0D5
:103B600030E0A901B3016170707061157105D1F089
:103B70002E0D3F1D401F511F15012601280E391E15
:103B80004A1E5B1E81E090E0A0E0B0E02E153F05EC
:103B90004007510718F080E090E0DC01820D931D92
:103BA000A41DB51DAA0CBB1CCC1CDD1C17FF09C035
:103BB00061E0262E312C412C512CA228B328C42898
:103BC000D528319749F0EE0CFF1C001F111F969469
:103BD000879477946794C6CF6B897C89EB85FC8545
:103BE0006E0F7F1F6E5F7F4F7C8F6B8F61E0EA856A
:103BF0007A89E71709F460E06A8F6B8D7C8D10C0BD
:103C0000FC01E170F070309729F056954795379593
:103C100027955068B695A795979587956F5F7F4FC5
:103C2000B7FDEECF0CC0880F991FAA1FBB1F57FD11
:103C30008160220F331F441F551F61507040803038
:103C4000E0E09E07E0E0AE07E0E4BE0760F36B8FC4
:103C50007C8F6FE7E62EF12C012D112DE822F92241
:103C60000A231B2360E4E616F1040105110561F443
:103C700087FD0AC0211531054105510529F0805CF9
:103C80009F4FAF4FBF4F80788D8F9E8FAF8FB8A360
:103C900083E0898FCE01499602C085E191E00E94C0
:103CA0001721A096E2E10C942623A8E1B0E0EBE511
:103CB000FEE10C94122369837A838B839C832D838A
:103CC0003E834F8358878E01075F1F4FCE010196B9
:103CD000B8010E94E42181E1E82EF12CEC0EFD1EDA
:103CE000CE010596B7010E94E4219985923008F42F
:103CF00083C08989823008F47BC02A853A892327CA
:103D00002A87943011F0923021F4981709F06CC092
:103D100071C0843039F41D861E861F86188A1C8661
:103D20001B866AC0823019F484E0898765C08B8560
:103D30009C852B893C89821B930B9C878B872D85C7
:103D40003E854F855889ED88FE880F89188D2E1580
:103D50003F054007510738F4220F331F441F551FFA
:103D600001979C878B876FE170E0A12CB12CC12C4F
:103D7000A0E4DA2E80E090E0DC012E153F0540073C
:103D8000510740F08A299B29AC29BD292E193F09EA
:103D9000400B510BD694C794B794A794220F331FAE
:103DA000441F551F6150704041F76FE7E62EF12C1C
:103DB000012D112DE822F9220A231B2360E4E616C7
:103DC000F1040105110561F487FD0AC021153105D3
:103DD0004105510529F0805C9F4FAF4FBF4F807860
:103DE0008D879E87AF87B88B8E01075F1F4F04C0FA
:103DF000870102C005E111E0C8010E941721689601
:103E0000EAE00C942E23A8E1B0E0E9E0FFE10C9495
:103E1000162369837A838B839C832D833E834F8310
:103E200058878E01075F1F4FCE010196B8010E948F
:103E3000E42181E1E82EF12CEC0EFD1ECE01059669
:103E4000B7010E94E4218985823040F0898982305F
:103E500028F0C801B7010E944D2201C08FEF68967B
:103E6000E6E00C943223A8E1B0E0E9E3FFE10C9432
:103E7000162369837A838B839C832D833E834F83B0
:103E800058878E01075F1F4FCE010196B8010E942F
:103E9000E42181E1E82EF12CEC0EFD1ECE01059609
:103EA000B7010E94E4218985823040F089898230FF
:103EB00028F0C801B7010E944D2201C08FEF68961B
:103EC000E6E00C943223A8E1B0E0E9E6FFE10C94CF
:103ED000162369837A838B839C832D833E834F8350
:103EE00058878E01075F1F4FCE010196B8010E94CF
:103EF000E42181E1E82EF12CEC0EFD1ECE010596A9
:103F0000B7010E94E4218985823040F0898982309E
:103F100028F0C801B7010E944D2201C081E06896D7
:103F2000E6E00C943223A8E0B0E0E9E9FFE10C946C
:103F300016237B018C0183E08983D801C701882780
:103F4000B7FD83959927AA27BB27282F8A83E114D9
:103F5000F1040105110519F482E0898337C08EE16F
:103F600090E09C838B83222389F080E0E81680E038
:103F7000F80680E0080780E8180769F110950095B9
:103F8000F094E094E11CF11C011D111DED82FE82F4
:103F90000F831887C801B7010E94BD209C012150E2
:103FA00030401216130694F4022E04C0EE0CFF1CCF
:103FB000001F111F0A94D2F7ED82FE820F8318872B
:103FC0008EE190E0821B930B9C838B83CE01019644
:103FD0000E94172104C060E070E080E09FEC28960A
:103FE000E6E00C943223ACE0B0E0E9EFFFE10C94A2
:103FF0001A2369837A838B839C83CE010196BE0149
:104000006B5F7F4F0E94E4218D81823081F182308D
:1040100070F1843021F48E81882369F10AC02F81E8
:10402000388537FD24C06E812F3131053CF0662381
:1040300011F120E030E040E050E821C08EE190E056
:10404000821B930B29853A854B855C8504C0569568
:104050004795379527958A95D2F7662381F0509535
:104060004095309521953F4F4F4F5F4F08C020E05E
:1040700030E0A90104C02FEF3FEF4FEF5FE7B90138
:10408000CA012C96E2E00C943623A8E0B0E0EBE401
:10409000F0E20C9414237B018C011A8261157105E6
:1040A0008105910519F482E089835FC083E08983EB
:1040B0008EE1C82ED12CDC82CB82ED82FE820F8372
:1040C0001887C801B7010E94BD20FC013197F7FF96
:1040D0003AC0AA27BB27AE1BBF0B21E030E040E06F
:1040E00050E00A2E04C0220F331F441F551F0A94AC
:1040F000D2F721503040404050402E213F214023F4
:10410000512361E070E080E090E021153105410528
:10411000510519F460E070E0CB0104C016950795D5
:10412000F794E794AA95D2F7E62AF72A082B192BD9
:10413000ED82FE820F8318878EE190E08E1B9F0B2D
:104140009C838B8312C0309781F00E2E04C0EE0C3E
:10415000FF1C001F111F0A94D2F7ED82FE820F830D
:104160001887CE1ADF0ADC82CB82CE0101960E942C
:1041700017212896E8E00C943023AF92BF92CF929B
:10418000DF92EF92FF920F931F937B018C0180E0EF
:10419000E81680E0F80681E0080780E0180758F488
:1041A000EFEFEE16F1040105110509F090F480E03F
:1041B00090E0DC0117C0F0E0EF16F0E0FF06F0E061
:1041C0000F07F1E01F0750F480E190E0A0E0B0E0BD
:1041D00009C088E090E0A0E0B0E004C088E190E091
:1041E000A0E0B0E020E230E040E050E0281B390BD6
:1041F0004A0B5B0B5701680104C0D694C794B7946F
:10420000A7948A95D2F7D601C501835E9E4FFC0123
:104210008081281B310941095109C9011F910F9162
:10422000FF90EF90DF90CF90BF90AF900895EF9206
:10423000FF920F931F93CF93DF93FC01248135816D
:104240004681578161818081823020F44061EFEFA7
:10425000F0E0A3C0843009F49BC0823009F492C01E
:10426000211531054105510509F48FC00280F38104
:10427000E02D7FEFE238F7070CF05AC0C2E8DFEF1D
:10428000CE1BDF0BCA31D1056CF579018A010C2EEA
:1042900004C016950795F794E7940A94D2F781E045
:1042A00090E0A0E0B0E00C2E04C0880F991FAA1F78
:1042B000BB1F0A94D2F70197A109B1098223932366
:1042C000A423B52321E030E040E050E00097A105B1
:1042D000B10519F420E030E0A9012E293F29402B37
:1042E000512B03C020E030E0A901DA01C9018F772A
:1042F0009070A070B07080349105A105B10539F4BB
:1043000027FF09C0205C3F4F4F4F5F4F04C0215C27
:104310003F4F4F4F5F4FE1E0F0E0203080E0380743
:1043200080E0480780E4580728F5E0E0F0E022C08C
:10433000E038F1056CF5E158FF4FDA01C9018F77DC
:104340009070A070B07080349105A105B10539F46A
:1043500027FF09C0205C3F4F4F4F5F4F04C0215CD7
:104360003F4F4F4F5F4F57FF05C0569547953795C5
:104370002795319687E056954795379527958A95E5
:10438000D1F70BC0E0E0F0E005C0E0E0F0E005C0F0
:10439000EFEFF0E020E030E0A9018E2F879588272D
:1043A0008795942F9F77679566276795E695A92F40
:1043B000A82BFE2FF62B622F732F8A2F9F2FCDB79E
:1043C000DEB7E6E00C943223DC01FB012C91119660
:1043D0003C91119712968C911297482F4F7750E08D
:1043E000982F991F9927991F13966C911397862FD1
:1043F000880F892B90E0661F6627661F61830097F0
:1044000039F5211531054105510511F482E029C026
:1044100082E89FEF9383828367E0220F331F441F5C
:10442000551F6A95D1F783E0808309C0220F331F9F
:10443000441F551F8281938101979383828320308B
:1044400080E0380780E0480780E4580778F320C010
:104450008F3F910579F4211531054105510519F476
:1044600084E08083089544FF03C081E0808310C00E
:1044700010820EC08F5790409383828383E08083A5
:1044800087E0220F331F441F551F8A95D1F75064D0
:1044900024833583468357830895FC01DB01908193
:1044A000923008F449C08C91823008F445C09430B1
:1044B00051F461818430B1F511962C91119730E05F
:1044C000261B310941C0843021F0923041F4823002
:1044D000B1F111968C9111978823A1F12DC06181C2
:1044E000823001F111968C9111976817D9F42281CD
:1044F000338112968D919C9113978217930794F0B4
:1045000028173907BCF024813581468157811496DC
:104510008D919D910D90BC91A02D82179307A407BA
:10452000B50718F4662341F00DC0281739074A076C
:104530005B0728F4662331F021E030E005C020E07D
:1045400030E002C02FEF3FEFC9010895AA1BBB1B4B
:1045500051E107C0AA1FBB1FA617B70710F0A61B83
:10456000B70B881F991F5A95A9F780959095BC01A4
:10457000CD01089597FB092E07260AD077FD04D0B8
:10458000E5DF06D000201AF4709561957F4F0895FD
:10459000F6F7909581959F4F089597FB092E052674
:1045A0000ED057FD04D014D00AD0001C38F450951A
:1045B0004095309521953F4F4F4F5F4F0895F6F747
:1045C00090958095709561957F4F8F4F9F4F08957F
:1045D000A1E21A2EAA1BBB1BFD010DC0AA1FBB1F07
:1045E000EE1FFF1FA217B307E407F50720F0A21B79
:1045F000B30BE40BF50B661F771F881F991F1A94E6
:1046000069F760957095809590959B01AC01BD010F
:10461000CF0108952F923F924F925F926F927F92B7
:104620008F929F92AF92BF92CF92DF92EF92FF92C2
:104630000F931F93CF93DF93CDB7DEB7CA1BDB0B6E
:104640000FB6F894DEBF0FBECDBF09942A88398813
:1046500048885F846E847D848C849B84AA84B9841A
:10466000C884DF80EE80FD800C811B81AA81B98126
:10467000CE0FD11D0FB6F894DEBF0FBECDBFED013A
:1046800008953BD080F09F3740F491110EF44DC057
:1046900060E070E080E89FE3089526F01B16611D3E
:1046A000711D811D01C01BC0882371F4772321F087
:1046B0009850872B762F07C0662311F499270DC0D9
:1046C0009051862B70E060E02AF09A95660F771F74
:1046D000881FDAF7880F9695879597F908959F3F79
:1046E00031F0915020F4879577956795B795880FAD
:1046F000911D9695879597F9089525D0A0F0BEE76E
:10470000B91788F4BB279F3860F41616B11D672FC0
:10471000782F8827985FF7CF869577956795B11D95
:1047200093959639C8F30895E894BB2766277727B1
:10473000CB0197F9089557FD9058440F551F59F034
:104740005F3F71F04795880F97FB991F61F09F3F7E
:1047500079F087950895121613061406551FF2CFA7
:104760004695F1DF08C0161617061806991FF1CFF7
:0E47700086957105610508940895F894FFCFB1
:10477E0004FF03FF0301000000803FFFFFFF010164
:10478E00010A01FFFF00000000000000000001020E
:10479E0002030303030404040404040404050505CE
:1047AE0005050505050505050505050505060606A8
:1047BE00060606060606060606060606060606068B
:1047CE000606060606060606060606060607070778
:1047DE00070707070707070707070707070707075B
:1047EE00070707070707070707070707070707074B
:1047FE00070707070707070707070707070707073B
:10480E000707070707070707070707070708080827
:10481E00080808080808080808080808080808080A
:10482E0008080808080808080808080808080808FA
:10483E0008080808080808080808080808080808EA
:10484E0008080808080808080808080808080808DA
:10485E0008080808080808080808080808080808CA
:10486E0008080808080808080808080808080808BA
:10487E0008080808080808080808080808080808AA
:0E488E000808080808080808080808080800B4
:00000001FF
