S012000074696C745F626F6172642E73726563EE
S11300000C9446000C9463000C9463000C946300FD
S11300100C9463000C9463000C9463000C946300D0
S11300200C9463000C9463000C9463000C946300C0
S11300300C9463000C9463000C9463000C94D0142F
S11300400C9463000C9463000C94200A0C946300D9
S11300500C9463000C9463000C9463000C948A0366
S11300600C9463000C9463000C94F2110C948316AA
S11300700C9463000C9463000C94630044726976DE
S11300806573204443206D6F746F720011241FBE8A
S1130090CFEFD4E0DEBFCDBF12E0A0E0B1E0E4ECEE
S11300A0FEE302C005900D92A631B107D9F713E023
S11300B0A6E1B2E001C01D92A234B107E1F70E94AB
S11300C020010C94601F0C940000833009F0089503
S11300D00E94D2060E943603089585B78B7F85BFA0
S11300E084B1877E84B983B1886183B9089583B16B
S11300F083B10895F8940E9482140E94D11060EA9A
S113010076E881E090E00E944A140E94E50683E0CC
S11301100E94470B85E690E00E946E0D0E948115B7
S11301200E94310C8FE291E00E942008789480E0D4
S113013061E040E02CE00E9447120E943D030E94CF
S1130140D4040E945C060E948E1408950F931F939A
S1130150CF93DF9306E212E0C8010E948403CEE746
S1130160D2E0CE01B8010E946A0180E0BE010E9483
S1130170FA0ADF91CF911F910F9108950F931F9366
S1130180CF93DF9304E312E0C8010E942E05CDE86B
S1130190D2E0CE01B8010E94900180E0BE010E942D
S11301A0FA0ADF91CF911F910F9108950F931F9336
S11301B0CF93DF930CE312E0C8010E942506CEE73B
S11301C0D2E0CE01B8010E94B60180E0BE010E94D7
S11301D0FA0ADF91CF911F910F91089580E062E9AF
S11301E070E04091B9020E94440D60937E027093C6
S11301F07F0280938002909381021092830281E1B6
S11302008093840282E28093850283E38093860252
S113021084E48093870285E58093880286E6809350
S1130220890287E780938A0280918202807E8061BE
S11302308093820280E06EE772E00E94FA0A0895D9
S11302400E947A0060E878E381E090E00E944A141A
S113025060E878E381E090E00E944A14F3CF0895C7
S1130260FC01DB018C91858311968C911197868317
S113027012968C911297878313968C91139780878B
S113028014968C911497818715968C911597828773
S11302908481807E8C6084830895FC01DB01119647
S11302A08C91119785838C91868313968C911397E7
S11302B0878312968C911297808715968C91159747
S11302C0818714968C91149782878481807E8C60B8
S11302D0848308950F931F93CF93DF93EC018B01D5
S11302E081E790E06091B9020E943E0D68837983B2
S11302F08A839B83F80181818D8380818E838381AE
S11303008F83828188878581898784818A878C818C
S1130310807E8C608C83DF91CF911F910F91089523
S11303200F931F93CF93DF93EC018B0182E790E04F
S11303306091B9020E943E0D688379838A839B830E
S1130340F80181818D8380818E8383818F83828173
S113035088878581898784818A878C81807E8C6067
S11303608C83DF91CF911F910F9108950F931F9369
S1130370CF93DF93EC018B0183E790E06091B902A6
S11303800E943E0D688379838A839B83F801808170
S11303908D8381818E8382818F8383818887848109
S11303A0898785818A878C81807E8C608C83DF91AC
S11303B0CF911F910F9108950F931F93CF93DF93C4
S11303C0EC018B0184E790E06091B9020E943E0D3C
S11303D0688379838A839B83F80181818D838081FB
S11303E08E8383818F8382818887858189878481B5
S11303F08A878C81807E8C608C83DF91CF911F9162
S11304000F9108950F931F93CF93DF93EC018B010A
S113041085E790E06091B9020E943E0D688379837C
S11304208A839B83F80181818D8380818E8383817C
S11304308F83828188878581898784818A878C815B
S1130440807E8C608C83DF91CF911F910F910895F2
S11304500F931F93CF93DF93EC018B0186E790E01A
S11304606091B9020E943E0D688379838A839B83DD
S1130470F80181818D8380818E8383818F83828142
S113048088878581898784818A878C81807E8C6036
S11304908C83DF91CF911F910F9108950F931F9338
S11304A0CF93DF93EC018B0187E790E06091B90271
S11304B00E943E0D688379838A839B83F80181813E
S11304C08D8380818E8383818F83828188878581D8
S11304D0898784818A878C81807E8C608C83DF917C
S11304E0CF911F910F9108950F931F93CF93DF9393
S11304F0EC018B0188E790E06091B9020E943E0D07
S1130500688379838A839B83F80181818D838081C9
S11305108E8383818F838281888785818987848183
S11305208A878C81807E8C608C83DF91CF911F9130
S11305300F9108950F931F93CF93DF93EC018B01D9
S113054089E790E06091B9020E943E0D6883798347
S11305508A839B83F80181818D8380818E8383814B
S11305608F83828188878581898784818A878C812A
S1130570807E8C608C83DF91CF911F910F910895C1
S11305805A9880688F7B0E947A1280E00E947A12C7
S1130590809333025A9A0895CF92DF92EF92FF929A
S11305A00F931F93DF93CF9300D0CDB7DEB7E42E24
S11305B05A98806C69837A830E947A12FF24698135
S11305C07A81E114F10481F0062F172FCC24DD2465
S11305D08FEF0E947A12F80181938F010894C11C55
S11305E0D11CCE14DF04A4F35A9A0F900F90CF912C
S11305F0DF911F910F91FF90EF90DF90CF900895BE
S1130600DF93CF930F92CDB7DEB75A9869830E94D8
S11306107A126981862F0E947A125A9A0F90CF918A
S1130620DF910895682F676080E20E9400030895B7
S11306308FE160EC0E94000308958FE160E80E945E
S1130640000308958EE260E00E94000308958EE2A4
S113065060E40E94000308958EE260E80E940003B3
S113066008958EE260EC0E9400030895682F62955D
S1130670607F83E20E9400030895529A87B18F73CA
S113068087B98CE00E94101280E70E9412030E9436
S113069022030E94D2060E9436030895CF93DF936B
S11306A088E20E94C002C82FD0E089E20E94C00202
S11306B0382F20E0C20FD31FCE01DF91CF910895D0
S11306C0CF93DF938AE20E94C002C82FD0E08BE26E
S11306D00E94C002382F20E0C20FD31FCE01DF9149
S11306E0CF910895CF93DF938CE20E94C002C82F6C
S11306F0D0E08DE20E94C002382F20E0C20FD31F49
S1130700CE01DF91CF910895BC0188E246E00E94BA
S1130710CC0208951F920F920FB60F9211242F93BB
S11307203F934F935F936F937F938F939F93AF9375
S1130730BF93EF93FF93369B02C0379915C0319B4B
S113074002C00E944D04FF91EF91BF91AF919F9120
S11307508F917F916F915F914F913F912F910F9066
S11307600FBE0F901F90189586E292E00E948403BA
S11307703091260220E08091270290E0820F931F9F
S113078090932702809326023091280220E08091E2
S1130790290290E0820F931F9093290280932802EC
S11307A030912A0220E080912B0290E0820F931F67
S11307B090932B0280932A0281E080933202C3CF6C
S11307C0FC01308120E0818190E0820F931F9183AE
S11307D08083328120E0838190E0820F931F938392
S11307E08283348120E0858190E0820F931F95837A
S11307F08483089587E00E94C0020895CF93DF9315
S1130800D82FC62F81E790E06091B9020E943E0D77
S113081060938D0270938E0280938F029093900266
S1130820D0939202C093930283E38093940284E46E
S11308308093950280919102807E886080939102DA
S1130840DF91CF9108958CE00E9410120E94FA0368
S1130850609139036170282F30E0277030702115C2
S1130860310511F0662341F40E94FE0380E06DE837
S113087072E00E94C70A0895589A86E292E00E94A4
S113088084038DE892E066E272E00E946A0180E0EF
S11308906DE872E00E94C70A089508955B98880F76
S11308A0880F0E947A128FEF0E947A125B9A089541
S11308B0CF92DF92EF92FF920F931F93DF93CF9328
S11308C000D0CDB7DEB7E42E5B98880F880F69831C
S11308D07A830E947A12FF2469817A81E114F104F7
S11308E081F0062F172FCC24DD248FEF0E947A127B
S11308F0F80181938F010894C11CD11CCE14DF042C
S1130900A4F35B9A0F900F90CF91DF911F910F91F9
S1130910FF90EF90DF90CF900895DF93CF930F92E5
S1130920CDB7DEB75B98880F880F8E5F69830E940E
S11309307A126981862F0E947A125B9A0F90CF9166
S1130940DF91089582E00E944E04682F616182E085
S11309500E948D04089582E060E80E948D0462E0A4
S113096070E080E090E00E944A140895CF93C82F6D
S113097082E00E944E04897F6C2F660F682B82E010
S11309800E948D04CF91089580E00E94B6040895DA
S113099081E00E94B604089582E00E94B60408959E
S11309A083E00E94B604089580E00E941012539AD6
S11309B039980E94AB0460E47DE083E090E00E94FB
S11309C04A140E94A20460E47DE083E090E00E9467
S11309D04A140E94D00460E47DE083E090E00E9429
S11309E04A14089582E00E944E04682F616482E0F4
S11309F00E948D040895CF938DE00E944E04C82F69
S1130A008CE00E944E04282F30E05C2F40E0242B21
S1130A10352BC901CF910895CF938FE00E944E04E6
S1130A20C82F8EE00E944E04282F30E05C2F40E057
S1130A30242B352BC901CF910895CF9381E10E94D6
S1130A404E04C82F80E10E944E04282F30E05C2F12
S1130A5040E0242B352BC901CF910895BC018CE0D3
S1130A6046E00E945804089580E00E94101280918C
S1130A70390381FF1EC0599A0E94FB0490933502EA
S1130A80809334020E940C059093370280933602BF
S1130A900E941D0590933902809338028EE792E0FC
S1130AA064E372E00E94900182E06EE772E00E94CB
S1130AB0C70A8CE00E9410120895EF92FF920F93E0
S1130AC01F93CF93DF93F82ED62FC42FE22EE091FD
S1130AD03A02F0913B023196F0933B02E0933A02E2
S1130AE082E064E070E041E00E94440D60937E0285
S1130AF070937F028093800290938102F09283022C
S1130B00D0938402C0938502E092860280913A02D7
S1130B1090913B0290938702809388028EEE80939B
S1130B2089028FEF80938A0280918202807E8061A5
S1130B3080938202DF91CF911F910F91FF90EF90EC
S1130B4008951F93DF93CF9300D0CDB7DEB780E035
S1130B500E94101280E00E944E04182F81E00E942F
S1130B604E04682F82E06A830E944E04482F83E07B
S1130B7049830E944E04282F599A812F6A81498102
S1130B800E945D0580E06EE772E00E94C70A60E89B
S1130B907AE186E090E00E944A140F900F90CF9182
S1130BA0DF911F9108955C9880680E947A128FEFFC
S1130BB00E947A125C9A0895CF92DF92EF92FF928C
S1130BC00F931F93DF93CF9300D0CDB7DEB7E42EFE
S1130BD05C98806C69837A830E947A12FF2469810D
S1130BE07A81E114F10481F0062F172FCC24DD243F
S1130BF08FEF0E947A12F80181938F010894C11C2F
S1130C00D11CCE14DF04A4F35C9A0F900F90CF9103
S1130C10DF911F910F91FF90EF90DF90CF90089597
S1130C20DF93CF930F92CDB7DEB75C98880F880F10
S1130C308E5F69830E947A126981862F0E947A12DC
S1130C405C9A0F90CF91DF910895BC0183E046E058
S1130C500E94DC05089580E00E94D305682F606837
S1130C6080E00E941006089580E00E94D305682F5A
S1130C706F7780E00E9410060895CF93C82F80E01C
S1130C800E94D3058F796C2F6295660F607E682B66
S1130C9080E00E941006CF910895CF93C82F80E082
S1130CA00E94D30583766C2F660F660F682B80E055
S1130CB00E941006CF9108958CE00E941012549A5D
S1130CC086E00E944D0681E00E943D0682E060E0DD
S1130CD00E9410060895883008F00895682F6295E0
S1130CE0660F607E81E00E941006089580913903AA
S1130CF082FF08955E9A8CE00E9410128CE392E0C9
S1130D000E9425068DE892E06CE372E00E94B60131
S1130D1084E06DE872E00E94C70A08958AE00E94A8
S1130D20D305883419F090E0892F08958BE00E9450
S1130D30D3058433C1F78CE00E94D30591E083335B
S1130D4091F7F2CF0E9423040E9434050E94760694
S1130D500895809132039091330365E070E00E941E
S1130D60111E009709F00895589859985E980E94AA
S1130D70E8068823C1F3809100018150809300012B
S1130D80882389F70E94E806809300010E94A20646
S1130D90089587E48093390380913A0384618093B2
S1130DA03A03089580913A038370089580913A0339
S1130DB08C71089580913A038076089580913A0366
S1130DC0807808950E94201608950E947A16089546
S1130DD08091390382958F70089510927302109256
S1130DE0720210927502109274021092770210929D
S1130DF0760208950895089508950895DF93CF9392
S1130E0000D000D000D0CDB7DEB7FC0129833A83EF
S1130E104B835C836D837E838081918129813A81B8
S1130E20820F931F91838083828193812B813C81E4
S1130E30820F931F93838283848195812D813E81C8
S1130E40820F931F9583848326960FB6F894DEBF92
S1130E500FBECDBFCF91DF9108959C01681779072C
S1130E602CF481E0241735071CF4089580E00895DC
S1130E7080E00895EF92FF920F931F93CF93DF9337
S1130E80EC0179018A01BE01882777FD8095982FAE
S1130E900E94EA1AA80197010E94B2180E944A1BF4
S1130EA0CE01861B970B8C179D076CF46C0F7D1F6E
S1130EB081E0C617D7073CF4DF91CF911F910F91C2
S1130EC0FF90EF90089580E0DF91CF911F910F91F3
S1130ED0FF90EF9008952091010130910201821753
S1130EE093072CF4832F881F8827881F089580E098
S1130EF00895EF92FF920F931F93DF93CF93CDB793
S1130F00DEB762970FB6F894DEBF0FBECDBF4F8336
S1130F10588769877A878B879C87ED86FE860F873B
S1130F20188B298B3A8B8D859E852F813885820F6E
S1130F30931F97FD43C0959587959093790280936D
S1130F4078028F85988929853A85820F931F97FDAA
S1130F5033C09595879590937B0280937A02898913
S1130F609A892B853C85820F931F97FD23C0959505
S1130F70879590937D0280937C02DE011196E8E7C9
S1130F80F2E086E001900D928150E1F729813A81E7
S1130F904B815C816D817E8190E062960FB6F894FE
S1130FA0DEBF0FBECDBFCF91DF911F910F91FF9098
S1130FB0EF9008950196DBCF0196CBCF0196BBCF7E
S1130FC0DF93CF9300D000D000D0CDB7DEB74983F4
S1130FD05A836B837C838D839E8329813A814B81E1
S1130FE05C818D819E81449FB001459F700D549F0B
S1130FF0700D1124229FA001239F500D329F500D8C
S11310001124640F751F889F9001899F300D989F4C
S1131010300D1124620F731F882777FD8095982F58
S11310200E94EA1A0E94F61E0E944A1BCB012696D1
S11310300FB6F894DEBF0FBECDBFCF91DF910895F8
S11310409093B6028093B50208959093B80280936A
S1131050B7020895CF93DF93EDEEF0E020818295FF
S1131060807F8083C1EFD0E03881CB01807E907097
S113107096958795929582958F7089279F70892779
S1131080387F382BA0EFB0E08C91660F660F660FA7
S11310908770682B38836C93A5EFB0E08C918760E0
S11310A08C93A4EFB0E08C91886F8C932083DF91B4
S11310B0CF910895EDEEF0E090818295807F80835A
S11310C0A5EFB0E08C91887F8C93A4EFB0E08C9175
S11310D087708C9390830895252F362FEDEEF0E0E2
S11310E050818295807F8083862F82958695877034
S11310F0440F440F440F482BC901807E9F7196957D
S11311008795929582958F7089279F708927220FE2
S1131110220F220F372F329536953770232B770FF6
S1131120770F770F4093F3008093F2002093F10040
S11311307093F00050830895FF920F931F93CF9301
S1131140DF93F82E8B01CA0160E00E943E0DC72F89
S1131150D82FC80160E00E943E0D272F382FEDEEF6
S1131160F0E00081F294B0EFFB22F08243EF50E014
S1131170DA016C918D2F829586958770687F682B34
S1131180CE01807E9F7196958795929582958F70FA
S113119089279F708927A1EFB0E07C91FC2EFF0C7A
S11311A0FF0CFF0C7770F72AEA0168838093F20042
S11311B0FC92C7EFD0E04881832F82958695877093
S11311C0487F482BC901807E9F719695879592959B
S11311D082958F7089279F708927A5EFB0E05C9175
S11311E0220F220F220F5770252B48838093F6007D
S11311F02C930083DF91CF911F910F91FF9008955D
S1131200EDEEF0E090818295807F8083A7EFB0E0DF
S11312108C91887F8C93A6EFB0E08C911C92A5EF03
S1131220B0E08C9187708C9390830895EDEEF0E09C
S113123090818295807F80836093F7007093F6009D
S11312404093F5005093F40090830895EDEEF0E0A0
S113125090818295807F80836093F7007093F6007D
S11312604093F5005093F400908308951F93CF9317
S1131270DF93EDEEF0E01081382F3295307F30832C
S1131280CEEDD0E09881A1E0B0E002C0AA0FBB1F70
S11312908A95E2F79A2B9883808130836093F700D4
S11312A07093F6004093F5005093F4008083206916
S11312B02093EF00A8EDB0E08C9182608C931083B2
S11312C0DF91CF911F910895EF92FF920F931F9397
S11312D0CF93DF9381E060E070E040E050E028E0ED
S11312E00E9436096091B90281E070E00E942A08E8
S11312F083E060E070E040E050E028E00E943609BE
S1131300CDEED0E0988180E3888305EF10E0F8010A
S11313108081887F808384EFE82EF12CF70180811F
S113132087708083988383E063E27CEF43E25CEF21
S11313300E949C0885E060E070E040E050E028E016
S11313400E943609988180E58883F8018081887F2E
S11313508083F701808187708083988385E060E0D3
S11313607CEF40E05CEF0E949C08DF91CF911F91DD
S11313700F91FF90EF900895EDEEF0E0908182954B
S1131380807F80831092EF001092EE009083089586
S1131390FC014091F30050E02091F2008091F100B3
S11313A090E0A091F000BA017695679576956795DF
S11313B076956795608330E0220F331F229532952E
S11313C0307F3227207F3227542F44275295550FE0
S11313D0507E242B352BAC01569547955695479551
S11313E056954795242B352B328321838295880F7C
S11313F0807EA695A695A695A82BA3830895CF9342
S1131400DF93EC010E94C8098091EF008F70282FB0
S1131410220F9C81917E922B9C83482F50E0411592
S1131420510559F0259620E030E09091FA00999307
S11314302F5F3F4F24173507C4F3DF91CF910895F1
S11314401F920F920FB60F9211242F933F934F9335
S11314505F936F937F938F939F93AF93BF93CF9338
S1131460EF93FF93C091ED004091EC0042954F70D3
S11314704F3009F487C08091EC00807F8093ED00A9
S11314808091EE0090E08F719070009709F440C055
S11314908091EE0090E082FF05C02091EE002F7E47
S11314A02093EE009C01237030702115310529F042
S11314B02091EE00277F2093EE0081FF05C020914C
S11314C0EE002B7F2093EE0080FF05C08091EE009C
S11314D08D7F8093EE00453009F44BC0413009F410
S11314E048C0433009F445C0C093ED00FF91EF912B
S11314F0CF91BF91AF919F918F917F916F915F91A8
S11315004F913F912F910F900FBE0F901F90189500
S11315108091EE0085FD13C08091EE0086FFE4CF3C
S1131520E091B702F091B802309709F0099581E093
S11315308093AC021092EF001092EE00D5CF81E0C0
S11315408093AB028CE992E00E94FF098CE992E05F
S11315500E94AF0E882369F48CE992E00E94801007
S1131560E091B502F091B602309719F08CE992E05F
S1131570099588E98093EF008091EE008F7D809338
S1131580EE00B2CF8091DA008093DA00AFCFCF9330
S1131590DF93EB01982F9295907FF8949093ED0050
S11315A01092EE00488159816A817B810E946C0807
S11315B08C8186958F7079F0FE01359680E090E0FD
S11315C021912093FA0001962C8126952F7030E00A
S11315D082179307ACF38091F0008B7F8093F00027
S11315E08C8186958F7080658093EF007894DF916D
S11315F0CF9108950E94C70A8091EE0086FFFCCF28
S113160008952091F80030E04091F900942F80E093
S1131610282B392BC9010895CF93DF93EC010E9445
S1131620FF098F70880F9C81917E982B9C838091F9
S1131630F80090E04091F900342F20E0822B932BA6
S11316409E878D87DF91CF910895833061F0843038
S113165030F08530D1F0853080F482E105C08130EE
S113166091F0823071F08EE08093E20084E0809308
S1131670E30083E18093E40008958630A1F786E2D5
S1131680F3CF86E0F1CF82E0EFCF8EE1EDCF91E0B2
S11316909093D8001092E50090E0292F2295207FA6
S11316A02093ED001092EF001092EE009F5F9630B1
S11316B0A1F790EA9093DB000E94250B0E94640935
S11316C08091D90082FFFCCF0895882351F482E0F1
S11316D08093E20084E08093E30083E18093E4005C
S11316E008951092E2008CE08093E30086E38093F7
S11316F0E4000895882351F486E08093E20084E0B6
S11317008093E30083E18093E400089582E0809372
S1131710E2008CE08093E30087E38093E400089583
S1131720882351F48EE08093E20084E08093E30008
S113173083E18093E400089586E08093E2008CE0E6
S11317408093E30087E38093E4000895882351F4B1
S113175082E18093E20084E08093E30083E180935C
S1131760E400089588E08093E2008CE08093E30035
S113177087E38093E4000895882351F48EE18093F5
S1131780E20084E08093E30083E18093E400089521
S11317908EE08093E2008CE08093E30087E3809303
S11317A0E4000895882351F486E28093E20084E003
S11317B08093E30083E18093E400089582E18093C1
S11317C0E2008CE08093E30087E38093E4000895D3
S11317D083E980937A00EEE7F0E08081886080837B
S11317E080E880937B000895569840E050E020E024
S11317F030E0E3E4E0937C0080917A00806480939D
S11318007A0080917A0086FDFCCF8091780090E088
S113181081709070BA016F70707002C0880F991F48
S11318206A95E2F7282B392B809179004F5F5F4F3F
S113183040315105F9F6569AC901089583E060E0F4
S113184070E040E050E028E00E94360983E00E9406
S11318505A0883E063E27CEF43E25CEF0E949C0859
S1131860089583E980937A0080917E008860809354
S11318707E0080E880937B000E94F40B90E09093BC
S1131880BD028093BC028093BE020E94C116809167
S1131890BA02882351F082E08093BA0282E88093EE
S11318A0C10281E08093BB02089581E08093C1026C
S11318B00E941E0C1092B9028091C102806880932C
S11318C0C10281E08093BB020895CF93DF93EC01C2
S11318D083E29CEF0E943E0D688379838A839B8315
S11318E08091B9028D838091BA028E838091BE0269
S11318F08F838091C10288878091C20289878091F9
S11319003C038A878C81807E8E608C83DF91CF91AB
S1131910089581E08093C2024091BA02413059F1A6
S11319208091BB02882339F18091BC029091BD0261
S11319309C01215030403093BD022093BC0200979B
S1131940D1F481E090E09093BD028093BC0282E0E8
S11319508093C202442391F0423009F45AC04032C9
S113196039F1403809F447C0403431F08091C20263
S113197080688093C202089586E8FBCF83E0809359
S1131980C20280E28093BA028DE892E06091BE02C6
S11319900E94650C80E06DE872E00E94C70A8CE248
S11319A091E09093C0028093BF024091BA02D4CFD9
S11319B084E08093C202F8942091ED001092ED002F
S11319C08091EE0086FF03C080E88093BA02809184
S11319D0BF029091C00201979093C0028093BF020E
S11319E0009719F484E08093BA022093ED00789470
S11319F04091BA02B6CF85E08093C20281E0809321
S1131A00BA02F8940E94201678948091C2028068E9
S1131A10B0CF87E08093C20281E08093BA028DE860
S1131A2092E06091B9020E94650C80E06DE872E07A
S1131A300E94C70A4091BA0292CFCF93DF93EC0180
S1131A4084E29CEF6091B9020E943E0D6883798321
S1131A508A839B838091B9028D838C81807E82608E
S1131A608C83DF91CF910895FC0185819091B90217
S1131A70891718F08F5F8093B9020895262F60E0CC
S1131A80782F892F922F0895382F262F872F942F60
S1131A90632F722F0895862F0895872F0895892F15
S1131AA090E00895E1E0621773078407950709F051
S1131AB0E0E08E2F089581E0621380E00895932F73
S1131AC0272F382F692F742F81E02617370709F045
S1131AD080E0089581E0491380E008959093C9025D
S1131AE08093C8020895CF93DF93EC0181E19CEFCA
S1131AF06091B9020E943E0D688379838A839B8337
S1131B0082E08D838091B9028E838091C3028F839A
S1131B108091C40288878C81807E88608C83DF9169
S1131B20CF910895CF93DF93EC0182E19CEF609114
S1131B30B9020E943E0D688379838A839B8382E085
S1131B408D8381E48E8381E08F839FE098878987EA
S1131B501A868C81807E8C608C83DF91CF9108956E
S1131B60CF93DF93EC0183E19CEF6091B9020E9473
S1131B703E0D688379838A839B8382E08D8386E527
S1131B808E8388E78F838CE988878EED89878C81A3
S1131B90807E8A608C83DF91CF910895CF93DF9309
S1131BA0EC0184E19CEF6091B9020E943E0D6883D0
S1131BB079838A839B838091C5028D8390E0DE01C3
S1131BC016969C01285F3F4FFC01E458FF4FE491B7
S1131BD0ED93019682179307B9F78C81807E826119
S1131BE08C83DF91CF9108958091CA028130D9F01E
S1131BF0813028F0823009F1833059F008958DE85E
S1131C0092E00E94730D82E06DE872E00E94C70AC0
S1131C1008958DE892E00E94CE0D82E06DE872E0B6
S1131C200E94C70A08958DE892E00E94920D82E016
S1131C306DE872E00E94C70A08958DE892E00E9460
S1131C40B00D82E06DE872E00E94C70A08958091A9
S1131C50C60280FD59C081FD4CC082FD35C083FDA4
S1131C6026C084FD1AC085FF0DC0809104019091A7
S1131C7005019C012150304030930501209304015B
S1131C80009709F00895F8940E94F40D8091C6021B
S1131C908F7D8093C60278940895F8940E94E2069A
S1131CA08091C6028F7E8093C6027894DCCFF8942C
S1131CB00E94201684E00E9435118091C602877F1D
S1131CC08093C6027894CDCFF8940E947A168DE85A
S1131CD092E06091B9020E94650C80E06DE872E0C8
S1131CE00E94C70A8091C6028B7F8093C6027894B3
S1131CF0B6CF82E06DE872E00E94C70A8091C60206
S1131D008D7F8093C602A9CF80E06EE772E00E94C7
S1131D10C70A8091C6028E7F8093C6029CCFCF9360
S1131D20DF93EC0187E29CEF6091B9020E943E0DC3
S1131D30688379838A839B83809138038D83809120
S1131D4039038E8380913A038F8380913B03888784
S1131D508C81807E88608C83DF91CF910895CF93AE
S1131D60DF93EC0185E190E06091B9020E943E0DA1
S1131D709B01AC01688179818A819B810E94520D0B
S1131D80882339F0CE010E94A11181E0DF91CF9127
S1131D90089585E190E06FEF0E943E0D9B01AC0138
S1131DA0688179818A819B810E94520D882351F731
S1131DB080E19CEF60E00E943E0D9B01AC016881D4
S1131DC079818A819B810E945F0D882391F08091A3
S1131DD0C60280628093C6028D818093CA0280917C
S1131DE0B902809304011092050181E0DF91CF9143
S1131DF0089582E29CEF6091B9020E943E0D9B011E
S1131E00AC01688179818A819B810E94520D88236B
S1131E10F1F08D8184FF14C08EE792E00E948F0E52
S1131E2081E08093C602E091C802F091C902309724
S1131E3019F18D818F70099581E0DF91CF9108951B
S1131E40CE010E943F1588E08093C602ECCF81E268
S1131E509CEF6091B9020E943E0D9B01AC01688128
S1131E6079818A819B810E94520D882339F088E010
S1131E708093C60281E08ACF81E088CF81E29CEF23
S1131E806FEF0E943E0D9B01AC01688179818A81CC
S1131E909B810E94520D882351F785E29CEF60914B
S1131EA0B9020E943E0D9B01AC01688179818A814F
S1131EB09B810E94520D882349F586E29CEF609134
S1131EC0B9020E943E0D9B01AC01688179818A812F
S1131ED09B810E94520D882379F18C818E7184300C
S1131EE059F63D8120E08E8190E0822B932B22E1F4
S1131EF08433920709F685E58093C1021092BB02F0
S1131F001092BA020E94310C81E040CF81E08093AC
S1131F10BA028D818093B9028091C6028860809351
S1131F20C60281E00E945A086091B90281E070E023
S1131F300E942A0881E02ACF86E29CEF6FEF0E947C
S1131F403E0D9B01AC01688179818A819B810E944D
S1131F50520D882311F683E29CEF60E00E943E0D4F
S1131F609B01AC01688179818A819B810E945F0D0C
S1131F70882309F40BCF9D818091B902981709F049
S1131F807BCF8091BA02803241F0882309F074CF6C
S1131F90CE010E94340D81E0F9CE9091ED0080E3F2
S1131FA08093ED008091EF008F738093EF00909306
S1131FB0ED001092BA02CE010E94340D81E0E6CE0B
S1131FC0EF92FF920F931F93CF93DF937B018C01CA
S1131FD0C0E0D0E0CE01880F991F8C0F9D1FFC013B
S1131FE0EE0FFF1FEE0FFF1FE80FF91FE553FD4F24
S1131FF02081318142815381C801B7010E945F0D64
S1132000882361F42196C630D10521F78FEFDF9143
S1132010CF911F910F91FF90EF9008958C2FDF9136
S1132020CF911F910F91FF90EF900895282F392F92
S1132030D901862F972FFC018FE001900D928150DA
S1132040E1F70895BC018091250390E09C01220FE3
S1132050331F280F391FC901880F991F880F991F33
S1132060820F931F85539D4F0E9416108091250364
S11320708F5F80932503863010F010922503089516
S1132080CF93DF93EC01688179818A819B810E94DF
S1132090E00F8F3FA9F090E09C01220F331F280F1F
S11320A0391FC901880F991F880F991F820F931F29
S11320B085539D4FBE010E941610DF91CF91089564
S11320C08091250390E09C01220F331F280F391FB4
S11320D0C901880F991F880F991F820F931F855379
S11320E09D4FBE010E941610809125038F5F80933F
S11320F02503863010F310922503DF91CF910895C4
S113210020913B0321FD03C00E94401008950E94CA
S11321102210089580913B0381FF1BC02091260368
S1132120809125032817C9F0822F8F5F809326039F
S113213030E0C901880F991F820F931F9C01220F61
S1132140331F220F331F280F391F25533D4FC90159
S1132150089520E030E0C9010895109226031092FA
S1132160250320E030E0F3CF90E0AC01440F551F8D
S1132170480F591F9A01220F331F220F331F240FB8
S1132180351F25533D4FC90108950E948A100097B9
S113219021F0599A20913B0321FF08950E942F01B9
S11321A008951092280310922703509A519A569A30
S11321B0579A589859985E985F980895823069F0B4
S11321C0833028F0833059F0843029F00895813029
S11321D0E9F7589A08955F9A0895599A08955E9A6E
S11321E00895823069F0833028F0833059F08430C8
S11321F029F008958130E9F7589808955F98089573
S1132200599808955E98089590912803992321F090
S1132210923011F080E0089590910901292F215006
S1132220209309019923B1F79AE090930901882337
S113223079F0809108010E94DE10809108018F5F7F
S113224080930801853078F081E080930801089537
S1132250809108010E94F110809108018F5F8093A2
S11322600801853088F780E0089590912803911142
S113227008950E94DE100895909128039111089505
S11322800E94F1100895662319F40E943C110895E8
S11322900E943511089590912803911108950E9488
S11322A043110895662369F087FF20C05F9A86FF73
S11322B020C05E9A85FF20C0599A84FD0DC05898AD
S11322C0089583FF0BC05F9A82FF0BC05E9A81FF63
S11322D00BC0599A80FFF3CF589A08955F9882FDF6
S11322E0F5CF5E9881FDF5CF5998F4CF5F9886FDC0
S11322F0E0CF5E9885FDE0CF5998DFCF9091280319
S1132300992311F0809127030E945211089590910E
S11323102803992319F0933009F008959091060148
S1132320992359F460E00E94521181E090910601D2
S1132330911180E080930601089561E00E9452119A
S1132340F4CFFC0195819F709093280386818F7050
S113235080932703923081F0933039F0913009F063
S1132360089560E00E947E1108958091B9028093DF
S113237027030E94871108950E94041108958091F3
S113238028038230D9F0833049F0813009F0089570
S11323908091270360E00E947E11089580910701D7
S11323A0982F915090930701882389F78AE08093AE
S11323B007018091B9020E94871108958091270333
S11323C00E940411813019F790912703992319F47D
S11323D080932703089580E0FBCF90932B03809391
S11323E02A0308951F920F920FB60F9211248F9310
S11323F08DB58F778DBD8F910F900FBE0F901F906D
S113240018950DB407FEFDCF8EB50895813021F0E7
S11324108CB58F7D8CBD08958CB580628CBD08957C
S11324209CB5937F982B9CBD08952CB5982F9370E1
S11324302C7F922B9CBD2DB590E095958795959515
S1132440879581702E7F822B8DBD0895882359F046
S113245085B7806885BF662371F052988AB1886118
S11324608AB938980895662361F4209A84B18D77E7
S113247084B953980895529A8AB1877E8AB9389854
S11324800895209884B1826884B9539A08951F935B
S1132490DF93CF9300D0CDB7DEB7162F2A834983BD
S11324A00E9426128CB5837F2A81822B8CBD4981A0
S11324B04130A1F08CB58F7D8CBD1123A1F48CB576
S11324C08F7E8CBD8CB580688CBD8CB580648CBDD2
S11324D00F900F90CF91DF911F9108958CB580627A
S11324E08CBD112361F38CB580618CBD82E00E94A8
S11324F01512EBCF8EBD8DB5807CE9F38EB50895B2
S11325008CB580688CBD08958CB58F778CBD08958B
S11325102FB7F89490938900809388002FBF089573
S11325202FB7F89490938B0080938A002FBF08955F
S1132530EF92FF920F931F937B018C0120910A016C
S113254030E040E050E060E074E284EF90E00E940C
S1132550241ECA01B9010E94EA1AA80197010E9427
S1132560AC190E94DE16CB011F910F91FF90EF90E2
S1132570089590930C0180930B01909387008093AE
S1132580860008950F931F93CF93DF939B01AC01B3
S113259060E074E284E79BE40E94AC198B01D82FBD
S11325A0C92F9E01712F832F922F20E03FEF4FE719
S11325B057E40E945A1A18160CF041C09E01602F6D
S11325C0712F832F922F20E030E040E05EE30E94E1
S11325D0B21820E03FEF4FE757E40E945A1A18164A
S11325E0B4F59E01602F712F832F922F20E030E0ED
S11325F040E85CE30E94B21820E03FEF4FE757E465
S11326000E945A1A18164CF59E01602F712F832FC1
S1132610922F20E030E040E85BE30E94B21820E013
S11326203FEF4FE757E40E945A1A18169CF420E033
S113263034E0C901DF91CF911F910F91089521E0FA
S113264030E0C901DF91CF911F910F91089528E0E7
S113265030E0EFCF20E031E0ECCF20E430E0E9CF10
S113266080349105D9F08134910550F021E0803017
S1132670920781F024E08030920751F08FEF0895A3
S11326808130910549F088309105C1F782E00895C1
S113269085E0089584E0089581E0089583E0089535
S11326A0EF92FF920F931F937B018C0120910A01FB
S11326B030E040E050E060E074E284EF90E00E949B
S11326C0241ECA01B9010E94EA1AA80197010E94B6
S11326D0AC190E94DE1670930C0160930B01709389
S11326E08700609386001F910F91FF90EF900895EB
S11326F0EF92FF920F931F93CF93DF937B018C0193
S1132700C42FD22F4111529AD111399A8091640069
S1132710877E809364008FB7F8941092890010929A
S113272088008FBF8FB7F89410928B0010928A00A4
S11327308FBF20910A0130E040E050E060E074E295
S113274084EF90E00E94241ECA01B9010E94EA1A93
S1132750A80197010E94AC190E94DE1670930C0127
S113276060930B017093870060938600CC23C1F4BF
S113277082E0D111806280938000C801B7010E9479
S1132780C21280930A0190E00E9430138861809302
S11327908100DF91CF911F910F91FF90EF900895E9
S11327A082E8E7CF90918000292F2068882321F4C4
S11327B0906C909380000895922F9F7B909380005B
S11327C0089590918000292F2062882321F490633A
S11327D0909380000895922F9F7E90938000089597
S11327E0EF92FF920F931F937B018C0120E030E066
S11327F0A9010E94BA1A87FF04C017FB109517F9A4
S1132800109560910B0170910C0180E090E00E94A2
S11328109C1BA80197010E94B2180E94981E0E9456
S1132820DE168FB7F89470938900609388008FBF89
S11328301F910F91FF90EF900895EF92FF920F93E5
S11328401F937B018C0120E030E0A9010E94BA1A99
S113285087FF04C017FB109517F9109560910B01C1
S113286070910C0180E090E00E949C1BA8019701EC
S11328700E94B2180E94981E0E94DE168FB7F89428
S113288070938B0060938A008FBF1F910F91FF900C
S1132890EF9008959B01AC0110922C0310922D032C
S11328A010922E0310922F0380912C0390912D03EC
S11328B0A0912E03B0912F0382179307A407B507A5
S11328C004F580912C0390912D03A0912E03B091D7
S11328D02F030196A11DB11D80932C0390932D030A
S11328E0A0932E03B0932F0380912C0390912D037A
S11328F0A0912E03B0912F0382179307A407B50765
S113290004F308958FEF84B917B81DB88EEF85B915
S113291018B81BB81EB810926400089582E084BDF4
S113292093E095BD9AEF97BD80936E0010923303A8
S113293010923203089581E0809336030895109233
S1132940360308952091320330913303C90165E0C1
S113295070E00E94111E009739F4C9016AE070E02A
S11329600E94111E009709F008950E94890C80911D
S113297032039091330364E170E00E94111E0097CA
S113298099F70E94270E809132039091330362E3FA
S113299070E00E94111E009739F70E94BF1108953C
S11329A01F920F920FB60F9211242F933F934F93C0
S11329B05F936F937F938F939F93AF93BF93EF93A3
S11329C0FF9380913703882341F11092370380915C
S11329D03603882349F180913003909131039C019F
S11329E02F5F3F4F30933103209330036AE070E050
S11329F00E94FD1D009731F1FF91EF91BF91AF91BE
S1132A009F918F917F916F915F914F913F912F9102
S1132A100F900FBE0F901F90189581E0809337039D
S1132A20809136038823B9F6809132039091330361
S1132A30019690933303809332030E94A2140E9460
S1132A40A906DACF10923103109230038091320339
S1132A5090913303019690933303809332030E9441
S1132A60A906CACF82E084BD93E095BD9AEF97BDD5
S1132A7080936E0010923303109232030895FC0188
S1132A809681278185818230D9F0833071F081303D
S1132A9009F00895892F8095822B92232091380381
S1132AA0922B8923809338030895892F8095822B54
S1132AB0922320913A03922B892380933A03089519
S1132AC0892F8095822B922320913903922B89237D
S1132AD080933903089510923803109239031092A9
S1132AE03A0382E480933B031092BB0280913C033F
S1132AF0816080933C031092BA0288E98093B90202
S1132B00089580913C0380FD08950E946B150E94F6
S1132B10C90608952091B902F999FECF1FBA92BD52
S1132B2081BD20BD0FB6F894FA9AF99A0FBE9C01A4
S1132B302F5F3F4FC9010895F999FECF92BD81BD22
S1132B40F89A20B52093B9029C012F5F3F4FC90129
S1132B5008952091BA02F999FECF1FBA92BD81BDA2
S1132B6020BD0FB6F894FA9AF99A0FBE9C012F5F14
S1132B703F4FC9010895F999FECF92BD81BDF89ADE
S1132B8020B52093BA029C012F5F3F4FC9010895DD
S1132B909C012F5F3F4F409138034095F999FECF38
S1132BA01FBA92BD81BD40BD0FB6F894FA9AF99A46
S1132BB00FBEC9010196409139034095F999FECFA2
S1132BC01FBA32BD21BD40BD0FB6F894FA9AF99AE6
S1132BD00FBE9C012F5F3F4F40913A034095F999F6
S1132BE0FECF1FBA92BD81BD40BD0FB6F894FA9ACC
S1132BF0F99A0FBEC901019640913B034095F9999A
S1132C00FECF1FBA32BD21BD40BD0FB6F894FA9A6B
S1132C10F99A0FBE9C012F5F3F4F40913C034095B2
S1132C20F999FECF1FBA92BD81BD40BD0FB6F8948D
S1132C30FA9AF99A0FBE81E080931602C9010895A9
S1132C4081E090E00E948A150E94A9150E94C8158F
S1132C500895F8940E942016089522E1843392077F
S1132C6011F080E0089580913C038E7F80933C03B3
S1132C70F8940E942016789481E008959C012F5FB7
S1132C803F4FF999FECF92BD81BDF89A80B58095EA
S1132C9080933803C9010196F999FECF32BD21BD55
S1132CA0F89A20B52095209339039C012F5F3F4F5C
S1132CB0F999FECF92BD81BDF89A80B58095809335
S1132CC03A03C9010196F999FECF32BD21BDF89AA4
S1132CD020B5209520933B039C012F5F3F4FF9992A
S1132CE0FECF92BD81BDF89A80B5809580933C0358
S1132CF0C901089581E090E00E949C150E94BB15D3
S1132D000E943E1608951F920F920FB60F9211243F
S1132D102F933F938F939F93209178003091790064
S1132D2080914103882321F580913F0390914003D2
S1132D3090933E0380933D03932F80E0820F911D77
S1132D409093400380933F0381E08093410382E4A6
S1132D5080937C0080917A00806480937A009F91B4
S1132D608F913F912F910F900FBE0F901F90189548
S1132D7010924103ECCFEAE7F0E08081887F808302
S1132D8008958BE980937A00EEE7F0E08081846017
S1132D908083EFE7F0E080818360808380EA809322
S1132DA07B0082E480937C00089582E480937C001D
S1132DB0EAE7F0E08081806480830895EF92FF92D7
S1132DC00F931F937B018C0120E030E040E05FE42F
S1132DD00E948A1A87FD11C0C801B70120E030E0C3
S1132DE040E05FE40E9481180E944A1B9B01AC01F1
S1132DF0205030404040504806C0C801B7010E94EE
S1132E004A1B9B01AC01B901CA011F910F91FF90AC
S1132E10EF900895A0E0B0E0E0E1F7E10C94651EC6
S1132E20FC01EA018081823008F438C1DB019C9105
S1132E30923008F430C1843059F4943009F02EC132
S1132E40918111968C911197981709F021C126C18F
S1132E50943009F420C19230B1F4823009F01EC1DB
S1132E60CA01AF0128E0DA010D90AD01DC010D9239
S1132E70CD012150C1F7DB0111968C9111979181FD
S1132E80892389830AC1823009F405C1C280D380B1
S1132E90DB0112966D907C901397248135814681D5
S1132EA057811496ED90FD900D911C911797C601D2
S1132EB0861997095C0197FF04C0AA24BB24A81AA9
S1132EC0B90AB0E2AB16B1040CF061C018161906C9
S1132ED06CF5370148010A2C04C0969487947794C2
S1132EE067940A94D2F781E090E0A0E0B0E00A2C65
S1132EF004C0880F991FAA1FBB1F0A94D2F7019719
S1132F00A109B1098E219F21A023B123EE24FF241E
S1132F108701E3940097A105B10519F4EE24FF2479
S1132F208701E628F728082919293CC00097D1F120
S1132F30CA0CDB1C39014A010A2C04C096948794FC
S1132F40779467940A94D2F781E090E0A0E0B0E02F
S1132F500A2C04C0880F991FAA1FBB1F0A94D2F71A
S1132F600197A109B10982239323A423B52321E066
S1132F7030E040E050E00097A105B10519F420E0ED
S1132F8030E0A90126293729482959290BC06C1496
S1132F907D0424F4EE24FF24870104C0630120E0AF
S1132FA030E0A9018181FB019181891709F445C0B1
S1132FB0882349F0D801C701821B930BA40BB50BDE
S1132FC09C01AD0104C02E193F09400B510B57FD64
S1132FD004C01982DB82CA820BC081E08983DB8250
S1132FE0CA8250954095309521953F4F4F4F5F4F82
S1132FF02C833D834E835F830DC0880F991FAA1FC6
S1133000BB1F8C839D83AE83BF838A819B81019781
S11330109B838A838C819D81AE81BF819C01AD019C
S113302021503040404050402F3FEFEF3E07EFEF3C
S11330304E07EFE35E0708F30BC08983DB82CA8285
S11330402E0D3F1D401F511F2C833D834E835F83F4
S113305083E088832C813D814E815F8157FF1DC0B1
S1133060DA01C90181709070A070B07056954795CF
S113307037952795822B932BA42BB52B8C839D837B
S1133080AE83BF838A819B8101969B838A8305C01B
S1133090EDE0F1E003C0FB0101C0FE01CF01CDB7BB
S11330A0DEB7EEE00C94811EA0E2B0E0EAE5F8E1C0
S11330B00C946D1E69837A838B839C832D833E835A
S11330C04F83588789E0E82EF12CEC0EFD1ECE01CB
S11330D00196B7010E943B1D8E010F5E1F4FCE016A
S11330E00596B8010E943B1DC701B801AE01475EB9
S11330F05F4F0E940A170E946E1CA096E6E00C9493
S1133100891EA0E2B0E0E7E8F8E10C946D1E698343
S11331107A838B839C832D833E834F8358878E01D0
S1133120075F1F4FCE010196B8010E943B1D91E13C
S1133130E92EF12CEC0EFD1ECE010596B7010E947E
S11331403B1D8A8991E089278A8BC801B701AE01AA
S1133150475E5F4F0E940A170E946E1CA096E6E02D
S11331600C94891EA0E2B0E0E8EBF8E10C94611E37
S113317069837A838B839C832D833E834F83588713
S1133180CE010196BE01675F7F4F0E943B1DCE01B9
S11331900596BE016F5E7F4F0E943B1D998592305C
S11331A078F089898230C0F0943019F4823041F487
S11331B0CBC0843019F4923079F4C6C0923051F403
S11331C081E02A859A89291709F480E08A87CE014B
S11331D00996BCC0823051F481E02A859A89291766
S11331E009F480E08A8BCE014196B0C06D847E8460
S11331F08F849888ED88FE880F89188DE0E2F0E0CE
S113320080E090E0DC01AA24BB24650120E030E0EA
S1133210A901B3016170707061157105D1F02E0DB3
S11332203F1D401F511F15012601280E391E4A1E3D
S11332305B1E81E090E0A0E0B0E02E153F05400762
S1133240510718F080E090E0DC01820D931DA41D6D
S1133250B51DAA0CBB1CCC1CDD1C17FF09C061E00A
S1133260262E312C412C512CA228B328C428D52831
S1133270319749F0EE0CFF1C001F111F96948794A0
S113328077946794C6CF6B897C89EB85FC856E0F38
S11332907F1F6E5F7F4F7C8F6B8F61E0EA857A8939
S11332A0E71709F460E06A8F6B8D7C8D10C0FC0118
S11332B0E170F070309729F056954795379527952A
S11332C05068B695A795979587956F5F7F4FB7FD23
S11332D0EECF0CC0880F991FAA1FBB1F57FD81603A
S11332E0220F331F441F551F615070408030E0E0AF
S11332F09E07E0E0AE07E0E4BE0760F36B8F7C8FCF
S11333006FE7E62EF12C012D112DE822F9220A2374
S11333101B2360E4E616F1040105110561F487FD41
S11333200AC0211531054105510529F0805C9F4FE4
S1133330AF4FBF4F80788D8F9E8FAF8FB8A383E040
S1133340898FCE01499602C08DE091E00E946E1CE7
S1133350A096E2E10C947D1EA8E1B0E0E2EBF9E175
S11333600C94691E69837A838B839C832D833E83AB
S11333704F8358878E01075F1F4FCE010196B80116
S11333800E943B1D81E1E82EF12CEC0EFD1ECE01C6
S11333900596B7010E943B1D9985923008F483C0BD
S11333A08989823008F47BC02A853A8923272A87B1
S11333B0943011F0923021F4981709F06CC071C068
S11333C0843039F41D861E861F86188A1C861B8647
S11333D06AC0823019F484E0898765C08B859C8536
S11333E02B893C89821B930B9C878B872D853E857B
S11333F04F855889ED88FE880F89188D2E153F0555
S11334004007510738F4220F331F441F551F0197FB
S11334109C878B876FE170E0A12CB12CC12CA0E4B8
S1133420DA2E80E090E0DC012E153F0540075107BD
S113343040F08A299B29AC29BD292E193F09400B4C
S1133440510BD694C794B794A794220F331F441FEB
S1133450551F6150704041F76FE7E62EF12C012DA6
S1133460112DE822F9220A231B2360E4E616F10455
S11334700105110561F487FD0AC0211531054105D7
S1133480510529F0805C9F4FAF4FBF4F80788D87E7
S11334909E87AF87B88B8E01075F1F4F04C08701DB
S11334A002C00DE011E0C8010E946E1C6896EAE0BB
S11334B00C94851EA8E1B0E0E0E6FAE10C946D1EE0
S11334C069837A838B839C832D833E834F835887C0
S11334D08E01075F1F4FCE010196B8010E943B1D6C
S11334E081E1E82EF12CEC0EFD1ECE010596B7010C
S11334F00E943B1D8985823040F08989823028F002
S1133500C801B7010E94A41D01C08FEF6896E6E0D0
S11335100C94891EA8E1B0E0E0E9FAE10C946D1E78
S113352069837A838B839C832D833E834F8358875F
S11335308E01075F1F4FCE010196B8010E943B1D0B
S113354081E1E82EF12CEC0EFD1ECE010596B701AB
S11335500E943B1D8985823040F08989823028F0A1
S1133560C801B7010E94A41D01C08FEF6896E6E070
S11335700C94891EA8E1B0E0E0ECFAE10C946D1E15
S113358069837A838B839C832D833E834F835887FF
S11335908E01075F1F4FCE010196B8010E943B1DAB
S11335A081E1E82EF12CEC0EFD1ECE010596B7014B
S11335B00E943B1D8985823040F08989823028F041
S11335C0C801B7010E94A41D01C081E06896E6E02D
S11335D00C94891EA8E0B0E0E0EFFAE10C946D1EB3
S11335E07B018C0183E08983D801C7018827B7FD5B
S11335F083959927AA27BB27282F8A83E114F104EE
S11336000105110519F482E0898337C08EE190E049
S11336109C838B83222389F080E0E81680E0F806FF
S113362080E0080780E8180769F110950095F09488
S1133630E094E11CF11C011D111DED82FE820F833B
S11336401887C801B7010E94141C9C012150304006
S11336501216130694F4022E04C0EE0CFF1C001F75
S1133660111F0A94D2F7ED82FE820F8318878EE130
S113367090E0821B930B9C838B83CE0101960E9466
S11336806E1C04C060E070E080E09FEC2896E6E0E9
S11336900C94891EACE0B0E0E0E5FBE10C94711EF3
S11336A069837A838B839C83CE010196BE016B5F11
S11336B07F4F0E943B1D8D81823081F1823070F1F9
S11336C0843021F48E81882369F10AC02F813885E2
S11336D037FD24C06E812F3131053CF0662311F192
S11336E020E030E040E050E821C08EE190E0821B11
S11336F0930B29853A854B855C8504C0569547957F
S1133700379527958A95D2F7662381F05095409591
S1133710309521953F4F4F4F5F4F08C020E030E078
S1133720A90104C02FEF3FEF4FEF5FE7B901CA01D2
S11337302C96E2E00C948D1EA8E0B0E0E2EAFBE1F6
S11337400C946B1E7B018C011A8261157105810535
S1133750910519F482E089835FC083E089838EE157
S1133760C82ED12CDC82CB82ED82FE820F83188797
S1133770C801B7010E94141CFC013197F7FF3AC03D
S1133780AA27BB27AE1BBF0B21E030E040E050E08E
S11337900A2E04C0220F331F441F551F0A94D2F768
S11337A021503040404050402E213F21402351239E
S11337B061E070E080E090E021153105410551059C
S11337C019F460E070E0CB0104C016950795F794F6
S11337D0E794AA95D2F7E62AF72A082B192BED824B
S11337E0FE820F8318878EE190E08E1B9F0B9C83D3
S11337F08B8312C0309781F00E2E04C0EE0CFF1C98
S1133800001F111F0A94D2F7ED82FE820F831887DE
S1133810CE1ADF0ADC82CB82CE0101960E946E1C96
S11338202896E8E00C94871EAF92BF92CF92DF9265
S1133830EF92FF920F931F937B018C0180E0E816B7
S113384080E0F80681E0080780E0180758F4EFEFFD
S1133850EE16F1040105110509F090F480E090E002
S1133860DC0117C0F0E0EF16F0E0FF06F0E00F0710
S1133870F1E01F0750F480E190E0A0E0B0E009C05F
S113388088E090E0A0E0B0E004C088E190E0A0E02F
S1133890B0E020E230E040E050E0281B390B4A0B56
S11338A05B0B5701680104C0D694C794B794A794DE
S11338B08A95D2F7D601C5018B5E9E4FFC018081AB
S11338C0281B310941095109C9011F910F91FF902A
S11338D0EF90DF90CF90BF90AF900895EF92FF925A
S11338E00F931F93CF93DF93FC012481358146818D
S11338F0578161818081823020F44061EFEFF0E0F4
S1133900A3C0843009F49BC0823009F492C021150D
S113391031054105510509F48FC00280F381E02D82
S11339207FEFE238F7070CF05AC0C2E8DFEFCE1B96
S1133930DF0BCA31D1056CF579018A010C2E04C064
S113394016950795F794E7940A94D2F781E090E0EE
S1133950A0E0B0E00C2E04C0880F991FAA1FBB1F63
S11339600A94D2F70197A109B10982239323A423CE
S1133970B52321E030E040E050E00097A105B10517
S113398019F420E030E0A9012E293F29402B512BC6
S113399003C020E030E0A901DA01C9018F779070FB
S11339A0A070B07080349105A105B10539F427FFEA
S11339B009C0205C3F4F4F4F5F4F04C0215C3F4F15
S11339C04F4F5F4FE1E0F0E0203080E0380780E0C7
S11339D0480780E4580728F5E0E0F0E022C0E0382A
S11339E0F1056CF5E158FF4FDA01C9018F7790704A
S11339F0A070B07080349105A105B10539F427FF9A
S1133A0009C0205C3F4F4F4F5F4F04C0215C3F4FC4
S1133A104F4F5F4F57FF05C05695479537952795EC
S1133A20319687E056954795379527958A95D1F72E
S1133A300BC0E0E0F0E005C0E0E0F0E005C0EFEF2F
S1133A40F0E020E030E0A9018E2F87958827879544
S1133A50942F9F77679566276795E695A92FA82BDE
S1133A60FE2FF62B622F732F8A2F9F2FCDB7DEB731
S1133A70E6E00C94891EDC01FB012C9111963C912B
S1133A80119712968C911297482F4F7750E0982FE8
S1133A90991F9927991F13966C911397862F880F56
S1133AA0892B90E0661F6627661F6183009739F5AE
S1133AB0211531054105510511F482E029C082E840
S1133AC09FEF9383828367E0220F331F441F551FA8
S1133AD06A95D1F783E0808309C0220F331F441F06
S1133AE0551F82819381019793838283203080E0E4
S1133AF0380780E0480780E4580778F320C08F3FF8
S1133B00910579F4211531054105510519F484E035
S1133B108083089544FF03C081E0808310C0108235
S1133B200EC08F5790409383828383E0808387E025
S1133B30220F331F441F551F8A95D1F750642483E5
S1133B403583468357830895FC01DB0190819230CD
S1133B5008F449C08C91823008F445C0943051F483
S1133B6061818430B1F511962C91119730E0261BB8
S1133B70310941C0843021F0923041F48230B1F1F6
S1133B8011968C9111978823A1F12DC06181823007
S1133B9001F111968C9111976817D9F42281338120
S1133BA012968D919C9113978217930794F028177E
S1133BB03907BCF0248135814681578114968D9153
S1133BC09D910D90BC91A02D82179307A407B50772
S1133BD018F4662341F00DC0281739074A075B071C
S1133BE028F4662331F021E030E005C020E030E025
S1133BF002C02FEF3FEFC9010895AA1BBB1B51E17F
S1133C0007C0AA1FBB1FA617B70710F0A61BB70B48
S1133C10881F991F5A95A9F780959095BC01CD01ED
S1133C20089597FB092E07260AD077FD04D0E5DF17
S1133C3006D000201AF4709561957F4F0895F6F729
S1133C40909581959F4F089597FB092E05260ED0D8
S1133C5057FD04D014D00AD0001C38F45095409578
S1133C60309521953F4F4F4F5F4F0895F6F790954C
S1133C708095709561957F4F8F4F9F4F0895A1E276
S1133C801A2EAA1BBB1BFD010DC0AA1FBB1FEE1FD2
S1133C90FF1FA217B307E407F50720F0A21BB30B1D
S1133CA0E40BF50B661F771F881F991F1A9469F799
S1133CB060957095809590959B01AC01BD01CF01F5
S1133CC008952F923F924F925F926F927F928F92BC
S1133CD09F92AF92BF92CF92DF92EF92FF920F9397
S1133CE01F93CF93DF93CDB7DEB7CA1BDB0B0FB6A1
S1133CF0F894DEBF0FBECDBF09942A88398848885E
S1133D005F846E847D848C849B84AA84B984C884F3
S1133D10DF80EE80FD800C811B81AA81B981CE0FEA
S1133D20D11D0FB6F894DEBF0FBECDBFED010895CF
S1133D303BD080F09F3740F491110EF44DC060E009
S1133D4070E080E89FE3089526F01B16611D711D45
S1133D50811D01C01BC0882371F4772321F0985082
S1133D60872B762F07C0662311F499270DC0905135
S1133D70862B70E060E02AF09A95660F771F881F03
S1133D80DAF7880F9695879597F908959F3F31F054
S1133D90915020F4879577956795B795880F911D75
S1133DA09695879597F9089571D0A0F0BEE7B91755
S1133DB088F4BB279F3860F41616B11D672F782F3F
S1133DC08827985FF7CF869577956795B11D93956A
S1133DD09639C8F30895E894BB2766277727CB0163
S1133DE097F9089511F40EF43FC0D0CF4FD0D0F31B
S1133DF09923D9F3CEF39F57550B87FF38D000246E
S1133E00A0E640EA900180585695979528F4805C86
S1133E10660F771F881F20F026173707480730F4EE
S1133E20621B730B840B202931294A2BA695179406
S1133E300794202531254A2758F7660F771F881FD6
S1133E4020F026173707480730F4620B730B840BF6
S1133E50200D311D411DA09581F7B901842F915882
S1133E60880F9695879508959FEF80EC089591505B
S1133E705040660F771F881FD2F7089557FD90585A
S1133E80440F551F59F05F3F71F04795880F97FB1A
S1133E90991F61F09F3F79F08795089512161306D4
S1133EA01406551FF2CF4695F1DF08C01616170603
S1133EB01806991FF1CF8695710561050894089538
S1073EC0F894FFCFA0
S1133EC4010040FFFFFF0101010A01FFFF000000A0
S1133ED400000000000001020203030303040404BD
S1133EE4040404040405050505050505050505057F
S1133EF4050505050506060606060606060606065F
S1133F040606060606060606060606060606060649
S1133F14060606060607070707070707070707072E
S1133F240707070707070707070707070707070719
S1133F340707070707070707070707070707070709
S1133F4407070707070707070707070707070707F9
S1133F5407070707070808080808080808080808DE
S1133F6408080808080808080808080808080808C9
S1133F7408080808080808080808080808080808B9
S1133F8408080808080808080808080808080808A9
S1133F940808080808080808080808080808080899
S1133FA40808080808080808080808080808080889
S1133FB40808080808080808080808080808080879
S1133FC40808080808080808080808080808080869
S1093FD4080808080800BB
S9030000FC
