:100000000C9495010C94230B0C94720B0C94C10B63
:100010000C94100C0C94760C0C94B6010C94B60154
:100020000C94B6010C94B6010C94B6010C94B60174
:100030000C94B6010C94B6010C94B6010C94B60164
:100040000C94B6010C94B6010C94B6010C94B60154
:100050000C94B6010C94CD010C94B6010C94B6012D
:100060000C94B6010C9411130C94B6010C94E91283
:100070000C94B6010C94310D0C94B6010C94B6019D
:100080000C94B6010C94B6010C94B6010C94B60114
:100090000C94B6010C94B6010C94B6010C94B60104
:1000A0000C94B6010C94B6010C94B6010C94B601F4
:1000B0000C94B6010C94B6010C94B6010C94B601E4
:1000C0000C94B6010C94B6010C94B6010C94B601D4
:1000D0000C94B6010C94B6010C94B6010C94B601C4
:1000E0000C94B6011628052805280528052805289A
:1000F0000528052805280528052805280528052898
:100100000528052805280528052805280528052887
:100110000528052805280528052805280528052877
:100120000528052805280528052819280528052853
:100130000528052805280528052805280528052857
:100140000528052805280528052805281C28052830
:100150000528052805280528052805280528052837
:100160001F280528052805280D2810281328092AE6
:10017000702A5A2A42290729B829992991297C29C4
:10018000EB29D329002ADB28C028B028282A422AB4
:100190000C94702A0C94B0280C945A2A0C94D329ED
:1001A0000C941F280C9499290C9413280C94002A61
:1001B0000C9419280C94B8290C9442290C94092AFF
:1001C0000C947C290C94DB280C9491290C94052820
:1001D0000C94EB290C941C280C94422A0C94C028F3
:1001E0000C9407290C940D280C9410280C94282AA0
:1001F0000C9416284E414E494E495459494E46CD0D
:10020000CCCC3D0AD7233C17B7D13877CC2B3295CD
:1002100095E6241FB14F0A000020410000C84200AB
:10022000401C4620BCBE4CCA1B0E5AAEC59D740075
:10023000407A10F35A00A0724E18090010A5D4E8B5
:100240000000E87648170000E40B54020000CA9A48
:100250003B000000E1F5050000809698000000409A
:10026000420F000000A086010000001027000000DF
:1002700000E803000000006400000000000A000025
:100280000000000100000000002C76D888DC674FD9
:100290000823DFC1DFAE59E1B1B796E5E3E453C609
:1002A0003AE651997696E8E6C28426EB898C9B6201
:1002B000ED407C6FFCEFBC9C9F40F2BAA56FA5F4AB
:1002C00090055A2AF75C936B6CF9676DC11BFCE0D3
:1002D000E40D47FEF520E6B500D0ED902E03009426
:1002E0003577050080841E080000204E0A000000BB
:1002F000C80C333333330F986E12831141EF8D21C5
:1003000014893BE65516CFFEE6DB18D1844B381B2B
:10031000F77C1D901DA4BBE424203284725E2281F0
:1003200000C9F124ECA1E53D270011241FBECFEF49
:10033000D1E2DEBFCDBF00E00CBF16E1A0E0B2E02D
:10034000E4E1FBE700E00BBF02C007900D92A03C88
:10035000B107D9F722E2A0ECB6E101C01D92A33E9D
:10036000B207E1F70E949A320C94883D0C94000089
:1003700082E084BD93E095BD9AEF97BD80936E00B7
:100380001092C4161092C316089581E08093C0168F
:1003900008951092C016089508951F920F920FB6F7
:1003A0000F9211240BB60F922F933F934F935F93AD
:1003B0006F937F938F939F93AF93BF93EF93FF932D
:1003C0008091C7168823D9F11092C7168091C01664
:1003D0008823E1F1E091C516F091C6169F01ADECBE
:1003E000BCEC0E94363396958795969587959695A1
:1003F0008795AC01440F551F880F991F880F991FCF
:10040000880F991F480F591FE417F50759F13196C6
:10041000F093C616E093C516FF91EF91BF91AF918F
:100420009F918F917F916F915F914F913F912F910C
:100430000F900BBE0F900FBE0F901F90189581E08C
:100440008093C7168091C0168111C4CF8091C316C6
:100450009091C41601969093C4168093C3160E947F
:100460004F02DACF1092C6161092C5168091C316AD
:100470009091C41601969093C4168093C3160E945F
:100480004F02CACF82E084BD93E095BD9AEF97BD3D
:1004900080936E001092C4161092C3160895809136
:1004A000C3169091C41664E670E00E94FD32892B59
:1004B00061F48091C8169091C916892B39F481E0B6
:1004C00090E09093C9168093C81608951092C916AB
:1004D0001092C816089584B78093CC16F8940E94A1
:1004E000650E0E94A8110E94C4110E94B90241E049
:1004F00060E070E08AEF93E40E9476100E94BB12E5
:100500000E94F5130E9493140E94EA0D0E940D0EA2
:100510000E94DC0C0E94470778940895CF93DF93E4
:10052000CDB7DEB7C456D1090FB6F894DEBF0FBE03
:10053000CDBF8CE2E2E9F2E0DE01119601900D926E
:100540008A95E1F781E2EFEBF2E0DE019D96019002
:100550000D928A95E1F7CE0101960E949613CC592F
:10056000DF4F0FB6F894DEBF0FBECDBFDF91CF9146
:100570000895CF92DF92EF92FF92CF93DF938FEFA8
:100580008093070185E580930801809104018861CB
:100590008093040180910501806180930501E2ED63
:1005A000F6E1C7EDD6E141E084E6C82ED12CE12C7E
:1005B000F12C9F0124503109D9011D921D921D92E9
:1005C0001C921397C182D282E382F48248834083D3
:1005D0003A962A96B7E1E430FB0759F7DF91CF91BD
:1005E000FF90EF90DF90CF90089581110DC0809122
:1005F00005018F7E809305018091050188608093BD
:1006000005011092D21608958091050180618093B2
:10061000050180910501877F8093050181E080932A
:10062000D216089581110DC0809108018D7F8093AD
:100630000801809108018160809308011092DC1606
:1006400008958091080182608093080180910801DB
:100650008E7F8093080181E08093DC1608958111DC
:100660000DC080910801877F809308018091080167
:100670008460809308011092E61608958091080125
:10068000886080930801809108018B7F8093080126
:1006900081E08093E616089581110DC080910801D4
:1006A0008F7D80930801809108018061809308010B
:1006B0001092F016089580910801806280930801DD
:1006C000809108018F7E8093080181E08093F0166D
:1006D000089581110DC0809108018F7B80930801DE
:1006E000809108018068809308011092FA1608959D
:1006F00080910801806480930801809108018F77C0
:100700008093080181E08093FA1608958837B9F044
:100710003CF4863789F0873759F4862F0C944C03C4
:10072000893739F08A3719F4862F0C94F502089529
:100730000895862F0C941203862F0C946903862F3C
:100740000C942F0381110BC0809108018F67809357
:1007500008018091080180648093080108958091C8
:1007600008018F7780930801809108018F7B809327
:1007700008010895CF92DF92EF92FF926B017C0106
:1007800020E030E0A9010E94DF3387FF04C0F7FAC0
:10079000F094F7F8F094C092CE16D092CF16E09273
:1007A000D016F092D116609111027091120280E081
:1007B00090E00E947C34A70196010E9472350E944D
:1007C000CC330E945034CB01FF90EF90DF90CF905C
:1007D0000C944F0FCF92DF92EF92FF926B017C014E
:1007E00020E030E0A9010E94DF3387FF04C0F7FA60
:1007F000F094F7F8F094C092D816D092D916E092FF
:10080000DA16F092DB16609111027091120280E00C
:1008100090E00E947C34A70196010E9472350E94EC
:10082000CC330E945034CB01FF90EF90DF90CF90FB
:100830000C94470FCF92DF92EF92FF926B017C01F5
:1008400020E030E0A9010E94DF3387FF04C0F7FAFF
:10085000F094F7F8F094C092E216D092E316E0928A
:10086000E416F092E516609111027091120280E098
:1008700090E00E947C34A70196010E9472350E948C
:10088000CC330E945034CB01FF90EF90DF90CF909B
:100890000C943F0FCF92DF92EF92FF926B017C019D
:1008A00020E030E0A9010E94DF3387FF04C0F7FA9F
:1008B000F094F7F8F094C092EC16D092ED16E09216
:1008C000EE16F092EF16609111027091120280E024
:1008D00090E00E947C34A70196010E9472350E942C
:1008E000CC330E945034CB01FF90EF90DF90CF903B
:1008F0000C945F0FCF92DF92EF92FF926B017C011D
:1009000020E030E0A9010E94DF3387FF04C0F7FA3E
:10091000F094F7F8F094C092F616D092F716E092A1
:10092000F816F092F916609111027091120280E0AF
:1009300090E00E947C34A70196010E9472350E94CB
:10094000CC330E945034CB01FF90EF90DF90CF90DA
:100950000C94570F0F931F9341E00091361710919D
:1009600037172091381730913917061717072807BE
:10097000390708F040E04093D7166093D316709380
:10098000D4168093D5169093D6161F910F91089583
:100990000F931F9341E000914E1710914F17209134
:1009A000501730915117061717072807390708F015
:1009B00040E04093E1166093DD167093DE1680935D
:1009C000DF169093E0161F910F9108950F931F93D8
:1009D00041E00091661710916717209168173091D8
:1009E0006917061717072807390708F040E04093F2
:1009F000EB166093E7167093E8168093E9169093D0
:100A0000EA161F910F9108950F931F9341E00091F3
:100A10007E1710917F17209180173091811706174C
:100A200017072807390708F040E04093F516609350
:100A3000F1167093F2168093F3169093F4161F91AB
:100A40000F9108950F931F9341E000919617109115
:100A500097172091981730919917061717072807AD
:100A6000390708F040E04093FF166093FB1670933F
:100A7000FC168093FD169093FE161F910F9108951A
:100A8000883709F474C0FCF4863709F456C08737F8
:100A9000C9F521E080914E1790914F17A091501702
:100AA000B091511784179507A607B70708F020E003
:100AB0002093E1164093DD165093DE166093DF1607
:100AC0007093E01608958937F1F08A37D1F421E068
:100AD0008091961790919717A0919817B0919917B8
:100AE00084179507A607B70708F020E02093FF16A4
:100AF0004093FB165093FC166093FD167093FE1600
:100B000008950895089521E080917E1790917F17B0
:100B1000A0918017B091811784179507A607B70792
:100B200008F020E02093F5164093F1165093F2164A
:100B30006093F3167093F416089521E080913617B0
:100B400090913717A0913817B091391784179507EE
:100B5000A607B70708F020E02093D7164093D316D6
:100B60005093D4166093D5167093D616089521E04D
:100B70008091661790916717A0916817B0916917D7
:100B800084179507A607B70708F020E02093EB1617
:100B90004093E7165093E8166093E9167093EA16AF
:100BA000089580E090E00E943F0F80E090E00E9476
:100BB000470F80E090E00E944F0F80E090E00E949D
:100BC000570F80E090E00C945F0F6091CE1670910B
:100BD000CF168091D0169091D1160E947A04609120
:100BE000D8167091D9168091DA169091DB160E9472
:100BF0004A046091E2167091E3168091E416909198
:100C0000E5160E941A046091EC167091ED16809121
:100C1000EE169091EF160E94EA036091F61670911D
:100C2000F7168091F8169091F9160C94BA03CF92AA
:100C3000DF92EF92FF92CF93DF93C82F6A017B017F
:100C4000D1E020E030E0A901C701B6010E946E3575
:100C5000181624F56D2F8C2F0E948603C83729F1B2
:100C6000C93774F4C637E1F1C73749F5C701B60192
:100C7000DF91CF91FF90EF90DF90CF900C944A04DA
:100C8000C93721F1CA37D9F4C701B601DF91CF9135
:100C9000FF90EF90DF90CF900C94BA03D0E06D2FCF
:100CA0008C2F0E948603C837D9F6C701B601DF91A1
:100CB000CF91FF90EF90DF90CF900C941A04DF91CA
:100CC000CF91FF90EF90DF90CF900895C701B601CC
:100CD000DF91CF91FF90EF90DF90CF900C94EA03DB
:100CE000C701B601DF91CF91FF90EF90DF90CF90D9
:100CF0000C947A048837D9F044F48637A1F087370A
:100D000069F4CB01BA010C944A04893741F08A375F
:100D100021F4CB01BA010C94BA0308950895CB01D4
:100D2000BA010C94EA03CB01BA010C947A04CB010A
:100D3000BA010C941A040F931F93DC01AA0FBB1F76
:100D4000FC01EE0FFF1FEE0FFF1FEE0FFF1FEA0F5C
:100D5000FB1FE253F94E2185A80FB91FAA0FBB1F35
:100D6000AA0FBB1FAA0FBB1FAA5CB84E222381F09B
:100D70000D911D912D913C91458156816781708522
:100D8000041715072607370780F41F910F91089560
:100D90000D911D912D913C91458156816781708502
:100DA000401751076207730780F3FC01E050FE4FC4
:100DB00040E050E0BA0180811F910F910C9417061A
:100DC0001F93CF93DF93EC010E94FB11182FCE01EC
:100DD0000E944912112389F0FE01EE0FFF1F9E01B0
:100DE000220F331F220F331F220F331FE20FF31F77
:100DF000E253F94E9481911117C0882389F0FE01C6
:100E0000EE0FFF1FCE01880F991F880F991F880FC3
:100E1000991FE80FF91FE253F94E8481882321F0CE
:100E2000DF91CF911F910895C050DE4F40E050E018
:100E3000BA018881DF91CF911F910C94170680E051
:100E400090E00E94E00681E090E00E94E00682E0EF
:100E500090E00E94E00683E090E00E94E00684E0DB
:100E600090E00E94E00681E090E00E949B0682E014
:100E700090E00E949B0683E090E00E949B0684E045
:100E800090E00E949B0685E090E00C949B0681E038
:100E90008093001787B18F7C87B988B18F7C88B920
:100EA00055985D988091281790912917A0912A173D
:100EB000B0912B1740912E1750912F17609130173A
:100EC00070913117841B950BA60BB70B80932217DB
:100ED00090932317A0932417B093251780912C1774
:100EE00090912D172091321730913317821B930B5D
:100EF00090932717809326170895E0E2F7E1208169
:100F0000318130931F1720931E178091D417909131
:100F1000D5174091D2175091D317841B950B91830D
:100F20008083ECE1F7E14081518150931B1740939E
:100F30001A17821B930B9183808308958091D41795
:100F40009091D517089580910317909104172091DF
:100F5000D4173091D517821B930B08952091031756
:100F6000309104178091D4179091D5178217930769
:100F700058F02817390720F48FEF8093051708954C
:100F80001092051780E0089581E080930517089579
:100F9000E0E2F7E18081918190931F1780931E1703
:100FA0008091D4179091D5172091D2173091D317F3
:100FB000821B930B918380830895ECE1F7E180819C
:100FC000918190931B1780931A178091201790910D
:100FD000211720911E1730911F17821B930B9183AD
:100FE00080830895CF92DF92EF92FF92609126174F
:100FF000709127177695679576956795809132174A
:1010000090913317680F791F80E090E00E947C3444
:101010006B017C016091D4177091D51780E090E04E
:101020000E947C34A70196010E946733A7019601B4
:101030000E94E333FF90EF90DF90CF9008958F925E
:101040009F92AF92BF92CF92DF92EF92FF920F9357
:101050001F93CF93DF93EC0100912817109129176C
:1010600020912A1730912B1760912E1770912F170E
:101070008091301790913117061717072807390705
:1010800014F4C901B8010E947E346B017C016091A7
:1010900022177091231780912417909125170E9491
:1010A0007E344B015C0120912C1730912D178091DB
:1010B0003217909133172817390708F4C9019E0198
:1010C000281B390BC90160912617709127170E94C0
:1010D000E93280E090E00E947C349B01AC01C501C4
:1010E000B4010E9472359B01AC01C701B6010E9498
:1010F0006833DF91CF911F910F91FF90EF90DF90B8
:10110000CF90BF90AF909F908F9008958091D4170B
:101110009091D5170E941F080E944B34089520E03B
:1011200030E048EC52E40E9472350E944B3408953E
:101130008F929F92AF92BF92CF92DF92EF92FF92E7
:101140004B015C01609126177091271780E090E0B9
:101150000E947C346B017C01409128175091291723
:1011600060912A1770912B1780912E1790912F174D
:10117000A0913017B0913117481759076A077B07BC
:1011800014F4DB01CA01A5019401281B390B4A0B99
:101190005B0BCA01B90120912217309123174091AE
:1011A0002417509125170E941133CA01B9010E94DA
:1011B0007E349B01AC01C701B6010E9472356B0100
:1011C0007C0180912C1790912D17609132177091AE
:1011D00033178617970708F4BC0180E090E00E945F
:1011E0007C349B01AC01C701B6010E9468330E94A8
:1011F0005034CB01FF90EF90DF90CF90BF90AF9035
:101200009F908F90089589E190E090933317809399
:10121000321786EE93E090932D1780932C1710923F
:101220002E1710922F17109230171092311780E35B
:1012300095E7A0E0B0E08093281790932917A0933A
:101240002A17B0932B17089580912817909129178A
:10125000A0912A17B0912B1740912E1750912F175C
:101260006091301770913117841B950BA60BB70B4B
:101270008093221790932317A0932417B0932517D8
:1012800080912C1790912D172091321730913317A0
:10129000821B930B90932717809326170895209114
:1012A0002C1730912D1780913217909133172817F2
:1012B000390708F4C90108950F931F930091281767
:1012C0001091291720912A1730912B1760912E1712
:1012D00070912F17809130179091311706171707CB
:1012E0002807390714F4C901B8011F910F91089517
:1012F00020912C1730912D17809132179091331730
:101300008217930708F4C90108950F931F93009162
:1013100028171091291720912A1730912B176091C7
:101320002E1770912F1780913017909131176017F9
:1013300071078207930714F4C901B8011F910F9137
:101340000895E0912C17F0912D17209132173091CC
:101350003317E217F30740F580912E1790912F175E
:10136000A0913017B091311740912817509129174B
:1013700060912A1770912B1740932E1750932F17B7
:101380006093301770933117F0933317E09332174F
:101390008093281790932917A0932A17B0932B179F
:1013A00030932D1720932C1708950F931F9340917E
:1013B00028175091291760912A1770912B17809147
:1013C0002E1790912F17A0913017B09131178C01E3
:1013D0009D01481759076A077B0714F48A019B018E
:1013E00022273327081719072A073B0701F1209105
:1013F00032173091331740932E1750932F17609365
:1014000030177093311740912C1750912D1750932E
:101410003317409332178093281790932917A0937E
:101420002A17B0932B1730932D1720932C171F9149
:101430000F910895CF93DF93EC0183E00E94850E16
:1014400084E00E94850E809135178130A1F08230B2
:1014500001F18091321790913317C817D90738F1ED
:1014600080912C1790912D178C179D0778F180E0B3
:10147000DF91CF910895809132179091331707969D
:101480008C179D07E8F41092351780E0DF91CF911B
:10149000089580912C1790912D170797C817D90799
:1014A00090F384E00E94720E80913517E1CF83E0C3
:1014B0000E94720E81E080933517DF91CF910895DD
:1014C00083E00E94720E80913517D2CF84E00E9493
:1014D000720E82E080933517DF91CF910895CF92FD
:1014E000DF92EF92FF92CF93DF93EB01C090050262
:1014F000D0900602E0900702F0900802BC0180E064
:1015000090E00E947C34A70196010E946E35181667
:10151000B4F0BE0180E090E00E947C349B01AC01FD
:10152000C701B6010E94DF33881F8827881F880FF4
:10153000DF91CF91FF90EF90DF90CF90089581E001
:10154000DF91CF91FF90EF90DF90CF900895CF92F1
:10155000DF92EF92FF92CF93DF938091001781117A
:101560001FC06091031770910417C091D417D091D8
:10157000D5176C177D0719F180913417823039F136
:101580008330F1F180910117909102178617970728
:1015900078F46C177D0720F482E08093341701C043
:1015A00080E0DF91CF91FF90EF90DF90CF90089592
:1015B000C617D707A8F783E080933417F2CF81E0EE
:1015C000DF91CF91FF90EF90DF90CF90089580E072
:1015D00090E00E947C346B017C012DEC3CEC4CECE7
:1015E0005DE30E9472359B01AC01C701B6010E9408
:1015F00067330E945034C617D707C8F082E0D1CFB6
:1016000080E090E00E947C346B017C012DEC3CEC8E
:101610004CEC5DE30E9472359B01AC01C701B60141
:101620000E9468330E9450346C177D0750F410926A
:10163000341780E0DF91CF91FF90EF90DF90CF9053
:10164000089583E0AECF1F920F920FB60F92112430
:101650008F939F93AF93BF93789B24C010924217B0
:101660001092431710924417109245178091361725
:1016700090913717A0913817B09139170196A11D95
:10168000B11D8093361790933717A0933817B093F6
:101690003917BF91AF919F918F910F900FBE0F900F
:1016A0001F90189581E090E0A0E0B0E08093421791
:1016B00090934317A0934417B09345178091361722
:1016C00090913717A0913817B09139170197A10958
:1016D000B1098093361790933717A0933817B093BA
:1016E0003917D7CF1F920F920FB60F9211248F93F5
:1016F0009F93AF93BF93799B24C010925A17109277
:101700005B1710925C1710925D1780914E179091A5
:101710004F17A0915017B09151170196A11DB11DFF
:1017200080934E1790934F17A0935017B093511773
:10173000BF91AF919F918F910F900FBE0F901F900F
:10174000189581E090E0A0E0B0E080935A17909364
:101750005B17A0935C17B0935D1780914E17909123
:101760004F17A0915017B09151170197A109B109D6
:1017700080934E1790934F17A0935017B093511723
:10178000D7CF1F920F920FB60F9211248F939F9372
:10179000AF93BF937A9B24C0109272171092731765
:1017A00010927417109275178091661790916717B1
:1017B000A0916817B09169170196A11DB11D809382
:1017C000661790936717A0936817B0936917BF9136
:1017D000AF919F918F910F900FBE0F901F90189512
:1017E00081E090E0A0E0B0E08093721790937317CF
:1017F000A0937417B093751780916617909167172F
:10180000A0916817B09169170197A109B109809358
:10181000661790936717A0936817B0936917D7CF8F
:101820001F920F920FB60F9211240BB60F922F93A7
:101830003F934F935F936F937F938F939F93AF9358
:10184000BF93EF93FF9380E00E94720E7B9B2EC0AC
:1018500010928A1710928B1710928C1710928D1776
:1018600080917E1790917F17A0918017B09181177A
:101870000196A11DB11D80937E1790937F17A093B1
:101880008017B0938117FF91EF91BF91AF919F9116
:101890008F917F916F915F914F913F912F910F9019
:1018A0000BBE0F900FBE0F901F90189581E090E037
:1018B000A0E0B0E080938A1790938B17A0938C17C9
:1018C000B0938D1780917E1790917F17A09180170C
:1018D000B09181170197A109B10980937E17909368
:1018E0007F17A0938017B0938117CDCF1F920F92CF
:1018F0000FB60F9211240BB60F922F933F934F9375
:101900005F936F937F938F939F93AF93BF93EF9367
:10191000FF9380E00E94720E7C9B2EC01092A21753
:101920001092A3171092A4171092A51780919617E2
:1019300090919717A0919817B09199170196A11DB2
:10194000B11D8093961790939717A0939817B09313
:101950009917FF91EF91BF91AF919F918F917F91D7
:101960006F915F914F913F912F910F900BBE0F9010
:101970000FBE0F901F90189581E090E0A0E0B0E0BE
:101980008093A2179093A317A093A417B093A517C1
:101990008091961790919717A0919817B0919917E9
:1019A0000197A109B1098093961790939717A09377
:1019B0009817B0939917CDCF8AB1807F8AB98BB130
:1019C000807F8BB980B3807E80BB81B3807E81BBFA
:1019D0006C9874988DB38F618DBB8FEF8093690085
:1019E000EAE6F0E08081836080830895E6E3F7E132
:1019F00080819181A281B3814089518962897389F3
:101A0000841B950BA60BB70B84839583A683B783A2
:101A10004489558966897789841B950BA60BB70B7A
:101A200080879187A287B387789687E1EE3AF80797
:101A3000F9F6E6E3F7E180819181A281B381808BA1
:101A4000918BA28BB38B84819581A681B781848B86
:101A5000958BA68BB78B789687E1EE3AF80759F706
:101A600008951F920F920FB60F9211240BB60F928A
:101A7000CF92DF92EF92FF920F931F932F933F939A
:101A80004F935F936F937F938F939F93AF93BF9386
:101A9000CF93DF93EF93FF938091B2178B3008F0D1
:101AA0006EC08F5F8093B2178091780000917900AB
:101AB00010E0102F0027080F111DC091B317C5307B
:101AC00008F472C0CA3008F05DC0D0E02597FE016E
:101AD000EE0FFF1FE853F84E11830083CC0FDD1F7C
:101AE000CC0FDD1FCC54D84E2DEC3CEC4CE45FE326
:101AF000688179818A819B810E9472356B017C01AA
:101B0000B80180E090E00E947C342DEC3CEC4CE489
:101B10005EE30E9472359B01AC01C701B6010E94D1
:101B20006833688379838A839B8389E480937C000C
:101B300080917A00806480937A008091B3178F5FE0
:101B4000893078F11092B317FF91EF91DF91CF9127
:101B5000BF91AF919F918F917F916F915F914F91C5
:101B60003F912F911F910F91FF90EF90DF90CF90B9
:101B70000F900BBE0F900FBE0F901F9018951092F4
:101B8000B21792CF1092B31782E480937C008091B9
:101B90007A00806480937A008091B3178F5F8930D8
:101BA00088F68093B317D0CFD0E0CC0FDD1FCE5294
:101BB000D84E1983088388E480937C0080917A0052
:101BC000806480937A00B9CFEAE7F0E08081887F73
:101BD0008083089581B1807E81B982B1807E82B98F
:101BE00081B18F7181B982B18F7182B987B18C7FD8
:101BF00087B988B18C7F88B98BE980937A00EEE74A
:101C0000F0E0808184608083EFE7F0E08081836092
:101C1000808382E480937C00089582E480937C003A
:101C2000EAE7F0E08081806480830895BC0180E071
:101C300090E00E947C342091AE173091AF17409114
:101C4000B0175091B1170E9467332091090230916B
:101C50000A0240910B0250910C020E9472350895C5
:101C6000089588E480937C0080917A00806480935A
:101C70007A0080917A0086FDFCCF209178008091D7
:101C8000790090E0982F8827820F911D9093C917B3
:101C90008093C817089589E480937C0080917A002E
:101CA000806480937A0080917A0086FDFCCF209139
:101CB00078008091790090E0982F8827820F911DFD
:101CC0009093CB178093CA1708951092DE17109245
:101CD000DD17989A999A9A9A9B9AA098A198A29897
:101CE000A3980895823069F040F0833021F0843069
:101CF00051F4A39A0895A29A0895813029F4A09AE4
:101D00000895A19A089508950895823069F040F0E9
:101D1000833021F0843051F4A3980895A298089557
:101D2000813029F4A0980895A19808950895089500
:101D30000895662369F087FF20C0A39A86FF20C01C
:101D4000A29A85FF20C0A19A84FD0DC0A098089595
:101D500083FF0BC0A39A82FF0BC0A29A81FF0BC026
:101D6000A19A80FFF3CFA09A0895A39882FDF5CFA2
:101D7000A29881FDF5CFA198F4CFA39886FDE0CF7E
:101D8000A29885FDE0CFA198DFCF611102C00C942D
:101D9000850E0C94720ECF939091DE179D7FE9F41F
:101DA00090910F022FEF290F20930F02911115C070
:101DB0009AE090930F02C0910E02882389F08C2F35
:101DC0000E94720E8C2F8F5F80930E02853028F058
:101DD00081E080930E02CF91089580E0CF91089525
:101DE0008C2F0E94850E8C2FEECF9091DE179111D3
:101DF0008091DD170C94990E9091DE17992319F0BC
:101E0000933009F008959091100291110BC060E099
:101E10000E94990E81E090911002911180E08093D0
:101E20001002089561E00E94990EF4CF8091DE17B0
:101E30008230B1F0833041F0813009F0089560E0E4
:101E40008091DD170C94990E80910D029FEF980FF1
:101E500090930D028111F2CF8AE080930D020895D4
:101E60008091DD170E94CB0E813041F79091DD17F4
:101E7000911103C08093DD17089580E0FBCF2FB749
:101E8000F89490938900809388002FBF08952FB70E
:101E9000F89490938B0080938A002FBF08952FB7FA
:101EA000F89490938D0080938C002FBF08952FB7E6
:101EB000F8949093A9008093A8002FBF08952FB79E
:101EC000F8949093AB008093AA002FBF0895CF920F
:101ED000DF92EF92FF926B017C012091130230E0C0
:101EE00040E050E060E074E284EF90E00E94113343
:101EF000CA01B9010E947E34A70196010E94E33312
:101F00000E945034CB01FF90EF90DF90CF90089566
:101F10000F931F932091130230E040E050E060E007
:101F200074E284EF90E00E941133CA01B90100917C
:101F3000110210911202980140E050E00E9411330A
:101F4000CA01B9010E947E341F910F9108959093A8
:101F500012028093110290938700809386008091F3
:101F60001102909112029093A7008093A600089509
:101F7000CF92DF92EF92FF926B017C0120911302CE
:101F800030E040E050E060E074E284EF90E00E94D6
:101F90001133CA01B9010E947E34A70196010E9443
:101FA000E3330E94503470931202609311027093D5
:101FB00087006093860080911102909112029093A5
:101FC000A7008093A600FF90EF90DF90CF90089538
:101FD000AF92BF92CF92DF92EF92FF920F931F9337
:101FE000CF93DF939B01AC0160E074E284E79BE454
:101FF0000E94E3335B016C0120E03FEF4FE757E4C1
:102000000E946E3518160CF050C020E030E040E021
:102010005EE3B501C6010E9472357B018C01C8E008
:10202000D0E020E03FEF4FE757E4B701C8010E943E
:102030006E35181664F420E030E040E85CE3B5014A
:10204000C6010E9472357B018C01C0E4D0E020E023
:102050003FEF4FE757E4B701C8010E946E351816ED
:1020600064F420E030E040E85BE3B501C6010E9483
:1020700072357B018C01C0E0D1E020E03FEF4FE7FB
:1020800057E4B701C8010E946E35181614F4C0E079
:10209000D4E0CE01DF91CF911F910F91FF90EF908F
:1020A000DF90CF90BF90AF90089575018601C1E099
:1020B000D0E0B7CF80349105B9F038F48130910584
:1020C00089F0089759F482E00895811521E092077C
:1020D00039F08115944011F485E008958FEF08954B
:1020E00084E0089581E0089583E008958F929F929F
:1020F000AF92BF92CF92DF92EF92FF920F931F9316
:10210000CF93DF934B015C01E42E259A269A279A00
:1021100080910101886080930101809101018061BB
:1021200080930101109264008FE2809365008FB765
:10213000F89410928900109288008FBF8FB7F8949E
:1021400010928B0010928A008FBF8FB7F894109274
:102150008D0010928C008FBF8FB7F8941092A90059
:102160001092A8008FBF8FB7F8941092AB00109216
:10217000AA008FBF2091130230E040E050E060E001
:1021800074E284EF90E00E941133CA01B9010E9409
:102190007E34A50194010E94E3330E945034709371
:1021A0001202609311027093870060938600809101
:1021B0001102909112029093A7008093A600E11063
:1021C0007DC082E080938000A501940160E074E20C
:1021D00084E79BE40E94E3335B016C0120E03FEF66
:1021E0004FE757E40E946E3518160CF061C020E0EE
:1021F00030E040E05EE3B501C6010E9472358B011C
:10220000D82FC92F98E0F92E20E03FEF4FE757E491
:10221000B8018D2F9C2F0E946E3518166CF420E0AB
:1022200030E040E85CE3B501C6010E9472358B01E5
:10223000D82FC92F80E4F82E20E03FEF4FE757E476
:10224000B8018D2F9C2F0E946E35181664F420E083
:1022500030E040E85BE3B501C6010E9472358B01B6
:10226000D82FC92FF12C20E03FEF4FE757E4B801FA
:102270008D2F9C2F0E946E35181614F1F0921302C8
:1022800088E0F81609F444C080E4F816D9F181E03A
:10229000F81218C089E180938100EE20C1F08AEA2B
:1022A0008093A000809113028830C1F48AE11BC0A2
:1022B0008501DC2DCD2DFF24F394A6CF8AEA82CFB1
:1022C000109213028FEF80938100E110E8CF82E03B
:1022D0008093A00080911302883041F38034B1F0E4
:1022E000813091F08FEF8093A100DF91CF911F910A
:1022F0000F91FF90EF90DF90CF90BF90AF909F90A5
:102300008F9008958BE1DFCF89E1EDCF8BE1EBCFAB
:102310008AE1D9CF90918000811105C0892F806C0E
:10232000809380000895892F8F7B80688093800040
:10233000089590918000811105C0892F806380935A
:1023400080000895892F8F7E806280938000089599
:10235000E4E0F1E080818F7D808380818F7B8083CA
:10236000E5E0F1E080818062808380818064808309
:102370000895E3E0F1E0808180728093150280810E
:102380008074809314020895EAE0F1E08081108265
:10239000E1E0F1E080818F798083EBE0F1E0808102
:1023A0008FEF8083E2E0F1E0808180668083089592
:1023B0008091090190E09093E2178093E11780915A
:1023C0000001807690E09093E0178093DF170895E6
:1023D0008091E1179091E2178F3F910511F081E014
:1023E000089581E02091DF173091E0172036310504
:1023F000B9F780E008958230910509F440C084F473
:10240000009779F1019709F58091E1179091E21712
:10241000969587959695879521E0822781700895F6
:1024200083309105A1F0049781F48091DF1790919A
:10243000E01796958795929582958F7089279F7062
:10244000892721E082278170089580E00895809196
:10245000E1179091E2178170992721E0822781701E
:1024600008958091E1179091E2179695879596953A
:1024700087959695879521E08227817008958091B0
:10248000E1179091E2179695879521E08227817058
:1024900008958230910509F449C0ACF40097C9F160
:1024A000019739F58091E1179091E2170024880F88
:1024B000991F001C880F991F001C892F902D21E067
:1024C00082278170089583309105A9F0049789F4DB
:1024D0008091DF179091E0170024880F991F001C4E
:1024E000880F991F001C892F902D21E08227817071
:1024F000089580E008958091E1179091E2179295F8
:1025000082958F7089279F70892721E082278170AB
:1025100008958091E1179091E217880F892F881F05
:10252000990B919521E08227817008958091E117A0
:102530009091E21796958795929582958F7089274D
:102540009F70892721E08227817008958091090179
:1025500090E09093E2178093E117809100018076DC
:1025600090E09093E0178093DF1708959093C50053
:102570008093C40008956998689A6A986B9A7398D2
:102580001092C5008CE08093C400E1ECF0E088E19B
:102590008083808180688083E4E6F0E080818E7FA4
:1025A000808308951092E6191092E5191092E419AB
:1025B0001092E319E3EEF7E1119289E1E33EF807A7
:1025C000D9F708959091C00095FFFCCF8093C60085
:1025D00008951F920F920FB60F9211240F900FBE05
:1025E0000F901F90189521E08D3009F020E0909118
:1025F000EE1B922B9093EE1B21E08A3009F020E035
:102600008091ED1B822B8093ED1B992341F0882351
:1026100031F01092EE1B1092ED1B81E0089580E0E6
:1026200008951F920F920FB60F9211240BB60F92BE
:102630002F933F934F935F936F937F938F939F93CA
:10264000AF93BF93EF93FF938091C00084FD2FC0A1
:102650008C7069F59091C600292F9830A1F19F37B1
:1026600091F18091C00085FFFCCF9093C6008091CE
:10267000E3199091E419FC01ED51F84E2083019685
:102680009093E4198093E319FF91EF91BF91AF917B
:102690009F918F917F916F915F914F913F912F917A
:1026A0000F900BBE0F900FBE0F901F90189580E0FB
:1026B0000E94720E1092E4191092E3199091C600D4
:1026C000292F983061F693E223E2CBCFFC011082F0
:1026D0004091EE1B9091ED1B442311F091111BC012
:1026E0008091C00087FFFCCF2091C60021932081FC
:1026F00031E02D3009F030E0832F842B8093EE1BE6
:1027000031E02A3009F030E0932B9093ED1B8823C1
:1027100039F0992329F01092EE1B1092ED1B0895C9
:10272000482F8091C00087FFDBCFDECFFC010190F6
:102730000020E9F73197E81BF90B1E161F06CCF4B1
:1027400020E030E005C02F5F3F4FE217F30789F02C
:102750006299F9CF4091C00045FFFCCFDC01A20F88
:10276000B31F4C914093C6002F5F3F4FE217F30712
:1027700079F781E008958EED92E00C9496138091A4
:10278000E5199091E619019791F08091C61E81118B
:1027900001C0089587EC9EE10E94961382E00E949A
:1027A000850E1092C61E8EED92E00C94961382E078
:1027B0000E94720E80E00E94850E8CE89AE00E94D2
:1027C000961383EE97E10E9431241092E61910923D
:1027D000E5191092E4191092E319E3EEF7E1119272
:1027E00089E1E33EF807D9F7D0CF81E08093EF1B72
:1027F0008093F01B8093F11B8093F21B8093F31B5B
:102800008093F41B80E090E0AAEFB3E48093F51B83
:102810009093F61BA093F71BB093F81B21E030E0D8
:102820003093FA1B2093F91B84EF91E0A0E0B0E015
:102830008093FB1B9093FC1BA093FD1BB093FE1B8E
:102840008093FF1B9093001CA093011CB093021C6B
:102850008093031C9093041CA093051CB093061C4A
:102860008093071C9093081CA093091CB0930A1C2A
:1028700080930B1C90930C1CA0930D1CB0930E1C0A
:1028800080E090E0A0ECB1E480930F1C9093101CCA
:10289000A093111CB093121C80E090E0A0E1B1E481
:1028A0008093131C9093141CA093151CB093161CBA
:1028B00086ED91E3A2EEB1E48093171C9093181C6F
:1028C000A093191CB0931A1C81E090E0A0E0B0E046
:1028D00080931F1C9093201CA093211CB093221C5A
:1028E0001092231C1092241C1092251C1092261C5E
:1028F0001092271C80E492EEA1E0B0E08093281CA7
:102900009093291CA0932A1CB0932B1C30932D1C50
:1029100020932C1C10922F1C10922E1C1092311CF4
:102920001092301C0895CF93DF93CFEEDBE1CE0100
:102930008F5E9B410E94E92789938CE1C233D807BF
:10294000B1F7DF91CF910895CF93DF93CFEEDBE125
:10295000CE018F5E9B4169910E94E1278CE1C233D9
:10296000D807B1F7DF91CF9108958837B9F03CF4DB
:10297000863789F0873759F46093F11B08958937BA
:1029800039F08A3719F46093F41B08950895089577
:102990006093F31B08956093F01B08956093F21BFE
:1029A000089597FD12C0FB019B012C5F3F4F880FDC
:1029B000991F880F991F280F391F138212821182C5
:1029C00010823496E217F307C1F708956F927F9251
:1029D0008F929F92AF92BF92CF92DF92EF92FF922F
:1029E0000F931F93CF93DF93CDB7DEB7C456D109B2
:1029F0000FB6F894DEBF0FBECDBF5C0118161906E6
:102A00000CF056C03B0101E010E0CE0101967C01C4
:102A10005EEEC52E52E0D52E60EE862E62E0962E3A
:102A200025C0F301268137819F938F933F932F9386
:102A30003F932F931F930F93DF92CF92FF92EF92CA
:102A40000E94F436C7010E9496138CE89AE00E9417
:102A500096130FB6F894DEBF0FBECDBF0F5F1F4FAA
:102A600094E0690E711CA016B10614F1F301848183
:102A700095810097B1F61F930F939F928F92FF92CB
:102A8000EF920E94F436C7010E9496138CE89AE0F8
:102A90000E9496130F900F900F900F900F900F9031
:102AA0000F5F1F4F94E0690E711CA016B106F4F67B
:102AB000CC59DF4F0FB6F894DEBF0FBECDBFDF910C
:102AC000CF911F910F91FF90EF90DF90CF90BF902B
:102AD000AF909F908F907F906F900895CF92DF92EC
:102AE000EF92FF920F931F93CF93DF93CDB7DEB793
:102AF000CA50D2400FB6F894DEBF0FBECDBF6B01F7
:102B00007901F90101900020E9F78F0101501109C5
:102B1000021B130B97FD11C0FB01DB011496880FFC
:102B2000991F880F991FA80FB91F13821282118253
:102B300010823496EA17FB07C1F7BA01CE0101965D
:102B40000E949031009781F4C65FDD4F0FB6F89474
:102B5000DEBF0FBECDBFDF91CF911F910F91FF90D0
:102B6000EF90DF90CF9008959601A801B701CE01B4
:102B700001960E94313231E020E0892B19F0832F39
:102B8000922FE2CF30E0832F922FDECFBC0187EC73
:102B90009EE10E946936E7ECFEE101900020E9F732
:102BA00031978DE09AE0A0E080839183A28381E059
:102BB0008093C61E0895AF92BF92CF92DF92EF929C
:102BC000FF920F931F93CF93DF93CDB7DEB7C9501A
:102BD000D1400FB6F894DEBF0FBECDBF8AE0E1E072
:102BE000F3E09E012F5F3F4F6901D90101900D92E3
:102BF0008A95E1F7E4EBEE2EE7E1FE2EF0E2AF2E50
:102C0000B12CF70161917191819191917F018E01B8
:102C1000139521E043E00E94DC35B801C6010E9413
:102C20005336F60101900020E9F73197B182A08276
:102C3000F8ECEF16F7E1FF0621F7C6010E94C61572
:102C4000C75FDE4F0FB6F894DEBF0FBECDBFDF917A
:102C5000CF911F910F91FF90EF90DF90CF90BF9099
:102C6000AF9008950F931F93CF93DF93CDB7DEB747
:102C7000CF5FD1090FB6F894DEBF0FBECDBF8091F4
:102C8000EF1B81113DC08091DB178F938091DA1784
:102C90008F938091D9178F938091D8178F938091BC
:102CA000D7178F938091D6178F938091D5178F93D5
:102CB0008091D4178F938091D3178F938091D217DF
:102CC0008F938DE393E09F938F938E010F5F1F4F40
:102CD0001F930F930E94F4360FB6F894DEBF0FBE19
:102CE000CDBFC8010E94C615C150DF4F0FB6F89482
:102CF000DEBF0FBECDBFDF91CF911F910F91089521
:102D0000809199178F93809198178F93809197173F
:102D10008F93809196178F93809181178F938091D5
:102D200080178F9380917F178F9380917E178F9359
:102D3000809169178F93809168178F93809167179F
:102D40008F93809166178F93809151178F93809105
:102D500050178F9380914F178F9380914E178F93B9
:102D6000809139178F93809138178F9380913717FF
:102D70008F93809136178F938BE093E09F938F937F
:102D80008E010F5F1F4F1F930F930E94F4360FB6F3
:102D9000F894DEBF0FBECDBFA4CF0F931F93CF9388
:102DA000DF93CDB7DEB7CF5FD1090FB6F894DEBFA2
:102DB0000FBECDBF8091EF1B81113DC08091DB170D
:102DC0008F938091DA178F938091D9178F93809189
:102DD000D8178F938091D7178F938091D6178F93A1
:102DE0008091D5178F938091D4178F938091D317AB
:102DF0008F938091D2178F938FE993E09F938F9356
:102E00008E010F5F1F4F1F930F930E94F4360FB672
:102E1000F894DEBF0FBECDBFC8010E94C615C150D9
:102E2000DF4F0FB6F894DEBF0FBECDBFDF91CF915D
:102E30001F910F91089580919D178F9380919C17FA
:102E40008F9380919B178F9380919A178F93809186
:102E500085178F93809184178F93809183178F9319
:102E6000809182178F9380916D178F9380916C174B
:102E70008F9380916B178F9380916A178F938091B6
:102E800055178F93809154178F93809153178F9379
:102E9000809152178F9380913D178F9380913C17AB
:102EA0008F9380913B178F9380913A178F938AE687
:102EB00093E09F938F938E010F5F1F4F1F930F938C
:102EC0000E94F4360FB6F894DEBF0FBECDBFA4CF7C
:102ED000EF92FF920F931F93CF93DF93CDB7DEB79F
:102EE000C950D1400FB6F894DEBF0FBECDBF0E94CF
:102EF000880F7E01F394870121E044E00E94DC35D5
:102F0000FF92EF928FEC93E09F938F930F5F1109E5
:102F10001F930F930E94F436C8010E94C6150F90AC
:102F20000F900F900F900F900F90C75FDE4F0FB66E
:102F3000F894DEBF0FBECDBFDF91CF911F910F91EF
:102F4000FF90EF9008958091F91B9091FA1B8130CA
:102F50009105C1F1ECF08230910571F0039731F5E4
:102F600085E0EBE8F4E0A7ECB2E201900D928A95DF
:102F7000E1F787EC92E2089586E0E0E8F4E0A7EC60
:102F8000B2E201900D928A95E1F787EC92E2089502
:102F9000892B61F487E0EAE6F4E0A7ECB2E2019065
:102FA0000D928A95E1F787EC92E2089588E0E7EECA
:102FB000F3E0A7ECB2E201900D928A95E1F787EC7D
:102FC00092E2089585E0E6E7F4E0A7ECB2E2019032
:102FD0000D928A95E1F787EC92E208958757843045
:102FE00068F4E82FF0E0EE0FFF1FEE0FFF1FEA5E20
:102FF000FD4F6081718182819381089560E070E06E
:10300000CB010895CF93DF9300D01F92CDB7DEB7E9
:103010009A01AB0187578430B0F5E82FF0E0EE0F4E
:10302000FF1FEE0FFF1FEA5EFD4F608171818281FD
:10303000938129833A834B835C830E944B3429819B
:103040003A814B815C81FB01EE0FFF1FEE0FFF1FEA
:10305000E550F44E608171818281938129833A83A6
:103060004B835C830E947E3429813A814B815C8151
:103070000E9472350E944B340F900F900F900F906A
:10308000DF91CF91089560E070E0DDCFCF92DF92C5
:10309000EF92FF926A017B018757843030F5E82F69
:1030A000F0E0EE0FFF1FEE0FFF1FEA5EFD4F6081A5
:1030B0007181828193810E944B34FB01EE0FFF1FCF
:1030C000EE0FFF1FE550F44E208131814281538184
:1030D000C701B6010E941133CA01B9010E947E34B2
:1030E000FF90EF90DF90CF90089560E070E0E5CF23
:1030F00090E002C0959587956A95E2F781700895F2
:10310000CF93DF932EE1EFEEF3E0A6ECBDE101906B
:103110000D922A95E1F79C0146EC5DE162E37CE1CA
:1031200082E090E00E946E15EC010097A9F063E147
:1031300074E08091361C9091371C0E947E36892B5A
:1031400079F081E08093EF1B8DE094E00E94C6153A
:103150008C2FDF91CF91089580E0DF91CF9108957A
:103160001092EF1B8BE194E00E94C615F1CFEF9215
:10317000FF920F931F93CF93DF93CDB7DEB7C45663
:10318000D1090FB6F894DEBF0FBECDBF2FE2EFE23C
:10319000F4E0A6ECBDE101900D922A95E1F79C01C7
:1031A00046EC5DE162E37CE183E090E00E946E1515
:1031B0007C01009709F45DC06EE574E08091361CD7
:1031C0009091371C0E947E36892B09F461C00091D2
:1031D0003A1C10913B1C6AE674E0C8010E947E36DE
:1031E000892B61F01092FA1B1092F91B85E694E08E
:1031F0000E94C61500913A1C10913B1C66E774E0D2
:10320000C8010E947E36892B71F081E090E0909396
:10321000FA1B8093F91B81E794E00E94C615009188
:103220003A1C10913B1C60E874E0C8010E947E3695
:10323000892B71F082E090E09093FA1B8093F91B48
:103240008BE794E00E94C61500913A1C10913B1C3C
:103250006BE874E0C8010E947E36892B51F083E050
:1032600090E09093FA1B8093F91B86E894E00E940B
:10327000C6158E2DCC59DF4F0FB6F894DEBF0FBEAA
:10328000CDBFDF91CF911F910F91FF90EF900895E7
:103290000E94A3179F938F9380E994E09F938F934D
:1032A0008E010F5F1F4F1F930F930E94F436C801CA
:1032B0000E94C6150F900F900F900F900F900F90D7
:1032C000D8CF4F925F926F927F928F929F92AF92E0
:1032D000BF92CF92DF92EF92FF920F931F93CF9303
:1032E000DF93CDB7DEB7C85CD1090FB6F894DEBF67
:1032F0000FBECDBF20E5E9E9F4E0A6ECBDE1019009
:103300000D922A95E1F79C0146EC5DE162E37CE1D8
:1033100082E090E00E946E154C01009709F475C0A0
:1033200069EE74E08091361C9091371C0E947E36C5
:10333000892B09F46CC000E012E0612C712CCE01E5
:103340008B599F4F5C016DEEC62E64E0D62EFE01B8
:1033500031967F01F301EE5CF34E84859585892BD0
:1033600079F180913A1C90913B1C0E9406362C0109
:10337000F301E151F44EAA2797FDA095BA2F848757
:103380009587A687B7870E94A3179F938F935F9215
:103390004F92F8012081822F992787FD90959F9366
:1033A0002F93DF92CF92FF92EF920E94F436B701F3
:1033B000C5010E9453360FB6F894DEBF0FBECDBFD5
:1033C00094E0690E711C0F5F1F4FE4E16E167104EB
:1033D00009F6C5010E94C615882DC853DF4F0FB6E8
:1033E000F894DEBF0FBECDBFDF91CF911F910F913B
:1033F000FF90EF90DF90CF90BF90AF909F908F9015
:103400007F906F905F904F90089580E0E6CF3BEF04
:10341000632E3BE1732E40E0C42E42E0D42E8E0199
:103420000F5F1F4FCE018B599F4F5C015DEEE52E64
:1034300054E0F52EF30150804180F4E06F0E711CD2
:103440000E94A317F60121916F019F938F934F92D2
:103450005F92822F992787FD90959F932F93FF92DC
:10346000EF921F930F930E94F436B801C5010E949A
:1034700053360FB6F894DEBF0FBECDBF9BE0691682
:103480009CE17906B9F6A5CF0F931F93CF93DF93F5
:1034900025E5E3E0F5E0A6ECBDE101900D922A956B
:1034A000E1F79C0146EC5DE162E37CE188E090E0BD
:1034B0000E946E158C010097C9F1C0913E1CD091FD
:1034C0003F1C2097C9F168E575E0CE010E947E3669
:1034D000892B91F1109236171092371710923817E6
:1034E0001092391710924E1710924F1710925017D2
:1034F0001092511710926617109267171092681762
:103500001092691710927E1710927F1710928017F1
:103510001092811710929617109297171092981781
:10352000109299178CE595E00E94C615802FDF91C7
:10353000CF911F910F910895E0E4FCE1A6E3B7E17C
:1035400003C0C281D3813496CD2B49F08081918113
:10355000892B29F01D921D921D921C92139758964B
:103560008CE1E035F80769F7DDCF0F931F93CF9318
:10357000DF932CE3ECE6F5E0A6ECBDE101900D92C3
:103580002A95E1F79C0146EC5DE162E37CE186E08F
:1035900090E00E946E158C01009799F0C6E3DCE183
:1035A000E881F981309721F02A813B81232B79F43E
:1035B00024968CE1CA34D80799F788EA95E00E94EE
:1035C000C615802FDF91CF911F910F91089540E094
:1035D00050E060E07FE380810E941706E9CFCF9240
:1035E000DF92EF92FF920F931F93CF93DF93CDB7AC
:1035F000DEB7C454D1090FB6F894DEBF0FBECDBFFD
:103600006C0181E3ECEBF5E0A6ECBDE101900D92DD
:103610008A95E1F7960146EC5DE162E37CE186E0A4
:1036200090E00E946E15892B39F585E0E8EFF5E012
:10363000A6ECBDE101900D928A95E1F7960146EC6A
:103640005DE162E37CE186E090E00E946E158C0112
:10365000009709F04CC080E0CC5BDF4F0FB6F894C8
:10366000DEBF0FBECDBFDF91CF911F910F91FF90B5
:10367000EF90DF90CF9008958BE0EDEEF5E0DE0166
:10368000119601900D928A95E1F706E31CE1D801AD
:10369000ED90FC90F701808122968FAF22972396C0
:1036A0001FAE2397BE016F5B7F4FCE0101960E9434
:1036B0005336EF2839F0D80112968D919C911397CB
:1036C000892B59F40C5F1F4FBCE10A341B07F9F634
:1036D000CE0101960E94C615A8CFED91FC9140E065
:1036E00050E060E07FE380810E941706EBCF0E94EC
:1036F000D10580E1EDEFF5E0DE01119601900D922C
:103700008A95E1F7CE0101960E94C615802FA4CFBD
:103710004F925F926F927F928F929F92AF92BF92E1
:10372000CF92DF92EF92FF920F931F93CF93DF938D
:10373000CDB7DEB7CA54D1090FB6F894DEBF0FBEBD
:10374000CDBF2FE7EDE0F6E0A6ECBDE101900D92D4
:103750002A95E1F79C0146EC5DE162E37CE187E0BC
:1037600090E00E946E155C010097C9F48A2DC65B3B
:10377000DF4F0FB6F894DEBF0FBECDBFDF91CF9104
:103780001F910F91FF90EF90DF90CF90BF90AF907F
:103790009F908F907F906F905F904F9008958EE0F4
:1037A000ECE8F6E09E012F5F3F4F6901D9010190DF
:1037B0000D928A95E1F77AE3E72E7CE1F72EE0E2BD
:1037C0008E2E912CD701ED91FC9111973097E1F15C
:1037D00012968D919C911397892BB1F18181803242
:1037E00009F43FC0CF0101960E9402362B013C0133
:1037F000D701ED91FC91AB01BC0180810E941706BD
:10380000D701ED91FC91808122968FAF229723966C
:103810001FAE2397BE016F5B7F4FC6010E945336D8
:103820008E010F5B1F4F23E041E0C301B2010E94F4
:10383000DC35B801C6010E945336F6010190002024
:10384000E9F7319791828082B4E0EB0EF11C2EE40F
:10385000E2162CE1F20609F0B5CFC6010E94C615AA
:1038600085CFCF010296C0CF2F923F924F925F92A9
:103870006F927F928F929F92AF92BF92CF92DF9280
:10388000EF92FF920F931F93CF93DF93CDB7DEB7E5
:10389000C257D1090FB6F894DEBF0FBECDBF2FE5DA
:1038A000EAE9F6E0A6ECBDE101900D922A95E1F778
:1038B0009C0146EC5DE162E37CE186E090E00E94E1
:1038C0006E155C01009709F48EC016E3E12E1CE131
:1038D000F12ECE0101966C014E0195E6890E911CE8
:1038E00009EF202E06E0302E09C094E0E90EF11C0D
:1038F000AEE4EA16ACE1FA0609F472C0D7018D9184
:103900009C911197009789F312962D913C911397F2
:10391000232B59F301960E9402362B013C01D7015B
:10392000ED91FC911081E9E8E10FE43008F476C0F4
:1039300060E070E0FB01EE0FFF1FEE0FFF1FE55090
:10394000F44E60817181828193810E947E349B015B
:10395000AC01C301B2010E9472350E944B340E9437
:103960007E340E94D5350E944B34E3966CAF7DAF18
:103970008EAF9FAFE397E196EEADFFADE197AF015C
:10398000662757FD6095762F812F0E9440058401A0
:1039900023E041E0C301B2010E94DC350E94A3177D
:1039A000E196FFADE197FF93E0962FADE0972F935F
:1039B0009F938F939F928F923F922F92DF92CF92FD
:1039C0000E94F4360FB6F894DEBF0FBECDBF94E070
:1039D000E90EF11CAEE4EA16ACE1FA0609F08ECF6E
:1039E000C6010E94C6158A2DCE58DF4F0FB6F89437
:1039F000DEBF0FBECDBFDF91CF911F910F91FF9022
:103A0000EF90DF90CF90BF90AF909F908F907F907E
:103A10006F905F904F903F902F900895F0E0EE0FE1
:103A2000FF1FEE0FFF1FEA5EFD4F608171818281F3
:103A300093810E944B347ECF0F931F93CF93DF93DC
:103A400022E5EFE1F7E0A6ECBDE101900D922A95A9
:103A5000E1F79C0146EC5DE162E37CE186E090E009
:103A60000E946E158C01009729F1C6E3DCE105C0C8
:103A700024968CE1CE34D807C9F0288139812115EC
:103A80003105B1F38A819B81892B91F3C90101969C
:103A90000E940236AB01BC01E881F98180810E945D
:103AA0007A0624968CE1CE34D80739F781E797E07F
:103AB0000E94C615802FDF91CF911F910F9108951D
:103AC000FF920F931F93CF93DF9321E4EFE7F7E08B
:103AD000A6ECBDE101900D922A95E1F79C0146EC20
:103AE0005DE162E37CE187E090E00E946E158C016D
:103AF000009701F160EC77E08091361C9091371CC3
:103B00000E947E36FF24F394892B09F0F12CCAE33E
:103B1000DCE1E881F981309721F02A813B81232B78
:103B200081F424968CE1CE34D80799F787EC97E09E
:103B30000E94C615802FDF91CF911F910F91FF90AA
:103B400008956F2D80810E94B514EBCFCF92DF9244
:103B5000EF92FF920F931F93CF93DF93CDB7DEB712
:103B6000C456D1090FB6F894DEBF0FBECDBF2DE10C
:103B7000E6EDF7E0A6ECBDE101900D922A95E1F7A4
:103B80009C0146EC5DE162E37CE182E090E00E9412
:103B90006E158C01009709F454C0E090361CF0902B
:103BA000371C63EF77E0C7010E947E366C0161E04D
:103BB00078E0C7010E947E36CD28E1F08091291C73
:103BC0008F938091281C8F9389E098E09F938F9327
:103BD000CE0101967C01FF928F930E94F436C701BB
:103BE0000E94C615802F0F900F900F900F900F908E
:103BF0000F9028C0892BB1F18091311C8F93809157
:103C0000301C8F9380912F1C8F9380912E1C8F934B
:103C100080912D1C8F9380912C1C8F9385E198E0CF
:103C20009F938F93CE0101967C01FF928F930E9408
:103C3000F4360FB6F894DEBF0FBECDBFC7010E94A9
:103C4000C615802FCC59DF4F0FB6F894DEBF0FBEDC
:103C5000CDBFDF91CF911F910F91FF90EF90DF903B
:103C6000CF900895CE0101967C01E8CFCF93DF93EA
:103C7000EC0186E1E6E2F8E0A6ECBDE101900D92F0
:103C80008A95E1F79E0146EC5DE162E37CE182E02A
:103C900090E00E946E15892B91F586E1ECE3F8E047
:103CA000A6ECBDE101900D928A95E1F79E0146ECEC
:103CB0005DE162E37CE182E090E00E946E15892B79
:103CC000C1F489E1E2E5F8E0A6ECBDE101900D92D6
:103CD0008A95E1F79E0146EC5DE162E37CE182E0DA
:103CE00090E00E946E15892B81F480E0DF91CF91E6
:103CF00008950E94931481E0DF91CF9108950E946E
:103D0000A41481E0DF91CF9108950E94F51381E022
:103D1000DF91CF9108958F929F92AF92BF92CF92F1
:103D2000DF92EF92FF920F931F93CF93DF93CDB764
:103D3000DEB7CE56D1090FB6F894DEBF0FBECDBFA9
:103D400029E1EBE6F8E0A6ECBDE101900D922A95A1
:103D5000E1F79C0146EC5DE162E37CE182E090E00A
:103D60000E946E155C01009751F18091361C909174
:103D7000371C0E9402366B017C010E94B80F4E0175
:103D800085E6880E911C840121E043E0C701B6015D
:103D90000E94DC359F928F9284E898E09F938F93E6
:103DA000045611091F930F930E94F436C8010E9414
:103DB000C6150F900F900F900F900F900F908A2DB7
:103DC000C259DF4F0FB6F894DEBF0FBECDBFDF91F3
:103DD000CF911F910F91FF90EF90DF90CF90BF9008
:103DE000AF909F908F900895CF92DF92EF92FF92C5
:103DF0000F931F93CF93DF93CDB7DEB7CE5AD10980
:103E00000FB6F894DEBF0FBECDBF29E1E8E9F8E0B8
:103E1000DE01AB59BF4F01900D922A95E1F79C014D
:103E2000AE014B595F4F62E37CE182E090E00E947B
:103E30006E157C01009721F18091361C9091371C02
:103E40000E9402366E0125EAC20ED11C860121E0D5
:103E500043E00E94DC35DF92CF9281EB98E09F93A4
:103E60008F93045A11091F930F930E94F436C801CF
:103E70000E94C6150F900F900F900F900F900F900B
:103E80008E2DC255DF4F0FB6F894DEBF0FBECDBFEB
:103E9000DF91CF911F910F91FF90EF90DF90CF9026
:103EA00008954F925F926F927F92AF92BF92CF929E
:103EB000DF92EF92FF920F931F93CF93DF93CDB7D3
:103EC000DEB7C659D1090FB6F894DEBF0FBECDBF1D
:103ED00022E4E5ECF8E0A6ECBDE101900D922A9514
:103EE000E1F79C0146EC5DE162E37CE183E090E078
:103EF0000E946E155C01009709F4B6C0C090361C94
:103F0000D090371C67E079E0C6010E947E36892B8D
:103F100009F4F3C080913A1C90913B1C0E94023638
:103F20006B017C019B01AC016091171C7091181C06
:103F30008091191C90911A1C0E94E3330E944B340B
:103F40006093FB1B7093FC1B8093FD1B9093FE1BE7
:103F50006093FF1B7093001C8093011C9093021CC4
:103F60003E019DE8690E711C830121E043E0C70119
:103F7000B6010E94DC357F926F9286E199E09F93B3
:103F80008F936E0125E6C20ED11CDF92CF920E9464
:103F9000F436B601CE0101967C010E945336609141
:103FA000FF1B7091001C8091011C9091021C0E94CB
:103FB0007E3421E043E00E94DC350E94A3179F93EA
:103FC0008F937F926F9289E299E09F938F93DF9214
:103FD000CF920E94F436B601C7010E945336C70142
:103FE0000E94C615C090361CD090371C0FB6F894AE
:103FF000DEBF0FBECDBF4091381C5091391C6BE322
:1040000079E0C6010E947036892B09F444C0809182
:104010003A1C90913B1C0E94023660930F1C7093D7
:10402000101C8093111C9093121C6E0123E8C20E89
:10403000D11C860121E043E00E94DC350E94A317D9
:104040009F938F93DF92CF928FE599E09F938F9309
:10405000FF92EF920E94F436C7010E94C6150FB678
:10406000F894DEBF0FBECDBF8A2DCA56DF4F0FB604
:10407000F894DEBF0FBECDBFDF91CF911F910F919E
:10408000FF90EF90DF90CF90BF90AF907F906F90B8
:104090005F904F90089580913A1C90913B1C0E9434
:1040A00002362B013C016093131C7093141C809307
:1040B000151C9093161C2BED3FE049E450E40E9440
:1040C00072356093171C7093181C8093191C909381
:1040D0001A1C6E0193E8C90ED11C860121E043E051
:1040E000C301B2010E94DC350E94A3179F938F93F6
:1040F000DF92CF928AE499E0A9CFCE0101967C01AC
:104100007ACF0F931F93CF93DF93CDB7DEB7CF5FF7
:10411000D1090FB6F894DEBF0FBECDBF8091271C2A
:104120001F928F938091261C1F928F938091251C44
:104130001F928F938091241C1F928F938091231C38
:104140001F928F9386E799E09F938F938E010F5F65
:104150001F4F1F930F930E94F436F8010190002027
:10416000E9F731972DE03AE040E020833183428344
:10417000C8010E94C6150FB6F894DEBF0FBECDBFB2
:10418000C150DF4F0FB6F894DEBF0FBECDBFDF9139
:10419000CF911F910F9108954F925F926F927F92EE
:1041A0008F929F92AF92BF92CF92DF92EF92FF9247
:1041B0000F931F93CF93DF93CDB7DEB7C752D14094
:1041C0000FB6F894DEBF0FBECDBF81E1E3E9F9E0A1
:1041D0009E012F5F3F4F5901D90101900D928A95A1
:1041E000E1F76E01D3946091131C7091141C8091BF
:1041F000151C9091161C860121E043E00E94DC35DD
:10420000B601C5010E9453360E94A317BC01C50127
:104210000E945336D5010D900020E9F711978DE0EB
:10422000E82E8AE0F82E1196FC92EE92129683E127
:10423000E4EAF9E001900D928A95E1F760910F1C94
:104240007091101C8091111C9091121C21E043E090
:104250000E94DC35B601C5010E9453360E94A317A7
:10426000BC01C5010E945336D5010D900020E9F72D
:1042700011971196FC92EE92129686E1E7EBF9E027
:1042800001900D928A95E1F72BED3FE049E450E46F
:104290006091131C7091141C8091151C9091161C38
:1042A0000E9472352B013C0121E043E00E94DC3585
:1042B000B601C5010E9453360E94A317BC01C50177
:1042C0000E945336F50101900020E9F731978DE007
:1042D0009AE0A0E080839183A2839BEFE92E9BE18B
:1042E000F92E20E0822E22E0922E0DEC19E0F7014B
:1042F0008081918132814381F4E0EF0EF11CF40161
:1043000021914F014F933F939F938F93822F992732
:1043100087FD90959F932F931F930F93DF92CF92DA
:104320000E94F436B601C5010E9453360FB6F894C8
:10433000DEBF0FBECDBF3FE0E3163CE1F306B9F6AA
:10434000D5010D900020E9F7119781E1E4EEF9E045
:1043500001900D928A95E1F76091FB1B7091FC1B17
:104360008091FD1B9091FE1B0E947E349B01AC014D
:10437000C301B2010E94E3330E944B34882777FDCA
:104380008095982F0E947E34860121E043E00E94B0
:10439000DC35B601C5010E9453360E94A317BC014B
:1043A000C5010E945336F50101900020E9F73197CD
:1043B0008DE09AE0A0E080839183A283C5010E94F2
:1043C000C615C95DDE4F0FB6F894DEBF0FBECDBF78
:1043D000DF91CF911F910F91FF90EF90DF90CF90E1
:1043E000BF90AF909F908F907F906F905F904F9015
:1043F00008956F927F928F929F92AF92BF92CF92C9
:10440000DF92EF92FF920F931F93CF93DF932FE3EF
:10441000E5EFF9E0A6ECBDE101900D922A95E1F7F8
:104420009C0146EC5DE162E37CE182E090E00E9469
:104430006E153C01009769F1C091361CD091371C74
:1044400064E37AE0CE010E947E368C016BE37AE071
:10445000CE010E947E367C0166E47AE0CE010E94A5
:104460007E365C016FE47AE0CE010E947E366C01FC
:1044700067E57AE0CE010E947E364C016DE57AE078
:10448000CE010E947E36012BA1F00E94812081E0A6
:1044900001C0862DDF91CF911F910F91FF90EF907A
:1044A000DF90CF90BF90AF909F908F907F906F9054
:1044B0000895EF2821F00E94CC2081E0EBCFCD2899
:1044C00021F00E94DB1581E0E5CFAB2821F00E94AE
:1044D000321681E0DFCF892821F00E94CD1681E0DD
:1044E000D9CF892BB1F20E94681781E0D3CFCF9347
:1044F000DF93CDB7DEB7D4500FB6F894DEBF0FBE52
:10450000CDBF82E2ECE6FAE0DE01119601900D9259
:104510008A95E1F78DE4EFE8FAE0DE0193960190E9
:104520000D928A95E1F78AE4EDEDFAE0DE01A059FB
:10453000BF4F01900D928A95E1F786E4E8E2FBE037
:10454000DE01A654BF4F01900D928A95E1F783E3F7
:10455000EFE6FBE0DE01B39501900D928A95E1F75D
:10456000CE0101960E94961382E1E2EAFBE0DE01B1
:10457000119601900D928A95E1F78DE3E5EBFBE052
:10458000DE01539601900D928A95E1F78EE3E3EFF9
:10459000FBE0DE01A05BBF4F01900D928A95E1F731
:1045A00081E7E2E3FCE0DE01A257BF4F01900D92EC
:1045B0008A95E1F780E4E4EAFCE0DE01A150BF4F18
:1045C00001900D928A95E1F78AE4E5EEFCE0DE01C8
:1045D000A15CBE4F01900D928A95E1F780E4E0E383
:1045E000FDE0DE01A757BE4F01900D928A95E1F7DD
:1045F000CE0101960E94961385E1E0E7FDE0DE0121
:10460000119601900D928A95E1F788E4E6E8FDE0C5
:10461000DE01569601900D928A95E1F78AE3EFEC60
:10462000FDE0DE01A25ABF4F01900D928A95E1F79D
:1046300089E3EAE0FEE0DE01A856BF4F01900D924B
:104640008A95E1F78DE3E4E4FEE0DE01AF52BF4F6F
:1046500001900D928A95E1F781E4E2E8FEE0DE0147
:10466000A25FBE4F01900D928A95E1F78DE4E4ECD4
:10467000FEE0DE01A15BBE4F01900D928A95E1F74D
:1046800087E4E2E1FFE0DE01A456BE4F01900D9207
:104690008A95E1F7CE0101960E94961388E1E9E53B
:1046A000FFE0DE01119601900D928A95E1F780E618
:1046B000E1E7FFE0DE01589601900D928A95E1F75F
:1046C00085E6E2EDFFE0DE01A858BF4F01900D92B4
:1046D0008A95E1F788E5E8E3F0E1DE01A352BF4FF8
:1046E00001900D928A95E1F780E5E1E9F0E1DE01C4
:1046F000AB5CBE4F01900D928A95E1F78EE5E1EE3D
:10470000F0E1DE01AC57BE4F01900D928A95E1F7C2
:104710008BE2E0E4F1E1DE01AE51BE4F01900D927B
:104720008A95E1F7CE0101960E9496138DE5EBE69E
:10473000F1E1DE01119601900D928A95E1F78AE58B
:10474000E9ECF1E1DE01A25ABF4F01900D928A958A
:10475000E1F788E4E4E2F2E1DE01A854BF4F019002
:104760000D928A95E1F782E8EDE6F2E1DE01B3957C
:1047700001900D928A95E1F780E6E0EFF2E1DE012B
:10478000AE57BE4F01900D928A95E1F786E5E0E5C0
:10479000F3E1DE01AF51BE4F01900D928A95E1F732
:1047A00088E5E7EAF3E1DE01A95CBD4F01900D92D7
:1047B0008A95E1F78AE4E0E0F4E1DE01A157BD4F1C
:1047C00001900D928A95E1F7CE0101960E94961311
:1047D00080E1EAE4F4E1DE01119601900D928A9500
:1047E000E1F78DE3EBE5F4E1DE01519601900D92E6
:1047F0008A95E1F780E4E9E9F4E1DE01A25BBF4FCD
:1048000001900D928A95E1F788E3EAEDF4E1DE018B
:10481000A257BF4F01900D928A95E1F784E3E3E13F
:10482000F5E1DE01AA53BF4F01900D928A95E1F7A1
:104830008EE2E7E4F5E1DE01A750BF4F01900D9253
:104840008A95E1F7CE0101960E9496130E94BB1350
:10485000DC5F0FB6F894DEBF0FBECDBFDF91CF9106
:104860000895CF93DF93EC011092C71E1092C61EDD
:104870000E948018882319F0DF91CF910895CE010E
:104880000E94B7188111F8CFCE010E9461198111E1
:10489000F3CFCE010E94441A8111EECFCE010E94C7
:1048A000F9218111E9CFCE010E94B51A8111E4CF1F
:1048B000CE010E94EF1A8111DFCFCE010E94881B2A
:1048C0008111DACFCE010E94341C8111D5CFCE01E7
:1048D0000E941C1D8111D0CFCE010E94601D81114C
:1048E000CBCFCE010E94A61D8111C6CFCE010E9462
:1048F000361E8111C1CFCE010E948B1E8111BCCF0B
:10490000CE010E94F41E8111B7CFCE010E94511F2B
:104910008111B2CF65E775E1CE010E947E36892B09
:1049200021F0DF91CF910C9477228AE795E1DF9116
:10493000CF910C94C61508959B01AC016093171C90
:104940007093181C8093191C90931A1C60911B1C67
:1049500070911C1C80911D1C90911E1C0E94E333C1
:104960000E944B346093FB1B7093FC1B8093FD1BD8
:104970009093FE1B6093FF1B7093001C8093011C9F
:104980009093021C089560930F1C7093101C8093E9
:10499000111C9093121C08950E944B346093FB1BD2
:1049A0007093FC1B8093FD1B9093FE1B6093FF1B79
:1049B0007093001C8093011C9093021C08958F92A9
:1049C0009F92AF92BF92CF92DF92EF92FF924B01F4
:1049D0005C012BED3FE049E450E460910F1C7091C5
:1049E000101C8091111C9091121C0E9472356B0159
:1049F0007C0120E030E044EB53E4C501B4010E94A7
:104A0000E3339B01AC01C701B6010E9472352091CE
:104A10001B1C30911C1C40911D1C50911E1C0E949F
:104A200072356B017C016091361770913717809158
:104A30003817909139170E947C34A70196010E9483
:104A400067330E9450340E94AA0460914E177091FF
:104A50004F1780915017909151170E947C34A701F5
:104A600096010E9468330E945034FF90EF90DF90CF
:104A7000CF90BF90AF909F908F900C94C804CF922E
:104A8000DF92EF92FF926B017C012BED3FE049E456
:104A900050E46091171C7091181C8091191C909122
:104AA0001A1C0E9472359B01AC01C701B6010E941D
:104AB000E33320911B1C30911C1C40911D1C509114
:104AC0001E1C0E9472356B017C016091361770913B
:104AD000371780913817909139170E947C34A701BD
:104AE00096010E9468330E9450340E94AA0460918B
:104AF0004E1770914F1780915017909151170E9447
:104B00007C34A70196010E9468330E945034FF90C4
:104B1000EF90DF90CF900C94C804B22FA32FF42F06
:104B2000E52F0097A9F06115710591F0823091058C
:104B300031F183309105A9F0019751F4623071058C
:104B400009F452C063307105D9F16130710521F06B
:104B5000B0E0A0E0F0E0E0E06B2F7A2F8F2F9E2FE7
:104B6000089562307105D9F163307105A9F36130A0
:104B7000710571F720E030E040E451E40DC062308F
:104B8000710551F363307105B1F06130710501F7C2
:104B900026EF3AE74DE152E46B2F7A2F8F2F9E2FAD
:104BA0000E947235B62FA72FF82FE92F6B2F7A2F7F
:104BB0008F2F9E2F089528E439EF41E550E4ECCF84
:104BC00020E030E040E451E46B2F7A2F8F2F9E2FAE
:104BD0000E94E333B62FA72FF82FE92FBDCF2FEB7D
:104BE0003EE04CE95EE3D8CF29EA33E140ED5CE3F7
:104BF000D3CF4F925F926F927F928F929F92AF929C
:104C0000BF92CF92DF92EF92FF920F931F93CF93B9
:104C1000DF93CDB7DEB728970FB6F894DEBF0FBE8F
:104C2000CDBF49015A01ED82FE820F83188720E033
:104C300030E044EB53E40E94E3336B017C012BED45
:104C40003FE049EC50E4C501B4010E947235A70170
:104C500096010E9472352B013C0120910F1C30916E
:104C6000101C4091111C5091121CC501B4010E94EE
:104C700068332BED3FE049EC50E40E947235A70108
:104C800096010E9472356B017C01B301A20186E797
:104C90000E94021869837A838B839C83B701A601E3
:104CA00087E70E9402184B015C01609136177091F2
:104CB0003717809138179091391729813A814B81A4
:104CC0005C81620F731F841F951F0E94AA0460916C
:104CD0004E1770914F178091501790915117680D92
:104CE000791D8A1D9B1D0E94C8042D813E814F8124
:104CF0005885C701B6010E94E3334B015C019B015B
:104D0000AC01C701B6010E94E3336B017C01A50130
:104D10009401C301B2010E94E33320E030E040EC93
:104D200051E40E94E333AB01BC0186E70E94170601
:104D300020E030E040EC51E4C701B6010E94E333CB
:104D4000AB01BC0187E728960FB6F894DEBF0FBE13
:104D5000CDBFDF91CF911F910F91FF90EF90DF902A
:104D6000CF90BF90AF909F908F907F906F905F900B
:104D70004F900C9417064F925F926F927F928F9292
:104D80009F92AF92BF92CF92DF92EF92FF920F93DA
:104D90001F93CF93DF93CDB7DEB72C970FB6F89460
:104DA000DEBF0FBECDBF29013A01E986FA860B8727
:104DB0001C8720E030E044EB53E40E94E3336B01B6
:104DC0007C012BED3FE049EC50E4C301B2010E94AD
:104DD0007235A70196010E9472354B015C0120914A
:104DE0000F1C3091101C4091111C5091121CC301DA
:104DF000B2010E9468332BED3FE049EC50E40E9481
:104E00007235A70196010E9472356B017C01B501D4
:104E1000A40186E70E94021869837A838B839C83AE
:104E2000B701A60187E70E9402186D837E838F83F6
:104E30009887609136177091371780913817909145
:104E400039170E947C342B013C0169817A818B8166
:104E50009C810E947E349B01AC01C301B2010E947F
:104E600068330E9450340E94AA0460914E177091DA
:104E70004F1780915017909151170E947C342B014D
:104E80003C016D817E818F8198850E947E349B01DB
:104E9000AC01C301B2010E9468330E9450340E94E9
:104EA000C80429853A854B855C85C701B6010E94F7
:104EB000E3332B013C019B01AC01C701B6010E9409
:104EC000E3336B017C01A3019201C501B4010E948F
:104ED000E33320E030E040EC51E40E94E333AB01E7
:104EE000BC0186E70E94170620E030E040EC51E468
:104EF000C701B6010E94E333AB01BC0187E72C96E2
:104F00000FB6F894DEBF0FBECDBFDF91CF911F91DA
:104F10000F91FF90EF90DF90CF90BF90AF909F9058
:104F20008F907F906F905F904F900C941706CF9268
:104F3000DF92EF92FF920F931F9369017A016091C4
:104F4000F91B7091FA1B20E030E040E85FE381E05C
:104F500090E00E948D259B01AC018701760160E005
:104F600070E084EB92E40E94BB261F910F91FF90AA
:104F7000EF90DF90CF900895CF92DF92EF92FF9263
:104F80000F931F9369017A016091F91B7091FA1BCD
:104F900020E030E040E85FE381E090E00E948D2572
:104FA0009B01AC018701760160E070E084EB92E444
:104FB0000E94F9251F910F91FF90EF90DF90CF9005
:104FC0000895F999FECF92BD81BD60BDFA9AF99A14
:104FD0000895F999FECF92BD81BDF89A80B50895E4
:104FE000DC01ED91FC9111979F012F5F3F4F2D93B5
:104FF0003C938081482F552747FD5095652F752F8D
:10500000FA01F097E534F10520F0992787FD909596
:105010000895EE58FF4F0C9430338DE090E00895E2
:1050200080E09FE0089589E090E0089580E090E0BE
:10503000089580E090E1089580E091E108958AE08C
:1050400090E00895161617061CF5FC01FE5F4081DE
:1050500051814F3F510509F0E4F49A012F5F3F4F12
:1050600031832083FC01E40FF51F1082AB01425015
:10507000510942175307E4F4F901E41BF50BEF3F24
:10508000F10509F06CF4FC01E60FF71F241B2083E7
:1050900008952FE835E13896318320839A01E6CFD1
:1050A000FC01E85FFD4F2EEA35E13183208308954E
:1050B0000E94FD352F923F924F925F926F927F92A6
:1050C0008F929F92AF92BF92CF92DF92EF92FF9218
:1050D0000F931F93CF93DF9300D000D0CDB7DEB7EF
:1050E0005C017E836D831A0149013801FA82E982ED
:1050F000EE24E394F12C2C012EEF521ACD80DE80A9
:10510000CA0CDB1CD6012C91222309F466C0D20103
:105110008D919C91ED81FE81E817F9070CF042C258
:105120004D815E814F3F510511F00CF03BC2822F43
:1051300090E0FC013197E131F10570F0FE81FF93C1
:105140003D813F931F922F9385EC95E19F938F9321
:105150000E94E2360E94FD35E954FF4F0C94303333
:10516000D3010D911C91081519050CF4DAC1E12C3D
:10517000F12C2D813E812F5F3F4F3E832D83CCC08C
:10518000D3010D90BC91A02DBC83AB83E980FA8044
:1051900083019401A1016D817E816E5F7F4FC50106
:1051A0000E945A28892B09F01EC12B813C81F301F2
:1051B0003183208318C1E980FA8083019401A10121
:1051C0006D817E816E5F7F4FC5010E945A287C01F0
:1051D000009709F0B9C1E12CF12CC70126960FB652
:1051E000F894DEBF0FBECDBFDF91CF911F910F911D
:1051F000FF90EF90DF90CF90BF90AF909F908F90F7
:105200007F906F905F904F903F902F900895F301A3
:10521000A081B181A815B9050CF065C0F6014281E5
:1052200050E0818190E08C0113950A0D1B1D9101C6
:105230002A0F3B1FF9016081772767FD70954115A3
:105240005105C1F08A0D9B1D9395FC01808190E072
:105250006817790709F447C0F801319680E090E0BB
:1052600005C0219130E062177307E9F101968417B8
:105270009507BCF31196F301B183A083EE24E39468
:10528000F12C33C0F301A081B181A815B9055CF5FB
:10529000F601428150E0818190E08C0113950A0D66
:1052A0001B1D91012A0F3B1FF9016081772767FDC4
:1052B000709541155105B9F08A0D9B1D9395FC0120
:1052C000808190E068177907A9F2F801319680E0B3
:1052D00090E005C0219130E06217730759F2019602
:1052E00084179507BCF3E12CF12C2D813E812D5FB5
:1052F0003F4F3E832D8310C031E020E0D3018D91DC
:105300009C918816990609F030E0E32EF22EED818B
:10531000FE813196FE83ED83E114F10409F0EECEB7
:105320005CCF31E020E0D3018D919C91892B69F312
:10533000EBCF29813A8121153105A1F0D6011196D3
:105340008C91F901B4E08B9FE00DF11D1124D30184
:105350008D919C91820D931D20813181821B930B35
:1053600093838283ED81FE813296FE83ED83D4CFD9
:1053700029813A8121153105A9F3D60111968C9125
:10538000F901B4E08B9FE00DF11D1124D3018D9143
:105390009C91820D931D91838083ED81FE813296D5
:1053A000FE83ED83B9CFE980FA8083019401A101E6
:1053B0006D817E816E5F7F4FC5010E945A287C01FE
:1053C000009709F408CF9401A1016D817E81C50188
:1053D0000E94D42AC0C083019401A1016D817E8105
:1053E000C5010E94D42AD60111968C91ED81FE81CF
:1053F000E80FF11DFE83ED83EE24E394F12C7ECEC5
:1054000083019401A1016D817E81C5010E94452B1C
:10541000EACFD3010D90BC91A02DBC83AB83E98072
:10542000FA8083019401A1016D817E816D5F7F4FC0
:10543000C5010E945A287C01009709F496C0F60124
:1054400082812D813E81280F311D3E832D8364CFC3
:10545000D3010D911C91081519050CF088CEF101AE
:10546000E00FF11F808190E00E942C36892B09F01B
:105470007ECE0F5F1F4FF30111830083EE24E39470
:10548000F12C77CED3018D919C91119788159905B8
:1054900074F5F101E80FF91F208130E02053310944
:1054A0002A30310520F501968D939C93EE24E394E8
:1054B000F12C2DCFD60112960C91129710E0F3012A
:1054C000E080F180C4018E199F098017910794F440
:1054D000E12CF12CED81FE813396FE83ED831CCF10
:1054E000D3018D919C91119788159905E4F2E12CD7
:1054F000F12C0DCF11966C9170E073956A0D7B1DA8
:10550000A801C1018E0D9F1D0E943436892B01F721
:10551000E00EF11ED301ED92FC92EE24E394F12C07
:10552000D9CFF101E00FF11F808190E00E942C366D
:10553000892B09F41CCE0F5F1F4FF30111830083E9
:10554000EE24E394F12C15CE9401A1016D817E81AE
:10555000C5010E94452BD60111968C91ED81FE81EB
:10556000E80FF11DFE83ED83C9CD2B813C81F30152
:1055700031832083D60111968C916D817E81680FD5
:10558000711DE980FA809401A101C5010E945A2889
:105590007C01F60182812D813E81280F311D3E83E1
:1055A0002D83BACE0E94FD352F923F924F925F928B
:1055B0006F927F928F929F92AF92BF92CF92DF9223
:1055C000EF92FF920F931F93CF93DF9300D000D001
:1055D000CDB7DEB79E838D834B015A016901380137
:1055E000F801F081FB83F801F181FC832B0182E05B
:1055F000480E511CED81FE81E60FF71F3196FA83AC
:10560000E98319C0F30120803180E981FA8180812A
:10561000B401680F711DE12CF12C83019601A501E5
:105620008D819E810E945A28892B11F02B823C8209
:10563000F30120823182E12CF12C83019601A50136
:10564000B2018D819E810E945A28892BD9F68B81C7
:10565000F30180839C81918326960FB6F894DEBF78
:105660000FBECDBFDF91CF911F910F91FF90EF90B3
:10567000DF90CF90BF90AF909F908F907F906F9072
:105680005F904F903F902F9008952F923F924F92AE
:105690005F926F927F928F929F92AF92BF92CF92C2
:1056A000DF92EF92FF920F931F93CF93DF9300D07F
:1056B0001F92CDB7DEB76C013B014A0159011C8333
:1056C0000B83F801408051801B01F2E02F0E311C4A
:1056D000860F971F01969A83898315C0EB81FC8101
:1056E00040805180E981FA818081B301680F711D8A
:1056F000E12CF12C0B811C819501A401C6010E94B3
:105700005A28892B61F4E12CF12C0B811C81950125
:10571000A401B101C6010E945A28892BF9F6EB8138
:10572000FC81518240820F900F900F900F90DF917B
:10573000CF911F910F91FF90EF90DF90CF90BF908E
:10574000AF909F908F907F906F905F904F903F9021
:105750002F900895BF92CF92DF92EF92FF920F9316
:105760001F93CF93DF938C01EB01B42E7C01E60EE7
:10577000F71ED7016C91CE01633009F451C0029637
:105780006801BEEFDB1AF601208131812F3F310520
:1057900009F0ACF5B9016F5F7F4FF601718360834B
:1057A000F801E20FF31F1082AB014C1B5D0BB70138
:1057B000800F911F0E944136D6012D913C91119787
:1057C0002E5F3F4F2D933C93F701B082C217D30752
:1057D0000CF076C0C9018C1B9D0B8F3F910509F021
:1057E000BCF42C1BD70111962C93DF91CF911F9104
:1057F0000F91FF90EF90DF90CF90BF9008954FE80A
:1058000055E1F801E85FFD4F51834083B901CCCFEA
:10581000F801E85FFD4F8EEA95E191838083E5CF43
:105820000296F801E80FF91F2081223008F4A8CF72
:105830002150208368012EEFD21AD6012D913C9180
:1058400011972F3F310509F09CF5A9014F5F5F4F7C
:105850004D935C93D801A20FB31F6C93E701A9810C
:1058600060814F3F510509F06CF5C9010296F601C0
:1058700091838083F801E40FF51F70E06A0F711DBA
:1058800060838F3F910509F094F42D5F3F4FD6015F
:105890002D933C93F801E80FF91F41E04083E901A3
:1058A00023977801EC0EFD1EC90101976FCF9C0173
:1058B0008FE895E1F801E85FFD4F91838083EFCF9A
:1058C0000E94FD359A01F4CF2F923F924F925F9242
:1058D0006F927F928F929F92AF92BF92CF92DF9200
:1058E000EF92FF920F931F93CF93DF93CDB7DEB765
:1058F00064970FB6F894DEBF0FBECDBF8C018C5FEE
:105900009D4F9C838B83DC010D90BC91A02DBC87A7
:10591000AB877801BEEFFB1AF7016080718043010D
:1059200019861A866801F2E0CF0EDF1E04969A836C
:105930008983D801A60DB71DBE83AD832301B3E0D3
:105940004B0E511C400E511EF3013296F887EF8327
:10595000E00FF11FFE87ED878D819E810196988B68
:105960008F877A8B698BA989BA892D903C90119782
:10597000F1013196ED93FC93D1018C918C320CF4B2
:105980004DC08B3509F478C10CF484C08E3509F410
:1059900064C18C3709F41EC18C3509F490C0E989C3
:1059A000FA8931822082D7018D909C90F601A080E7
:1059B000B1800AC02DED35E1E981FA813183208380
:1059C000E989FA8920803180D1016C91662309F43C
:1059D00091C0772767FD70958AE396E10E945E3655
:1059E000892B09F087C0C1010196A989BA898D93D5
:1059F0009C93F1014081D6018D919C918F3F91053F
:105A000009F0C4F69C012F5F3F4FD6012D933C93C4
:105A1000800F911FFC01F3954083D2CF8A320CF0A6
:105A2000C0C0843209F4AAC00CF441C0883209F421
:105A300078C1893209F0B3CF29893A89F9013182D5
:105A4000208269857A85C8010E9422282B853C85A1
:105A5000232B39F4F801E85FFD4F86E296E191834C
:105A6000808364960FB6F894DEBF0FBECDBFDF9182
:105A7000CF911F910F91FF90EF90DF90CF90BF904B
:105A8000AF909F908F907F906F905F904F903F90DE
:105A90002F9008958E3209F45EC08F3309F07FCFC6
:105AA0004EE050E0B401C8010E94AA2B5CCF8111E6
:105AB00076CF29893A89F90131822082D2CFD70164
:105AC0008D909C9089899A890E94F0279C012227B9
:105AD000F701232B09F406C2208131812F3F3105C4
