S00C0000466976652E737265638E
S11300000C94730D0C9440190C948F190C94DE19F4
S11300100C942D1A0C94931A0C94940D0C94940D26
S11300200C94940D0C94940D0C94940D0C94940DC8
S11300300C94940D0C94940D0C94940D0C94940DB8
S11300400C94940D0C94940D0C94940D0C94940DA8
S11300500C94940D0C94AB0D0C94940D0C94940D81
S11300600C94940D0C9491230C94940D0C949C2258
S11300700C94940D0C94D61B0C94940D0C94940D28
S11300800C94940D0C94940D0C94940D0C94940D68
S11300900C94940D0C94940D0C94940D0C94940D58
S11300A00C94940D0C94940D0C94940D0C94940D48
S11300B00C94940D0C94940D0C94940D0C94940D38
S11300C00C94940D0C94940D0C94940D0C94940D28
S11300D00C94940D0C94940D0C94940D0C94940D18
S11300E00C94940D3A1C4C1C621C781C931C9B1C95
S11300F0A71CB31C111C271C343E233E233E233E65
S1130100233E233E233E233E233E233E233E233EE3
S1130110233E233E233E233E233E233E233E233ED3
S1130120233E233E233E233E233E233E233E233EC3
S1130130233E233E233E233E233E233E233E373E9F
S1130140233E233E233E233E233E233E233E233EA3
S1130150233E233E233E233E233E233E233E233E93
S11301603A3E233E233E233E233E233E233E233E6C
S1130170233E233E3D3E233E233E233E2B3E2E3E46
S1130180313E27408E407840603F253FD63FB73F01
S1130190AF3F9A3F0940F13F1E40F93EDE3ECE3E5E
S11301A0464060400C94931C0C9409400C94373ED8
S11301B00C943A1C0C94111C0C944C1C0C94233E6F
S11301C00C9460400C9478400C9427400C94D63FD7
S11301D00C94A71C0C94AF3F0C941E400C94781CF8
S11301E00C94F93E0C94313E0C9446400C94621CE1
S11301F00C94253F0C943A3E0C948E400C942B3E68
S11302000C94DE3E0C94603F0C949B1C0C949A3F1F
S11302100C94CE3E0C942E3E0C94B73F0C94F13FBC
S11302200C94343E0C94B31C0C943D3E0C94271C4B
S1130230E908B60865081B08CC0790075A07550754
S1130240D206C90555050B05EE04D004B4048C048C
S113025047041B04D9036003E7026E0246066002EA
S113026073747265616D20285C642A293F0073658C
S113027074204B6420285B76565D203F5B2B2D5DFC
S11302803F5C642B2E5C642B293F203F285B77570F
S11302905D203F5B2B2D5D3F5C642B2E5C642B2922
S11302A03F203F285B78585D203F5B2B2D5D3F5CF2
S11302B0642B2E5C642B293F203F285B79595D20F9
S11302C03F5B2B2D5D3F5C642B2E5C642B293F2010
S11302D03F285B7A5A5D203F5B2B2D5D3F5C642B8E
S11302E02E5C642B293F00736574204B6920285BC6
S11302F076565D203F5B2B2D5D3F5C642B2E5C644A
S11303002B293F203F285B77575D203F5B2B2D5DDA
S11303103F5C642B2E5C642B293F203F285B78587C
S11303205D203F5B2B2D5D3F5C642B2E5C642B2991
S11303303F203F285B79595D203F5B2B2D5D3F5C5F
S1130340642B2E5C642B293F203F285B7A5A5D2066
S11303503F5B2B2D5D3F5C642B2E5C642B293F009F
S1130360736574204B7020285B76565D203F5B2BB1
S11303702D5D3F5C642B2E5C642B293F203F285B62
S113038077575D203F5B2B2D5D3F5C642B2E5C64B7
S11303902B293F203F285B78585D203F5B2B2D5D48
S11303A03F5C642B2E5C642B293F203F285B7959EA
S11303B05D203F5B2B2D5D3F5C642B2E5C642B2901
S11303C03F203F285B7A5A5D203F5B2B2D5D3F5CCD
S11303D0642B2E5C642B293F007365742028776896
S11303E065656C206469616D657465727C776865A8
S11303F0656C2073657061726174696F6E7C636F84
S1130400756E74735F7065725F7265762920285CFF
S1130410642B2E5C643F5C643F29007475726E200B
S1130420286C6566747C72696768742920285B2B64
S11304302D5D3F5C642B2E5C643F29202864656736
S113044072656573293F00637572766520286C6553
S113045066747C72696768742920285B2B2D5D3F64
S11304605C642B2E5C643F29202864656772656593
S113047073293F2C3F20285B2B2D5D3F5C642B2E82
S11304805C643F292072616469757300286D6F761E
S1130490657C666F72776172647C6261636B77619D
S11304A072642920285B2B2D5D3F5C642B2E3F5CFE
S11304B0643F29007370696E20282D3F5C642B2EE5
S11304C05C643F29202864656772656573293F0071
S11304D07365742062617365206672657175656EFB
S11304E0637920285C642B2E3F5C643F290072658D
S11304F06164202873657269616C206E756D626534
S1130500727C76657273696F6E290028656E61620C
S11305106C657C64697361626C6529206C696D69C2
S113052074733F203F285B76565D7C616C6C293F79
S1130530203F285B77575D293F203F285B78585D33
S1130540293F203F285B79595D293F203F285B7A6A
S11305505A5D293F005E737065656420285B76569A
S11305605D5B2B2D5D3F5C642B2E3F5C642A293F31
S1130570203F285B77575D5B2B2D5D3F5C642B2E02
S11305803F5C642A293F203F285B78585D5B2B2D14
S11305905D3F5C642B2E3F5C642A293F203F285B2F
S11305A079595D5B2B2D5D3F5C642B2E3F5C642A87
S11305B0293F203F285B7A5A5D5B2B2D5D3F5C64AD
S11305C02B2E3F5C642A293F007365742064657395
S11305D074696E6174696F6E20285B76565D5B2B5F
S11305E02D5D3F5C642B2E3F5C642A293F203F280D
S11305F05B77575D5B2B2D5D3F5C642B2E3F5C640A
S11306002A293F203F285B78585D5B2B2D5D3F5C9A
S1130610642B2E3F5C642A293F203F285B79595D77
S11306205B2B2D5D3F5C642B2E3F5C642A293F20AD
S11306303F285B7A5A5D5B2B2D5D3F5C642B2E3F1C
S11306405C642A293F005E28706F736974696F6E59
S11306507C706F737C504F5329203F285B76565D26
S1130660203F5B2B2D5D3F5C642B2E3F5C642A296D
S11306703F203F285B77575D203F5B2B2D5D3F5C20
S1130680642B2E3F5C642A293F203F285B78585D09
S1130690203F5B2B2D5D3F5C642B2E3F5C642A293D
S11306A03F203F285B79595D203F5B2B2D5D3F5CEC
S11306B0642B2E3F5C642A293F203F285B7A5A5DD5
S11306C0203F5B2B2D5D3F5C642B2E3F5C642A290D
S11306D03F005E28647574797C70776D7C50574D4B
S11306E029203F285B76565D203F5B2B2D5D3F5CC8
S11306F0642B2E5C642B293F203F285B77575D20B9
S11307003F5B2B2D5D3F5C642B2E5C642B293F20CB
S11307103F285B78585D203F5B2B2D5D3F5C642B4D
S11307202E5C642B293F203F285B79595D203F5B79
S11307302B2D5D3F5C642B2E5C642B293F203F28CE
S11307405B7A5A5D203F5B2B2D5D3F5C642B2E5CF6
S1130750642B293F0073746F7000686F6D65203FD0
S1130760285B76567C616C6C5D293F203F285B7763
S1130770575D293F203F285B78585D293F203F285B
S11307805B79595D293F203F285B7A5A5D293F00F8
S11307906D6561737572652074726176656C203F56
S11307A0285B76565D293F203F285B77575D293FBC
S11307B0203F285B78585D293F203F285B79595DAD
S11307C0293F203F285B7A5A5D293F0072656164A6
S11307D02028706F736974696F6E7C706F737C64AA
S11307E0657374696E6174696F6E7C73706565643A
S11307F07C63757272656E747C7374617475737CDA
S1130800726F626F7420696E666F7C6261736520BB
S11308106672657175656E63792900287A65726FF1
S11308207C7265736574292028656E636F646572D4
S1130830733F29203F285B76565D7C616C6C293FB1
S1130840203F285B77575D293F203F285B78585D20
S1130850293F203F285B79595D293F203F285B7A57
S11308605A5D293F00287365747C72656164292090
S1130870285C642B2920636F756E74735F706572D6
S11308805F756E697420285B76565D7C616C6C299B
S11308903F203F285B77575D293F203F285B7858EE
S11308A05D293F203F285B79595D293F203F285B24
S11308B07A5A5D293F005E287365747C73656C65A4
S11308C063747C726561642920756E6974203F28A5
S11308D0636F756E74737C696E63687C6D65746533
S11308E0727C66656574293F007573652028656EA2
S11308F0636F646572733F7C706F74656E74696F47
S11309006D65746572733F7C504F54537C706F7483
S11309107329203F285B76565D7C616C6C293F20EF
S11309203F285B77575D293F203F285B78585D2936
S11309303F203F285B79595D293F203F285B7A5A45
S11309405D293F005F0B060BC10A700A2F0AE109FB
S11309508E09540964656661756C7420636F6E66F4
S1130960696775726174696F6E2C207265616420A9
S113097073657269616C206E756D6265722C20728C
S11309806561642076657273696F6E0D0A00737019
S1130990696E2C20666F72776172642C20626163C9
S11309A06B776172642C207265616420726F626F70
S11309B07420696E666F2C207361766520636F6E98
S11309C066696775726174696F6E2C207265616403
S11309D020636F6E66696775726174696F6E2C202F
S11309E00073657420776865656C20736570617247
S11309F06174696F6E2C2073657420776865656C0B
S1130A00206469616D657465722C2073657420635C
S1130A106F756E74735F7065725F7265762C207388
S1130A206574204B702C20736574204B692C007AFC
S1130A3065726F20656E636F6465722C2070776DCC
S1130A402C20706F736974696F6E2C2073706565E8
S1130A50642C20686F6D652C206D656173757265FB
S1130A602074726176656C2C2073746F702C200076
S1130A70726561642073706565642C2072656164BD
S1130A802063757272656E742C20726561642073C4
S1130A9074617475732C207265616420626173657E
S1130AA0206672657175656E63792C207365742098
S1130AB062617365206672657175656E63792C2059
S1130AC0007265616420636F756E74735F70657224
S1130AD05F756E69742C20656E61626C65206C694B
S1130AE06D6974732C2064697361626C65206C6930
S1130AF06D6974732C207265616420706F736974FE
S1130B00696F6E2C200075736520656E636F646574
S1130B10722C2075736520706F74656E74696F6DC7
S1130B20657465722C2073656C65637420756E69D9
S1130B3074205F5F2C207265616420756E69742C6B
S1130B4020736574205F5F20636F756E74735F70CC
S1130B5065725F756E697420767778797A2C000DEA
S1130B600A434F4D4D414E44204C4953543A0D0ACB
S1130B7000E8128B193E19F518E018A11863181B28
S1130B8018D417931748170817B6166B161E1604B1
S1130B9016C21577152F15ED14A3145D141414DF64
S1130BA0138F134D132813FD12D01287124C1212F7
S1130BB012D41192114411FE10B6106A103610E7C7
S1130BC00FAF0F5F0F0F0FBD0E6C0E420E020ED152
S1130BD00D910D600D180D050DC40C800C470C1201
S1130BE00CE30B09726561642076657273696F6E3C
S1130BF0202020202020202020202D206F662074FB
S1130C00686973206669726D776172652E0D0A0DCD
S1130C100A0009726561642073657269616C206EF3
S1130C20756D626572202020202D20666F7220620F
S1130C306F617264206964656E7469666963617466
S1130C40696F6E2E0D0A000964656661756C742007
S1130C50636F6E66696775726174696F6E202D20AB
S1130C60496E697469616C697A6520636F6E66693F
S1130C7067757274696F6E20646174612E0D0A0069
S1130C80097265616420636F6E6669677572617469
S1130C90696F6E202020202D205265616420616CD4
S1130CA06C20636F6E666967757274696F6E206419
S1130CB06174612066726F6D20454550524F4D2E10
S1130CC02E0D0A00097361766520636F6E6669678D
S1130CD075726174696F6E202020202D2053617617
S1130CE06520616C6C20636F6E66696775727469E8
S1130CF06F6E206461746120746F20454550524FBB
S1130D004D2E0D0A000D0A434F4E46494755524198
S1130D1054494F4E3A0D0A00097265616420726F9E
S1130D20626F7420696E666F2020202020202D20A1
S1130D30646973706C617973207468652063616C95
S1130D406962726174656420696E666F2061626FA6
S1130D5075742074686520726F626F742E0D0A00BA
S1130D60202020202020202020202020202020207F
S1130D702020202020202020287768617465766553
S1130D80722069732073656C6563746564290D0A48
S1130D9000096261636B77617264205B6E756D62DA
S1130DA065725D202020202D206D6F766520726F86
S1130DB0626F7420666F7277617264205F5F206E69
S1130DC0756D626572206F6620756E6974730D0AA5
S1130DD0002020202020202020202020202020202F
S1130DE02020202020202020202877686174657628
S1130DF065722069732073656C6563746564290D7D
S1130E000A0009666F7277617264205B6E756D62A9
S1130E1065725D20202020202D206D6F7665207264
S1130E206F626F7420666F7277617264205F5F20F7
S1130E306E756D626572206F6620756E6974730DD0
S1130E400A002020202020202020202020202020D4
S1130E5020202020202020202020206E6577206460
S1130E606972656374696F6E2E0D0A000973706987
S1130E706E205B6E756D6265725D20646567726578
S1130E806573202D207468697320696E737472759C
S1130E9063747320697420746F207370696E2069A1
S1130EA06E20706C61636520656E64696E67207581
S1130EB07020666163696E6720610D0A0009202055
S1130EC0202020202020202020202020202020201E
S1130ED020202020746869732077696C6C207570F9
S1130EE0646174652074686520636F756E74735FE4
S1130EF07065725F756E697420636F6E666967757D
S1130F00726174696F6E2076616C75650D0A0009F3
S1130F1073657420636F756E74735F7065725F724E
S1130F206576205B6E756D6265725D20202D207480
S1130F306865206E756D626572206F6620636F75DB
S1130F406E7473207065722072657620666F7220ED
S1130F50636F6E76656E69656E6365200D0A0009C0
S1130F6073657420776865656C206469616D657468
S1130F706572205B6E756D6265725D20202D207434
S1130F806865206469616D657465722028696E20E6
S1130F9073656C656374656420756E697429206F6C
S1130FA0662074686520776865656C730D0A002097
S1130FB0202020202020202020202020202020202D
S1130FC0202020202020202020202020202020201D
S1130FD06C6566742026207269676874207768657A
S1130FE0656C732E0D0A0009736574207768656556
S1130FF06C2073657061726174696F6E205B6E75CD
S11310006D6265725D202D20746865206469737457
S1131010616E63652028696E2073656C6563746511
S11310206420756E697429206265747765656E2025
S11310307468650D0A002020202020202020202014
S1131040202020202020202020202020202020209C
S113105020202020646966666572656E7469616C1F
S113106020726F626F742E0D0A000D0A32205748E9
S113107045454C454420524F424F5420434F4D4D1B
S1131080414E44533A20207620616E6420772061DB
S11310907865732063616E20626520646573696797
S11310A06E6174656420666F7220612032207768F7
S11310B065656C0D0A000973747265616D202020EA
S11310C02020202020202020202020202D20436F9D
S11310D06E74696E756F75736C792073656E6420B8
S11310E063757272656E7420706F736974696F6E64
S11310F0732028746F67676C65292E0D0A00097ABE
S113110065726F20656E636F646572202876207740
S113111020782079207A20616C6C29202D206D6143
S1131120726B2063757272656E7420706F7369746C
S1131130696F6E73206173203020636F756E7473F2
S11311402E0D0A000973657420626173652066724E
S1131150657175656E6379205B6E756D6265725D30
S1131160202D20746865206672657175656E6379DB
S1131170206F66207468652070776D2064726976CC
S113118065207369676E616C732028487A293B0D6A
S11311900A00097265616420626173652066726584
S11311A07175656E637920202D20746865206672E0
S11311B0657175656E6379206F662074686520704B
S11311C0776D206472697665207369676E616C73EC
S11311D03B0D0A0009726561642073746174757350
S11311E0202020202020202020202D206F6B6179BA
S11311F02C206F7665722074656D702C206F766577
S1131200722063757272656E742C206574633B0D75
S11312100A0009726561642063757272656E7420D8
S113122020202020202020202D2074686520637534
S11312307272656E74207468726F75676820656178
S11312406368206D6F746F723B0D0A0009726561EB
S113125064207370656564202020202020202020D5
S113126020202D2073706565642069732064656C8B
S1131270746173206F662074686520706F7369747D
S1131280696F6E3B0D0A00097265616420706F73AB
S11312906974696F6E20202020202020202D207268
S11312A06561642074686520706F736974696F6E1A
S11312B020286261736564206F6E20706F747320E0
S11312C06F7220656E636F64657273293B0D0A004B
S11312D00D0A464545444241434B20434F4D4D4141
S11312E04E44533A200D0A000D0A2D2D5072657399
S11312F0732052657475726E2D2D0D0A0009737476
S11313006F7020202020202020202020202020203A
S11313102020202D2073746F7020616C6C206D6F01
S1131320746F72732E0D0A00090909090909202036
S11313306C696D69742073776974636820697320BC
S11313407472696767657265642E0D0A00096D65BC
S113135061737572652074726176656C2028616CA6
S11313606C2076207720782079207A29202D206D12
S1131370656173757265732074686520636F756E3B
S1131380747320756E74696C206661720D0A0009AD
S1131390686F6D6520202020202020202020202020
S11313A020202020202D206D6F766520616C6C201C
S11313B06D6F746F727320756E74696C206E6561E5
S11313C072206C696D69742073776974636820692D
S11313D073207472696767657265642E0D0A002054
S11313E020202020202020202020202020202020F9
S11313F020202020202020202020202020202020E9
S11314002020202850494420636F6E74726F6C2929
S11314102E0D0A0009737065656420763330302020
S1131420773939392E3520783230302079343530D7
S1131430207A363037202D204D6F7665207468650C
S1131440206D6F746F7273206174207370656369AB
S1131450666965642073706565640D0A000920205F
S11314602020202020202020204368616E67652FE3
S113147073686F7720746865206D6F74696F6E2070
S1131480656E6420706F696E742E206561636820D8
S113149061786973206973206F7074696F6E616C11
S11314A00D0A00097365742F7265616420646573A5
S11314B074696E6174696F6E20765B6E756D6265BA
S11314C0725D20775B6E756D6265725D20785B6E10
S11314D0756D6265725D20795B6E756D6265725DB6
S11314E0207A5B6E756D6265725D0D0A00092020BD
S11314F020202020202020202020202020202020E8
S113150020202020202020202020202020202020D7
S11315102020206973207265616368656420285007
S1131520494420636F6E74726F6C292E0D0A000992
S1131530504F5320763130353030207739393939AE
S11315402E35207835303020793435302E35207AD8
S1131550363037202D204D6F766520746865206DF8
S11315606F746F727320756E74696C20706F736919
S113157074696F6E0D0A000920202020202020208D
S11315802020202020202020202020202020202057
S1131590202020202020202876616C75657320731C
S11315A0686F756C642072616E67652066726F6D1A
S11315B020302E303020746F20312E303029200D11
S11315C00A000950574D2076302E322077302E35C0
S11315D02078302E302079312E30207A302E35206C
S11315E02D20736574207468652064757479206394
S11315F079636C65206F6620656163682061786932
S1131600730D0A000D0A4D4F544F52204D4F56454D
S113161020434F4D4D414E44533A200D0A00097367
S11316206574204B642076302E3033352077302E8D
S11316303135207A32302E302020202020202020E6
S11316402020202D204465726976617469766520B6
S1131650636F6E7374616E7420666F7220504944B8
S113166020636F6E74726F6C0D0A000973657420C9
S11316704B692076302E3033352077302E313520AB
S113168078312E302079302E35207A32302E3020A9
S11316902D20496E74656772616C20636F6E73747C
S11316A0616E7420666F722050494420636F6E74BB
S11316B0726F6C0D0A0009736574204B70207630CC
S11316C02E3033352077302E31352078312E3020AE
S11316D079302E35207A32302E30202D2050726F02
S11316E0706F7274696F6E616C69747920636F6E68
S11316F07374616E7420666F722050494420636F66
S11317006E74726F6C0D0A000964697361626C65B2
S1131710206C696D6974732028762077207820798D
S1131720207A20616C6C29202D206C696D697420ED
S11317307377697463686573206172652069676E85
S11317406F7265642E0D0A0009656E61626C652016
S11317506C696D697473202876207720782079204D
S11317607A20616C6C2920202D206C696D697420AD
S113177073776974636865732077696C6C2073741C
S11317806F70206D6F746F7220616374696F6E2E59
S11317900D0A00097265616420636F756E74735F6E
S11317A07065725F756E6974202D20646973706C46
S11317B061797320636F756E747320706572207520
S11317C06E697420666F7220616C6C206178657339
S11317D03B0D0A000920202020202020202020204A
S11317E02020202020202020202020202020746859
S11317F06174206D616B6520757020746865207557
S11318006E6974202869652034303020636F756EEA
S113181074732F696E6368290D0A00097365742057
S11318205B6E756D6265725D20636F756E74735F58
S11318307065725F756E69742028762C772C782C0D
S1131840792C7A29202D206E756D626572206F6661
S113185020656E636F64657220636F756E747320A8
S11318600D0A00097265616420756E697420202078
S11318702020202020202020202D20646973706CDB
S11318806179207468652063757272656E746C7911
S11318902073656C656374656420756E69740D0AE4
S11318A0000973656C65637420756E697420286320
S11318B06F756E74737C696E636865737C66656549
S11318C0747C6D6574657229202D2073656C656365
S11318D0742061637469766520756E69740D0A00FD
S11318E00D0A534554555020434F4D4D414E4453DA
S11318F03A200D0A000975736520706F74656E7463
S1131900696F6D65746572202020202D20706F73BF
S11319106974696F6E696E672026207370656564EB
S1131920206172652064657465726D696E656420FA
S113193062792074686520706F74730D0A000975EC
S1131940736520656E636F646572202020202020FB
S1131950202020202D20706F736974696F6E696E6A
S11319606720262073706565642061726520646554
S11319707465726D696E656420627920746865208F
S1131980656E636F646572730D0A000D0A4B494EF0
S1131990455449432044524956452046495645201A
S11319A050524F544F434F4C203A200D0A0D0A0019
S11319B04E414E494E495459494E46CDCCCC3D0A30
S11319C0D7233C17B7D13877CC2B329595E6241F13
S11319D0B14F0A000020410000C84200401C4620CC
S11319E0BCBE4CCA1B0E5AAEC59D7400407A10F39F
S11319F05A00A0724E18090010A5D4E80000E87639
S1131A0048170000E40B54020000CA9A3B0000008F
S1131A10E1F505000080969800000040420F0000A8
S1131A2000A08601000000102700000000E8030069
S1131A300000006400000000000A00000000000133
S1131A4000000000002C76D888DC674F0823DFC133
S1131A50DFAE59E1B1B796E5E3E453C63AE65199EE
S1131A607696E8E6C28426EB898C9B62ED407C6F17
S1131A70FCEFBC9C9F40F2BAA56FA5F490055A2ACE
S1131A80F75C936B6CF9676DC11BFCE0E40D47FEDA
S1131A90F520E6B500D0ED902E03009435770500CF
S1131AA080841E080000204E0A000000C80C333356
S1131AB033330F986E12831141EF8D2114893BE665
S1131AC05516CFFEE6DB18D1844B381BF77C1D90EE
S1131AD01DA4BBE424203284725E228100C9F12457
S1131AE0ECA1E53D270011241FBECFEFD1E2DEBFFC
S1131AF0CDBF00E00CBF1BE0A0E0B2E0E0E2F7EBFA
S1131B0000E00BBF02C007900D92A83DB107D9F7C2
S1131B1027E1A8EDBBE001C01D92A334B207E1F7B1
S1131B200E9457500C948E5B0C94000082E084BD9C
S1131B3093E095BD9AEF97BD80936E001092DC0BF5
S1131B401092DB0B089581E08093D80B08951092D6
S1131B50D80B089508951F920F920FB60F92112477
S1131B600BB60F922F933F934F935F936F937F9393
S1131B708F939F93AF93BF93EF93FF938091DF0B6A
S1131B808823D9F11092DF0B8091D80B8823E1F1DF
S1131B90E091DD0BF091DE0B9F01ADECBCEC0E94FB
S1131BA0F550969587959695879596958795AC016A
S1131BB0440F551F880F991F880F991F880F991F6D
S1131BC0480F591FE417F50759F13196F093DE0BCE
S1131BD0E093DD0BFF91EF91BF91AF919F918F91B6
S1131BE07F916F915F914F913F912F910F900BBE19
S1131BF00F900FBE0F901F90189581E08093DF0B1C
S1131C008091D80B8111C4CF8091DB0B9091DC0BB8
S1131C1001969093DC0B8093DB0B0E942D0EDACFA0
S1131C201092DE0B1092DD0B8091DB0B9091DC0B9C
S1131C3001969093DC0B8093DB0B0E942D0ECACF90
S1131C4082E084BD93E095BD9AEF97BD80936E00CA
S1131C501092DC0B1092DB0B08958091DB0B9091BA
S1131C60DC0B64E670E00E94BC50892B61F4809127
S1131C70E00B9091E10B892B39F481E090E0909393
S1131C80E10B8093E00B08951092E10B1092E00BAE
S1131C900895F894A89584B7877F84BFE0E6F0E0C0
S1131CA0808188618083108278940895F894A8953F
S1131CB0E0E6F0E08081886180838EE08083789420
S1131CC0089588E0E0E9F2E0ABEEBBE001900D920C
S1131CD08A95E1F78091E80B80FD43C081FD33C014
S1131CE082FD23C083FD13C084FF0DC0ABEEBBE0B7
S1131CF00D900020E9F711978CE0E9EDF2E00190F6
S1131D000D928A95E1F714BE8BEE9BE00895ABEE3D
S1131D10BBE00D900020E9F7119790E1E9ECF2E0C7
S1131D2001900D929A95E1F7DFCFABEEBBE00D90F9
S1131D300020E9F7119791E1E8EBF2E001900D92B0
S1131D409A95E1F7CFCFABEEBBE00D900020E9F719
S1131D50119790E1E8EAF2E001900D929A95E1F78B
S1131D60BFCF90E1E8E9F2E0A2EFBBE001900D9271
S1131D709A95E1F7B3CFF89484B78093E80BF8947D
S1131D80A89584B7877F84BFE0E6F0E0808188610E
S1131D908083108278940E945E1D0E949B200E9482
S1131DA0B7200E94001041E060E070E08AEF93E405
S1131DB00E94691F0E946E220E944F250E94CF1C20
S1131DC00E94F91AF894A895E0E6F0E08081886111
S1131DD080838EE080837894789408950F931F9382
S1131DE0CF93DF93CDB7DEB7C058D1090FB6F894BF
S1131DF0DEBF0FBECDBF8BE2E5EEF2E08E010F5FDA
S1131E001F4FD80101900D928A95E1F70E94610E4F
S1131E10BC01C8010E943254D8010D900020E9F79A
S1131E2011978DE2E0E1F3E001900D928A95E1F7DC
S1131E30C8010E946C23C058DF4F0FB6F894DEBF70
S1131E400FBECDBFDF91CF911F910F91089560E038
S1131E5070E080E89EE30E949D1160E070E080E005
S1131E609FE30E946D1160E070E080E49FE30E94B4
S1131E703D1163E373E383E79FE30E940D1160E088
S1131E8070E080E89FE30C94DD106F927F928F9254
S1131E909F92AF92BF92CF92DF92EF92FF920F93F5
S1131EA01F93CF93DF93CDB7DEB7E2970FB6F894C5
S1131EB0DEBF0FBECDBF86E70E94131B7E0129E261
S1131EC0E20EF11C0E943B52870124E045E00E948F
S1131ED0B45387E70E94131B6E013FE1C30ED11C6C
S1131EE00E943B52860124E045E00E94B45388E7F7
S1131EF00E94131B5E0125E1A20EB11C0E943B52FD
S1131F00850124E045E00E94B45389E70E94131B35
S1131F104E013BE0830E911C0E943B52840124E05D
S1131F2045E00E94B4538AE70E94131B0E943B526F
S1131F309E012F5F3F4F3901890124E045E00E9453
S1131F40B4537F926F929F928F92BF92AF92DF921F
S1131F50CF92FF92EF928DE393E09F938F9386ED60
S1131F6092E19F938F930E94EA540FB6F894DEBFD8
S1131F700FBECDBF8091EA0B8823B9F08091E20BAC
S1131F809091E30B9C012F5F3F4F3093E30B209321
S1131F90E20B60910002709101020E94BC50892BF7
S1131FA021F486ED92E10E946C23E2960FB6F89438
S1131FB0DEBF0FBECDBFDF91CF911F910F91FF9078
S1131FC0EF90DF90CF90BF90AF909F908F907F90D5
S1131FD06F900895863751F0873751F0883751F064
S1131FE0893751F08A3751F08FEF089580E00895D2
S1131FF081E0089582E0089583E0089584E00895DF
S1132000CF92DF92EF92FF92CF93DF938FE387B962
S113201085E588B9809104018F60809304018091E3
S11320200501806180930501E5E2FCE0C4E3DCE0A6
S113203041E084E6C82ED12CE12CF12C9F012450E0
S11320403109D9011D921D921D921C921397C182D0
S1132050D282E382F4829E012A503109D9014C9341
S113206040832F5F3F4FD9011C921782108611863F
S11320701286188278966896BCE0ED39FB07F1F673
S1132080DF91CF91FF90EF90DF90CF900895089566
S113209081110DC0809105018D7F80930501809190
S11320A005018160809305011092850C089580914B
S11320B00501826080930501809105018E7F8093E4
S11320C0050181E08093850C0895811105C0419834
S11320D0409A10926D0C0895419A409881E0809343
S11320E06D0C0895811105C04398429A1092550CC5
S11320F00895439A429881E08093550C0895811184
S113210005C04598449A10923D0C0895459A449808
S113211081E080933D0C089581110DC080910501EB
S11321208B7F809305018091050188608093050170
S11321301092250C08958091050184608093050117
S113214080910501877F8093050181E08093250CB0
S113215008958837B9F03CF4863789F0873759F405
S1132160862F0C947F10893739F08A3719F4862F1B
S11321700C94481008950895862F0C946510862FAA
S11321800C948C10862F0C94721081110BC08091CA
S11321900501876F80930501809105018460809318
S11321A00501089580910501877F80930501809141
S11321B005018B7F809305010895CF92DF92EF9202
S11321C0FF926B017C0120E030E0A9010E949E5146
S11321D087FF04C0F7FAF094F7F8F094C092810CEA
S11321E0D092820CE092830CF092840C60910A02EB
S11321F070910B0280E090E00E943B52A70196018F
S11322000E9431530E948B510E940F52CB01FF90C8
S1132210EF90DF90CF900C94421ECF92DF92EF921A
S1132220FF926B017C0120E030E0A9010E949E51E5
S113223087FF04C0F7FAF094F7F8F094C092690CA1
S1132240D0926A0CE0926B0CF0926C0C60910A02D2
S113225070910B0280E090E00E943B52A70196012E
S11322600E9431530E948B510E940F52CB01FF9068
S1132270EF90DF90CF900C943A1ECF92DF92EF92C2
S1132280FF926B017C0120E030E0A9010E949E5185
S113229087FF04C0F7FAF094F7F8F094C092510C59
S11322A0D092520CE092530CF092540C60910A02BA
S11322B070910B0280E090E00E943B52A7019601CE
S11322C00E9431530E948B510E940F52CB01FF9008
S11322D0EF90DF90CF900C94321ECF92DF92EF926A
S11322E0FF926B017C0120E030E0A9010E949E5125
S11322F087FF04C0F7FAF094F7F8F094C092390C11
S1132300D0923A0CE0923B0CF0923C0C60910A02A1
S113231070910B0280E090E00E943B52A70196016D
S11323200E9431530E948B510E940F52CB01FF90A7
S1132330EF90DF90CF900C94521ECF92DF92EF92E9
S1132340FF926B017C0120E030E0A9010E949E51C4
S113235087FF04C0F7FAF094F7F8F094C092210CC8
S1132360D092220CE092230CF092240C60910A0289
S113237070910B0280E090E00E943B52A70196010D
S11323800E9431530E948B510E940F52CB01FF9047
S1132390EF90DF90CF900C944A1E0F931F9341E06F
S11323A00091F30C1091F40C2091F50C3091F60C83
S11323B0061717072807390708F040E040932A0C4E
S11323C04093250C6093260C7093270C8093280C63
S11323D09093290C1F910F9108950F931F9341E03F
S11323E000910B0D10910C0D20910D0D30910E0DDF
S11323F0061717072807390708F040E04093420CF6
S113240040933D0C60933E0C70933F0C8093400CC2
S11324109093410C1F910F9108950F931F9341E0E6
S11324200091230D1091240D2091250D3091260D3E
S1132430061717072807390708F040E040935A0C9D
S11324404093550C6093560C7093570C8093580C22
S11324509093590C1F910F9108950F931F9341E08E
S113246000913B0D10913C0D20913D0D30913E0D9E
S1132470061717072807390708F040E04093720C45
S113248040936D0C60936E0C70936F0C8093700C82
S11324909093710C1F910F9108950F931F9341E036
S11324A00091530D1091540D2091550D3091560DFE
S11324B0061717072807390708F040E040938A0CED
S11324C04093850C6093860C7093870C8093880CE2
S11324D09093890C1F910F910895883709F47CC05B
S11324E00CF5863709F45CC08737E9F521E0809163
S11324F00B0D90910C0DA0910D0DB0910E0D841744
S11325009507A607B70708F020E02093420C209314
S11325103D0C40933E0C50933F0C6093400C7093E1
S1132520410C0895893701F18A37E1F421E0809163
S1132530530D9091540DA091550DB091560D8417E3
S11325409507A607B70708F020E020938A0C20938C
S1132550850C4093860C5093870C6093880C709381
S1132560890C08950895089521E080913B0D909180
S11325703C0DA0913D0DB0913E0D84179507A60723
S1132580B70708F020E02093720C20936D0C409361
S11325906E0C50936F0C6093700C7093710C0895D3
S11325A021E08091F30C9091F40CA091F50CB09182
S11325B0F60C84179507A607B70708F020E02093C8
S11325C02A0C2093250C4093260C5093270C6093DF
S11325D0280C7093290C089521E08091230D90918B
S11325E0240DA091250DB091260D84179507A607FB
S11325F0B70708F020E020935A0C2093550C409321
S1132600560C5093570C6093580C7093590C0895C2
S113261080E090E00E94321E80E090E00E943A1E2A
S113262080E090E00E94421E80E090E00E944A1EFA
S113263080E090E00E94521E81E08093E40B0895B4
S11326406091210C7091220C8091230C9091240CA8
S11326500E949D116091390C70913A0C80913B0C51
S113266090913C0C0E946D116091510C7091520C30
S11326708091530C9091540C0E943D116091690C0F
S113268070916A0C80916B0C90916C0C0E940D11EE
S11326906091810C7091820C8091830C9091840CD8
S11326A00C94DD10CF92DF92EF92FF92CF93DF93E1
S11326B0C82F6A017B01D1E020E030E0A901C70105
S11326C0B6010E942D53181624F56D2F8C2F0E94ED
S11326D0A910C83729F1C93774F4C637E1F1C737EF
S11326E049F5C701B601DF91CF91FF90EF90DF90DC
S11326F0CF900C946D11C93721F1CA37D9F4C701B1
S1132700B601DF91CF91FF90EF90DF90CF900C94C2
S1132710DD10D0E06D2F8C2F0E94A910C837D9F698
S1132720C701B601DF91CF91FF90EF90DF90CF907A
S11327300C943D11DF91CF91FF90EF90DF90CF90FB
S11327400895C701B601DF91CF91FF90EF90DF901C
S1132750CF900C940D11C701B601DF91CF91FF907A
S1132760EF90DF90CF900C949D118837D9F044F40A
S11327708637A1F0873769F4CB01BA010C946D1147
S1132780893741F08A3721F4CB01BA010C94DD106A
S113279008950895CB01BA010C940D11CB01BA012F
S11327A00C949D11CB01BA010C943D111F93CF934E
S11327B0DF93EC010E94EE20182FCE010E943C21F1
S11327C0112381F0FE01EE0FFF1FEC0FFD1FEE0F32
S11327D0FF1FEE0FFF1FEE0FFF1FE35EF34F908509
S11327E0911116C0882381F0FE01EE0FFF1FEC0F3C
S11327F0FD1FEE0FFF1FEE0FFF1FEE0FFF1FE35E27
S1132800F34F8085882321F0DF91CF911F910895A4
S1132810C15FDD4F40E050E0BA018881DF91CF9184
S11328201F910C945213FF920F931F93CF93DF9336
S1132830EC01FC01E15FFD4FF0808F2D0E94284ADE
S1132840AB01BC018F2D0E945213CE010E94B44AE9
S1132850892B89F08E01000F111F0C0F1D1F000F13
S1132860111F000F111F000F111F035E134FF801FA
S113287087898823C9F0CE010E94E94A892B71F027
S1132880FE01EE0FFF1FEC0FFD1FEE0FFF1FEE0FFB
S1132890FF1FEE0FFF1FE35EF34F1686DF91CF910C
S11328A01F910F91FF9008952F2D332727FD309509
S11328B03F93FF928CE593E09F938F9386ED92E193
S11328C09F938F930E94EA5486ED92E10E946C23B9
S11328D081E0F801878B0F900F900F900F900F906D
S11328E00F90C9CFCF92DF92EF92FF92CF93DF93F5
S11328F0CDE1DCE01BC0C701B6010E94275168830B
S113290079838A839B83CC80DD80EE80FF80A7015E
S113291096010E942D53181624F4C882D982EA82A3
S1132920FB8268968CE0CD3AD80771F1C880D980D3
S1132930EA80FB80A70196016C817D818E819F8155
S11329400E94265120E030E0A9010E942D532DEC75
S11329503CEC4CEC5DE3181674F2C701B6010E941E
S11329602651688379838A839B83CC80DD80EE80C3
S1132970FF80A70196010E949E5187FDCECF6896E5
S11329808CE0CD3AD80791F6CDE1DCE005C068963D
S11329908CE0CD3AD80791F1C880D980EA80FB80D9
S11329A0A70196016C817D818E819F810E942651B1
S11329B020E030E0A9010E949E5187FFE8CF26E67F
S11329C036E646E65FE3C701B6010E9431536883E9
S11329D079838A839B83CC80DD80EE80FF80A7018E
S11329E096010E949E5187FFD2CFC882D982EA8283
S11329F0FB8268968CE0CD3AD80771F6DF91CF91CF
S1132A00FF90EF90DF90CF9008950F931F93CF9393
S1132A10DF9380E090E00E94D61381E090E00E9472
S1132A20D61382E090E00E94D61383E090E00E94E7
S1132A30D61384E090E00E94D6138091E40B8111B8
S1132A400EC00BE21CE0C0E0D0E0F80180818111EF
S1132A500BC02196085E1F4FC530D105B1F7DF9139
S1132A60CF911F910F910895CE010E941314F1CFBD
S1132A70882341F180FD1AC081FD0EC082FF09C088
S1132A808EE0ECE8F3E0A5E9BCE001900D928A95B4
S1132A90E1F785E99CE008959DE0EFE7F3E0A5E91F
S1132AA0BCE001900D929A95E1F7E8CF91E1EEE652
S1132AB0F3E0A5E9BCE001900D929A95E1F781FF5E
S1132AC0DDCFEACF95E0E9E6F3E0A5E9BCE00190CB
S1132AD00D929A95E1F7D2CF81E08093BD0C80915D
S1132AE0E50C9091E60CA091E70CB091E80C4091B4
S1132AF0EB0C5091EC0C6091ED0C7091EE0C841B7E
S1132B00950BA60BB70B8093DF0C9093E00CA0936E
S1132B10E10CB093E20C8091E90C9091EA0C2091C5
S1132B20EF0C3091F00C821B930B9093E40C809388
S1132B30E30C0895EDEDFCE0208131813093DC0C51
S1132B402093DB0C8091900D9091910D40918E0D0E
S1132B5050918F0D841B950B91838083E9EDFCE0EC
S1132B60408151815093D80C4093D70C821B930B16
S1132B709183808308958091900D9091910D089593
S1132B808091C00C9091C10C2091900D3091910DC9
S1132B90821B930B08952091C00C3091C10C80913D
S1132BA0900D9091910D8217930758F028173907CB
S1132BB020F48FEF8093C20C08951092C20C80E031
S1132BC0089581E08093C20C0895EDEDFCE08081CE
S1132BD091819093DC0C8093DB0C8091900D90910B
S1132BE0910D20918E0D30918F0D821B930B91834B
S1132BF080830895E9EDFCE0808191819093D80C65
S1132C008093D70C8091DD0C9091DE0C2091DB0C2D
S1132C103091DC0C821B930B918380830895CF92B7
S1132C20DF92EF92FF926091E30C7091E40C769541
S1132C306795769567958091EF0C9091F00C680FED
S1132C40791F80E090E00E943B526B017C0160910F
S1132C50900D7091910D80E090E00E943B52A7018D
S1132C6096010E942651A70196010E94A251FF904D
S1132C70EF90DF90CF9008958F929F92AF92BF9282
S1132C80CF92DF92EF92FF920F931F93CF93DF9334
S1132C90EC010091E50C1091E60C2091E70C3091C9
S1132CA0E80C6091EB0C7091EC0C8091ED0C909120
S1132CB0EE0C061717072807390714F4C901B801E1
S1132CC00E943D526B017C016091DF0C7091E00C1D
S1132CD08091E10C9091E20C0E943D524B015C0109
S1132CE02091E90C3091EA0C8091EF0C9091F00C5A
S1132CF02817390708F4C9019E01281B390BC9019B
S1132D006091E30C7091E40C0E94A85080E090E084
S1132D100E943B529B01AC01C501B4010E94315396
S1132D209B01AC01C701B6010E942751DF91CF91ED
S1132D301F910F91FF90EF90DF90CF90BF90AF90D5
S1132D409F908F9008958091900D9091910D0E9485
S1132D503C160E940A52089520E030E048EC52E408
S1132D600E9431530E940A5208958F929F92AF920B
S1132D70BF92CF92DF92EF92FF924B015C01609180
S1132D80E30C7091E40C80E090E00E943B526B01F4
S1132D907C014091E50C5091E60C6091E70C709138
S1132DA0E80C8091EB0C9091EC0CA091ED0CB0919F
S1132DB0EE0C481759076A077B0714F4DB01CA01B4
S1132DC0A5019401281B390B4A0B5B0BCA01B901FD
S1132DD02091DF0C3091E00C4091E10C5091E20C19
S1132DE00E94D050CA01B9010E943D529B01AC011E
S1132DF0C701B6010E9431536B017C018091E90C3B
S1132E009091EA0C6091EF0C7091F00C8617970783
S1132E1008F4BC0180E090E00E943B529B01AC01AD
S1132E20C701B6010E9427510E940F52CB01FF90A7
S1132E30EF90DF90CF90BF90AF909F908F900895C8
S1132E4089E190E09093F00C8093EF0C86EE93E090
S1132E509093EA0C8093E90C1092EB0C1092EC0C1A
S1132E601092ED0C1092EE0C80E395E7A0E0B0E038
S1132E708093E50C9093E60CA093E70CB093E80CD8
S1132E8008958091E50C9091E60CA091E70CB09127
S1132E90E80C4091EB0C5091EC0C6091ED0C7091AE
S1132EA0EE0C841B950BA60BB70B8093DF0C909351
S1132EB0E00CA093E10CB093E20C8091E90C9091AA
S1132EC0EA0C2091EF0C3091F00C821B930B909341
S1132ED0E40C8093E30C08952091E90C3091EA0C02
S1132EE08091EF0C9091F00C2817390708F4C90170
S1132EF008950F931F930091E50C1091E60C209117
S1132F00E70C3091E80C6091EB0C7091EC0C809123
S1132F10ED0C9091EE0C061717072807390714F4E7
S1132F20C901B8011F910F9108952091E90C3091C6
S1132F30EA0C8091EF0C9091F00C8217930708F43F
S1132F40C90108950F931F930091E50C1091E60CAD
S1132F502091E70C3091E80C6091EB0C7091EC0C33
S1132F608091ED0C9091EE0C601771078207930726
S1132F7014F4C901B8011F910F910895E091E90C6F
S1132F80F091EA0C2091EF0C3091F00CE217F3076A
S1132F9040F58091EB0C9091EC0CA091ED0CB0916C
S1132FA0EE0C4091E50C5091E60C6091E70C7091A9
S1132FB0E80C4093EB0C5093EC0C6093ED0C709385
S1132FC0EE0CF093F00CE093EF0C8093E50C9093EF
S1132FD0E60CA093E70CB093E80C3093EA0C209332
S1132FE0E90C08950F931F934091E50C5091E60C62
S1132FF06091E70C7091E80C8091EB0C9091EC0CD3
S1133000A091ED0CB091EE0C8C019D01481759076D
S11330106A077B0714F48A019B01222733270817C8
S113302019072A073B0701F12091EF0C3091F00CAE
S11330304093EB0C5093EC0C6093ED0C7093EE0CFE
S11330404091E90C5091EA0C5093F00C4093EF0C32
S11330508093E50C9093E60CA093E70CB093E80CF6
S11330603093EA0C2093E90C1F910F910895CF93AC
S1133070DF93EC0183E00E947B1D84E00E947B1DB2
S11330808091F20C8130A1F0823001F18091EF0C3B
S11330909091F00CC817D90738F18091E90C909100
S11330A0EA0C8C179D0778F180E0DF91CF910895A9
S11330B08091EF0C9091F00C07968C179D07E8F423
S11330C01092F20C80E0DF91CF9108958091E90C89
S11330D09091EA0C0797C817D90790F384E00E94EF
S11330E06B1D8091F20CE1CF83E00E946B1D81E0A7
S11330F08093F20CDF91CF91089583E00E946B1DC1
S11331008091F20CD2CF84E00E946B1D82E0809308
S1133110F20CDF91CF910895CF92DF92EF92FF925C
S1133120CF93DF93EB01C0900202D0900302E090B2
S11331300402F0900502BC0180E090E00E943B5242
S1133140A70196010E942D531816B4F0BE0180E029
S113315090E00E943B529B01AC01C701B6010E9462
S11331609E51881F8827881F880FDF91CF91FF9079
S1133170EF90DF90CF90089581E0DF91CF91FF90A1
S1133180EF90DF90CF900895CF92DF92EF92FF926D
S1133190CF93DF938091BD0C81111FC06091C00C4F
S11331A07091C10CC091900DD091910D6C177D0759
S11331B019F18091F10C823039F18330F1F1809171
S11331C0BE0C9091BF0C8617970778F46C177D0797
S11331D020F482E08093F10C01C080E0DF91CF9174
S11331E0FF90EF90DF90CF900895C617D707A8F708
S11331F083E08093F10CF2CF81E0DF91CF91FF90D7
S1133200EF90DF90CF90089580E090E00E943B52D1
S11332106B017C012DEC3CEC4CEC5DE30E943153E2
S11332209B01AC01C701B6010E9426510E940F52B6
S1133230C617D707C8F082E0D1CF80E090E00E94A3
S11332403B526B017C012DEC3CEC4CEC5DE30E94A9
S113325031539B01AC01C701B6010E9427510E9462
S11332600F526C177D0750F41092F10C80E0DF913F
S1133270CF91FF90EF90DF90CF90089583E0AECF91
S11332801F920F920FB60F9211248F939F93AF93B7
S1133290BF93009B24C01092FF0C1092000D10925B
S11332A0010D1092020D8091F30C9091F40CA091F9
S11332B0F50CB091F60C0196A11DB11D8093F30C91
S11332C09093F40CA093F50CB093F60CBF91AF91CE
S11332D09F918F910F900FBE0F901F90189581E0D2
S11332E090E0A0E0B0E08093FF0C9093000DA093D9
S11332F0010DB093020D8091F30C9091F40CA09108
S1133300F50CB091F60C0197A109B1098093F30C67
S11333109093F40CA093F50CB093F60CD7CF1F92B6
S11333200F920FB60F9211248F939F93AF93BF9375
S1133330019B24C01092170D1092180D1092190DB4
S113334010921A0D80910B0D90910C0DA0910D0D02
S1133350B0910E0D0196A11DB11D80930B0D90939C
S11333600C0DA0930D0DB0930E0DBF91AF919F91D5
S11333708F910F900FBE0F901F90189581E090E0F1
S1133380A0E0B0E08093170D9093180DA093190D51
S1133390B0931A0D80910B0D90910C0DA0910D0D11
S11333A0B0910E0D0197A109B10980930B0D909373
S11333B00C0DA0930D0DB0930E0DD7CF1F920F924D
S11333C00FB60F9211248F939F93AF93BF93029BD9
S11333D024C010922F0D1092300D1092310D1092C6
S11333E0320D8091230D9091240DA091250DB09163
S11333F0260D0196A11DB11D8093230D9093240DDC
S1133400A093250DB093260DBF91AF919F918F91FD
S11334100F900FBE0F901F90189581E090E0A0E0F0
S1133420B0E080932F0D9093300DA093310DB093A5
S1133430320D8091230D9091240DA091250DB09112
S1133440260D0197A109B1098093230D9093240DB2
S1133450A093250DB093260DD7CF1F920F920FB6D0
S11334600F9211240BB60F922F933F934F935F93B8
S11334706F937F938F939F93AF93BF93EF93FF9338
S113348082E00E946B1D039B2EC01092470D109288
S1133490480D1092490D10924A0D80913B0D909168
S11334A03C0DA0913D0DB0913E0D0196A11DB11DA5
S11334B080933B0D90933C0DA0933D0DB0933E0D36
S11334C0FF91EF91BF91AF919F918F917F916F91F8
S11334D05F914F913F912F910F900BBE0F900FBEB4
S11334E00F901F90189581E090E0A0E0B0E08093E9
S11334F0470D9093480DA093490DB0934A0D8091C8
S11335003B0D90913C0DA0913D0DB0913E0D019766
S1133510A109B10980933B0D90933C0DA0933D0DFF
S1133520B0933E0DCDCF1F920F920FB60F92112480
S11335300BB60F922F933F934F935F936F937F93A9
S11335408F939F93AF93BF93EF93FF9382E00E9477
S11335506B1D049B2EC010925F0D1092600D109293
S1133560610D1092620D8091530D9091540DA091B4
S1133570550DB091560D0196A11DB11D8093530DAB
S11335809093540DA093550DB093560DFF91EF9168
S1133590BF91AF919F918F917F916F915F914F9167
S11335A03F912F910F900BBE0F900FBE0F901F9065
S11335B0189581E090E0A0E0B0E080935F0D9093D7
S11335C0600DA093610DB093620D8091530D9091A5
S11335D0540DA091550DB091560D0197A109B10953
S11335E08093530D9093540DA093550DB093560DA5
S11335F0CDCF8AB1807F8AB98BB18F608BB981B10D
S1133600807E81B982B18F6182B96C98749A8DB3CE
S11336108F618DBB8FEF80936900EAE6F0E08081D3
S11336208360808308950E94EA0F90E0FC01EC5CC3
S1133630FF4E2081FC01EE0FFF1F211107C0E2574E
S1133640F24F6081718180E090E00895E80FF91FE6
S1133650EE0FFF1FEE0FFF1FEE0FFF1FED50F34F96
S113366060817181828193810895AF92BF92CF92DC
S1133670DF92EF92FF920F931F93CF93DF9382E138
S1133680EAE9F3E0A6EDB2E101900D928A95E1F743
S113369086ED92E10E946C23C4E3D0E10FE012E0D6
S11336A04BEBA42E43E0B42E56EDE52E52E1F52E5D
S11336B06CEAC62E63E0D62E8991F8012081882316
S11336C039F1822F992787FD90959F932F93DF924D
S11336D0CF92FF92EF920E94EA540F900F900F90B6
S11336E00F900F900F9086ED92E10E946C230F5F74
S11336F01F4FF0E1C933DF07F9F6DF91CF911F9136
S11337000F91FF90EF90DF90CF90BF90AF9008950E
S1133710822F992787FD90959F932F93BF92AF9205
S1133720FF92EF920E94EA540F900F900F900F9027
S11337300F900F90D8CFE3EFFCE080819181A281BC
S1133740B3814089518962897389841B950BA60BC7
S1133750B70B84839583A683B78344895589668987
S11337607789841B950BA60BB70B80879187A2875B
S1133770B38778968DE0EB36F807F9F6E3EFFCE0D3
S113378080819181A281B381808B918BA28BB38B39
S113379084819581A681B781848B958BA68BB78B09
S11337A078968DE0EB36F80759F708951F920F923B
S11337B00FB60F9211240BB60F922F933F938F9352
S11337C09F93AF93BF93EF93FF93809178002091E1
S11337D0790030E0322F2227280F311D80916C0DA3
S11337E091E0980F90936C0D90E08A309105A0F0D1
S11337F010926C0D81E080936F0DFF91EF91BF915A
S1133800AF919F918F913F912F910F900BBE0F908D
S11338100FBE0F901F901895FC01EE58FF4F0C94AB
S1133820EF50E0916E0D81E08E0F80936E0DF0E00D
S1133830EE0FFF1FEC57F24F3183208385E4809312
S11338407C0080917A00806480937A00D6CFE091E6
S11338506D0D81E08E0F80936D0DF0E0EE0FFF1F74
S1133860E257F24F3183208310926C0D81E08093F4
S11338706F0DC3CF10926F0D81E080936D0D309367
S11338808F0D20938E0D81E480937C0080917A00CB
S1133890806480937A00B1CFE0916D0D81E08E0F4A
S11338A080936D0DF0E0EE0FFF1FE257F24F31836E
S11338B0208382E480937C0080917A0080648093EA
S11338C07A009BCFE0916D0D81E08E0F80936D0D9A
S11338D0F0E0EE0FFF1FE257F24F3183208383E4C1
S11338E080937C0080917A00806480937A0085CFF5
S11338F0E0916D0D81E08E0F80936D0DF0E0EE0F81
S1133900FF1FE257F24F3183208380E480937C00D1
S113391080917B00886080937B0080917A00806432
S113392080937A006ACF81E080936E0D3093850D89
S11339302093840DA8CFE0916E0D81E08E0F8093CB
S11339406E0DF0E0EE0FFF1FEC57F24FB0CFE09199
S11339506E0D81E08E0F80936E0DF0E0EE0FFF1F71
S1133960EC57F24FBACFE0916E0D81E08E0F809349
S11339706E0DF0E0EE0FFF1FEC57F24F3183208302
S113398084E480937C0080917A00806480937A0040
S113399034CFEAE7F0E08081887F8083089580B3A4
S11339A0807F80BB81B3807F81BBE7E0F1E08081D1
S11339B0807C8083E8E0F1E08081807C8083EAE79A
S11339C0F0E08BE98083AEE7B0E08C918F608C935C
S11339D0AFE7B0E08C918F638C9380E480937C009C
S11339E0ABE7B0E08C91877F8C9380818064808387
S11339F0089580E480937C00EBE7F0E08081877F8A
S1133A008083EAE7F0E08081806480830895BC01CC
S1133A1080E090E00E943B5220E030E04AE754E42A
S1133A200E94A25120E030ED44E056E40E9431535C
S1133A3008950F931F93CF93DF93C4E8DDE000E76D
S1133A401DE06991799180E090E00E943B5220E072
S1133A5030E04AE754E40E94A25120E030ED44E013
S1133A6056E40E943153F8016193719381939193C9
S1133A708F01FDE0CE38DF0721F7DF91CF911F9151
S1133A800F91089580E480937C00EBE7F0E080815F
S1133A9088608083EAE7F0E0808180648083089511
S1133AA080E480937C00EBE7F0E08081877F808373
S1133AB0EAE7F0E0808180648083089510929A0D93
S1133AC01092990D989A999A9A9A9B9AA098A1986B
S1133AD0A298A3980895813061F048F0823019F0DB
S1133AE0833019F00895A29A0895A39A0895A09A8C
S1133AF00895A19A0895813061F048F0823019F058
S1133B00833019F00895A2980895A3980895A09871
S1133B100895A19808950895662369F087FF20C049
S1133B20A39A86FF20C0A29A85FF20C0A19A84FD93
S1133B300DC0A098089583FF0BC0A39A82FF0BC009
S1133B40A29A81FF0BC0A19A80FFF3CFA09A089597
S1133B50A39882FDF5CFA29881FDF5CFA198F4CF6B
S1133B60A39886FDE0CFA29885FDE0CFA198DFCF92
S1133B70611102C00C947B1D0C946B1DCF9390912A
S1133B809A0D9D7FE9F4909108022FEF290F20935D
S1133B900802911115C09AE090930802C09107029F
S1133BA0882389F08C2F0E946B1D8C2F8F5F80934C
S1133BB00702853028F081E080930702CF910895B1
S1133BC080E0CF9108958C2F0E947B1D8C2FEECF27
S1133BD090919A0D91118091990D0C948C1D909156
S1133BE09A0D992319F0933009F0089590910902E0
S1133BF091110BC060E00E948C1D81E0909109023C
S1133C00911180E080930902089561E00E948C1D67
S1133C10F4CF80919A0D8230B1F0833041F081303D
S1133C2009F0089560E08091990D0C948C1D8091A9
S1133C3006029FEF980F909306028111F2CF8AE05B
S1133C408093060208958091990D0E94BE1D8130D3
S1133C5041F79091990D911103C08093990D0895A6
S1133C6080E0FBCF2FB7F89490938900809388006D
S1133C702FBF08952FB7F89490938B0080938A00F8
S1133C802FBF08952FB7F89490938D0080938C00E4
S1133C902FBF08952FB7F8949093A9008093A8009C
S1133CA02FBF08952FB7F8949093AB008093AA0088
S1133CB02FBF0895CF92DF92EF92FF926B017C01A8
S1133CC020910C0230E040E050E060E072E18AE7CD
S1133CD090E00E94D050CA01B9010E943D52A70150
S1133CE096010E94A2510E940F52CB01FF90EF90C7
S1133CF0DF90CF9008950F931F9320910C0230E032
S1133D0040E050E060E072E18AE790E00E94D05029
S1133D10CA01B90100910A0210910B02980140E016
S1133D2050E00E94D050CA01B9010E943D521F9137
S1133D300F91089590930B0280930A029093870049
S1133D408093860080910A0290910B029093A700C1
S1133D508093A6000895CF92DF92EF92FF926B01B9
S1133D607C0120910C0230E040E050E060E072E120
S1133D708AE790E00E94D050CA01B9010E943D52E6
S1133D80A70196010E94A2510E940F5270930B0248
S1133D9060930A02709387006093860080910A0200
S1133DA090910B029093A7008093A600FF90EF9050
S1133DB0DF90CF900895AF92BF92CF92DF92EF92AF
S1133DC0FF920F931F93CF93DF939B01AC0160E0AD
S1133DD074E284E79BE40E94A2515B016C0120E041
S1133DE03FEF4FE757E40E942D5318160CF050C0D4
S1133DF020E030E040E05EE3B501C6010E943153AB
S1133E007B018C01C8E0D0E020E03FEF4FE757E4AE
S1133E10B701C8010E942D53181664F420E030E065
S1133E2040E85CE3B501C6010E9431537B018C017B
S1133E30C0E4D0E020E03FEF4FE757E4B701C8010A
S1133E400E942D53181664F420E030E040E85BE350
S1133E50B501C6010E9431537B018C01C0E0D1E061
S1133E6020E03FEF4FE757E4B701C8010E942D530C
S1133E70181614F4C0E0D4E0CE01DF91CF911F9165
S1133E800F91FF90EF90DF90CF90BF90AF90089587
S1133E9075018601C1E0D0E0B7CF80349105B9F057
S1133EA038F48130910589F0089759F482E0089537
S1133EB0811521E0920739F08115944011F485E0D1
S1133EC008958FEF089584E0089581E0089583E0D4
S1133ED008958F929F92AF92BF92CF92DF92EF920A
S1133EE0FF920F931F93CF93DF934B015C01E42E5A
S1133EF0259A269A279A809101018860809301016E
S1133F0080910101806180930101109264008FE22D
S1133F10809365008FB7F8941092890010928800FE
S1133F208FBF8FB7F89410928B0010928A008FBFC6
S1133F308FB7F89410928D0010928C008FBF8FB7BA
S1133F40F8941092A9001092A8008FBF8FB7F8942C
S1133F501092AB001092AA008FBF20910C0230E0A7
S1133F6040E050E060E072E18AE790E00E94D050C7
S1133F70CA01B9010E943D52A50194010E94A251B7
S1133F800E940F5270930B0260930A027093870091
S1133F906093860080910A0290910B029093A7008F
S1133FA08093A600E1107DC082E080938000A5018B
S1133FB0940160E074E284E79BE40E94A2515B01F7
S1133FC06C0120E03FEF4FE757E40E942D53181691
S1133FD00CF061C020E030E040E05EE3B501C601D2
S1133FE00E9431538B01D82FC92F98E0F92E20E07D
S1133FF03FEF4FE757E4B8018D2F9C2F0E942D53BC
S113400018166CF420E030E040E85CE3B501C6012A
S11340100E9431538B01D82FC92F80E4F82E20E061
S11340203FEF4FE757E4B8018D2F9C2F0E942D538B
S1134030181664F420E030E040E85BE3B501C60103
S11340400E9431538B01D82FC92FF12C20E03FEF70
S11340504FE757E4B8018D2F9C2F0E942D5318165B
S113406014F1F0920C0288E0F81609F444C080E4DC
S1134070F816D9F181E0F81218C089E18093810023
S1134080EE20C1F08AEA8093A00080910C0288306F
S1134090C1F48AE11BC08501DC2DCD2DFF24F394EE
S11340A0A6CF8AEA82CF10920C028FEF8093810010
S11340B0E110E8CF82E08093A00080910C02883068
S11340C041F38034B1F0813091F08FEF8093A100FF
S11340D0DF91CF911F910F91FF90EF90DF90CF90E0
S11340E0BF90AF909F908F9008958BE1DFCF89E1CF
S11340F0EDCF8BE1EBCF8AE1D9CF90918000811194
S113410005C0892F806C809380000895892F8F7B50
S1134110806880938000089590918000811105C08B
S1134120892F8063809380000895892F8F7E806219
S1134130809380000895E4E0F1E080818F7D8083A6
S113414080818F7B8083E5E0F1E0808180628083E1
S11341508081806480830895E3E0F1E0808180724F
S113416080930E028081807480930D020895EAE0AA
S1134170F1E080811082E1E0F1E080818F79808339
S1134180EBE0F1E080818FEF8083E2E0F1E0808179
S11341908066808308958091090190E090939E0D3C
S11341A080939D0D80910001807690E090939C0D0A
S11341B080939B0D089580919D0D90919E0D8F3F4E
S11341C0910511F081E0089581E020919B0D3091DB
S11341D09C0D20363105B9F780E0089582309105B1
S11341E009F440C084F4009779F1019709F58091AE
S11341F09D0D90919E0D969587959695879521E0B6
S113420082278170089583309105A1F0049781F489
S113421080919B0D90919C0D969587959295829592
S11342208F7089279F70892721E0822781700895E4
S113423080E0089580919D0D90919E0D8170992745
S113424021E082278170089580919D0D90919E0DAB
S113425096958795969587959695879521E08227DB
S11342608170089580919D0D90919E0D96958795EE
S113427021E08227817008958230910509F449C0B4
S1134280ACF40097C9F1019739F580919D0D909197
S11342909E0D0024880F991F001C880F991F001C75
S11342A0892F902D21E08227817008958330910514
S11342B0A9F0049789F480919B0D90919C0D0024A2
S11342C0880F991F001C880F991F001C892F902D9F
S11342D021E082278170089580E0089580919D0DEA
S11342E090919E0D929582958F7089279F70892752
S11342F021E082278170089580919D0D90919E0DFB
S1134300880F892F881F990B919521E0822781704E
S1134310089580919D0D90919E0D96958795929507
S113432082958F7089279F70892721E08227817069
S113433008958091090190E090939E0D80939D0DC6
S113434080910001807690E090939C0D80939B0D6A
S113435008958837B9F03CF4863789F0873759F4E3
S113436060933A100895893739F08A3719F46093C5
S11343703D1008950895089560933C100895609346
S11343803910089560933B1008954F925F926F9295
S11343907F928F929F92AF92BF92CF92DF92EF92D1
S11343A0FF920F931F93CF93DF93CDB7DEB7C6541D
S11343B0D1090FB6F894DEBF0FBECDBFCE018E5B20
S11343C09F4F7C0100E010E0C8010E943C21F701EE
S11343D081937F010F5F1F4F05301105A9F7CE01AF
S11343E0CD967C0100E010E0C8010E94EE20F701A8
S11343F081937F010F5F1F4F05301105A9F788E1F5
S1134400E0EDF3E08E010F5F1F4FD80101900D9294
S11344108A95E1F7C8010E946C23B9E3AB2EB0E1A1
S1134420BB2E8FE0C82E82E0D82E92E4892E912CE8
S11344308C0E9D1EF5E08F0E911CCE01CD967C0155
S1134440FE01EE5BFF4F2F0128EE622E23E0722E59
S1134450F20131912F01F70191917F01F5018191D1
S11344605F01F60121916F011F923F931F929F9369
S11344701F928F93822F992787FD90959F932F9357
S11344807F926F921F930F930E94EA54C8010E9477
S11344906C230FB6F894DEBF0FBECDBF4814590489
S11344A0B9F6CA5BDF4F0FB6F894DEBF0FBECDBFBF
S11344B0DF91CF911F910F91FF90EF90DF90CF90FC
S11344C0BF90AF909F908F907F906F905F904F9030
S11344D008959093C5008093C40008956998689ADC
S11344E06A986B9A73981092AD0F1092AC0F109259
S11344F0AB0F1092AA0FEAEAFDE011928FE0EA3ABC
S1134500F807D9F71092C5008CE08093C40088E1C5
S11345108093C1008091C10080688093C100809124
S113452064008E7F8093640008959091C00095FF8D
S1134530FCCF8093C60008951F920F920FB60F927E
S113454011240F900FBE0F901F90189521E08B310E
S113455009F020E09091A40D922B9093A40D31E0EA
S11345608B3509F030E02091A30D232B2093A30D6C
S113457031E0813409F030E05091A20D532B509377
S1134580A20D31E0823409F030E04091A10D432BBB
S11345904093A10D61E0843409F060E03091A00DF6
S11345A0362B3093A00D61E0833409F060E08091F4
S11345B09F0D862B80939F0D992399F0222389F0D8
S11345C0332391F010929F0D1092A00D1092A10D23
S11345D01092A20D1092A30D1092A40D83E090E00E
S11345E0089580E090E00895882379F010929F0D5B
S11345F01092A00D1092A10D1092A20D1092A30D75
S11346001092A40D84E090E0089551110FC044234A
S113461041F31092A00D1092A10D1092A20D1092D0
S1134620A30D1092A40D82E090E008951092A00DC5
S11346301092A10D1092A20D1092A30D1092A40D30
S113464081E090E0089521E08D3009F020E0909120
S1134650A70D922B9093A70D21E08A3009F020E05A
S11346608091A60D822B8093A60D992331F0109290
S1134670A70D1092A60D81E0089580E008951F9380
S1134680CF93DF93182FCB01EB01C655D24FFE0118
S113469001900020E9F7AF01415051094C1B5D0B1B
S11346A0BE018555924F0E9420541883DF91CF910B
S11346B01F910895FC01E655F24FDF010D90002093
S11346C0E9F7AD01415051094E1B5F0BBC01655523
S11346D0724FCF010C942054FC0101900020E9F7A3
S11346E03197E81BF90B1E161F06CCF420E030E0CE
S11346F005C02F5F3F4FE217F30789F06299F9CFA6
S11347004091C00045FFFCCFDC01A20FB31F4C91C8
S11347104093C6002F5F3F4FE217F30779F781E01C
S113472008951F920F920FB60F9211240BB60F9299
S1134730EF92FF920F931F932F933F934F935F93A7
S11347406F937F938F939F93AF93BF93EF93FF9355
S1134750CF93DF93CDB7DEB76497DEBFCDBFF894B8
S11347608091C00084FD67C08C7009F064C0109211
S1134770A90D1092A80D8091C6008093A50DEAEAB8
S1134780FDE0DF010D900020E9F78D0101501109D2
S11347900A5A1D400E94A6222091A40D222311F042
S11347A0009749F18130910509F40AC182309105DD
S11347B009F449C08430910509F4F5C0039709F45C
S11347C00DC18091A50D8F3709F46AC0883009F4B2
S11347D067C08091A80D81113BC08091C00085FF06
S11347E0FCCF8091A50D8093C6008091AC0F909171
S11347F0AD0F019799F5789464960FB6F894DEBFDF
S11348000FBECDBFDF91CF91FF91EF91BF91AF91DB
S11348109F918F917F916F915F914F913F912F91D4
S11348201F910F91FF90EF900F900BBE0F900FBE52
S11348300F901F90189582E00E946B1D1092AB0F91
S11348401092AA0F94CF81E08093A80D8093A90DB4
S11348508091AC0F9091AD0F019769F24091A50D35
S113486091E04D3009F090E08091A70D892B809361
S1134870A70D21E04A3009F020E09091A60D922B7B
S11348809093A60D882309F471C01092A70D10927D
S1134890A60D81E090E09093AD0F8093AC0FABCF69
S11348A081E08093A90D6091AA0F7091AB0F161649
S11348B017060CF057C088E0F82EF092A50DCB0136
S11348C001979093AB0F8093AA0FA801481B590B33
S11348D06655724F8655924F0E942054F9829BE18F
S11348E0E92EEA822BE5F22EFB828BE48C831D8277
S11348F08E010F5F1F4FC8010E946C238091AA0F85
S11349009091AB0F8655924F0E946C23A091AA0FF1
S1134910B091AB0FA655B24FFD0101900020E9F70D
S1134920CF0101978A1B9B0B18161906DCF44AE089
S1134930BE01605F7F4F0E946954E982FA821B8244
S1134940BE01605F7F4FC8010E943254F80101909C
S11349500020E9F7319784E490E091838083C801D3
S11349600E946C2381E08093A80D72CF8091A90DE1
S1134970811141CF8091AA0F9091AB0F8115F2E084
S11349809F070CF041C09C012F5F3F4FFC01E6558F
S1134990F24F40833093AB0F2093AA0FF901E655F1
S11349A0F24F108228CF8091AA0F9091AB0F8017FD
S11349B091077CF181E08093A90D8093A80D48CFE5
S11349C08BE094E00E946C231092AB0F1092AA0F1C
S11349D081E08093A80D8093A90D3ACF81E0809364
S11349E0A90D8091AA0F9091AB0F181619060CF01F
S11349F0B9CF28E02093A50D01979093AB0F809336
S1134A00AA0F8091A80DE7CE21E030E080E090E08D
S1134A10BDCF01969093AB0F8093AA0F8BE189834E
S1134A208BE58A8383E48B831C82CE0101960E94EA
S1134A306C23C0CF8BE393E00C946C231092AD0FE6
S1134A401092AC0F1092AB0F1092AA0FEAEAFDE09D
S1134A5011928FE0EA3AF807D9F708958091AC0FE4
S1134A609091AD0F019709F0089580E00E946B1DAD
S1134A7082E00E947B1D8AEA9DE00E942A391092FE
S1134A80AD0F1092AC0F1092AB0F1092AA0FEAEA7E
S1134A90FDE011928FE0EA3AF807D9F708954F92B2
S1134AA05F927F928F929F92AF92BF92CF92DF924A
S1134AB0EF92FF920F931F93CF93DF9380E090E0E8
S1134AC0AAEFB3E480933E1090933F10A09340105C
S1134AD0B093411081E090E0909343108093421092
S1134AE080E090E0A0ECB1E48093991090939A1048
S1134AF0A0939B10B0939C1080E090E0A0E1B1E4FF
S1134B0080939D1090939E10A0939F10B093A0103B
S1134B1086ED91E3A2EEB1E48093A1109093A210EC
S1134B20A093A310B093A41080E090E0A4EBB3E4AE
S1134B308093A5109093A610A093A710B093A810EB
S1134B4081E090E0A0E0B0E08093A9109093AA10D7
S1134B50A093AB10B093AC1004E310E169E370E1EF
S1134B6044E450E124E930E1C8E5D0E1ACE6B0E149
S1134B7080E8482E80E1582E80E090E077247394FA
S1134B80812C912C54018394FFE6CF2EF2E1DF2E89
S1134B90F3E8EF2EFAE3FF2EF80111928F01FB01E7
S1134BA07192BF01FA0181929192A192B192AF01E7
S1134BB0F90111929F01C992D992E992F9921D9239
S1134BC01D921D921D92F201119211921192119255
S1134BD02F01019685309105F9F680E492EEA1E06B
S1134BE0B0E08093AD109093AE10A093AF10B0934B
S1134BF0B01081E090E09093B2108093B1101092C5
S1134C00B4101092B3109093B6108093B510DF9146
S1134C10CF911F910F91FF90EF90DF90CF90BF90B5
S1134C20AF909F908F907F905F904F900895CF9317
S1134C30DF93C4E3D0E1CE01845390410E94073E48
S1134C40899380E1C73BD807B1F7DF91CF910895ED
S1134C50EF92FF920F931F93CF93DF9303EF1CE028
S1134C60C0E0D0E0F8016081CE010E94FF3DF80170
S1134C706181CE0101960E94FF3D7E01F3E0EF0EBB
S1134C80F11CF8016281CE0102960E94FF3D249638
S1134C90F8016381C7010E94FF3D085E1F4FC431C4
S1134CA0D10501F7DF91CF911F910F91FF90EF9004
S1134CB00895EF92FF920F931F93CF93DF9303EF27
S1134CC01CE0C0E0D0E0CE010E94073EF8018083E2
S1134CD0CE0101960E94073EF80181837E01F3E034
S1134CE0EF0EF11CCE0102960E94073EF80182836A
S1134CF02496C7010E94073EF8018383085E1F4F74
S1134D00C431D10501F7DF91CF911F910F91FF902D
S1134D10EF900895CF93DF93C4E3D0E1CE018453A1
S1134D20904169910E94FF3D80E1C73BD807B1F7EC
S1134D30DF91CF9108950F931F93CF93DF930E9438
S1134D40172660913E1070913F1080914010909111
S1134D5041100E94AB1EC1E2DCE00FE012E048818A
S1134D6059816A817B81F80181918F010E945213DC
S1134D706896FCE0C939DF0791F7DF91CF911F9165
S1134D800F910895181619067CF4FB01880F991FDA
S1134D90880F991F860F971F138212821182108227
S1134DA03496E817F907C1F708958F929F92AF924E
S1134DB0BF92CF92DF92EF92FF920F931F93CF9304
S1134DC0DF935C01181619060CF058C08B01C1E082
S1134DD0D0E03CE1C32E34E0D32E46EDE42E42E194
S1134DE0F42E5EE0852E54E0952E27C0F80126812E
S1134DF037819F938F933F932F933F932F93DF9309
S1134E00CF93DF92CF92FF92EF920E94EA5486ED05
S1134E1092E10E946C2389EA93E00E946C23EDB72F
S1134E20FEB73C960FB6F894FEBF0FBEEDBF2196B9
S1134E300C5F1F4FAC16BD060CF1F80184819581FF
S1134E400097A1F6DF93CF939F928F92FF92EF92F8
S1134E500E94EA5486ED92E10E946C2389EA93E071
S1134E600E946C230F900F900F900F900F900F9053
S1134E7021960C5F1F4FAC16BD06FCF6DF91CF9157
S1134E801F910F91FF90EF90DF90CF90BF90AF9064
S1134E909F908F900895AF92BF92CF92DF92EF923E
S1134EA0FF920F931F93CF93DF93CDB7DEB7649731
S1134EB00FB6F894DEBF0FBECDBF6B015A01790166
S1134EC0D9010D900020E9F78D0101501109021B51
S1134ED0130B20E031E0EBECF1E1DF01A9011D92BD
S1134EE041505040E1F7EBECF0E1DF01A9011D92E4
S1134EF041505040E1F71816190684F4FB01DC0117
S1134F00AA0FBB1FAA0FBB1FAC0DBD1D13821282BB
S1134F10118210823496EA17FB07C1F78091D512EB
S1134F20811133C0B5018BEC90E10E94AE475C0166
S1134F308091D512A114B104A1F4811155C0C50109
S1134F4064960FB6F894DEBF0FBECDBFDF91CF914C
S1134F501F910F91FF90EF90DF90CF90BF90AF9093
S1134F60089581111AC09601A801B7018BEC90E154
S1134F700E944F4831E020E0892B19F0A32EB22E75
S1134F80DECF30E0A32EB22EDACF8FE294E00E947F
S1134F906C23C5010E946C23C5CF86E594E00E9472
S1134FA06C238BEC91E10E946C238CE594E00E94CD
S1134FB06C238091CE128F938091CD128F938EE5C6
S1134FC094E09F938F93CE0101965C01BF928F93DF
S1134FD00E94EA54C5010E946C230F900F900F9019
S1134FE00F900F900F90BFCF8DE394E00E946C233D
S1134FF08091D3129091D4120E946C23A0CF8091FF
S113500042109091431081309105C1F1ECF082304F
S1135010910571F0039731F585E0E3EFF4E0A7EB38
S1135020B0E101900D928A95E1F787EB90E1089544
S113503086E0E8EEF4E0A7EBB0E101900D928A95EA
S1135040E1F787EB90E10895892B61F487E0E5EFC0
S1135050F7E0A7EBB0E101900D928A95E1F787EBB9
S113506090E1089588E0EBE6F4E0A7EBB0E101906D
S11350700D928A95E1F787EB90E1089585E0EEEDD6
S1135080F4E0A7EBB0E101900D928A95E1F787EB8C
S113509090E10895AF92BF92CF92DF92EF92FF9288
S11350A00F931F93CF93DF93EC01FC010190002039
S11350B0E9F7CF0101975C01AC1ABD0A83E794E0DC
S11350C00E946C231A141B0434F56E01C0E0D0E076
S11350D079E8E72E74E0F72E06ED12E1F60121914E
S11350E06F01822F992787FD90959F932F93FF92AD
S11350F0EF921F930F930E94EA5486ED92E10E946F
S11351006C2321960F900F900F900F900F900F909B
S1135110AC16BD0619F7DF91CF911F910F91FF9047
S1135120EF90DF90CF90BF90AF900895BC018BE3D8
S113513095E10E944854EBE3F5E101900020E9F782
S113514031978DE09AE0A0E080839183A28381E08F
S113515080933A1508958757843068F4E82FF0E077
S1135160EE0FFF1FEE0FFF1FEC5EFD4F608171819C
S113517082819381089560E070E0CB010895CF931C
S1135180DF9300D01F92CDB7DEB79A01AB018757EA
S11351908430C0F5E82FF0E0EE0FFF1FEE0FFF1F85
S11351A0EC5EFD4F608171818281938129833A8312
S11351B04B835C830E940A5229813A814B815C8132
S11351C0FB01EE0FFF1FEE0FFF1FEC5BFF4E608134
S11351D071818281938129833A834B835C830E940A
S11351E03D5229813A814B815C810E9431530E9456
S11351F094530E940A520F900F900F900F90DF91DA
S1135200CF91089560E070E0DBCFCF92DF92EF9210
S1135210FF926A017B018757843030F5E82FF0E074
S1135220EE0FFF1FEE0FFF1FEC5EFD4F60817181DB
S1135230828193810E940A52FB01EE0FFF1FEE0F41
S1135240FF1FEC5BFF4E2081318142815381C701F6
S1135250B6010E94D050CA01B9010E943D52FF908C
S1135260EF90DF90CF90089560E070E0E5CF4F922B
S11352705F926F927F928F929F92AF92BF92CF92E2
S1135280DF92EF92FF920F931F93CF93DF93CDB7EB
S1135290DEB7A0970FB6F894DEBF0FBECDBF8C016A
S11352A0E0E3F2E0659174918AE394E10E940C5486
S11352B098014AE354E166ED73E187E090E00E94CF
S11352C04B277C01009709F470C06EE874E080916C
S11352D0DA139091DB130E944F545C011092D612A2
S11352E03EED632E33E1732E49EA842E44E0942E7E
S11352F08E010F5F1F4F5524539456E9C52E54E079
S1135300D52ED301ED91FC911197309731F012967F
S11353108D919C911397892B21F5B4E06B0E711C30
S113532082EF681683E1780661F786ED92E10E94C8
S113533096288E2DA0960FB6F894DEBF0FBECDBF73
S1135340DF91CF911F910F91FF90EF90DF90CF905D
S1135350BF90AF909F908F907F906F905F904F9091
S113536008954080842D0E94EA0FE82FF0E0EC5C61
S1135370FF4EA114B104D9F05082242D332727FD08
S113538030953F934F92DF92CF921F930F930E94D9
S1135390EA54B80186ED92E10E9432540F900F90C6
S11353A00F900F900F900F90B8CF80E0C3CF108272
S11353B0242D332727FD30953F934F929F928F9250
S11353C0E4CFAF92BF92CF92DF92EF92FF920F930E
S11353D01F93CF93DF93CDB7DEB7C456D1090FB671
S11353E0F894DEBF0FBECDBF8C01E2E3F2E065911D
S11353F074918AE394E10E940C5498014AE354E1C5
S113540066ED73E183E090E00E944B275C01009716
S113541009F4E3C00091DA131091DB1362EC74E039
S1135420C8010E944F54892B09F4EEC00091DE1389
S11354301091DF1365EF77E0C8010E944F54892B68
S113544061F010924310109242108DEC94E00E948F
S113545096280091DE131091DF136EED74E0C801FD
S11354600E944F54892B09F4CBC061E070E0809115
S11354704210909143100E94BD3B6B017C0104E4F7
S113548010E1F80160817181828193810E943D5213
S1135490A70196010E9431530E940A52F8016193B8
S11354A07193819391938F01F0E108351F0749F7B8
S11354B081E090E0909343108093421089ED94E052
S11354C00E9496280091DE131091DF1368EE74E0B9
S11354D0C8010E944F54892B89F162E070E08091E9
S11354E04210909143100E94BD3B6B017C0104E487
S11354F010E1F80160817181828193810E943D52A3
S1135500A70196010E9431530E940A52F801619347
S11355107193819391938F01F0E108351F0749F747
S113552082E090E0909343108093421083EE94E0E5
S11355300E9496280091DE131091DF1363EF74E04C
S1135540C8010E944F54892B69F163E070E0809197
S11355504210909143100E94BD3B6B017C0104E416
S113556010E1F80160817181828193810E943D5232
S1135570A70196010E9431530E940A52F8016193D7
S11355807193819391938F01F0E108351F0749F7D7
S113559083E090E090934310809342108EEE94E069
S11355A00E94962888E0E8EFF4E0A6EDB2E10190CD
S11355B00D928A95E1F78E010F5F1F4F23E043E0C0
S11355C0C701B6010E94B453B80186ED92E10E946E
S11355D0325486ED92E10E946C238A2DCC59DF4F20
S11355E00FB6F894DEBF0FBECDBFDF91CF911F91F0
S11355F00F91FF90EF90DF90CF90BF90AF90089500
S1135600C12CD12C760162CF66EC74E0C8010E94F3
S11356104F54892B09F00ACF0E94FF279F938F9341
S113562080E095E09F938F938E010F5F1F4F1F9330
S11356300F930E94EA54C8010E9496280F900F907D
S11356400F900F900F900F90C8CF2F923F924F92D0
S11356505F926F927F928F929F92AF92BF92CF92FE
S1135660DF92EF92FF920F931F93CF93DF93CDB707
S1135670DEB7C054D1090FB6F894DEBF0FBECDBF5C
S11356808C01E4E3F2E0659174918AE394E10E9471
S11356900C5498014AE354E166ED73E182E090E032
S11356A00E944B277C01009709F498C062EC74E0D7
S11356B08091DA139091DB130E944F54892B09F4E3
S11356C08FC08091DE139091DF13009709F453C0CB
S11356D02091E0133091E113232B09F44CC00E9474
S11356E0DE536C0102EE13E11601442437FC4094AE
S11356F0542CB9E08B2EB5E09B2E86EDA82E82E1CA
S1135700B82ED801ED91FC911197309731F0129693
S11357108D919C911397892B89F50C5F1F4FF3E1B1
S1135720063F1F0771F785E0E2E2F5E0A6EDB2E17E
S113573001900D928A95E1F786ED92E10E949628F8
S11357408E2DC05CDF4F0FB6F894DEBF0FBECDBF09
S1135750DF91CF911F910F91FF90EF90DF90CF9049
S1135760BF90AF909F908F907F906F905F904F907D
S11357703F902F900895C12CD12CB4CF80810E94EA
S1135780EA0F682E712CF301EE0FFF1FEE0FFF1FBF
S1135790EC5BFF4E20823182428253820E94FF27BB
S11357A0DF92CF929F938F93F301E15FFD4F2081AE
S11357B0822F992787FD90959F932F939F928F9285
S11357C0BF92AF920E94EA5486ED92E10E946C234C
S11357D00FB6F894DEBF0FBECDBF9FCF80E0B1CF30
S11357E004E410E16FE0862E62E0962ECE0101966D
S11357F06C0177E2A72E75E0B72ED8017C90119644
S11358006C900C5F1F4F0E94FF27F40121914F0100
S11358109F938F936F927F92822F992787FD909504
S11358209F932F93BF92AF92DF92CF920E94EA543C
S1135830B60186ED92E10E9432540FB6F894DEBFB1
S11358400FBECDBF90E104351907B9F686ED92E19C
S11358500E94962875CF0F931F93CF93DF93EC018B
S1135860E6E3F2E0659174918AE394E10E940C54BA
S11358709E014AE354E166ED73E188E090E00E9402
S11358804B27EC010097E1F18091E2139091E3132F
S1135890009751F00091E4131091E5136DE375E066
S11358A00E944F54892B91F11092F30C1092F40C36
S11358B01092F50C1092F60C10920B0D10920C0D28
S11358C010920D0D10920E0D1092230D1092240DB6
S11358D01092250D1092260D10923B0D10923C0D46
S11358E010923D0D10923E0D1092530D1092540DD6
S11358F01092550D1092560D81E495E00E94962861
S11359008C2FDF91CF911F910F910895012B61F29C
S113591002EE13E1D801ED91FC911197309731F02B
S113592012968D919C911397892B39F40C5F1F4F1C
S1135930B3E1063F1B0771F7DFCF80810E94EA0FB6
S113594090E0FC01EE0FFF1FE80FF91FEE0FFF1FA1
S1135950EE0FFF1FEE0FFF1FED50F34F1082118269
S113596012821382E3CF4F925F926F927F928F9253
S11359709F92AF92BF92CF92DF92EF92FF920F93DA
S11359801F93CF93DF93EC01E8E3F2E06591749108
S11359908AE394E10E940C549E014AE354E166EDCB
S11359A073E182E090E00E944B272C01009799F16B
S11359B0C091DA13D091DB1361E575E0CE010E944A
S11359C04F543C0168E575E0CE010E944F548C01B0
S11359D063E675E0CE010E944F546C0164E873E005
S11359E0CE010E944F547C016CE675E0CE010E940A
S11359F04F544C0162E775E0CE010E944F545C01A4
S1135A006EE775E0CE010E944F546728B1F00E9402
S1135A100C4C81E001C0842DDF91CF911F910F9137
S1135A20FF90EF90DF90CF90BF90AF909F908F90BA
S1135A307F906F905F904F900895012B21F00E940A
S1135A40F74E81E0E9CFEF2821F00E949F4C81E0DE
S1135A50E3CFCD2821F00E946D4D81E0DDCFAB284E
S1135A6021F00E94F04C81E0D7CF892821F00E94D8
S1135A70144E81E0D1CF892B71F20E94BB4E81E09C
S1135A80CBCF0F931F93CF93DF93EC01EAE3F2E0C4
S1135A90659174918AE394E10E940C549E014AE357
S1135AA054E166ED73E186E090E00E944B278C019F
S1135AB0009799F0CAEDD3E1E881F981309721F09C
S1135AC02A813B81232B79F4249683E1CE3ED807A7
S1135AD099F78DE895E00E949628802FDF91CF9169
S1135AE01F910F91089540E050E060E07FE38081D2
S1135AF00E945213E9CFBF92CF92DF92EF92FF92AE
S1135B000F931F93CF93DF9300D01F92CDB7DEB7CF
S1135B108C01ECE3F2E0659174918AE394E10E94D4
S1135B200C5498014AE354E166ED73E186E090E099
S1135B300E944B277C01009709F457C08BE0E1EAEF
S1135B40F5E0A6EDB2E101900D928A95E1F7C090DF
S1135B50DA13D090DB136DE375E0C6010E944F5455
S1135B60BB24B394892B09F474C041E65CE66CE66B
S1135B7070E049835A836B837C83BE016F5F7F4FE0
S1135B8080EE92E10E9448540AED13E1BB2009F132
S1135B90D801ED91FC911197309731F012968D91C7
S1135BA09C911397892B11F4BB2039F040E050E00D
S1135BB060E07FE380810E9452130C5F1F4FB3E1CA
S1135BC00E3E1B0709F43FC0F801C080D180B1101C
S1135BD0DFCFD6018C9189831A82BE016F5F7F4F1C
S1135BE086ED92E10E943254D3CFEEE3F2E0659168
S1135BF074918AE394E10E940C5498014AE354E1BD
S1135C0066ED73E186E090E00E944B277C010097EB
S1135C1079F480E00F900F900F900F90DF91CF9167
S1135C201F910F91FF90EF90DF90CF90BF90089558
S1135C300E94081380E1ECEAF5E0A6EDB2E10190E0
S1135C400D928A95E1F786ED92E10E9496288E2DB9
S1135C50E1CFB12C99CF4F925F926F927F929F9236
S1135C60AF92BF92CF92DF92EF92FF920F931F9366
S1135C70CF93DF93CDB7DEB72A970FB6F894DEBF84
S1135C800FBECDBF8C01E0E4F2E0659174918AE32C
S1135C9094E10E940C5498014AE354E166ED73E1E7
S1135CA087E090E00E944B276C010097B9F48C2D9B
S1135CB02A960FB6F894DEBF0FBECDBFDF91CF9109
S1135CC01F910F91FF90EF90DF90CF90BF90AF9016
S1135CD09F907F906F905F904F9008958DE0ECEBD4
S1135CE0F5E0A6EDB2E101900D928A95E1F76EED33
