S01000006269676D6F746F722E73726563B1
S11300000C9466000C947F050C94B1050C94870045
S11300100C9487000C9487000C9415060C948700AC
S11300200C94E3050C9487000C9487000C948700CF
S11300300C9487000C9487000C9487000C94870020
S11300400C9487000C9487000C9487000C94870010
S11300500C9487000C946E090C9487000C94870010
S11300600C9487000C946D0D0C9487000C94630D14
S11300700C9487000C9435070C9487000C9487002B
S11300800C9487000C9487000C9487000C948700D0
S11300900C9487000C9487000C9487000C948700C0
S11300A00C9487000C9487000C9487000C948700B0
S11300B00C9487000C9487000C9487000C948700A0
S11300C00C9487000C9487000C94870011241FBEA5
S11300D0CFEFD1E2DEBFCDBF00E00CBF14E0A0E063
S11300E0B2E0E8E1F6E300E00BBF02C007900D9236
S11300F0A034B107D9F717E0A0E4B4E001C01D9221
S1130100AA32B107E1F70E94AA000C940A1B0C94CE
S1130110000084B780934104F8940E9473080E94FD
S1130120B80C0E94C60C0E94120160E070E08AEFD5
S113013093E441E00E94010B0E947A0D0E94A80DF5
S11301400E94AC0D60EA76E881E090E00E94880F9E
S113015078940895CF930E94890060E070E080E86D
S11301609EE30E94820B60E070E080E09FE30E94C7
S1130170B70B60E070E080E49FE30E94EC0B63E364
S113018073E383E79FE30E943C0CC1E017C081E066
S11301900E9480080E94BD0C80910F028823B9F14F
S11301A0809110028823D1F10E94D60C0E94E60CA3
S11301B08111C1E00E9487010E94E20D60EA7FE0A4
S11301C080E090E00E94880F84E00E94800882E032
S11301D00E94800883E00E94800860EA7FE080E05B
S11301E090E00E94880F84E00E94930882E00E94BD
S11301F0930883E00E949308CC2349F681E00E948F
S113020093080E94BD0C80910F02882349F60E9436
S1130210210CC1E080911002882331F60E946F0CFA
S1130220C0E0C2CF8FEF87B985E588B981E08093BC
S113023044048093450480934604809347040895BE
S1130240882329F44098419A109244040895409ACE
S1130250419881E0809344040895882329F44298C6
S1130260439A109245040895429A439881E08093FA
S113027045040895882329F44498459A1092460425
S11302800895449A459881E080934604089588230C
S113029031F44698479A81E0809347040895469A3A
S11302A0479881E0809347040895882329F488B10E
S11302B08F6B88B9479A08954698479808951F9375
S11302C0CF93DF93EC010E94F90C182FCE010E940A
S11302D0250D112331F0FE01EC5BFB4F9081992336
S11302E061F4882331F0FE01EC5BFB4F80818823AD
S11302F021F0DF91CF911F910895CE0140E050E0AD
S1130300BA010E94980CDF91CF911F91089581E06A
S113031090E00E945F0182E090E00E945F0183E030
S113032090E00E945F0184E090E00E945F010895E4
S113033081E080936E0487B18F7C87B988B18F7C0C
S113034088B955985D980E940A080E941B088091FC
S11303504E0490914F04A0915004B0915104209107
S113036048043091490440914A0450914B04821B43
S1130370930BA40BB50B8093540490935504A09352
S11303805604B093570480915204909153042091E1
S11303904C0430914D04821B930B90935904809329
S11303A05804089520915C0430915D0430935B04FB
S11303B020935A048091F1049091F2044091EF0447
S11303C05091F004841B950B90935D0480935C041E
S11303D0409160045091610450935F0440935E0423
S11303E0821B930B90936104809360040895809121
S11303F0F1049091F20408952091710430917204F3
S11304008091F1049091F204281B390BC9010895DD
S113041020917104309172048091F1049091F2045E
S11304208217930758F02817390720F48FEF809329
S1130430730408951092730480E0089581E080931A
S11304407304089580915C0490915D0490935B041F
S113045080935A048091F1049091F2042091EF0466
S11304603091F004821B930B90935D0480935C04A1
S11304700895809160049091610490935F04809347
S11304805E0480915C0490915D0420915A04309143
S11304905B04821B930B9093610480936004089522
S11304A0EF92FF920F931F93609158047091590437
S11304B0769567957695679580914C0490914D0457
S11304C0680F791F80E090E00E948A147B018C0100
S11304D06091F1047091F20480E090E00E948A142B
S11304E0A80197010E946F11A80197010E949A1216
S11304F01F910F91FF90EF900895AF92BF92CF920A
S1130500DF92EF92FF920F931F93CF93DF93EC014F
S113051020914E0430914F04409150045091510465
S1130520609148047091490480914A0490914B046D
S1130530261737074807590714F4CA01B9010E945E
S1130540D8135B016C01609154047091550480913F
S11305505604909157040E94D8137B018C0120917A
S113056052043091530480914C0490914D04281707
S1130570390708F4C9019E01281B390BC901609190
S11305805804709159040E940A1780E090E00E9478
S11305908A149B01AC01C801B7010E94A0119B0100
S11305A0AC01C601B5010E944211DF91CF911F91A8
S11305B00F91FF90EF90DF90CF90BF90AF90089590
S11305C08091F1049091F2040E947D020E943814FB
S11305D0089520E030E048EC52E40E94A0110E940B
S11305E038140895AF92BF92CF92DF92EF92FF92A8
S11305F00F931F937B018C016091580470915904EF
S113060080E090E00E948A145B016C0120914E040A
S113061030914F044091500450915104809148040A
S113062090914904A0914A04B0914B0428173907CA
S11306304A075B0714F4DA01C901A8019701281BD2
S1130640390B4A0B5B0BCA01B90120915404309158
S1130650550440915604509157040E943117CA0121
S1130660B9010E94D8139B01AC01C601B5010E94D7
S1130670A0117B018C0180915204909153046091EC
S11306804C0470914D048617970708F4BC0180E070
S113069090E00E948A149B01AC01C801B7010E943A
S11306A042110E94CC0FCB011F910F91FF90EF904C
S11306B0DF90CF90BF90AF90089589E190E0909340
S11306C04D0480934C0486EE93E0909353048093FE
S11306D05204109248041092490410924A04109251
S11306E04B0480E395E7A0E0B0E080934E04909340
S11306F04F04A0935004B0935104089580914E0484
S113070090914F04A0915004B09151042091480459
S11307103091490440914A0450914B04821B930B3D
S1130720A40BB50B8093540490935504A0935604E2
S1130730B0935704809152049091530420914C0437
S113074030914D04821B930B909359048093580469
S11307500895809152049091530420914C04309157
S11307604D048217930708F49C01C90108958091F0
S11307704E0490914F04A0915004B09151042091E3
S113078048043091490440914A0450914B04821723
S11307909307A407B50714F49C01AD01B901CA017C
S11307A00895809152049091530420914C04309107
S11307B04D042817390708F49C01C9010895809154
S11307C04E0490914F04A0915004B0915104209193
S11307D048043091490440914A0450914B0428172D
S11307E039074A075B0714F49C01AD01B901CA013A
S11307F00895E0915204F091530460914C04709177
S11308004D04E617F70740F5809148049091490498
S1130810A0914A04B0914B0420914E0430914F04AE
S1130820409150045091510420934804309349045A
S113083040934A0450934B04F0934D04E0934C04CA
S113084080934E0490934F04A0935004B0935104AA
S113085070935304609352040895EF92FF920F93A0
S11308601F9320914E0430914F04409150045091B5
S113087051048091480490914904A0914A04B09194
S11308804B047C018D01281739074A075B0714F4D0
S113089079018A0100E010E0E816F9060A071B074F
S11308A001F160914C0470914D04209348043093FD
S11308B0490440934A0450934B04209152043091CC
S11308C0530430934D0420934C0480934E0490932E
S11308D04F04A0935004B093510470935304609355
S11308E052041F910F91FF90EF900895CF93DF93DF
S11308F0EC0183E00E94930884E00E9493088091B5
S11309007D048130A1F0823001F180914C049091FA
S11309104D04C817D90738F18091520490915304BB
S11309208C179D0778F180E0DF91CF910895809135
S11309304C0490914D0407968C179D07E8F410928F
S11309407D0480E0DF91CF910895809152049091CD
S113095053040797C817D90790F384E00E948008CE
S113096080917D04E1CF83E00E94800881E0809340
S11309707D04DF91CF91089583E00E9480088091E7
S11309807D04D2CF84E00E94800882E080937D04BD
S1130990DF91CF910895EF92FF920F931F93CF931E
S11309A0DF93EB01E0900002F0900102009102025B
S11309B010910302BC0180E090E00E948A14A80117
S11309C097010E9448131816B4F0BE0180E090E02D
S11309D00E948A149B01AC01C801B7010E94A813AC
S11309E0881F8827881F880FDF91CF911F910F914F
S11309F0FF90EF90089581E0DF91CF911F910F91C7
S1130A00FF90EF900895EF92FF920F931F93CF936F
S1130A10DF9380916E048823F9F4609171047091DE
S1130A207204C091F104D091F2046C177D0719F19E
S1130A3080917C04823039F18330F1F180916F042C
S1130A40909170048617970778F46C177D0720F44B
S1130A5082E080937C0401C080E0DF91CF911F91FC
S1130A600F91FF90EF900895C617D707A8F783E07A
S1130A7080937C04F2CF81E0DF91CF911F910F919D
S1130A80FF90EF90089580E090E00E948A147B012B
S1130A908C012DEC3CEC4CEC5DE30E94A0119B011D
S1130AA0AC01C801B7010E946F110E94CC0FC61798
S1130AB0D707C8F082E0D1CF80E090E00E948A148A
S1130AC07B018C012DEC3CEC4CEC5DE30E94A0110D
S1130AD09B01AC01C801B7010E9442110E94CC0FD6
S1130AE06C177D0750F410927C0480E0DF91CF9165
S1130AF01F910F91FF90EF90089583E0AECF1F9266
S1130B000F920FB60F9211248F939F93AF93BF93BD
S1130B1089B181E090E0A0E0B0E080938A049093F2
S1130B208B04A0938C04B0938D048091AA049091BB
S1130B30AB04A091AC04B091AD040197A109B10933
S1130B408093AA049093AB04A093AC04B093AD0437
S1130B50BF91AF919F918F910F900FBE0F901F90F7
S1130B6018951F920F920FB60F9211248F939F9393
S1130B70AF93BF9389B181E090E0A0E0B0E08093AF
S1130B80860490938704A0938804B0938904809189
S1130B90A6049091A704A091A804B091A904019778
S1130BA0A109B1098093A6049093A704A093A80473
S1130BB0B093A904BF91AF919F918F910F900FBEF5
S1130BC00F901F9018951F920F920FB60F92112439
S1130BD08F939F93AF93BF938CB181E090E0A0E09B
S1130BE0B0E080938A0490938B04A0938C04B09318
S1130BF08D048091AA049091AB04A091AC04B091AF
S1130C00AD040197A109B1098093AA049093AB04A0
S1130C10A093AC04B093AD04BF91AF919F918F9119
S1130C200F900FBE0F901F9018951F920F920FB642
S1130C300F9211248F939F93AF93BF938CB181E054
S1130C4090E0A0E0B0E080938A0490938B04A0939A
S1130C508C04B0938D048091AA049091AB04A0916C
S1130C60AC04B091AD040197A109B1098093AA0421
S1130C709093AB04A093AC04B093AD04BF91AF9137
S1130C809F918F910F900FBE0F901F9018958DB16B
S1130C908F708DB98EB1806F8EB98AB18C7C8AB910
S1130CA08BB1806F8BB9E8E6F0E08081816080834E
S1130CB0E89AE9E6F0E080818360808308952F92CA
S1130CC03F924F925F926F927F928F929F92AF92D8
S1130CD0BF92CF92DF92EF92FF920F931F93DF9315
S1130CE0CF9300D00F92CDB7DEB72EE934E05EE8A3
S1130CF0A52E54E0B52E4EEAC42E44E0D42E9EEB2D
S1130D00E92E94E0F92E8EEC882E84E0982E37019B
S1130D102601150100E010E03A8329839C828B822E
S1130D204501560167017901F70161917191819142
S1130D3091917F01F10121913191419151911F01D3
S1130D40621B730B840B950B22E330E040E050E010
S1130D500E94EB16F20161937193819391932F0199
S1130D60F30121913191419151913F01621B730B28
S1130D70840B950B22E330E040E050E00E94EB1638
S1130D800E948A14EB81FC81619371938193919306
S1130D90FC83EB830F5F1F4F0430110529F6298173
S1130DA03A8176016501F90181919191A191B19105
S1130DB09F01F40181939193A193B1934F01F601A3
S1130DC081919191A191B1916F01F70181939193D7
S1130DD0A193B1937F01F4E02E3A3F0721F70F90DE
S1130DE00F900F900F90CF91DF911F910F91FF9073
S1130DF0EF90DF90CF90BF90AF909F908F907F90B7
S1130E006F905F904F903F902F90089560E070E056
S1130E10CB0108952091020530910305C9016AE0D0
S1130E2070E00E941E170097C9F0C90164E670E0E3
S1130E300E941E17009761F48091E1049091E204EE
S1130E40009739F481E090E09093E2048093E10408
S1130E5008951092E2041092E10408950E9487011B
S1130E602091020530910305E0CF1F920F920FB637
S1130E700F920BB60F921124EF92FF920F931F93D0
S1130E802F933F934F935F936F937F938F939F938E
S1130E90AF93BF93CF93DF93EF93FF938091F804C5
S1130EA0982F9F5F9093F8048B3010F01092F80401
S1130EB08091780090917900D92F90E0C92FC80FC4
S1130EC0D11D8091F704813009F465C0813008F4A4
S1130ED052C0823069F5D093EE04C093ED04609162
S1130EE0E7047091E8048091E9049091EA042DEC00
S1130EF03CEC4CE45FE30E94A0117B018C01BE0139
S1130F0080E090E00E948A142DEC3CEC4CE45EE31B
S1130F100E94A0119B01AC01C801B7010E944211BB
S1130F206093E7047093E8048093E9049093EA04DF
S1130F301092F70482E480937C0080917A008064AC
S1130F4080937A00FF91EF91DF91CF91BF91AF91A0
S1130F509F918F917F916F915F914F913F912F91CD
S1130F601F910F91FF90EF900F900BBE0F900FBE4B
S1130F700F901F901895D093F204C093F10481E070
S1130F808093F70488E480937C0080917A008064E5
S1130F9080937A00D7CFD093EC04C093EB04609194
S1130FA0E3047091E4048091E5049091E6042DEC4F
S1130FB03CEC4CE45FE30E94A0117B018C01BE0178
S1130FC080E090E00E948A142DEC3CEC4CE45EE35B
S1130FD00E94A0119B01AC01C801B7010E944211FB
S1130FE06093E3047093E4048093E5049093E6042F
S1130FF082E08093F70489E480937C0080917A00F6
S1131000806480937A009ECFEAE7F0E08081887F55
S1131010808308958BE980937A00EEE7F0E0808185
S113102084608083EFE7F0E080818360808382E4E2
S113103080937C00089582E480937C00EAE7F0E0EA
S11310408081806480830895BC0180E090E00E94E8
S11310508A142091F9043091FA044091FB045091D0
S1131060FC040E946F11209104023091050240910A
S11310700602509107020E94A0110895089588E481
S113108080937C0080917A00806480937A008091C0
S11310907A0086FDFCCF8091780090917900392FF9
S11310A020E0280F311D3093EC042093EB04C90198
S11310B0089589E480937C0080917A008064809311
S11310C07A0080917A0086FDFCCF8091780090911F
S11310D07900392F20E0280F311D3093EE0420933E
S11310E0ED04C90108951092FE041092FD04809A43
S11310F0819A829A839A889889988A988B98089575
S1131100823069F0833028F0833059F0843029F03C
S113111008958130E9F7889A08958B9A0895899AF9
S113112008958A9A0895823069F0833028F08330D4
S113113059F0843029F008958130E9F788980895AA
S11311408B980895899808958A9808950895662338
S113115069F087FF20C08B9A86FF20C08A9A85FF9A
S113116020C0899A84FD0DC08898089583FF0BC020
S11311708B9A82FF0BC08A9A81FF0BC0899A80FFE9
S1131180F3CF889A08958B9882FDF5CF8A9881FDD4
S1131190F5CF8998F4CF8B9886FDE0CF8A9885FDAA
S11311A0E0CF8998DFCF662319F40E94930808954D
S11311B00E94800808959091FE04992321F09230B2
S11311C011F080E0089590910B02292F2150209373
S11311D00B029923B1F79AE090930B02882379F0DC
S11311E080910A020E94800880910A028F5F809396
S11311F00A02853078F081E080930A020895809194
S11312000A020E94930880910A028F5F80930A0267
S1131210853088F780E008959091FE04992311F0B9
S11312208091FD040E94A70808959091FE049923DB
S113123019F0933009F0089590910802992359F414
S113124060E00E94A70881E090910802911180E07B
S113125080930802089561E00E94A708F4CF80916A
S1131260FE048230B9F0833049F0813009F00895EA
S11312708091FD0460E00E940C09089580910902A8
S1131280982F915090930902882389F78AE08093DC
S1131290090208958091FD040E94DB08813039F72A
S11312A09091FD04992319F48093FD04089580E03E
S11312B0FBCF82E084BD93E095BD9AEF97BD809308
S11312C06E001092030510920205089581E0809348
S11312D00605089510920605089508951F920F9229
S11312E00FB60F920BB60F9211242F933F934F9387
S11312F05F936F937F938F939F93AF93BF93EF937A
S1131300FF9380910705882351F11092070580917E
S11313100605882359F180910005909101059C01EF
S11313202F5F3F4F30930105209300056AE070E082
S11313300E940A17009731F1FF91EF91BF91AF918D
S11313409F918F917F916F915F914F913F912F91D9
S11313500F900BBE0F900FBE0F901F90189581E059
S113136080930705809106058823A9F680910205DC
S113137090910305019690930305809302050E94C2
S11313800A07DACF10920105109200058091020538
S113139090910305019690930305809302050E94A2
S11313A00A07CACF82E084BD93E095BD9AEF97BD4A
S11313B080936E00109203051092020508952FB7D2
S11313C0F89490938900809388002FBF08952FB7D5
S11313D0F89490938B0080938A002FBF08952FB7C1
S11313E0F89490938D0080938C002FBF08959FB73D
S11313F0F8948093B3009FBF0895EF92FF920F93E8
S11314001F937B018C0120910C0230E040E050E0FE
S113141060E074E284EF90E00E943117CA01B901E0
S11314200E94D813A80197010E949A120E94CC0F1F
S1131430CB011F910F91FF90EF900895EF92FF92CF
S11314400F931F9320910C0230E040E050E060E0E5
S113145074E284EF90E00E94311779018A012091AF
S11314600D0230910E0240E050E0C801B7010E9425
S11314703117CA01B9010E94D8131F910F91FF902F
S1131480EF90089590930E0280930D02909387003D
S11314908093860008950F931F93CF93DF939B014E
S11314A0AC0160E074E284E79BE40E949A128B0131
S11314B0D82FC92F9E01712F832F922F20E03FEF49
S11314C04FE757E40E94481318160CF041C09E01E0
S11314D0602F712F832F922F20E030E040E05EE3F5
S11314E00E94A01120E03FEF4FE757E40E94481309
S11314F01816B4F59E01602F712F832F922F20E0D0
S113150030E040E85CE30E94A01120E03FEF4FE7A9
S113151057E40E94481318164CF59E01602F712F52
S1131520832F922F20E030E040E85BE30E94A0117B
S113153020E03FEF4FE757E40E94481318169CF44D
S113154020E034E0C901DF91CF911F910F910895FC
S113155021E030E0C901DF91CF911F910F910895EF
S113156028E030E0EFCF20E031E0ECCF20E430E0C1
S1131570E9CF80349105D9F08134910550F021E010
S11315808030920781F024E08030920751F08FEF91
S113159008958130910549F088309105C1F782E0C2
S11315A0089585E0089584E0089581E0089583E036
S11315B00895EF92FF920F931F937B018C0120916A
S11315C00C0230E040E050E060E074E284EF90E030
S11315D00E943117CA01B9010E94D813A8019701CA
S11315E00E949A120E94CC0F70930E0260930D0217
S11315F070938700609386001F910F91FF90EF9086
S11316000895EF92FF920F931F93CF937B018C0168
S1131610C42F442321F0259A269A279A249A80914C
S11316206400877B809364008FB7F89410928900DC
S1131630109288008FBF8FB7F89410928B0010928D
S11316408A008FBF8FB7F89410928D0010928C008F
S11316508FBF8FB7F8941092B3008FBF20910C0204
S113166030E040E050E060E074E284EF90E00E94FB
S11316703117CA01B9010E94D813A80197010E9429
S11316809A120E94CC0F70930E0260930D02709315
S1131690870060938600CC23A9F08AEA80938000B7
S11316A0C801B7010E944B0A80930C0290E00E948B
S11316B0B90A886180938100CF911F910F91FF90A7
S11316C0EF90089582E0EACF90918000292F20685E
S11316D0882321F4906C909380000895922F9F7B2F
S11316E090938000089590918000292F2062882390
S11316F021F49063909380000895922F9F7E90939D
S113170080000895EF92FF920F931F937B018C0149
S113171020E030E0A9010E94A81387FF04C017FB52
S1131720109517F91095E0920805F09209050093B9
S11317300A0510930B0560910D0270910E0280E072
S113174090E00E948A14A80197010E94A0110E94AF
S1131750A5170E94CC0F8FB7F89470938D006093F7
S11317608C008FBF1F910F91FF90EF900895EF921F
S1131770FF920F931F937B018C0120E030E0A901BD
S11317800E94A81387FF04C017FB109517F9109542
S1131790E0920C05F0920D0500930E0510930F05D1
S11317A060910D0270910E0280E090E00E948A1414
S11317B0A80197010E94A0110E94A5170E94CC0FB6
S11317C08FB7F89470938B0060938A008FBF1F913A
S11317D00F91FF90EF900895EF92FF920F931F9354
S11317E07B018C0120E030E0A9010E94A81387FF4F
S11317F004C017FB109517F91095E0921005F092AC
S11318001105009312051093130560910D02709158
S11318100E0280E090E00E948A14A80197010E94C1
S1131820A0110E94A5170E94CC0F8FB7F894709353
S11318308900609388008FBF1F910F91FF90EF90F4
S113184008958FB7F89410928900109288008FBF82
S11318508FB7F89410928B0010928A008FBF8FB7C5
S1131860F89410928D0010928C008FBF8FB7F8946B
S11318701092B3008FBF0895EF92FF920F931F93BE
S11318807B018C0120E030E0A9010E94A81387FFAE
S113189004C017FB109517F91095E0921405F09207
S11318A01505009316051093170560910D027091AC
S11318B00E0280E090E00E948A14A80197010E9421
S11318C0A0110E94A517EFB6F8940E94CC0F609364
S11318D0B300EFBE1F910F91FF90EF9008956091B8
S11318E008057091090580910A0590910B050E94E5
S11318F0820B60910C0570910D0580910E059091FD
S11319000F050E94B70B609110057091110580912D
S11319101205909113050E94EC0B609114057091CF
S1131920150580911605909117050E943C0C0895A9
S11319309C01CB01BA012130310581F022303105FF
S113194084F02230310521F02330310521F008954F
S11319500E94EC0B08950E943C0C08950E94B70B62
S113196008952115310509F008950E94820B089508
S11319706A986B98729A739A08958CB18470809364
S11319800F028CB1887080931002089583B3807F16
S113199083BB80B38F7080BB84B3807F84BB81B3EF
S11319A08F7081BB85B7847085BF089582B390E042
S11319B08F70907090931905809318058FB182955C
S11319C08F7080931A0510921B0508958091180555
S11319D0909119058F30910511F081E0089581E00F
S11319E020911A0530911B052F303105B9F780E09D
S11319F0089581309105E9F08230910504F1823037
S1131A00910529F08330910571F080E008952091CB
S1131A101805309119052370307081E021153105C6
S1131A20A9F780E008959091180581E092FFF9CF1D
S1131A3008959091180581E091FFF3CF08950097E0
S1131A4021F7809118058170089581309105E9F09E
S1131A508230910504F18230910529F0833091059B
S1131A6071F080E0089520911A0530911B052370D0
S1131A70307081E021153105A9F780E00895909137
S1131A801A0581E092FFF9CF089590911A0581E03B
S1131A9091FFF3CF0895009721F780911A05817083
S1131AA008959093C5008093C40088E18093C10099
S1131AB08EE08093C20008959091C00095FFFCCF02
S1131AC08093C60008951F920F920FB60F921124AF
S1131AD00F900FBE0F901F9018951F920F920FB684
S1131AE00F9211240F900FBE0F901F901895089518
S1131AF0089508956898699A83E38093C50087E6FA
S1131B008093C40088E18093C1008EE08093C2007A
S1131B10E4E6F0E080818E7F80830895FC01DC019F
S1131B200D900020E9F71197A81BB90B1A161B0694
S1131B306CF480E090E02091C00025FFFCCF21915F
S1131B402093C6000196A817B907A9F781E0089564
S1131B5081E0809324070895089508950F931F93B7
S1131B60CF93DF93EC0161E172E00E9421188C01B4
S1131B70CE016DE172E00E942118009719F0011561
S1131B80110531F481E00115110541F48093240716
S1131B9080E0DF91CF911F910F91089580E0F6CFFF
S1131BA060E372E00E94211808956DE372E00E94E0
S1131BB0211808956DE472E00E94211808950E948E
S1131BC0AE0D08950F931F93DF93CF93CDB7DEB778
S1131BD0CF5FD0400FB6F894DEBF0FBECDBF80916B
S1131BE02407882309F047C0ADB7BEB71C970FB6CA
S1131BF0F894BEBF0FBEADBFEDB7FEB731968E01F0
S1131C000F5F1F4F12961C930E93119780E992E079
S1131C10938382838091EF049091F004958384836D
S1131C208091F1049091F204978386838091F30468
S1131C309091F404918780878091F5049091F60443
S1131C40938782870E942A188DB79EB70C960FB689
S1131C50F8949EBF0FBE8DBFC8010E948E0DC15067
S1131C60DF4F0FB6F894DEBF0FBECDBFCF91DF912B
S1131C701F910F9108958DB79EB744970FB6F894AE
S1131C809EBF0FBE8DBFEDB7FEB731968E010F5FBD
S1131C901F4FADB7BEB712961C930E93119781E6F2
S1131CA092E09383828380919E0490919F04A091FB
S1131CB0A004B091A10484839583A683B783809103
S1131CC0A2049091A304A091A404B091A5048087D8
S1131CD09187A287B3878091A6049091A704A091CD
S1131CE0A804B091A90484879587A687B7878091B3
S1131CF0AA049091AB04A091AC04B091AD04808B84
S1131D00918BA28BB38B0E942A188DB79EB74496F1
S1131D100FB6F8949EBF0FBE8DBF9ECF0F931F9337
S1131D20DF93CF93CDB7DEB7CF5FD0400FB6F89433
S1131D30DEBF0FBECDBF80912407882309F047C0C2
S1131D40ADB7BEB71C970FB6F894BEBF0FBEADBFFC
S1131D50EDB7FEB731968E010F5F1F4F12961C939D
S1131D600E9311978DEE92E0938382838091EF041A
S1131D709091F004958384838091F1049091F2040E
S1131D80978386838091F3049091F40491878087EC
S1131D908091F5049091F604938782870E942A1813
S1131DA08DB79EB70C960FB6F8949EBF0FBE8DBF2D
S1131DB0C8010E948E0DC150DF4F0FB6F894DEBFEC
S1131DC00FBECDBFCF91DF911F910F9108958DB7B5
S1131DD09EB744970FB6F8949EBF0FBE8DBFEDB764
S1131DE0FEB731968E010F5F1F4FADB7BEB7129687
S1131DF01C930E9311978BEB92E0938382838091D3
S1131E00AE049091AF04A091B004B091B104848366
S1131E109583A683B7838091B2049091B304A09173
S1131E20B404B091B50480879187A287B387809169
S1131E30B6049091B704A091B804B091B904848712
S1131E409587A687B7878091BA049091BB04A09127
S1131E50BC04B091BD04808B918BA28BB38B0E9488
S1131E602A188DB79EB744960FB6F8949EBF0FBE3E
S1131E708DBF9ECF0F931F93DF93CF93CDB7DEB764
S1131E80CF5FD0400FB6F894DEBF0FBECDBF8091B8
S1131E902407882391F48E010F5F1F4FC8010E940D
S1131EA08E0DC150DF4F0FB6F894DEBF0FBECDBF0D
S1131EB0CF91DF911F910F9108950E941E0A2DB7B3
S1131EC03EB7285030400FB6F8943EBF0FBE2DBF2A
S1131ED0EDB7FEB731968E010F5F1F4FADB7BEB79A
S1131EE012961C930E9311972BE133E033832283D4
S1131EF064837583868397830E942A182DB73EB71F
S1131F00285F3F4F0FB6F8943EBF0FBE2DBFC6CF1C
S1131F109B01AC0110922607109227071092280704
S1131F20109229078091260790912707A0912807EE
S1131F30B091290782179307A407B50704F5809188
S1131F40260790912707A0912807B09129070196A9
S1131F50A11DB11D8093260790932707A0932807FE
S1131F60B09329078091260790912707A09128070D
S1131F70B091290782179307A407B50704F30895BE
S1131F808FEF84B917B81DB88EEF85B918B81BB890
S1131F901EB8109264000895EF92FF920F931F935E
S1131FA07B018C0120E030E040E05FE40E94781384
S1131FB087FD11C0C801B70120E030E040E05FE4D4
S1131FC00E946F110E9438149B01AC0120503040D4
S1131FD04040504806C0C801B7010E9438149B0114
S1131FE0AC01B901CA011F910F91FF90EF900895C0
S1131FF0A0E0B0E0EEEFFFE00C947217FC01EA0100
S11320008081823008F438C1DB019C91923008F45D
S113201030C1843059F4943009F02EC19181119665
S11320208C911197981709F021C126C1943009F4B5
S113203020C19230B1F4823009F01EC1CA01AF014F
S113204028E0DA010D90AD01DC010D92CD012150A3
S1132050C1F7DB0111968C911197918189238983B2
S11320600AC1823009F405C1C280D380DB01129613
S11320706D907C9013972481358146815781149605
S1132080ED90FD900D911C911797C6018619970943
S11320905C0197FF04C0AA24BB24A81AB90AB0E2C1
S11320A0AB16B1040CF061C0181619066CF53701B3
S11320B048010A2C04C096948794779467940A94F0
S11320C0D2F781E090E0A0E0B0E00A2C04C0880FD1
S11320D0991FAA1FBB1F0A94D2F70197A109B1093E
S11320E08E219F21A023B123EE24FF248701E394B2
S11320F00097A105B10519F4EE24FF248701E62811
S1132100F728082919293CC00097D1F1CA0CDB1C17
S113211039014A010A2C04C09694879477946794F1
S11321200A94D2F781E090E0A0E0B0E00A2C04C069
S1132130880F991FAA1FBB1F0A94D2F70197A10900
S1132140B10982239323A423B52321E030E040E0A6
S113215050E00097A105B10519F420E030E0A90191
S113216026293729482959290BC06C147D0424F4E5
S1132170EE24FF24870104C0630120E030E0A901BC
S11321808181FB019181891709F445C0882349F0B5
S1132190D801C701821B930BA40BB50B9C01AD01A5
S11321A004C02E193F09400B510B57FD04C019827E
S11321B0DB82CA820BC081E08983DB82CA825095AC
S11321C04095309521953F4F4F4F5F4F2C833D8372
S11321D04E835F830DC0880F991FAA1FBB1F8C837A
S11321E09D83AE83BF838A819B8101979B838A836E
S11321F08C819D81AE81BF819C01AD012150304015
S1132200404050402F3FEFEF3E07EFEF4E07EFE324
S11322105E0708F30BC08983DB82CA822E0D3F1D43
S1132220401F511F2C833D834E835F8383E088834B
S11322302C813D814E815F8157FF1DC0DA01C901A8
S113224081709070A070B07056954795379527951A
S1132250822B932BA42BB52B8C839D83AE83BF83BE
S11322608A819B8101969B838A8305C0E7E3F3E01F
S113227003C0FB0101C0FE01CF01CDB7DEB7EEE024
S11322800C948E17A0E2B0E0E8E4F1E10C947A1724
S113229069837A838B839C832D833E834F83588702
S11322A089E0E82EF12CEC0EFD1ECE010196B7015B
S11322B00E9429168E010F5E1F4FCE010596B801AC
S11322C00E942916C701B801AE01475E5F4F0E9404
S11322D0F80F0E945C15A096E6E00C949617A0E215
S11322E0B0E0E5E7F1E10C947A1769837A838B8394
S11322F09C832D833E834F8358878E01075F1F4F36
S1132300CE010196B8010E94291691E1E92EF12C23
S1132310EC0EFD1ECE010596B7010E9429168A898E
S113232091E089278A8BC801B701AE01475E5F4FF0
S11323300E94F80F0E945C15A096E6E00C94961794
S1132340A0E2B0E0E6EAF1E10C946E1769837A83C7
S11323508B839C832D833E834F835887CE010196C4
S1132360BE01675F7F4F0E942916CE010596BE010C
S11323706F5E7F4F0E9429169985923078F0898983
S11323808230C0F0943019F4823041F4CBC08430F0
S113239019F4923079F4C6C0923051F481E02A8560
S11323A09A89291709F480E08A87CE010996BCC06E
S11323B0823051F481E02A859A89291709F480E052
S11323C08A8BCE014196B0C06D847E848F849888B8
S11323D0ED88FE880F89188DE0E2F0E080E090E05F
S11323E0DC01AA24BB24650120E030E0A901B3018B
S11323F06170707061157105D1F02E0D3F1D401F85
S1132400511F15012601280E391E4A1E5B1E81E04C
S113241090E0A0E0B0E02E153F054007510718F00A
S113242080E090E0DC01820D931DA41DB51DAA0C73
S1132430BB1CCC1CDD1C17FF09C061E0262E312C0F
S1132440412C512CA228B328C428D528319749F00F
S1132450EE0CFF1C001F111F9694879477946794C9
S1132460C6CF6B897C89EB85FC856E0F7F1F6E5F01
S11324707F4F7C8F6B8F61E0EA857A89E71709F4D7
S113248060E06A8F6B8D7C8D10C0FC01E170F07090
S1132490309729F056954795379527955068B69506
S11324A0A795979587956F5F7F4FB7FDEECF0CC0CB
S11324B0880F991FAA1FBB1F57FD8160220F331F6E
S11324C0441F551F615070408030E0E09E07E0E0FB
S11324D0AE07E0E4BE0760F36B8F7C8F6FE7E62EF8
S11324E0F12C012D112DE822F9220A231B2360E48B
S11324F0E616F1040105110561F487FD0AC02115F2
S113250031054105510529F0805C9F4FAF4FBF4F06
S113251080788D8F9E8FAF8FB8A383E0898FCE0193
S1132520499602C087E393E00E945C15A096E2E11D
S11325300C948A17A8E1B0E0E0EAF2E10C94761773
S113254069837A838B839C832D833E834F8358874F
S11325508E01075F1F4FCE010196B8010E94291614
S113256081E1E82EF12CEC0EFD1ECE010596B7019B
S11325700E9429169985923008F483C08989823093
S113258008F47BC02A853A8923272A87943011F0DE
S1132590923021F4981709F06CC071C0843039F47A
S11325A01D861E861F86188A1C861B866AC082307A
S11325B019F484E0898765C08B859C852B893C89C7
S11325C0821B930B9C878B872D853E854F8558896D
S11325D0ED88FE880F89188D2E153F054007510799
S11325E038F4220F331F441F551F01979C878B8794
S11325F06FE170E0A12CB12CC12CA0E4DA2E80E0B4
S113260090E0DC012E153F054007510740F08A2970
S11326109B29AC29BD292E193F09400B510BD69497
S1132620C794B794A794220F331F441F551F6150BA
S1132630704041F76FE7E62EF12C012D112DE822B1
S1132640F9220A231B2360E4E616F10401051105AF
S113265061F487FD0AC0211531054105510529F0B2
S1132660805C9F4FAF4FBF4F80788D879E87AF8729
S1132670B88B8E01075F1F4F04C0870102C007E3B8
S113268013E0C8010E945C156896EAE00C94921766
S1132690A8E1B0E0EEE4F3E10C947A1769837A835D
S11326A08B839C832D833E834F8358878E01075FE2
S11326B01F4FCE010196B8010E94291681E1E82E30
S11326C0F12CEC0EFD1ECE010596B7010E942916D1
S11326D08985823040F08989823028F0C801B701A9
S11326E00E94921601C08FEF6896E6E00C9496174C
S11326F0A8E1B0E0EEE7F3E10C947A1769837A83FA
S11327008B839C832D833E834F8358878E01075F81
S11327101F4FCE010196B8010E94291681E1E82ECF
S1132720F12CEC0EFD1ECE010596B7010E94291670
S11327308985823040F08989823028F0C801B70148
S11327400E94921601C08FEF6896E6E00C949617EB
S1132750A8E1B0E0EEEAF3E10C947A1769837A8396
S11327608B839C832D833E834F8358878E01075F21
S11327701F4FCE010196B8010E94291681E1E82E6F
S1132780F12CEC0EFD1ECE010596B7010E94291610
S11327908985823040F08989823028F0C801B701E8
S11327A00E94921601C081E06896E6E00C949617A8
S11327B0A8E0B0E0EEEDF3E10C947A177B018C0114
S11327C083E08983D801C7018827B7FD83959927BA
S11327D0AA27BB27282F8A83E114F10401051105D8
S11327E019F482E0898337C08EE190E09C838B8367
S11327F0222389F080E0E81680E0F80680E00807EC
S113280080E8180769F110950095F094E094E11CB4
S1132810F11C011D111DED82FE820F831887C80172
S1132820B7010E9402159C01215030401216130674
S113283094F4022E04C0EE0CFF1C001F111F0A9416
S1132840D2F7ED82FE820F8318878EE190E0821B1F
S1132850930B9C838B83CE0101960E945C1504C06C
S113286060E070E080E09FEC2896E6E00C94961718
S1132870ACE0B0E0EEE3F4E10C947E1769837A8374
S11328808B839C83CE010196BE016B5F7F4F0E94B8
S113289029168D81823081F1823070F1843021F4E7
S11328A08E81882369F10AC02F81388537FD24C0C1
S11328B06E812F3131053CF0662311F120E030E0C8
S11328C040E050E821C08EE190E0821B930B298503
S11328D03A854B855C8504C0569547953795279571
S11328E08A95D2F7662381F05095409530952195CD
S11328F03F4F4F4F5F4F08C020E030E0A90104C0B4
S11329002FEF3FEF4FEF5FE7B901CA012C96E2E0EA
S11329100C949A17A8E0B0E0E0E9F4E10C9478177D
S11329207B018C011A82611571058105910519F4E9
S113293082E089835FC083E089838EE1C82ED12C35
S1132940DC82CB82ED82FE820F831887C801B70137
S11329500E940215FC013197F7FF3AC0AA27BB2752
S1132960AE1BBF0B21E030E040E050E00A2E04C073
S1132970220F331F441F551F0A94D2F721503040B1
S1132980404050402E213F214023512361E070E01C
S113299080E090E0211531054105510519F460E00E
S11329A070E0CB0104C016950795F794E794AA95B7
S11329B0D2F7E62AF72A082B192BED82FE820F8321
S11329C018878EE190E08E1B9F0B9C838B8312C033
S11329D0309781F00E2E04C0EE0CFF1C001F111F57
S11329E00A94D2F7ED82FE820F831887CE1ADF0A8B
S11329F0DC82CB82CE0101960E945C152896E8E029
S1132A000C949417AF92BF92CF92DF92EF92FF9201
S1132A100F931F937B018C0180E0E81680E0F80699
S1132A2081E0080780E0180758F4EFEFEE16F10490
S1132A300105110509F090F480E090E0DC0117C075
S1132A40F0E0EF16F0E0FF06F0E00F07F1E01F07FB
S1132A5050F480E190E0A0E0B0E009C088E090E0AC
S1132A60A0E0B0E004C088E190E0A0E0B0E020E2A3
S1132A7030E040E050E0281B390B4A0B5B0B570158
S1132A80680104C0D694C794B794A7948A95D2F7E2
S1132A90D601C501815C9C4FFC018081281B310952
S1132AA041095109C9011F910F91FF90EF90DF90E7
S1132AB0CF90BF90AF900895EF92FF920F931F9322
S1132AC0CF93DF93FC012481358146815781618155
S1132AD08081823020F44061EFEFF0E0A3C08430C5
S1132AE009F49BC0823009F492C0211531054105D7
S1132AF0510509F48FC00280F381E02D7FEFE238A5
S1132B00F7070CF05AC0C2E8DFEFCE1BDF0BCA3167
S1132B10D1056CF579018A010C2E04C01695079530
S1132B20F794E7940A94D2F781E090E0A0E0B0E053
S1132B300C2E04C0880F991FAA1FBB1F0A94D2F73A
S1132B400197A109B10982239323A423B52321E08A
S1132B5030E040E050E00097A105B10519F420E011
S1132B6030E0A9012E293F29402B512B03C020E03E
S1132B7030E0A901DA01C9018F779070A070B070BC
S1132B8080349105A105B10539F427FF09C0205C03
S1132B903F4F4F4F5F4F04C0215C3F4F4F4F5F4F3C
S1132BA0E1E0F0E0203080E0380780E0480780E48E
S1132BB0580728F5E0E0F0E022C0E038F1056CF5B4
S1132BC0E158FF4FDA01C9018F779070A070B0709F
S1132BD080349105A105B10539F427FF09C0205CB3
S1132BE03F4F4F4F5F4F04C0215C3F4F4F4F5F4FEC
S1132BF057FF05C05695479537952795319687E039
S1132C0056954795379527958A95D1F70BC0E0E0FF
S1132C10F0E005C0E0E0F0E005C0EFEFF0E020E018
S1132C2030E0A9018E2F879588278795942F9F7769
S1132C30679566276795E695A92FA82BFE2FF62B97
S1132C40622F732F8A2F9F2FCDB7DEB7E6E00C9447
S1132C509617DC01FB012C9111963C911197129669
S1132C608C911297482F4F7750E0982F991F9927EE
S1132C70991F13966C911397862F880F892B90E0D8
S1132C80661F6627661F6183009739F52115310594
S1132C904105510511F482E029C082E89FEF938336
S1132CA0828367E0220F331F441F551F6A95D1F7B3
S1132CB083E0808309C0220F331F441F551F828184
S1132CC09381019793838283203080E0380780E0EA
S1132CD0480780E4580778F320C08F3F910579F4C2
S1132CE0211531054105510519F484E080830895C7
S1132CF044FF03C081E0808310C010820EC08F5750
S1132D0090409383828383E0808387E0220F331F84
S1132D10441F551F8A95D1F7506424833583468315
S1132D2057830895FC01DB019081923008F449C077
S1132D308C91823008F445C0943051F46181843020
S1132D40B1F511962C91119730E0261B310941C041
S1132D50843021F0923041F48230B1F111968C919B
S1132D6011978823A1F12DC06181823001F1119660
S1132D708C9111976817D9F42281338112968D9121
S1132D809C9113978217930794F028173907BCF086
S1132D90248135814681578114968D919D910D90A2
S1132DA0BC91A02D82179307A407B50718F46623D6
S1132DB041F00DC0281739074A075B0728F466233A
S1132DC031F021E030E005C020E030E002C02FEF18
S1132DD03FEFC9010895629FD001739FF001829F64
S1132DE0E00DF11D649FE00DF11D929FF00D839F96
S1132DF0F00D749FF00D659FF00D9927729FB00D33
S1132E00E11DF91F639FB00DE11DF91FBD01CF0145
S1132E1011240895AA1BBB1B51E107C0AA1FBB1FA5
S1132E20A617B70710F0A61BB70B881F991F5A9552
S1132E30A9F780959095BC01CD01089597FB092EC3
S1132E4007260AD077FD04D0E5DF06D000201AF467
S1132E50709561957F4F0895F6F7909581959F4FF2
S1132E60089597FB092E05260ED057FD04D014D0E3
S1132E700AD0001C38F450954095309521953F4F69
S1132E804F4F5F4F0895F6F7909580957095619533
S1132E907F4F8F4F9F4F0895A1E21A2EAA1BBB1B91
S1132EA0FD010DC0AA1FBB1FEE1FFF1FA217B30712
S1132EB0E407F50720F0A21BB30BE40BF50B661F28
S1132EC0771F881F991F1A9469F7609570958095EC
S1132ED090959B01AC01BD01CF0108952F923F92C3
S1132EE04F925F926F927F928F929F92AF92BF9216
S1132EF0CF92DF92EF92FF920F931F93CF93DF93C2
S1132F00CDB7DEB7CA1BDB0B0FB6F894DEBF0FBE1E
S1132F10CDBF19942A88398848885F846E847D845B
S1132F208C849B84AA84B984C884DF80EE80FD806D
S1132F300C811B81AA81B981CE0FD11D0FB6F894E3
S1132F40DEBF0FBECDBFED0108953BD080F09F37AB
S1132F5040F491110EF44DC060E070E080E89FE30E
S1132F60089526F01B16611D711D811D01C01BC033
S1132F70882371F4772321F09850872B762F07C08C
S1132F80662311F499270DC09051862B70E060E000
S1132F902AF09A95660F771F881FDAF7880F96959F
S1132FA0879597F908959F3F31F0915020F48795C4
S1132FB077956795B795880F911D9695879597F99D
S1132FC0089525D0A0F0BEE7B91788F4BB279F3831
S1132FD060F41616B11D672F782F8827985FF7CFF6
S1132FE0869577956795B11D93959639C8F308959D
S1132FF0E894BB2766277727CB0197F9089557FDF7
S11330009058440F551F59F05F3F71F04795880F52
S113301097FB991F61F09F3F79F0879508951216E9
S113302013061406551FF2CF4695F1DF08C0161695
S113303017061806991FF1CF869571056105089446
S11330400895FB01DC018D91019080190110D9F3E1
S1133050990B08950F931F93DF93CF93CDB7DEB7EA
S11330602E970FB6F894DEBF0FBECDBF0E891F8911
S113307086E08C831A8309838FEF9FE79E838D8379
S11330809E01265E3F4FCE010196688D798DA90180
S11330900E945A18EF81F885E00FF11F10822E96D6
S11330A00FB6F894DEBF0FBECDBFCF91DF911F9155
S11330B00F9108952F923F924F925F926F927F9259
S11330C08F929F92AF92BF92CF92DF92EF92FF9234
S11330D00F931F93DF93CF93CDB7DEB72C970FB623
S11330E0F894DEBF0FBECDBF6C011B018A01FC0149
S11330F017821682838181FFD1C12E010894411C5D
S1133100511CF6019381F10193FD859193FF819107
S11331101F01882309F4BEC1853239F493FD8591DA
S113312093FF81911F01853229F490E0B6010E943A
S1133130801AE7CFEE24FF2420E02032B0F48B3253
S113314069F08C3228F4803251F0833271F40BC070
S11331508D3239F0803349F421602CC02260246020
S113316029C0286027C0206125C027FD2CC0382F26
S113317030533A3098F426FF08C08E2D880FE82E7D
S1133180EE0CEE0CE80EE30E15C08F2D880FF82E12
S1133190FF0CFF0CF80EF30E20620CC08E3221F4EB
S11331A026FD78C1206406C08C3611F4206802C064
S11331B0883649F4F10193FD859193FF81911F01B4
S11331C0882309F0BACF982F9554933018F0905271
S11331D0933028F40C5F1F4FFFE3F9830DC083364F
S11331E031F0833771F0833509F060C022C0F801F3
S11331F0808189830E5F1F4F420171E0A72EB12C9D
S113320016C062E0662E712C600E711EF80180807B
S1133210918026FF03C06E2D70E002C06FEF7FEF38
S1133220C4012C870E94751A5C0183012C852F77B9
S113323017C052E0652E712C600E711EF80180805B
S1133240918026FF03C06E2D70E002C06FEF7FEF08
S1133250C4012C870E946A1A5C012C8520688301B2
S113326023FD20C008C080E290E0B6012C870E94B4
S1133270801AFA942C858F2D90E0A816B90698F33D
S113328011C0F40127FD859127FF81914F0190E042
S1133290B6012C870E94801A2C85F110FA940894A8
S11332A0A108B108A114B10461F7F1C0843611F08A
S11332B0893649F527FF08C0F80160817181828150
S11332C093810C5F1F4F09C0F801608171818827C9
S11332D077FD8095982F0E5F1F4F4FE6B42EB222D4
S11332E097FF09C090958095709561957F4F8F4F9A
S11332F09F4FF0E8BF2AA2012AE030E00E94AC1AF6
S1133300782E741845C0853731F43FEEB32EB222BF
S11333102AE030E025C099EFB92EB2228F36C1F0F1
S1133320803720F4883509F0B5C00DC0803721F00E
S1133330883709F0AFC002C020E1B22AB4FE0BC046
S113334084E0B82A08C0B4FE09C0E6E0BE2A06C07C
S113335028E030E005C020E130E002C020E132E0A6
S1133360B7FE08C0F80160817181828193810C5F8E
S11333701F4F07C0F8016081718180E090E00E5F0B
S11333801F4FA2010E94AC1A782E7418FFE7BF22C7
S1133390B6FE0BC02EEFB2227E1438F4B4FE07C082
S11333A0B2FC05C08FEEB82202C0A72C01C0AE2C1F
S11333B08B2D90E0B4FE0DC0FE01E70DF11D2081C0
S11333C0203319F4E9EEBE2209C0A394B2FE06C06C
S11333D004C086789070009709F0A3948B2C9924EC
S11333E0B3FC14C0B0FE0FC0AF1428F4E72CEF0CEC
S11333F0EA18AF2C08C0E72C06C080E290E0B601C2
S11334000E94801AA394AF14C0F304C0AF1410F444
S1133410FA1801C0FF2484FE0FC080E390E0B601D7
S11334200E94801A82FE1FC081FE03C088E590E0DE
S113343010C088E790E00DC0C401867890700097B2
S113344091F081FC02C080E201C08BE2B7FC8DE206
S113345090E0B6010E94801A06C080E390E0B601B5
S11334600E94801AEA947E14C0F37A94F201E70D64
S1133470F11D808190E0B6010E94801A7720A9F79F
S113348006C080E290E0B6010E94801AFA94FF2000
S1133490C1F737CEF6012681378102C02FEF3FEF07
S11334A0C9012C960FB6F894DEBF0FBECDBFCF91E5
S11334B0DF911F910F91FF90EF90DF90CF90BF901D
S11334C0AF909F908F907F906F905F904F903F90C0
S11334D02F900895FC010590615070400110D8F7B9
S11334E0809590958E0F9F1F0895FC016150704048
S11334F001900110D8F7809590958E0F9F1F089525
S11335000F931F93CF93DF938C01EB018B8181FF8A
S11335101BC082FF0DC02E813F818C819D812817A5
S1133520390764F4E881F9810193F983E88306C0DB
S1133530E885F985802F1995009731F48E819F8154
S113354001969F838E8302C00FEF1FEFC801DF91A6
S1133550CF911F910F910895FA01AA27283051F1B4
S1133560203181F1E8946F936E7F6E5F7F4F8F4FB0
S11335709F4FAF4FB1E03ED0B4E03CD0670F781F0F
S1133580891F9A1FA11D680F791F8A1F911DA11DF4
S11335906A0F711D811D911DA11D20D009F468942D
S11335A03F912AE0269F11243019305D3193DEF6D5
S11335B0CF010895462F4770405D4193B3E00FD08B
S11335C0C9F7F6CF462F4F70405D4A3318F0495D76
S11335D031FD4052419302D0A9F7EACFB4E0A69559
S11335E09795879577956795BA95C9F7009761057B
S11335F0710508959B01AC010A2E069457954795D1
S113360037952795BA95C9F7620F731F841F951FC5
S10B3610A01D0895F894FFCFFA
S1133618000048420000803F0101010A01FFFF0148
S11336280175736520656E636F64657200757365F3
S113363820706F7469656E74696F6D657465720066
S11336484D4F544F525F53504545443A004D4F54E3
S11336584F525F504F534954494F4E3A0073657463
S11336682062617365206672657175656E63793A67
S113367800506F736974696F6E733A204D313D253C
S1133688386C642C204D323D25386C642C204D3325
S11336983D25386C642C204D343D25386C640A0073
S11336A8506F736974696F6E733A204D313D2538D4
S11336B8642C204D323D2538642C204D333D25386B
S11336C8642C204D343D2538640A005370656564C4
S11336D8732028637073293A204D313D25386C6472
S11336E82C204D323D25386C642C204D333D253833
S11336F86C642C204D343D25386C640A0053706585
S11337086564732028637073293A204D313D253848
S1133718642C204D323D2538642C204D333D25380A
S1133728642C204D343D2538640A004261736520B9
S11337384672657175656E63792028687A293A201E
S113374825362E32660A0000000000000000000042
S11337580102020303030304040404040404040527
S113376805050505050505050505050505050506FC
S113377806060606060606060606060606060606DD
S113378806060606060606060606060606060607CC
S113379807070707070707070707070707070707AD
S11337A8070707070707070707070707070707079D
S11337B8070707070707070707070707070707078D
S11337C8070707070707070707070707070707087C
S11337D8080808080808080808080808080808085D
S11337E8080808080808080808080808080808084D
S11337F8080808080808080808080808080808083D
S1133808080808080808080808080808080808082C
S1133818080808080808080808080808080808081C
S1133828080808080808080808080808080808080C
S113383808080808080808080808080808080808FC
S113384808080808080808080808080808080800F4
S9030000FC
