:100000000C9446000C9463000C9463000C94630001
:100010000C9463000C9463000C9463000C946300D4
:100020000C9463000C9463000C9463000C946300C4
:100030000C9463000C9463000C9463000C94C51A38
:100040000C9463000C9463000C94E1100C94630016
:100050000C9463000C9463000C94DE0C0C9463000D
:100060000C9463000C9463000C9463000C94A40D36
:100070000C9463000C9463000C94630044726976E2
:100080006573204443206D6F746F720011241FBE8E
:10009000CFEFD4E0DEBFCDBF12E0A0E0B1E0E0EAF8
:1000A000F9E402C005900D92AE31B107D9F713E023
:1000B000AEE1B2E001C01D92A434B107E1F70E94A5
:1000C0001F010C94CE240C9400000F931F93CF9328
:1000D000DF93EC018B0181E191E06091C2020E940B
:1000E000FF13688379838A839B8398012F5F3F4F37
:1000F000F999FECF12BD01BDF89A80B58D83C90173
:100100000196F999FECF32BD21BDF89A20B52E8314
:100110009C012F5F3F4FF999FECF92BD81BDF89AA8
:1001200080B58F83C9010196F999FECF32BD21BDFB
:10013000F89A20B528879C012F5F3F4FF999FECF91
:1001400092BD81BDF89A80B58987C9010196F99958
:10015000FECF32BD21BDF89A20B52A879C012F5FC2
:100160003F4FF999FECF92BD81BDF89A80B58B873C
:10017000F999FECF32BD21BDF89A80B58C878C816C
:10018000807E80618C83DF91CF911F910F910895C4
:10019000CF93DF93C7E8D2E0CE0161E070E00E9428
:1001A000650080E0BE010E94BB11DF91CF910895F0
:1001B000CF93DF93C6E9D2E0CE0169E070E00E9400
:1001C000650082E0BE010E94BB11DF91CF910895CE
:1001D000CF93DF93C7E8D2E0CE0161E170E00E94E7
:1001E000650084E0BE010E94BB11DF91CF910895AC
:1001F00084B780931F02F8940E94771A0E94911787
:1002000060E472E48FE090E00E943F1A0E94A7072A
:1002100083E00E9408120E94761B0E94F21280EA7C
:1002200093E00E94E10E8CE396E00E942F147894F4
:100230000E94831A0E941B090E94E00708950E94F1
:10024000F80060E87AE186E090E00E943F1A60E8FA
:100250007AE186E090E00E943F1AF3CFDF93CF93DC
:1002600000D000D0CDB7DEB7A82FB92FFE01319650
:10027000CE0105962D912193E817F907D9F75981F9
:100280004A813B812C81652F742F832F922F0F90F1
:100290000F900F900F90CF91DF910895FC01308166
:1002A00020E0442737FD4095542F818190E0A0E065
:1002B000B0E0282B392B4A2B5B2BC9010895FC0198
:1002C000318120E0442737FD4095542F808190E014
:1002D000A0E0B0E0282B392B4A2B5B2BC9010895F5
:1002E000FC01238130E040E050E0808190E0A0E01C
:1002F000B0E0B82FAA2799278827282B392B4A2B1B
:100300005B2B618170E080E090E0CB01772766276E
:10031000262B372B482B592B828190E0A0E0B0E0B0
:10032000BA2FA92F982F8827282B392B4A2B5B2BE4
:10033000B901CA010895FC01228130E040E050E09B
:10034000A90133272227638170E080E090E0962F97
:10035000882777276627262B372B482B592B608138
:1003600070E080E090E0262B372B482B592B9181B1
:1003700080E0AA2797FDA095BA2F282B392B4A2B6E
:100380005B2BB901CA010895CF93FC01308520E0B1
:10039000678170E0622B732B882777FD8095982FFB
:1003A0000E94842020E03EE241E856E40E94461F7D
:1003B0009B01AC018AE080933802DA01C901BF7762
:1003C0008093530290935402A0935502B093560227
:1003D000C1E0CA01B90120E030E0A9010E94F41F88
:1003E000181624F4C0935202CF910895C0E0C09330
:1003F0005202CF910895CF93DF93EC018D8181302C
:1004000031F1823019F0DF91CF910895CE01069637
:100410000E947001609328027093290280932A023F
:1004200090932B029A8580E0AA2797FDA095BA2F7A
:100430002B8530E040E050E0822B932BA42BB52B92
:1004400090932D0280932C02DF91CF910895CE01DD
:1004500006960E947001609322027093230280939B
:100460002402909325029A8580E0AA2797FDA09503
:10047000BA2F2B8530E040E050E0822B932BA42B49
:10048000B52B9093270280932602DF91CF91089598
:10049000CF93DF93EC0105960E94700120917F02BB
:1004A0003091800230934F0220934E020E94790ACD
:1004B000909351028093500210925B02998580E0E4
:1004C0002A85820F911D64E670E00E94AB23882785
:1004D00077FD8095982F0E9484206093530270933B
:1004E000540280935502909356020E948F09DF9127
:1004F000CF910895EF92FF920F931F93FC017581A6
:1005000060E0882777FD8095982F268130E040E0D5
:1005100050E0622B732B842B952B10925B02882763
:1005200077FD8095982F0E94842020E030E44CE1F4
:1005300056E40E94461FE62EF72E082F192F262F6D
:10054000372F482F592F2093530230935402409352
:1005500055025093560220E030E0A9010E94F41F9A
:1005600018169CF01092520217FB109517F910956F
:10057000E0925302F09254020093550210935602F7
:100580001F910F91FF90EF90089581E080935202A8
:100590001F910F91FF90EF900895CF93DF93EC019F
:1005A0007D8160E0882777FD8095982F2E8130E04F
:1005B00040E050E0622B732B842B952B882777FD2E
:1005C0008095982F0E94842020E030E44CE156E48E
:1005D0000E94461F9F77609353027093540280934A
:1005E0005502909356028F81882329F080935B02F5
:1005F000DF91CF91089583E680935B02DF91CF91E5
:100600000895CF93DF93EC017D8160E0882777FD2B
:100610008095982F2E8130E040E050E0622B732BC4
:10062000842B952B882777FD8095982F0E94842016
:1006300020E030E44CE156E40E94461F60935302F0
:100640007093540280935502909356027F8160E02C
:10065000882777FD8095982F288530E040E050E08E
:10066000622B732B842B952B882777FD8095982FF1
:100670000E94842020E030E44CE156E40E94461FB2
:1006800060935702709358028093590290935A02D4
:10069000DF91CF91089508951F93CF93DF93EC01DD
:1006A000162F80E065E470E04091C2020E940514BC
:1006B000DC01CB0188839983AA83BB83113061F16C
:1006C0001230B1F09FEF2FEF3FEF4FEF8FEF5FEF63
:1006D0001F701D835E838F83488739872A879B8796
:1006E0008C81807E8E608C83DF91CF911F910895E5
:1006F0002091280240912902822F942FA0912A0252
:10070000B0912B02CD01AA27BB27592F322F209160
:100710002D0290912C02DCCF2091220240912302E5
:10072000822F942FA0912402B0912502CD01AA27F7
:10073000BB27592F322F2091270290912602C8CF34
:10074000CF93DF93EC0180E490E06091C2020E94BD
:10075000FF139B01AC01688179818A819B810E9492
:1007600013148823E1F08D8184FD09C0CE010E941D
:10077000FB0180E18093CF02DF91CF91089587E85C
:1007800092E061E00E944C0386E992E062E00E9400
:100790004C0383E08093CF02DF91CF91089581E4F1
:1007A00090E06091C2020E94FF139B01AC0168813E
:1007B00079818A819B810E941314882309F04EC09D
:1007C00082E490E06091C2020E94FF139B01AC01A1
:1007D000688179818A819B810E941314882309F0A2
:1007E00046C08BE490E06091C2020E94FF139B011F
:1007F000AC01688179818A819B810E9413148823CE
:1008000009F440C07D8160E0882777FD8095982FAE
:100810002E8130E040E050E0622B732B842B952B2F
:10082000882777FD8095982F0E94842020E030E46F
:100830004CE156E40E94461F9F77609353027093E9
:10084000540280935502909356028F818823B1F011
:1008500080935B028AE0809338028ECFCE010E94A3
:1008600048028AE080933802DF91CF910895CE014B
:100870000E947A028AE0809338027ECF83E68093DA
:100880005B02E8CF84E490E06091C2020E94FF1313
:100890009B01AC01688179818A819B810E9413143C
:1008A000882309F445C07D8160E0882777FD809525
:1008B000982F2E8130E040E050E0622B732B842B88
:1008C000952B882777FD8095982F0E94842020E023
:1008D00030E44CE156E40E94461F6093530270934B
:1008E000540280935502909356027F8160E08827DE
:1008F00077FD8095982F288530E040E050E0622B0E
:10090000732B842B952B882777FD8095982F0E9439
:10091000842020E030E44CE156E40E94461F6093BE
:100920005702709358028093590290935A0292CFC3
:1009300083E490E06091C2020E94FF139B01AC012E
:10094000688179818A819B810E941314882309F030
:1009500013CF80913F0384FF0FCF81E790E060E0E9
:100960000E94FF139B01AC01688179818A819B8180
:100970000E942014882309F4FFCE988580E06F81BF
:1009800070E0682B792B882777FD8095982F0E943F
:10099000842020E03EE241E856E40E94461F9B018D
:1009A000AC018AE080933802DA01C901BF778093F5
:1009B000530290935402A0935502B0935602C1E0A3
:1009C000CA01B90120E030E0A9010E94F41F181605
:1009D0001CF4C0935202D0CEC0E0FBCFCF93DF9384
:1009E000EC0186E490E06091C2020E94FF136883EC
:1009F00079838A839B830E943B086D837E838F83E8
:100A0000988780913B0290913C0299878A878C81DC
:100A1000807E8C608C83DF91CF910895AF92BF92DE
:100A2000CF92DF92EF92FF920F931F93CF93DF93BA
:100A3000EC0180E067E470E04091C2020E9405147E
:100A4000688379838A839B8380913F0380FF65C09D
:100A50002091640230916502809166029091670254
:100A60003D832E839F83888760917102709172020B
:100A7000809173029091740220E030E040E251E4F2
:100A80000E944C1ED62EC72EB82EA92E609175023C
:100A900070917602809177029091780220E030E0A8
:100AA00040E251E40E944C1E162F072FF82EE92E2B
:100AB000A6019501652F742F832F922FD801F7017E
:100AC0002B2F3A2F4F2F5E2F0E94F41F181674F110
:100AD000A8019701652F742F832F922F0E94781CF5
:100AE00079876A87A8019701652F702F832F9E2D24
:100AF0000E948C240E94E4207B876C878C81807EFE
:100B000080618C83DF91CF911F910F91FF90EF90C7
:100B1000DF90CF90BF90AF90089520917F023091E9
:100B2000800280913B0290913C029ACFA6019501F0
:100B3000D1CF0F931F93DF93CF9300D000D0CDB7C9
:100B4000DEB78C0149835A836B837C8380E068E441
:100B500070E04091C2020E940514F8016083718325
:100B60008283938380913F0380FD25C030910001F3
:100B7000F8013583332361F0FE013196D8011696D2
:100B8000CF01830F911D21912D93E817F907D9F714
:100B90003F70330FF8018481817E832B84838E7FA5
:100BA000F80184830F900F900F900F90CF91DF91F9
:100BB0001F910F91089582E0858380916602909144
:100BC0006702968387838481817E84608483E7CFF4
:100BD000CF93DF93EC0180E069E470E04091C202C2
:100BE0000E940514688379838A839B8380913F03E5
:100BF00080FD11C080913F02909140029D838E83C1
:100C0000909100019F70990F8C81807E892B8C833D
:100C1000DF91CF91089580916802909169029D8340
:100C20008E83EECFCF93DF93EC0180E06AE470E037
:100C30004091C2020E940514688379838A839B8352
:100C4000809138028D838C81807E82608C83DF91DD
:100C5000CF91089588E080933F03109240030E9453
:100C6000E40A8FEF97E09093020180930101909343
:100C70000401809303010895813009F00895809163
:100C80003F0380FD05C00E94220D0E94B007089519
:100C90000E94140DFACF9C01E2E2F2E0AC018191D6
:100CA000F999FECF1FBA52BD41BD80BD0FB6F89471
:100CB000FA9AF99A0FBE4F5F5F4F82E0E832F80769
:100CC00071F72A5F3F4FE8E2F2E0A9018191F999BB
:100CD000FECF1FBA52BD41BD80BD0FB6F894FA9A3F
:100CE000F99A0FBE4F5F5F4F82E0EE32F80771F75F
:100CF0002A5F3F4FC9010895CF93DF939C01E2E241
:100D0000F2E0F999FECF32BD21BDF89A40B541938A
:100D10002F5F3F4F42E0E832F40799F7EC01269647
:100D2000CE01E8E2F2E0F999FECF92BD81BDF89ADA
:100D300020B52193019622E0EE32F207A1F70E943E
:100D4000050B2696CE01DF91CF910895AC014F5F40
:100D50005F4F20910101309102013695279536951C
:100D60002795F999FECF1FBA92BD81BD20BD0FB660
:100D7000F894FA9AF99A0FBE9A012F5F3F4F80912B
:100D80000301909104019695879596958795F99919
:100D9000FECF1FBA52BD41BD80BD0FB6F894FA9A7E
:100DA000F99A0FBEC9010895AC014F5F5F4FF999E1
:100DB000FECF92BD81BDF89A80B590E0880F991F53
:100DC000880F991F90930201809301019A012F5F70
:100DD0003F4FF999FECF52BD41BDF89A80B590E0E2
:100DE000880F991F880F991F909304018093030126
:100DF000C901089520913F0320FD22C0AC014F5F3F
:100E00005F4F20918002F999FECF1FBA92BD81BD3C
:100E100020BD0FB6F894FA9AF99A0FBE9A012F5F87
:100E20003F4F80917F02F999FECF1FBA52BD41BD5D
:100E300080BD0FB6F894FA9AF99A0FBEC9010895C9
:100E4000AC014F5F5F4F20916502F999FECF1FBA49
:100E500092BD81BD20BD0FB6F894FA9AF99A0FBEE3
:100E60009A012F5F3F4F80916402F999FECFDDCF49
:100E700020913F0320FF1CC0AC014F5F5F4FF999E9
:100E8000FECF92BD81BDF89A80B510926402809326
:100E900065029A012F5F3F4FF999FECF52BD41BDC8
:100EA000F89A80B58093640210926502C901089592
:100EB000AC014F5F5F4FF999FECF92BD81BDF89AAB
:100EC00080B510927F02809380029A012F5F3F4F7E
:100ED000F999FECF52BD41BDF89A80B580937F024B
:100EE00010928002C90108958091400390E0807FB4
:100EF000907080329105B1F08132910544F08034D8
:100F0000910591F08038910559F08FEF0895009781
:100F100029F080319105C9F781E0089580E00895B6
:100F20008AE0089582E0089585E008950E9474079C
:100F300091E0882309F490E0892F08950E94151C00
:100F40000E944B060E94A6060E94FA0608950E947F
:100F50006F1C0E947C060E94D4060E9438070895E8
:100F600080913F0382958695869583708130B1F09C
:100F7000813058F08230D9F060E070E48CE995E47B
:100F800041E021E00E946D19089560E070E088EC76
:100F900092E441E021E00E946D19089560E070E064
:100FA00086E993E441E021E00E946D19089560E034
:100FB00070E08AE794E441E021E00E946D19089511
:100FC00084B1806684B987B18F7C87B90E94B007ED
:100FD00088E08093380280913F0380FD06C084FF43
:100FE00003C088E08093380208950E94140D809118
:100FF0003F03F5CF0E949607882361F08091050199
:1010000090910601019790930601809305011816AF
:1010100019060CF408950E9474078093050110923C
:1010200006018091400380FD1AC081FD0CC082FF43
:10103000F1CF87E892E00E94120684E067E872E050
:101040000E948811089586E992E00E94EE0482E0F1
:1010500066E972E00E94881180914003E8CF87E83A
:1010600092E00E940E0580E067E872E00E9488111D
:1010700080914003DACF80913F0380FD05C00E943C
:10108000670A0E94842008950E947C0D0E9484209B
:101090000895882321F487E080933802089588E03A
:1010A00080933802089560E070E080E89FE30E943A
:1010B000E51960E070E080E89FE30E94121A2D9A23
:1010C0002E9A89E08093380208950E945308109266
:1010D00038020895882321F488E080933802089527
:1010E0000E9465080895EF92FF920F931F937B0172
:1010F0008C010E94E519C801B7010E94121A2D98AF
:101100002E988BE0809338021F910F91FF90EF9003
:101110000895882339F485B1807285B985B18074CA
:1011200085B908952E9A2D9A0895DF93CF930F9243
:10113000CDB7DEB781E049830E9489084981442305
:1011400081F460E070E080E89FE30E94E51960E0D0
:1011500070E080E09FE30E94121A0F90CF91DF9120
:10116000089560E070E080E09FE30E94E51960E090
:1011700070E080E89FE30E94121A0F90CF91DF91F8
:101180000895809138028A30B1F020913F0320FF0A
:101190000DC0809164029091650223FD04C00E94FD
:1011A000FD0B0E946A080E94620C08950E947E094D
:1011B00020913F03F2CF80913F0381FD11C08091C8
:1011C0005B028336A9F1882311F16091530270917B
:1011D000540280915502909156020E947308D5CF17
:1011E0002D982E986091530270915402809155026F
:1011F000909156020E94E519609157027091580231
:101200008091590290915A020E94121ABECF809189
:1012100052020E9489086091530270915402809199
:10122000550290915602409152020E949508ADCF0E
:101230000E946508AACF81E080934D0287B18F7C20
:1012400087B988B18F7C88B955985D980E94750ED2
:101250000E94890E8091280290912902A0912A0271
:10126000B0912B022091220230912302409124025E
:1012700050912502821B930BA40BB50B80932E0279
:1012800090932F02A0933002B093310280912C02F0
:1012900090912D022091260230912702821B930B00
:1012A0009093330280933202089520913B02309153
:1012B0003C0230933A022093390280917F02909150
:1012C0008002EFE7F2E052914291BC01641B750B82
:1012D000AB0170933C0260933B0260913F027091BE
:1012E000400270933E0260933D02421B530B5093A9
:1012F000400240933F0291838083089580917F0252
:101300009091800208952091500230915102809175
:101310007F0290918002281B390BC901089520910A
:1013200050023091510280917F0290918002821789
:10133000930758F02817390720F48FEF8093520253
:1013400008951092520280E0089581E08093520245
:10135000089580913B0290913C0290933A028093D1
:10136000390280917F029091800220917D0230911C
:101370007E02821B930B90933C0280933B02089564
:1013800080913F029091400290933E0280933D02F3
:1013900080913B0290913C022091390230913A02B7
:1013A000821B930B9093400280933F020895EF922B
:1013B000FF920F931F9360913202709133027695E2
:1013C0006795769567958091260290912702680F20
:1013D000791F80E090E00E9436217B018C016091B2
:1013E0007F027091800280E090E00E943621A80187
:1013F00097010E941B1EA80197010E94461F1F9182
:101400000F91FF90EF900895AF92BF92CF92DF922D
:10141000EF92FF920F931F93CF93DF93EC012091F4
:1014200028023091290240912A0250912B026091AA
:1014300022027091230280912402909125022617A6
:1014400037074807590714F4CA01B9010E948420DC
:101450005B016C0160912E0270912F02809130022D
:10146000909131020E9484207B018C0120912C02FA
:1014700030912D028091260290912702281739077A
:1014800008F4C9019E01281B390BC9016091320281
:10149000709133020E94972380E090E00E943621F1
:1014A0009B01AC01C801B7010E944C1E9B01AC011D
:1014B000C601B5010E94EE1DDF91CF911F910F91E2
:1014C000FF90EF90DF90CF90BF90AF900895809104
:1014D0007F02909180020E94040A0E94E4200895F5
:1014E00020E030E048EC52E40E944C1E0E94E420D0
:1014F0000895AF92BF92CF92DF92EF92FF920F9337
:101500001F937B018C01609132027091330280E065
:1015100090E00E9436215B016C01209128023091FD
:10152000290240912A0250912B028091220290912F
:101530002302A0912402B0912502281739074A07F7
:101540005B0714F4DA01C901A8019701281B390BC4
:101550004A0B5B0BCA01B90120912E0230912F0278
:1015600040913002509131020E94BE23CA01B9015C
:101570000E9484209B01AC01C601B5010E944C1E53
:101580007B018C0180912C0290912D0260912602AA
:10159000709127028617970708F4BC0180E090E05D
:1015A0000E9436219B01AC01C801B7010E94EE1DCB
:1015B0000E94781CCB011F910F91FF90EF90DF905C
:1015C000CF90BF90AF90089589E190E0909327026B
:1015D0008093260286EE93E090932D0280932C0256
:1015E00010922202109223021092240210922502DD
:1015F00080E395E7A0E0B0E0809328029093290271
:10160000A0932A02B0932B02089580912802909112
:101610002902A0912A02B0912B022091220230913E
:1016200023024091240250912502821B930BA40BAC
:10163000B50B80932E0290932F02A0933002B093AB
:10164000310280912C0290912D022091260230913E
:101650002702821B930B90933302809332020895EA
:1016600080912C0290912D02209126023091270228
:101670008217930708F49C01C901089580912802FC
:1016800090912902A0912A02B0912B02209122026E
:101690003091230240912402509125028217930732
:1016A000A407B50714F49C01AD01B901CA0108955E
:1016B00080912C0290912D022091260230912702D8
:1016C0002817390708F49C01C90108958091280260
:1016D00090912902A0912A02B0912B02209122021E
:1016E0003091230240912402509125022817390796
:1016F0004A075B0714F49C01AD01B901CA010895C2
:10170000E0912C02F0912D02609126027091270247
:10171000E617F70740F58091220290912302A091ED
:101720002402B09125022091280230912902409193
:101730002A0250912B0220932202309323024093DD
:10174000240250932502F0932702E093260280930F
:10175000280290932902A0932A02B0932B0270933F
:101760002D0260932C020895EF92FF920F931F9326
:10177000209128023091290240912A0250912B0297
:101780008091220290912302A0912402B09125021F
:101790007C018D01281739074A075B0714F479018A
:1017A0008A0100E010E0E816F9060A071B0701F1BC
:1017B0006091260270912702209322023093230227
:1017C000409324025093250220912C0230912D0247
:1017D00030932702209326028093280290932902B7
:1017E000A0932A02B0932B0270932D0260932C02D7
:1017F0001F910F91FF90EF900895CF93DF93EC012D
:1018000083E00E94E41784E00E94E41780915D0267
:101810008130A1F0823001F180912602909127025F
:10182000C817D90738F180912C0290912D028C179E
:101830009D0778F180E0DF91CF9108958091260295
:101840009091270207968C179D07E8F410925D028D
:1018500080E0DF91CF91089580912C0290912D022C
:101860000797C817D90790F384E00E94DD1780918D
:101870005D02E1CF83E00E94DD1781E080935D028D
:10188000DF91CF91089583E00E94DD1780915D0282
:10189000D2CF84E00E94DD1782E080935D02DF9169
:1018A000CF91089520910301309104012817390741
:1018B00038F02617370710F080E0089582E0089589
:1018C00081E00895EF92FF920F931F93CF93DF93E0
:1018D00080914D028823F9F4609150027091510279
:1018E000C0917F02D09180026C177D0719F1809121
:1018F0005C02823039F18330F1F180914E02909197
:101900004F028617970778F46C177D0720F482E062
:1019100080935C0201C080E0DF91CF911F910F9115
:10192000FF90EF900895C617D707A8F783E080933C
:101930005C02F2CF81E0DF91CF911F910F91FF9078
:10194000EF90089580E090E00E9436217B018C01A9
:101950002DEC3CEC4CEC5DE30E944C1E9B01AC0179
:10196000C801B7010E941B1E0E94781CC617D7072A
:10197000C8F082E0D1CF80E090E00E9436217B0168
:101980008C012DEC3CEC4CEC5DE30E944C1E9B0169
:10199000AC01C801B7010E94EE1D0E94781C6C17B3
:1019A0007D0750F410925C0280E0DF91CF911F918F
:1019B0000F91FF90EF90089583E0AECF1F920F92AA
:1019C0000FB60F9211242F933F938F939F9383B160
:1019D000282F2870382F307180916C02882369F489
:1019E000222359F03323B1F0809164029091650273
:1019F0000196909365028093640220936C02309369
:101A00006D029F918F913F912F910F900FBE0F907C
:101A10001F901895809164029091650201979093B0
:101A2000650280936402E9CF84B1837E84B9EAE6DB
:101A3000F0E0808188618083E8E6F0E08081816069
:101A400080830895EAE6F0E08081877E8083E8E67F
:101A5000F0E080818E7F80830895EF92FF920F9354
:101A60001F93CF93DF93C0916402D0916502809160
:101A70005E0290915F029E01281B390B82E390E089
:101A8000289FB001299F700D389F700D112470930D
:101A900067026093660280E090E00E9436217B013D
:101AA0008C0120916002309161024091620250915C
:101AB00063020E941B1E20E030E048E452E40E94D2
:101AC0004C1E609368027093690280936A0290933F
:101AD0006B02D0935F02C0935E02E0926002F092CC
:101AE00061020093620210936302DF91CF911F9114
:101AF0000F91FF90EF90089560E070E0CB010895A2
:101B00002091390330913A03C9016AE070E00E94E4
:101B1000AB23009771F0C90164E170E00E94AB2330
:101B2000009719F480913F0380FF08950E942D0DC6
:101B300008950E94C1080E94FA070E945509209149
:101B4000390330913A03E7CF1F920F920FB60F92ED
:101B50001124EF92FF920F931F932F933F934F9374
:101B60005F936F937F938F939F93AF93BF93CF9325
:101B7000DF93EF93FF9380918202982F9F5F909362
:101B800082028B3010F01092820280917800909146
:101B90007900D92F90E0C92FC80FD11D8091810203
:101BA000813009F463C0813008F450C0823069F597
:101BB000D0937C02C0937B02609175027091760293
:101BC00080917702909178022DEC3CEC4CE45FE33D
:101BD0000E944C1E7B018C01BE0180E090E00E94BF
:101BE00036212DEC3CEC4CE45EE30E944C1E9B0144
:101BF000AC01C801B7010E94EE1D6093750270939D
:101C0000760280937702909378021092810282E4A8
:101C100080937C0080917A00806480937A00FF91A9
:101C2000EF91DF91CF91BF91AF919F918F917F9174
:101C30006F915F914F913F912F911F910F91FF9065
:101C4000EF900F900FBE0F901F901895D0938002C9
:101C5000C0937F0281E08093810288E480937C00BE
:101C600080917A00806480937A00D9CFD0937A02F1
:101C7000C093790260917102709172028091730237
:101C8000909174022DEC3CEC4CE45FE30E944C1EFE
:101C90007B018C01BE0180E090E00E9436212DEC9A
:101CA0003CEC4CE45EE30E944C1E9B01AC01C8017D
:101CB000B7010E94EE1D60937102709372028093CF
:101CC00073029093740282E08093810289E480938E
:101CD0007C0080917A00806480937A00A0CFEAE74C
:101CE000F0E08081887F808308958BE980937A007B
:101CF000EEE7F0E0808184608083EFE7F0E08081B0
:101D00008360808380EA80937B0082E480937C0000
:101D1000089582E480937C00EAE7F0E080818064AB
:101D200080830895BC0180E090E00E9436212091DC
:101D300083023091840240918502509186020E9474
:101D40001B1E20910701309108014091090150911B
:101D50000A010E944C1E0895089588E480937C0037
:101D600080917A00806480937A0080917A0086FD69
:101D7000FCCF8091780090917900392F20E0280FD6
:101D8000311D30937A0220937902C901089589E4C4
:101D900080937C0080917A00806480937A008091A7
:101DA0007A0086FDFCCF8091780090917900392FE0
:101DB00020E0280F311D30937C0220937B02C90163
:101DC00008959093BF028093BE0208959093C1023C
:101DD0008093C0020895CF93DF93EDEEF0E0208171
:101DE0008295807F8083C1EFD0E03881CB01807EF7
:101DF000907096958795929582958F7089279F70A0
:101E00008927387F382BA0EFB0E08C91660F660FE2
:101E1000660F8770682B38836C93A5EFB0E08C91C8
:101E200087608C93A4EFB0E08C91886F8C932083B3
:101E3000DF91CF910895EDEEF0E090818295807F63
:101E40008083A5EFB0E08C91887F8C93A4EFB0E005
:101E50008C9187708C9390830895252F362FEDEE0B
:101E6000F0E050818295807F8083862F82958695D1
:101E70008770440F440F440F482BC901807E9F7127
:101E800096958795929582958F7089279F7089275F
:101E9000220F220F220F372F329536953770232BC2
:101EA000770F770F770F4093F3008093F200209322
:101EB000F1007093F00050830895FF920F931F93E9
:101EC000CF93DF93F82E8B01CA0160E00E94FF13CD
:101ED000C72FD82FC80160E00E94FF13272F382F8B
:101EE000EDEEF0E00081F294B0EFFB22F08243EFE0
:101EF00050E0DA016C918D2F829586958770687F0E
:101F0000682BCE01807E9F719695879592958295DC
:101F10008F7089279F708927A1EFB0E07C91FC2EFC
:101F2000FF0CFF0CFF0C7770F72AEA01688380939F
:101F3000F200FC92C7EFD0E04881832F829586950E
:101F40008770487F482BC901807E9F719695879541
:101F5000929582958F7089279F708927A5EFB0E0B1
:101F60005C91220F220F220F5770252B48838093FC
:101F7000F6002C930083DF91CF911F910F91FF907A
:101F80000895EDEEF0E090818295807F8083A7EF49
:101F9000B0E08C91887F8C93A6EFB0E08C911C927E
:101FA000A5EFB0E08C9187708C9390830895EDEE4F
:101FB000F0E090818295807F80836093F70070933A
:101FC000F6004093F5005093F40090830895EDEEF1
:101FD000F0E090818295807F80836093F70070931A
:101FE000F6004093F5005093F400908308951F93FA
:101FF000CF93DF93EDEEF0E01081382F3295307FF4
:102000003083CEEDD0E09881A1E0B0E002C0AA0F0D
:10201000BB1F8A95E2F79A2B988380813083609367
:10202000F7007093F6004093F5005093F40080831E
:1020300020692093EF00A8EDB0E08C9182608C9332
:102040001083DF91CF911F910895EF92FF920F932C
:102050001F93CF93DF9381E060E070E040E050E0B9
:1020600028E00E94F70F6091C20281E070E00E94B8
:10207000EB0E83E060E070E040E050E028E00E947A
:10208000F70FCDEED0E0988180E3888305EF10E074
:10209000F8018081887F808384EFE82EF12CF7019E
:1020A000808187708083988383E063E27CEF43E2E2
:1020B0005CEF0E945D0F85E060E070E040E050E082
:1020C00028E00E94F70F988180E58883F8018081DD
:1020D000887F8083F701808187708083988385E083
:1020E00060E07CEF40E05CEF0E945D0FDF91CF91FC
:1020F0001F910F91FF90EF900895EDEEF0E0908129
:102100008295807F80831092EF001092EE00908382
:102110000895FC014091F30050E02091F20080917D
:10212000F10090E0A091F000BA0176956795769560
:10213000679576956795608330E0220F331F22956F
:102140003295307F3227207F3227542F44275295F3
:10215000550F507E242B352BAC015695479556953F
:10216000479556954795242B352B328321838295AD
:10217000880F807EA695A695A695A82BA383089583
:10218000CF93DF93EC010E9489108091EF008F7054
:10219000282F220F9C81917E922B9C83482F50E008
:1021A0004115510559F0259620E030E09091FA0054
:1021B00099932F5F3F4F24173507C4F3DF91CF91D9
:1021C00008951F920F920FB60F9211242F933F93F1
:1021D0004F935F936F937F938F939F93AF93BF932F
:1021E000CF93EF93FF93C091ED004091EC004295A7
:1021F0004F704F3009F487C08091EC00807F80934E
:10220000ED008091EE0090E08F719070009709F4DE
:1022100040C08091EE0090E082FF05C02091EE006A
:102220002F7E2093EE009C01237030702115310524
:1022300029F02091EE00277F2093EE0081FF05C05A
:102240002091EE002B7F2093EE0080FF05C080914F
:10225000EE008D7F8093EE00453009F44BC0413095
:1022600009F448C0433009F445C0C093ED00FF9124
:10227000EF91CF91BF91AF919F918F917F916F918E
:102280005F914F913F912F910F900FBE0F901F9034
:1022900018958091EE0085FD13C08091EE0086FFB9
:1022A000E4CFE091C002F091C102309709F00995A6
:1022B00081E08093B5021092EF001092EE00D5CF2E
:1022C00081E08093B40285EA92E00E94C01085EA22
:1022D00092E00E947015882369F485EA92E00E94DA
:1022E0004117E091BE02F091BF02309719F085EAE4
:1022F00092E0099588E98093EF008091EE008F7D50
:102300008093EE00B2CF8091DA008093DA00AFCFF5
:10231000CF93DF93EB01982F9295907FF894909351
:10232000ED001092EE00488159816A817B810E9404
:102330002D0F8C8186958F7079F0FE01359680E0A7
:1023400090E021912093FA0001962C8126952F7020
:1023500030E082179307ACF38091F0008B7F80937D
:10236000F0008C8186958F7080658093EF00789463
:10237000DF91CF9108950E9488118091EE0086FF31
:10238000FCCF08952091F80030E04091F900942F9F
:1023900080E0282B392BC9010895CF93DF93EC01FE
:1023A0000E94C0108F70880F9C81917E982B9C8317
:1023B0008091F80090E04091F900342F20E0822BCA
:1023C000932B9E878D87DF91CF910895833061F0A5
:1023D000843030F08530D1F0853080F482E105C062
:1023E000813091F0823071F08EE08093E20084E0E1
:1023F0008093E30083E18093E40008958630A1F7A1
:1024000086E2F3CF86E0F1CF82E0EFCF8EE1EDCF31
:1024100091E09093D8001092E50090E0292F22954A
:10242000207F2093ED001092EF001092EE009F5F4E
:102430009630A1F790EA9093DB000E94E6110E948B
:1024400025108091D90082FFFCCF0895882351F494
:1024500082E08093E20084E08093E30083E1809354
:10246000E40008951092E2008CE08093E30086E39C
:102470008093E4000895882351F486E08093E2007D
:1024800084E08093E30083E18093E400089582E098
:102490008093E2008CE08093E30087E38093E40084
:1024A0000895882351F48EE08093E20084E08093C5
:1024B000E30083E18093E400089586E08093E200E6
:1024C0008CE08093E30087E38093E4000895882301
:1024D00051F482E18093E20084E08093E30083E1A1
:1024E0008093E400089588E08093E2008CE080937C
:1024F000E30087E38093E4000895882351F48EE19C
:102500008093E20084E08093E30083E18093E40021
:1025100008958EE08093E2008CE08093E30087E3EF
:102520008093E4000895882351F486E28093E200CA
:1025300084E08093E30083E18093E400089582E1E6
:102540008093E2008CE08093E30087E38093E400D3
:10255000089583E980937A00EEE7F0E08081886057
:10256000808380E880937B000895569840E050E097
:1025700020E030E0E3E4E0937C0080917A00806426
:1025800080937A0080917A0086FDFCCF809178005C
:1025900090E081709070BA016F70707002C0880F07
:1025A000991F6A95E2F7282B392B809179004F5FAC
:1025B0005F4F40315105F9F6569AC901089583E0FD
:1025C00060E070E040E050E028E00E94F70F83E018
:1025D0000E941B0F83E063E27CEF43E25CEF0E940A
:1025E0005D0F089583E980937A0080917E00886072
:1025F00080937E0080E880937B000E94B51290E07B
:102600009093C6028093C5028093C7020E94750E04
:102610008091C302882351F082E08093C30282E854
:102620008093CA0281E08093C402089581E0809380
:10263000CA020E94DF121092C2028091CA02806810
:102640008093CA0281E08093C4020895CF93DF9300
:10265000EC0183E29CEF0E94FF13688379838A83F5
:102660009B838091C2028D838091C3028E8380916F
:10267000C7028F838091CA0288878091CB028987A5
:10268000809143038A878C81807E8E608C83DF916A
:10269000CF91089581E08093CB024091C3024130F5
:1026A00059F18091C402882339F182E08093CB02F2
:1026B0008091C5029091C6029C0121503040309318
:1026C000C6022093C5020097B9F481E090E0909390
:1026D000C6028093C502442391F0423009F45AC0E7
:1026E000403239F1403809F447C0403431F080912C
:1026F000CB0280688093CB02089586E8FBCF83E00D
:102700008093CB0280E28093C30286E992E06091DD
:10271000C7020E94261380E066E972E00E948811D9
:102720008CE291E09093C9028093C8024091C30269
:10273000D4CF84E08093CB02F8942091ED001092E6
:10274000ED008091EE0086FF03C080E88093C30215
:102750008091C8029091C90201979093C902809319
:10276000C802009719F484E08093C3022093ED001F
:1027700078944091C302B6CF85E08093CB0281E08C
:102780008093C302F8940E94151C78948091CB0228
:102790008068B0CF87E08093CB0281E08093C30252
:1027A00086E992E06091C2020E94261380E066E909
:1027B00072E00E9488114091C30292CFCF93DF93C1
:1027C000EC0184E29CEF6091C2020E94FF136883D7
:1027D00079838A839B838091C2028D838C81807EE2
:1027E00082608C83DF91CF910895FC018581909167
:1027F000C202891718F08F5F8093C2020895262FB6
:1028000060E0782F892F922F0895382F262F872F59
:10281000942F632F722F0895862F0895872F089580
:10282000892F90E00895E1E0621773078407950708
:1028300009F0E0E08E2F089581E0621380E00895B2
:10284000932F272F382F692F742F81E026173707F2
:1028500009F080E0089581E0491380E008959093A5
:10286000D2028093D1020895CF93DF93EC0181E1EE
:102870009CEF6091C2020E94FF13688379838A8370
:102880009B8384E08D838091C2028E838091CC02F1
:102890008F838091CD0288878C81807E88608C8335
:1028A000DF91CF910895CF93DF93EC0182E19CEF0C
:1028B0006091C2020E94FF13688379838A839B839D
:1028C00084E08D8381E48E8381E08F839FE098870D
:1028D00089871A868C81807E8C608C83DF91CF9172
:1028E0000895CF93DF93EC0183E19CEF6091C202E6
:1028F0000E94FF13688379838A839B8384E08D839E
:1029000086E58E8388E78F838CE988878EED8987BB
:102910008C81807E8A608C83DF91CF910895CF93E4
:10292000DF93EC0184E19CEF6091C2020E94FF13EF
:10293000688379838A839B838091CE028D8390E024
:10294000DE0116969C01285F3F4FFC01E458FF4FC3
:10295000E491ED93019682179307B9F78C81807EFD
:1029600082618C83DF91CF9108958091D302813071
:10297000D9F0813028F0823009F1833059F0089580
:1029800086E992E00E94341482E066E972E00E94D7
:102990008811089586E992E00E948F1482E066E92A
:1029A00072E00E948811089586E992E00E94531413
:1029B00082E066E972E00E948811089586E992E05B
:1029C0000E94711482E066E972E00E948811089505
:1029D0008091CF0280FD59C081FD4CC082FD35C081
:1029E00083FD26C084FD1AC085FF0DC080910C01B7
:1029F00090910D019C012150304030930D012093A6
:102A00000C01009709F00895F8940E94B514809184
:102A1000CF028F7D8093CF0278940895F8940E941E
:102A20009E078091CF028F7E8093CF027894DCCF77
:102A3000F8940E94151C84E00E94DD178091CF025B
:102A4000877F8093CF027894CDCFF8940E946F1C3B
:102A500086E992E06091C2020E94261380E066E956
:102A600072E00E9488118091CF028B7F8093CF0209
:102A70007894B6CF82E066E972E00E948811809176
:102A8000CF028D7F8093CF02A9CF80E067E872E00C
:102A90000E9488118091CF028E7F8093CF029CCFBD
:102AA000CF93DF93EC0187E29CEF6091C2020E941A
:102AB000FF13688379838A839B8380913F038D838F
:102AC000809140038E83809141038F8380914203E4
:102AD00088878C81807E88608C83DF91CF91089578
:102AE000CF93DF93EC0185E190E06091C2020E94F8
:102AF000FF139B01AC01688179818A819B810E94CF
:102B00001314882339F0CE010E94311881E0DF913F
:102B1000CF91089585E190E06FEF0E94FF139B0134
:102B2000AC01688179818A819B810E94131488237A
:102B300051F780E19CEF60E00E94FF139B01AC0124
:102B4000688179818A819B810E942014882391F079
:102B50008091CF0280628093CF028D818093D302D7
:102B60008091C20280930C0110920D0181E0DF91EF
:102B7000CF91089582E29CEF6091C2020E94FF1300
:102B80009B01AC01688179818A819B810E94131429
:102B90008823F1F08D8184FF14C087E892E00E94C1
:102BA000501581E08093CF02E091D102F091D202E2
:102BB000309719F18D818F70099581E0DF91CF9168
:102BC0000895CE010E94341B88E08093CF02ECCFA1
:102BD00081E29CEF6091C2020E94FF139B01AC0155
:102BE000688179818A819B810E941314882339F03E
:102BF00088E08093CF0281E08ACF81E088CF81E2B4
:102C00009CEF6FEF0E94FF139B01AC0168817981FB
:102C10008A819B810E941314882351F785E29CEFDF
:102C20006091C2020E94FF139B01AC01688179810F
:102C30008A819B810E941314882349F586E29CEFC8
:102C40006091C2020E94FF139B01AC0168817981EF
:102C50008A819B810E941314882379F18C818E7163
:102C6000843059F63D8120E08E8190E0822B932BB9
:102C700022E18433920709F685E58093CA02109217
:102C8000C4021092C3020E94F21281E040CF81E0A0
:102C90008093C3028D818093C2028091CF028860AD
:102CA0008093CF0281E00E941B0F6091C20281E0FD
:102CB00070E00E94EB0E81E02ACF86E29CEF6FEF7E
:102CC0000E94FF139B01AC01688179818A819B81FD
:102CD0000E941314882311F683E29CEF60E00E94A7
:102CE000FF139B01AC01688179818A819B810E94DD
:102CF0002014882309F40BCF9D818091C20298177C
:102D000009F07BCF8091C302803241F0882309F023
:102D100074CFCE010E94F51381E0F9CE9091ED00C1
:102D200080E38093ED008091EF008F738093EF003C
:102D30009093ED001092C302CE010E94F51381E042
:102D4000E6CEEF92FF920F931F93CF93DF937B0119
:102D50008C01C0E0D0E0CE01880F991F8C0F9D1F21
:102D6000FC01EE0FFF1FEE0FFF1FE80FF91FEC52E3
:102D7000FD4F2081318142815381C801B7010E94FA
:102D80002014882361F42196C630D10521F78FEFF6
:102D9000DF91CF911F910F91FF90EF9008958C2FAD
:102DA000DF91CF911F910F91FF90EF900895282F01
:102DB000392FD901862F972FFC018FE001900D92BA
:102DC0008150E1F70895BC0180912E0390E09C01B1
:102DD000220F331F280F391FC901880F991F880F31
:102DE000991F820F931F8C529D4F0E94D71680917E
:102DF0002E038F5F80932E03863010F010922E03E7
:102E00000895CF93DF93EC01688179818A819B815A
:102E10000E94A1168F3FA9F090E09C01220F331F62
:102E2000280F391FC901880F991F880F991F820F1A
:102E3000931F8C529D4FBE010E94D716DF91CF91F8
:102E4000089580912E0390E09C01220F331F280FDC
:102E5000391FC901880F991F880F991F820F931F6F
:102E60008C529D4FBE010E94D71680912E038F5F1A
:102E700080932E03863010F310922E03DF91CF91B2
:102E800008952091420321FD03C00E940117089577
:102E90000E94E31608958091420381FF1BC0209198
:102EA0002F0380912E032817C9F0822F8F5F809304
:102EB0002F0330E0C901880F991F820F931F9C01D7
:102EC000220F331F220F331F280F391F2C523D4F63
:102ED000C901089520E030E0C901089510922F0340
:102EE00010922E0320E030E0F3CF90E0AC01440FCD
:102EF000551F480F591F9A01220F331F220F331FEE
:102F0000240F351F2C523D4FC90108950E944B17C5
:102F1000009719F02091420321FF08950E94A00319
:102F200008951092310310923003569A579A5E9882
:102F30005F980895833029F0843009F008955F9AEE
:102F400008955E9A0895833029F0843009F0089539
:102F50005F9808955E98089590913103992321F028
:102F6000923011F080E0089590911101292F2150A5
:102F7000209311019923B1F79AE0909311018823CE
:102F800079F0809110010E949A17809110018F5F53
:102F900080931001853078F081E0809310010895CE
:102FA000809110010E94A317809110018F5F809380
:102FB0001001853088F780E00895909131039111D8
:102FC00008950E949A1708959091310391110895E0
:102FD0000E94A3170895662319F40E94E417089528
:102FE0000E94DD17089590913103911108950E9478
:102FF000EB170895662339F087FF0EC05F9A86FDB0
:1030000007C05E98089583FF05C05F9A82FFF9CFDD
:103010005E9A08955F98FACF5F98F1CF909131034F
:10302000992311F0809130030E94FA17089590912E
:103030003103992319F0933009F0089590910E010E
:10304000992359F460E00E94FA1781E090910E01F3
:10305000911180E080930E01089561E00E94FA17BB
:10306000F4CFFC0195819F709093310386818F701E
:1030700080933003923081F0933039F0913009F031
:10308000089560E00E940E1808958091C202809316
:1030900030030E94171808950E94AC17089580917C
:1030A00031038230D9F0833049F0813009F008953E
:1030B0008091300360E00E940E18089580910F0106
:1030C000982F915090930F01882389F78AE080937D
:1030D0000F018091C2020E94171808958091300359
:1030E0000E94AC17813019F790913003992319F49D
:1030F00080933003089580E0FBCF2FB7F89490932E
:103100008900809388002FBF08952FB7F89490937B
:103110008B0080938A002FBF0895EF92FF920F9348
:103120001F937B018C012091120130E040E050E0C0
:1031300060E074E284EF90E00E94BE23CA01B9010E
:103140000E948420A80197010E94461F0E94781CBB
:10315000CB011F910F91FF90EF9008959093140170
:1031600080931301909387008093860008950F93B6
:103170001F93CF93DF939B01AC0160E074E284E77F
:103180009BE40E94461F8B01D82FC92F9E01712FEF
:10319000832F922F20E03FEF4FE757E40E94F41F68
:1031A00018160CF041C09E01602F712F832F922FB3
:1031B00020E030E040E05EE30E944C1E20E03FEF64
:1031C0004FE757E40E94F41F1816B4F59E01602FD4
:1031D000712F832F922F20E030E040E85CE30E94C3
:1031E0004C1E20E03FEF4FE757E40E94F41F1816F3
:1031F0004CF59E01602F712F832F922F20E030E03D
:1032000040E85BE30E944C1E20E03FEF4FE757E4AD
:103210000E94F41F18169CF420E034E0C901DF91ED
:10322000CF911F910F91089521E030E0C901DF9106
:10323000CF911F910F91089528E030E0EFCF20E06B
:1032400031E0ECCF20E430E0E9CF80349105D9F0D3
:103250008134910550F021E08030920781F024E024
:103260008030920751F08FEF08958130910549F039
:1032700088309105C1F782E0089585E0089584E0E3
:10328000089581E0089583E00895EF92FF920F93EF
:103290001F937B018C012091120130E040E050E04F
:1032A00060E074E284EF90E00E94BE23CA01B9019D
:1032B0000E948420A80197010E94461F0E94781C4A
:1032C00070931401609313017093870060938600DC
:1032D0001F910F91FF90EF900895EF92FF920F933F
:1032E0001F93CF93DF937B018C01C42FD22F411109
:1032F000529AD111399A80916400877E809364003C
:103300008FB7F89410928900109288008FBF8FB702
:10331000F89410928B0010928A008FBF20911201B6
:1033200030E040E050E060E074E284EF90E00E9422
:10333000BE23CA01B9010E948420A80197010E94FE
:10334000461F0E94781C70931401609313017093C0
:10335000870060938600CC23C1F482E0D1118062A3
:1033600080938000C801B7010E94B71880931201B2
:1033700090E00E942519886180938100DF91CF91B0
:103380001F910F91FF90EF90089582E8E7CF909101
:103390008000292F2068882321F4906C909380006E
:1033A0000895922F9F7B90938000089590918000C4
:1033B000292F2062882321F4906390938000089540
:1033C000922F9F7E909380000895EF92FF920F932B
:1033D0001F937B018C0120E030E0A9010E94542062
:1033E00087FF04C017FB109517F910956091130122
:1033F0007091140180E090E00E943621A8019701AD
:103400000E944C1E0E9432240E94781C8FB7F894B0
:1034100070938900609388008FBF1F910F91FF9078
:10342000EF900895EF92FF920F931F937B018C0111
:1034300020E030E0A9010E94542087FF04C017FB60
:10344000109517F91095609113017091140180E0A7
:1034500090E00E943621A80197010E944C1E0E9414
:1034600032240E94781C8FB7F89470938B0060937D
:103470008A008FBF1F910F91FF90EF9008959B01DD
:10348000AC01109233031092340310923503109262
:1034900036038091330390913403A0913503B091AA
:1034A000360382179307A407B50704F58091330309
:1034B00090913403A0913503B09136030196A11D7C
:1034C000B11D8093330390933403A0933503B093DD
:1034D00036038091330390913403A0913503B0916A
:1034E000360382179307A407B50704F308958FEFF7
:1034F00084B917B81DB88EEF85B918B81BB81EB8B7
:1035000010926400089582E084BD93E095BD9AEF27
:1035100097BD80936E0010923A031092390308957C
:1035200081E080933D03089510923D03089520911A
:10353000390330913A03C90165E070E00E94AB2382
:10354000009739F4C9016AE070E00E94AB2300974C
:1035500009F008950E944A138091390390913A032B
:1035600064E170E00E94AB23009799F70E94E81491
:103570008091390390913A0362E370E00E94AB239B
:10358000009739F70E944F1808951F920F920FB6B7
:103590000F9211242F933F934F935F936F937F93D9
:1035A0008F939F93AF93BF93EF93FF9380913E03CD
:1035B000882341F110923E0380913D03882349F115
:1035C00080913703909138039C012F5F3F4F3093D8
:1035D0003803209337036AE070E00E949723009736
:1035E00031F1FF91EF91BF91AF919F918F917F91B9
:1035F0006F915F914F913F912F910F900FBE0F9060
:103600001F90189581E080933E0380913D038823AD
:10361000B9F68091390390913A03019690933A0359
:10362000809339030E94971A0E94800DDACF10927E
:103630003803109237038091390390913A03019631
:1036400090933A03809339030E94800DCACF82E0A1
:1036500084BD93E095BD9AEF97BD80936E00109264
:103660003A03109239030895FC01968127818581E0
:103670008230D9F0833071F0813009F00895892FBC
:103680008095822B922320913F03922B8923809354
:103690003F030895892F8095822B92232091410327
:1036A000922B8923809341030895892F8095822B43
:1036B000922320914003922B892380934003089505
:1036C00010923F03109240031092410382E48093D2
:1036D00042031092C40280914303816080934303AC
:1036E0001092C30288E98093C20208958091430337
:1036F00080FD08950E94601B0E942A060895209173
:10370000C202F999FECF1FBA92BD81BD20BD0FB68E
:10371000F894FA9AF99A0FBE9C012F5F3F4FC901A6
:103720000895F999FECF92BD81BDF89A20B52093F6
:10373000C2029C012F5F3F4FC90108952091C3022F
:10374000F999FECF1FBA92BD81BD20BD0FB6F89486
:10375000FA9AF99A0FBE9C012F5F3F4FC901089555
:10376000F999FECF92BD81BDF89A20B52093C3028E
:103770009C012F5F3F4FC90108959C012F5F3F4F70
:1037800040913F034095F999FECF1FBA92BD81BD8C
:1037900040BD0FB6F894FA9AF99A0FBEC901019686
:1037A000409140034095F999FECF1FBA32BD21BD2B
:1037B00040BD0FB6F894FA9AF99A0FBE9C012F5F9C
:1037C0003F4F409141034095F999FECF1FBA92BDFA
:1037D00081BD40BD0FB6F894FA9AF99A0FBEC9019F
:1037E0000196409142034095F999FECF1FBA32BD30
:1037F00021BD40BD0FB6F894FA9AF99A0FBE9C010C
:103800002F5F3F4F409143034095F999FECF1FBA78
:1038100092BD81BD40BD0FB6F894FA9AF99A0FBED9
:1038200081E080931E02C901089581E090E00E942A
:103830007F1B0E949E1B0E94BD1B0895F8940E944E
:10384000151C089522E18433920711F080E0089559
:10385000809143038E7F80934303F8940E94151C4C
:10386000789481E008959C012F5F3F4FF999FECF36
:1038700092BD81BDF89A80B5809580933F03C901C0
:103880000196F999FECF32BD21BDF89A20B5209559
:10389000209340039C012F5F3F4FF999FECF92BDCB
:1038A00081BDF89A80B5809580934103C901019646
:1038B000F999FECF32BD21BDF89A20B5209520930D
:1038C00042039C012F5F3F4FF999FECF92BD81BD0E
:1038D000F89A80B5809580934303C901089581E0EB
:1038E00090E00E94911B0E94B01B0E94331C08951F
:1038F000EF92FF920F931F937B018C0120E030E049
:1039000040E05FE40E94242087FD11C0C801B70198
:1039100020E030E040E05FE40E941B1E0E94E420B3
:103920009B01AC01205030404040504806C0C801C7
:10393000B7010E94E4209B01AC01B901CA011F91AB
:103940000F91FF90EF900895A0E0B0E0EAEAFCE16B
:103950000C94FF23FC01EA018081823008F438C115
:10396000DB019C91923008F430C1843059F49430DA
:1039700009F02EC1918111968C911197981709F039
:1039800021C126C1943009F420C19230B1F48230B3
:1039900009F01EC1CA01AF0128E0DA010D90AD01A6
:1039A000DC010D92CD012150C1F7DB0111968C9104
:1039B00011979181892389830AC1823009F405C155
:1039C000C280D380DB0112966D907C901397248186
:1039D0003581468157811496ED90FD900D911C9193
:1039E0001797C601861997095C0197FF04C0AA249E
:1039F000BB24A81AB90AB0E2AB16B1040CF061C03E
:103A0000181619066CF5370148010A2C04C0969463
:103A10008794779467940A94D2F781E090E0A0E0CD
:103A2000B0E00A2C04C0880F991FAA1FBB1F0A947C
:103A3000D2F70197A109B1098E219F21A023B123BB
:103A4000EE24FF248701E3940097A105B10519F442
:103A5000EE24FF248701E628F728082919293CC00D
:103A60000097D1F1CA0CDB1C39014A010A2C04C0B1
:103A700096948794779467940A94D2F781E090E0C3
:103A8000A0E0B0E00A2C04C0880F991FAA1FBB1F3A
:103A90000A94D2F70197A109B10982239323A423A1
:103AA000B52321E030E040E050E00097A105B105EA
:103AB00019F420E030E0A90126293729482959299D
:103AC0000BC06C147D0424F4EE24FF24870104C091
:103AD000630120E030E0A9018181FB019181891718
:103AE00009F445C0882349F0D801C701821B930B14
:103AF000A40BB50B9C01AD0104C02E193F09400B6E
:103B0000510B57FD04C01982DB82CA820BC081E0D1
:103B10008983DB82CA8250954095309521953F4F2D
:103B20004F4F5F4F2C833D834E835F830DC0880FC3
:103B3000991FAA1FBB1F8C839D83AE83BF838A817D
:103B40009B8101979B838A838C819D81AE81BF81FC
:103B50009C01AD0121503040404050402F3FEFEFDD
:103B60003E07EFEF4E07EFE35E0708F30BC08983D4
:103B7000DB82CA822E0D3F1D401F511F2C833D83C7
:103B80004E835F8383E088832C813D814E815F81FA
:103B900057FF1DC0DA01C90181709070A070B0702C
:103BA0005695479537952795822B932BA42BB52BAC
:103BB0008C839D83AE83BF838A819B8101969B8387
:103BC0008A8305C0E5E1F1E003C0FB0101C0FE010D
:103BD000CF01CDB7DEB7EEE00C941B24A0E2B0E03D
:103BE000E4EFFDE10C94072469837A838B839C8343
:103BF0002D833E834F83588789E0E82EF12CEC0E0D
:103C0000FD1ECE010196B7010E94D5228E010F5EE6
:103C10001F4FCE010596B8010E94D522C701B801F9
:103C2000AE01475E5F4F0E94A41C0E940822A0962E
:103C3000E6E00C942324A0E2B0E0E1E2FEE10C9483
:103C4000072469837A838B839C832D833E834F83F0
:103C500058878E01075F1F4FCE010196B8010E9461
:103C6000D52291E1E92EF12CEC0EFD1ECE01059638
:103C7000B7010E94D5228A8991E089278A8BC801E1
:103C8000B701AE01475E5F4F0E94A41C0E9408224C
:103C9000A096E6E00C942324A0E2B0E0E2E5FEE189
:103CA0000C94FB2369837A838B839C832D833E83CF
:103CB0004F835887CE010196BE01675F7F4F0E94F8
:103CC000D522CE010596BE016F5E7F4F0E94D522A0
:103CD0009985923078F089898230C0F0943019F457
:103CE000823041F4CBC0843019F4923079F4C6C0EC
:103CF000923051F481E02A859A89291709F480E0ED
:103D00008A87CE010996BCC0823051F481E02A85B1
:103D10009A89291709F480E08A8BCE014196B0C0B8
:103D20006D847E848F849888ED88FE880F89188D35
:103D3000E0E2F0E080E090E0DC01AA24BB24650131
:103D400020E030E0A901B301617070706115710568
:103D5000D1F02E0D3F1D401F511F15012601280EC9
:103D6000391E4A1E5B1E81E090E0A0E0B0E02E15F7
:103D70003F054007510718F080E090E0DC01820D1C
:103D8000931DA41DB51DAA0CBB1CCC1CDD1C17FF6C
:103D900009C061E0262E312C412C512CA228B328D9
:103DA000C428D528319749F0EE0CFF1C001F111FC5
:103DB0009694879477946794C6CF6B897C89EB85BA
:103DC000FC856E0F7F1F6E5F7F4F7C8F6B8F61E076
:103DD000EA857A89E71709F460E06A8F6B8D7C8D3C
:103DE00010C0FC01E170F070309729F056954795AE
:103DF000379527955068B695A795979587956F5FE6
:103E00007F4FB7FDEECF0CC0880F991FAA1FBB1FB5
:103E100057FD8160220F331F441F551F61507040B2
:103E20008030E0E09E07E0E0AE07E0E4BE0760F32C
:103E30006B8F7C8F6FE7E62EF12C012D112DE82280
:103E4000F9220A231B2360E4E616F104010511059B
:103E500061F487FD0AC0211531054105510529F09E
:103E6000805C9F4FAF4FBF4F80788D8F9E8FAF8FFD
:103E7000B8A383E0898FCE01499602C085E191E025
:103E80000E940822A096E2E10C941724A8E1B0E079
:103E9000ECE4FFE10C94032469837A838B839C8395
:103EA0002D833E834F8358878E01075F1F4FCE01BE
:103EB0000196B8010E94D52281E1E82EF12CEC0E8A
:103EC000FD1ECE010596B7010E94D522998592303C
:103ED00008F483C08989823008F47BC02A853A8936
:103EE00023272A87943011F0923021F4981709F093
:103EF0006CC071C0843039F41D861E861F86188AF6
:103F00001C861B866AC0823019F484E0898765C0EC
:103F10008B859C852B893C89821B930B9C878B8787
:103F20002D853E854F855889ED88FE880F89188D2F
:103F30002E153F054007510738F4220F331F441F49
:103F4000551F01979C878B876FE170E0A12CB12CE6
:103F5000C12CA0E4DA2E80E090E0DC012E153F05B4
:103F60004007510740F08A299B29AC29BD292E1909
:103F70003F09400B510BD694C794B794A794220FD6
:103F8000331F441F551F6150704041F76FE7E62E05
:103F9000F12C012D112DE822F9220A231B2360E4C4
:103FA000E616F1040105110561F487FD0AC021152B
:103FB00031054105510529F0805C9F4FAF4FBF4F40
:103FC00080788D879E87AF87B88B8E01075F1F4FE4
:103FD00004C0870102C005E111E0C8010E94082267
:103FE0006896EAE00C941F24A8E1B0E0EAEFFFE154
:103FF0000C94072469837A838B839C832D833E836F
:104000004F8358878E01075F1F4FCE010196B8017D
:104010000E94D52281E1E82EF12CEC0EFD1ECE018E
:104020000596B7010E94D5228985823040F08989A2
:10403000823028F0C801B7010E943E2301C08FEFF3
:104040006896E6E00C942324A8E1B0E0EAE2F0E20E
:104050000C94072469837A838B839C832D833E830E
:104060004F8358878E01075F1F4FCE010196B8011D
:104070000E94D52281E1E82EF12CEC0EFD1ECE012E
:104080000596B7010E94D5228985823040F0898942
:10409000823028F0C801B7010E943E2301C08FEF93
:1040A0006896E6E00C942324A8E1B0E0EAE5F0E2AB
:1040B0000C94072469837A838B839C832D833E83AE
:1040C0004F8358878E01075F1F4FCE010196B801BD
:1040D0000E94D52281E1E82EF12CEC0EFD1ECE01CE
:1040E0000596B7010E94D5228985823040F08989E2
:1040F000823028F0C801B7010E943E2301C081E050
:104100006896E6E00C942324A8E0B0E0EAE8F0E248
:104110000C9407247B018C0183E08983D801C701BB
:104120008827B7FD83959927AA27BB27282F8A833D
:10413000E114F1040105110519F482E0898337C007
:104140008EE190E09C838B83222389F080E0E81647
:1041500080E0F80680E0080780E8180769F110950C
:104160000095F094E094E11CF11C011D111DED82FD
:10417000FE820F831887C801B7010E94AE219C01FF
:10418000215030401216130694F4022E04C0EE0C97
:10419000FF1C001F111F0A94D2F7ED82FE820F83CD
:1041A00018878EE190E0821B930B9C838B83CE015A
:1041B00001960E94082204C060E070E080E09FEC5D
:1041C0002896E6E00C942324ACE0B0E0EAEEF0E2BE
:1041D0000C940B2469837A838B839C83CE01019694
:1041E000BE016B5F7F4F0E94D5228D81823081F1AD
:1041F000823070F1843021F48E81882369F10AC005
:104200002F81388537FD24C06E812F3131053CF078
:10421000662311F120E030E040E050E821C08EE15B
:1042200090E0821B930B29853A854B855C8504C001
:1042300056954795379527958A95D2F7662381F04D
:1042400050954095309521953F4F4F4F5F4F08C097
:1042500020E030E0A90104C02FEF3FEF4FEF5FE710
:10426000B901CA012C96E2E00C942724A8E0B0E042
:10427000ECE3F1E20C9405247B018C011A826115B8
:1042800071058105910519F482E089835FC083E09F
:1042900089838EE1C82ED12CDC82CB82ED82FE8216
:1042A0000F831887C801B7010E94AE21FC01319726
:1042B000F7FF3AC0AA27BB27AE1BBF0B21E030E0B7
:1042C00040E050E00A2E04C0220F331F441F551F48
:1042D0000A94D2F721503040404050402E213F21D7
:1042E0004023512361E070E080E090E0211531052A
:1042F0004105510519F460E070E0CB0104C016954A
:104300000795F794E794AA95D2F7E62AF72A082B9F
:10431000192BED82FE820F8318878EE190E08E1BB1
:104320009F0B9C838B8312C0309781F00E2E04C0AC
:10433000EE0CFF1C001F111F0A94D2F7ED82FE82C3
:104340000F831887CE1ADF0ADC82CB82CE0101965A
:104350000E9408222896E8E00C942124AF92BF9294
:10436000CF92DF92EF92FF920F931F937B018C010C
:1043700080E0E81680E0F80681E0080780E0180792
:1043800058F4EFEFEE16F1040105110509F090F471
:1043900080E090E0DC0117C0F0E0EF16F0E0FF06EF
:1043A000F0E00F07F1E01F0750F480E190E0A0E09B
:1043B000B0E009C088E090E0A0E0B0E004C088E18F
:1043C00090E0A0E0B0E020E230E040E050E0281BC8
:1043D000390B4A0B5B0B5701680104C0D694C79494
:1043E000B794A7948A95D2F7D601C501835E9E4FF4
:1043F000FC018081281B310941095109C9011F9124
:104400000F91FF90EF90DF90CF90BF90AF90089505
:10441000EF92FF920F931F93CF93DF93FC012481C0
:1044200035814681578161818081823020F44061ED
:10443000EFEFF0E0A3C0843009F49BC0823009F4B0
:1044400092C0211531054105510509F48FC0028044
:10445000F381E02D7FEFE238F7070CF05AC0C2E895
:10446000DFEFCE1BDF0BCA31D1056CF579018A0174
:104470000C2E04C016950795F794E7940A94D2F78A
:1044800081E090E0A0E0B0E00C2E04C0880F991FFE
:10449000AA1FBB1F0A94D2F70197A109B109822371
:1044A0009323A423B52321E030E040E050E00097BF
:1044B000A105B10519F420E030E0A9012E293F291A
:1044C000402B512B03C020E030E0A901DA01C901E3
:1044D0008F779070A070B07080349105A105B10500
:1044E00039F427FF09C0205C3F4F4F4F5F4F04C096
:1044F000215C3F4F4F4F5F4FE1E0F0E0203080E024
:10450000380780E0480780E4580728F5E0E0F0E04D
:1045100022C0E038F1056CF5E158FF4FDA01C9011E
:104520008F779070A070B07080349105A105B105AF
:1045300039F427FF09C0205C3F4F4F4F5F4F04C045
:10454000215C3F4F4F4F5F4F57FF05C05695479532
:1045500037952795319687E0569547953795279556
:104560008A95D1F70BC0E0E0F0E005C0E0E0F0E0B4
:1045700005C0EFEFF0E020E030E0A9018E2F879535
:1045800088278795942F9F77679566276795E69587
:10459000A92FA82BFE2FF62B622F732F8A2F9F2F68
:1045A000CDB7DEB7E6E00C942324DC01FB012C91AF
:1045B00011963C91119712968C911297482F4F7734
:1045C00050E0982F991F9927991F13966C91139774
:1045D000862F880F892B90E0661F6627661F6183F0
:1045E000009739F5211531054105510511F482E097
:1045F00029C082E89FEF9383828367E0220F331FF5
:10460000441F551F6A95D1F783E0808309C0220FAC
:10461000331F441F551F82819381019793838283A7
:10462000203080E0380780E0480780E4580778F3BE
:1046300020C08F3F910579F42115310541055105C1
:1046400019F484E08083089544FF03C081E08083EF
:1046500010C010820EC08F5790409383828383E0F6
:10466000808387E0220F331F441F551F8A95D1F79F
:10467000506424833583468357830895FC01DB010E
:104680009081923008F449C08C91823008F445C082
:10469000943051F461818430B1F511962C911197C9
:1046A00030E0261B310941C0843021F0923041F4C2
:1046B0008230B1F111968C9111978823A1F12DC010
:1046C0006181823001F111968C9111976817D9F4AC
:1046D0002281338112968D919C91139782179307B3
:1046E00094F028173907BCF0248135814681578121
:1046F00014968D919D910D90BC91A02D82179307DA
:10470000A407B50718F4662341F00DC02817390730
:104710004A075B0728F4662331F021E030E005C04A
:1047200020E030E002C02FEF3FEFC9010895AA1B3F
:10473000BB1B51E107C0AA1FBB1FA617B70710F08C
:10474000A61BB70B881F991F5A95A9F780959095BE
:10475000BC01CD01089597FB092E07260AD077FDED
:1047600004D0E5DF06D000201AF4709561957F4FE4
:104770000895F6F7909581959F4F089597FB092E20
:1047800005260ED057FD04D014D00AD0001C38F4F2
:1047900050954095309521953F4F4F4F5F4F08956D
:1047A000F6F790958095709561957F4F8F4F9F4F4D
:1047B0000895A1E21A2EAA1BBB1BFD010DC0AA1F62
:1047C000BB1FEE1FFF1FA217B307E407F50720F07A
:1047D000A21BB30BE40BF50B661F771F881F991FF5
:1047E0001A9469F760957095809590959B01AC013E
:1047F000BD01CF0108952F923F924F925F926F9229
:104800007F928F929F92AF92BF92CF92DF92EF9260
:10481000FF920F931F93CF93DF93CDB7DEB7CA1BE1
:10482000DB0B0FB6F894DEBF0FBECDBF09942A880C
:10483000398848885F846E847D848C849B84AA84B4
:10484000B984C884DF80EE80FD800C811B81AA8141
:10485000B981CE0FD11D0FB6F894DEBF0FBECDBF0C
:10486000ED0108953BD080F09F3740F491110EF494
:104870004DC060E070E080E89FE3089526F01B16CD
:10488000611D711D811D01C01BC0882371F4772338
:1048900021F09850872B762F07C0662311F49927B3
:1048A0000DC09051862B70E060E02AF09A95660F5B
:1048B000771F881FDAF7880F9695879597F90895DF
:1048C0009F3F31F0915020F4879577956795B79584
:1048D000880F911D9695879597F9089545D0A0F07A
:1048E000BEE7B91788F4BB279F3860F41616B11DD0
:1048F000672F782F8827985FF7CF869577956795EC
:10490000B11D93959639C8F30895E894BB2766279F
:104910007727CB0197F9089527D0E0F09E37D8F09C
:104920009639B8F49E3848F4672F782F8827985F17
:10493000F9CF86957795679593959539D0F3B62FEE
:10494000B1706B0F711D811D20F487957795679568
:1049500093959BCFB5CFDACF57FD9058440F551F95
:1049600059F05F3F71F04795880F97FB991F61F0F1
:104970009F3F79F087950895121613061406551F68
:10498000F2CF4695F1DF08C0161617061806991FD4
:10499000F1CF86957105610508940895F894FFCFCD
:1049A00004FF03FF0301000000803FFFFFFF010140
:1049B000010A01FFFF0000000000000000000102EA
:1049C00002030303030404040404040404050505AA
:1049D0000505050505050505050505050506060684
:1049E0000606060606060606060606060606060667
:1049F0000606060606060606060606060607070754
:104A00000707070707070707070707070707070736
:104A10000707070707070707070707070707070726
:104A20000707070707070707070707070707070716
:104A30000707070707070707070707070708080803
:104A400008080808080808080808080808080808E6
:104A500008080808080808080808080808080808D6
:104A600008080808080808080808080808080808C6
:104A700008080808080808080808080808080808B6
:104A800008080808080808080808080808080808A6
:104A90000808080808080808080808080808080896
:104AA0000808080808080808080808080808080886
:0E4AB000080808080808080808080808080090
:00000001FF
